{
	"data": {
		"bytecode": {
			"linkReferences": {},
			"object": "60806040523480156200001157600080fd5b5060405162002545380380620025458339818101604052810190620000379190620002b2565b620000576200004b620001cf60201b60201c565b620001d760201b60201c565b84600160006101000a81548173ffffffffffffffffffffffffffffffffffffffff021916908373ffffffffffffffffffffffffffffffffffffffff16021790555083600260006101000a81548173ffffffffffffffffffffffffffffffffffffffff021916908373ffffffffffffffffffffffffffffffffffffffff16021790555082600360006101000a81548173ffffffffffffffffffffffffffffffffffffffff021916908373ffffffffffffffffffffffffffffffffffffffff16021790555060006009819055506000600a8190555081600b60006101000a81548173ffffffffffffffffffffffffffffffffffffffff021916908373ffffffffffffffffffffffffffffffffffffffff16021790555080600c60006101000a81548173ffffffffffffffffffffffffffffffffffffffff021916908373ffffffffffffffffffffffffffffffffffffffff16021790555060006007819055506000600881905550600060068190555050505050506200038d565b600033905090565b60008060009054906101000a900473ffffffffffffffffffffffffffffffffffffffff169050816000806101000a81548173ffffffffffffffffffffffffffffffffffffffff021916908373ffffffffffffffffffffffffffffffffffffffff1602179055508173ffffffffffffffffffffffffffffffffffffffff168173ffffffffffffffffffffffffffffffffffffffff167f8be0079c531659141344cd1fd0a4f28419497f9722a3daafe3b4186f6b6457e060405160405180910390a35050565b600081519050620002ac8162000373565b92915050565b600080600080600060a08688031215620002d157620002d06200036e565b5b6000620002e1888289016200029b565b9550506020620002f4888289016200029b565b945050604062000307888289016200029b565b93505060606200031a888289016200029b565b92505060806200032d888289016200029b565b9150509295509295909350565b600062000347826200034e565b9050919050565b600073ffffffffffffffffffffffffffffffffffffffff82169050919050565b600080fd5b6200037e816200033a565b81146200038a57600080fd5b50565b6121a8806200039d6000396000f3fe6080604052600436106100915760003560e01c8063715018a611610059578063715018a61461014f5780638da5cb5b14610166578063bcd7598914610191578063db006a75146101bc578063f2fde38b146101d857610091565b80630cdd53f6146100965780630fc63d10146100b25780630fe2abcf146100dd57806343cd8f7e146100f95780635f64b55b14610124575b600080fd5b6100b060048036038101906100ab919061176d565b610201565b005b3480156100be57600080fd5b506100c76107b0565b6040516100d49190611992565b60405180910390f35b6100f760048036038101906100f2919061172d565b6107d6565b005b34801561010557600080fd5b5061010e610e39565b60405161011b9190611992565b60405180910390f35b34801561013057600080fd5b50610139610e5f565b6040516101469190611992565b60405180910390f35b34801561015b57600080fd5b50610164610e85565b005b34801561017257600080fd5b5061017b610e99565b6040516101889190611992565b60405180910390f35b34801561019d57600080fd5b506101a6610ec2565b6040516101b39190611bd6565b60405180910390f35b6101d660048036038101906101d191906116d3565b610ec8565b005b3480156101e457600080fd5b506101ff60048036038101906101fa9190611679565b611457565b005b6000600290506000600190506000828561021b9190611c89565b90506000828561022b9190611c89565b905080821461026f576040517f08c379a000000000000000000000000000000000000000000000000000000000815260040161026690611ab6565b60405180910390fd5b85600160009054906101000a900473ffffffffffffffffffffffffffffffffffffffff1673ffffffffffffffffffffffffffffffffffffffff1663dd62ed3e33306040518363ffffffff1660e01b81526004016102cd9291906119ad565b60206040518083038186803b1580156102e557600080fd5b505afa1580156102f9573d6000803e3d6000fd5b505050506040513d601f19601f8201168201806040525081019061031d9190611700565b101561035e576040517f08c379a000000000000000000000000000000000000000000000000000000000815260040161035590611ad6565b60405180910390fd5b84600260009054906101000a900473ffffffffffffffffffffffffffffffffffffffff1673ffffffffffffffffffffffffffffffffffffffff1663dd62ed3e33306040518363ffffffff1660e01b81526004016103bc9291906119ad565b60206040518083038186803b1580156103d457600080fd5b505afa1580156103e8573d6000803e3d6000fd5b505050506040513d601f19601f8201168201806040525081019061040c9190611700565b101561044d576040517f08c379a000000000000000000000000000000000000000000000000000000000815260040161044490611a36565b60405180910390fd5b600160009054906101000a900473ffffffffffffffffffffffffffffffffffffffff1673ffffffffffffffffffffffffffffffffffffffff166323b872dd3330896040518463ffffffff1660e01b81526004016104ac939291906119d6565b602060405180830381600087803b1580156104c657600080fd5b505af11580156104da573d6000803e3d6000fd5b505050506040513d601f19601f820116820180604052508101906104fe91906116a6565b50600260009054906101000a900473ffffffffffffffffffffffffffffffffffffffff1673ffffffffffffffffffffffffffffffffffffffff166323b872dd3330886040518463ffffffff1660e01b815260040161055e939291906119d6565b602060405180830381600087803b15801561057857600080fd5b505af115801561058c573d6000803e3d6000fd5b505050506040513d601f19601f820116820180604052508101906105b091906116a6565b50600360009054906101000a900473ffffffffffffffffffffffffffffffffffffffff1673ffffffffffffffffffffffffffffffffffffffff166323b872dd6105f7610e99565b336002866106059190611c89565b6040518463ffffffff1660e01b8152600401610623939291906119d6565b602060405180830381600087803b15801561063d57600080fd5b505af1158015610651573d6000803e3d6000fd5b505050506040513d601f19601f8201168201806040525081019061067591906116a6565b506002826106839190611c89565b600460003373ffffffffffffffffffffffffffffffffffffffff1673ffffffffffffffffffffffffffffffffffffffff16815260200190815260200160002060008282546106d19190611c02565b925050819055506005339080600181540180825580915050600190039060005260206000200160009091909190916101000a81548173ffffffffffffffffffffffffffffffffffffffff021916908373ffffffffffffffffffffffffffffffffffffffff160217905550856009600082825461074d9190611c02565b9250508190555084600a60008282546107669190611c02565b92505081905550600a5460095461077d9190611c89565b6006819055506002826107909190611c89565b600760008282546107a19190611c02565b92505081905550505050505050565b600160009054906101000a900473ffffffffffffffffffffffffffffffffffffffff1681565b600160009054906101000a900473ffffffffffffffffffffffffffffffffffffffff1673ffffffffffffffffffffffffffffffffffffffff168173ffffffffffffffffffffffffffffffffffffffff16148061087f5750600260009054906101000a900473ffffffffffffffffffffffffffffffffffffffff1673ffffffffffffffffffffffffffffffffffffffff168173ffffffffffffffffffffffffffffffffffffffff16145b6108be576040517f08c379a00000000000000000000000000000000000000000000000000000000081526004016108b590611af6565b60405180910390fd5b818173ffffffffffffffffffffffffffffffffffffffff1663dd62ed3e33306040518363ffffffff1660e01b81526004016108fa9291906119ad565b60206040518083038186803b15801561091257600080fd5b505afa158015610926573d6000803e3d6000fd5b505050506040513d601f19601f8201168201806040525081019061094a9190611700565b101561098b576040517f08c379a000000000000000000000000000000000000000000000000000000000815260040161098290611b36565b60405180910390fd5b6000606460618461099c9190611c89565b6109a69190611c58565b9050600081846109b69190611ce3565b905080600860008282546109ca9190611c02565b92505081905550600160009054906101000a900473ffffffffffffffffffffffffffffffffffffffff1673ffffffffffffffffffffffffffffffffffffffff168373ffffffffffffffffffffffffffffffffffffffff161415610c2f57600082600954610a379190611c02565b600a5484610a459190611c89565b610a4f9190611c58565b9050600a548110610a95576040517f08c379a0000000000000000000000000000000000000000000000000000000008152600401610a8c90611b96565b60405180910390fd5b600160009054906101000a900473ffffffffffffffffffffffffffffffffffffffff1673ffffffffffffffffffffffffffffffffffffffff166323b872dd3330886040518463ffffffff1660e01b8152600401610af4939291906119d6565b602060405180830381600087803b158015610b0e57600080fd5b505af1158015610b22573d6000803e3d6000fd5b505050506040513d601f19601f82011682018060405250810190610b4691906116a6565b50600260009054906101000a900473ffffffffffffffffffffffffffffffffffffffff1673ffffffffffffffffffffffffffffffffffffffff1663a9059cbb33836040518363ffffffff1660e01b8152600401610ba4929190611a0d565b602060405180830381600087803b158015610bbe57600080fd5b505af1158015610bd2573d6000803e3d6000fd5b505050506040513d601f19601f82011682018060405250810190610bf691906116a6565b508460096000828254610c099190611c02565b9250508190555080600a6000828254610c229190611ce3565b9250508190555050610e33565b600082600a54610c3f9190611c02565b60095484610c4d9190611c89565b610c579190611c58565b90506009548110610c9d576040517f08c379a0000000000000000000000000000000000000000000000000000000008152600401610c9490611b96565b60405180910390fd5b600260009054906101000a900473ffffffffffffffffffffffffffffffffffffffff1673ffffffffffffffffffffffffffffffffffffffff166323b872dd3330886040518463ffffffff1660e01b8152600401610cfc939291906119d6565b602060405180830381600087803b158015610d1657600080fd5b505af1158015610d2a573d6000803e3d6000fd5b505050506040513d601f19601f82011682018060405250810190610d4e91906116a6565b50600160009054906101000a900473ffffffffffffffffffffffffffffffffffffffff1673ffffffffffffffffffffffffffffffffffffffff1663a9059cbb33836040518363ffffffff1660e01b8152600401610dac929190611a0d565b602060405180830381600087803b158015610dc657600080fd5b505af1158015610dda573d6000803e3d6000fd5b505050506040513d601f19601f82011682018060405250810190610dfe91906116a6565b508060096000828254610e119190611ce3565b9250508190555084600a6000828254610e2a9190611c02565b92505081905550505b50505050565b600360009054906101000a900473ffffffffffffffffffffffffffffffffffffffff1681565b600260009054906101000a900473ffffffffffffffffffffffffffffffffffffffff1681565b610e8d6114db565b610e976000611559565b565b60008060009054906101000a900473ffffffffffffffffffffffffffffffffffffffff16905090565b60075481565b80600360009054906101000a900473ffffffffffffffffffffffffffffffffffffffff1673ffffffffffffffffffffffffffffffffffffffff1663dd62ed3e33306040518363ffffffff1660e01b8152600401610f269291906119ad565b60206040518083038186803b158015610f3e57600080fd5b505afa158015610f52573d6000803e3d6000fd5b505050506040513d601f19601f82011682018060405250810190610f769190611700565b1015610fb7576040517f08c379a0000000000000000000000000000000000000000000000000000000008152600401610fae90611b56565b60405180910390fd5b80600460003373ffffffffffffffffffffffffffffffffffffffff1673ffffffffffffffffffffffffffffffffffffffff168152602001908152602001600020541015611039576040517f08c379a000000000000000000000000000000000000000000000000000000000815260040161103090611a76565b60405180910390fd5b6000600754826110499190611c58565b9050600060029050600060019050600081600a546110679190611c89565b836009546110759190611c89565b61107f9190611c02565b8461108a9190611c89565b9050846007600082825461109e9190611ce3565b9250508190555084600460003373ffffffffffffffffffffffffffffffffffffffff1673ffffffffffffffffffffffffffffffffffffffff16815260200190815260200160002060008282546110f49190611ce3565b92505081905550600083600261110a9190611c89565b826111159190611c58565b905060008360026111269190611c89565b836111319190611c58565b905081600960008282546111459190611ce3565b9250508190555080600a600082825461115e9190611ce3565b92505081905550600360009054906101000a900473ffffffffffffffffffffffffffffffffffffffff1673ffffffffffffffffffffffffffffffffffffffff166323b872dd336111ac610e99565b8a6040518463ffffffff1660e01b81526004016111cb939291906119d6565b602060405180830381600087803b1580156111e557600080fd5b505af11580156111f9573d6000803e3d6000fd5b505050506040513d601f19601f8201168201806040525081019061121d91906116a6565b61125c576040517f08c379a000000000000000000000000000000000000000000000000000000000815260040161125390611a56565b60405180910390fd5b600160009054906101000a900473ffffffffffffffffffffffffffffffffffffffff1673ffffffffffffffffffffffffffffffffffffffff1663a9059cbb33846040518363ffffffff1660e01b81526004016112b9929190611a0d565b602060405180830381600087803b1580156112d357600080fd5b505af11580156112e7573d6000803e3d6000fd5b505050506040513d601f19601f8201168201806040525081019061130b91906116a6565b61134a576040517f08c379a000000000000000000000000000000000000000000000000000000000815260040161134190611bb6565b60405180910390fd5b600260009054906101000a900473ffffffffffffffffffffffffffffffffffffffff1673ffffffffffffffffffffffffffffffffffffffff1663a9059cbb33836040518363ffffffff1660e01b81526004016113a7929190611a0d565b602060405180830381600087803b1580156113c157600080fd5b505af11580156113d5573d6000803e3d6000fd5b505050506040513d601f19601f820116820180604052508101906113f991906116a6565b611438576040517f08c379a000000000000000000000000000000000000000000000000000000000815260040161142f90611b76565b60405180910390fd5b600a546009546114489190611c89565b60068190555050505050505050565b61145f6114db565b600073ffffffffffffffffffffffffffffffffffffffff168173ffffffffffffffffffffffffffffffffffffffff1614156114cf576040517f08c379a00000000000000000000000000000000000000000000000000000000081526004016114c690611a96565b60405180910390fd5b6114d881611559565b50565b6114e361161d565b73ffffffffffffffffffffffffffffffffffffffff16611501610e99565b73ffffffffffffffffffffffffffffffffffffffff1614611557576040517f08c379a000000000000000000000000000000000000000000000000000000000815260040161154e90611b16565b60405180910390fd5b565b60008060009054906101000a900473ffffffffffffffffffffffffffffffffffffffff169050816000806101000a81548173ffffffffffffffffffffffffffffffffffffffff021916908373ffffffffffffffffffffffffffffffffffffffff1602179055508173ffffffffffffffffffffffffffffffffffffffff168173ffffffffffffffffffffffffffffffffffffffff167f8be0079c531659141344cd1fd0a4f28419497f9722a3daafe3b4186f6b6457e060405160405180910390a35050565b600033905090565b6000813590506116348161212d565b92915050565b60008151905061164981612144565b92915050565b60008135905061165e8161215b565b92915050565b6000815190506116738161215b565b92915050565b60006020828403121561168f5761168e611dbd565b5b600061169d84828501611625565b91505092915050565b6000602082840312156116bc576116bb611dbd565b5b60006116ca8482850161163a565b91505092915050565b6000602082840312156116e9576116e8611dbd565b5b60006116f78482850161164f565b91505092915050565b60006020828403121561171657611715611dbd565b5b600061172484828501611664565b91505092915050565b6000806040838503121561174457611743611dbd565b5b60006117528582860161164f565b925050602061176385828601611625565b9150509250929050565b6000806040838503121561178457611783611dbd565b5b60006117928582860161164f565b92505060206117a38582860161164f565b9150509250929050565b6117b681611d17565b82525050565b60006117c9602583611bf1565b91506117d482611dc2565b604082019050919050565b60006117ec601f83611bf1565b91506117f782611e11565b602082019050919050565b600061180f603083611bf1565b915061181a82611e3a565b604082019050919050565b6000611832602683611bf1565b915061183d82611e89565b604082019050919050565b6000611855603183611bf1565b915061186082611ed8565b604082019050919050565b6000611878602583611bf1565b915061188382611f27565b604082019050919050565b600061189b602383611bf1565b91506118a682611f76565b604082019050919050565b60006118be602083611bf1565b91506118c982611fc5565b602082019050919050565b60006118e1602383611bf1565b91506118ec82611fee565b604082019050919050565b6000611904603b83611bf1565b915061190f8261203d565b604082019050919050565b6000611927601483611bf1565b91506119328261208c565b602082019050919050565b600061194a602783611bf1565b9150611955826120b5565b604082019050919050565b600061196d601483611bf1565b915061197882612104565b602082019050919050565b61198c81611d55565b82525050565b60006020820190506119a760008301846117ad565b92915050565b60006040820190506119c260008301856117ad565b6119cf60208301846117ad565b9392505050565b60006060820190506119eb60008301866117ad565b6119f860208301856117ad565b611a056040830184611983565b949350505050565b6000604082019050611a2260008301856117ad565b611a2f6020830184611983565b9392505050565b60006020820190508181036000830152611a4f816117bc565b9050919050565b60006020820190508181036000830152611a6f816117df565b9050919050565b60006020820190508181036000830152611a8f81611802565b9050919050565b60006020820190508181036000830152611aaf81611825565b9050919050565b60006020820190508181036000830152611acf81611848565b9050919050565b60006020820190508181036000830152611aef8161186b565b9050919050565b60006020820190508181036000830152611b0f8161188e565b9050919050565b60006020820190508181036000830152611b2f816118b1565b9050919050565b60006020820190508181036000830152611b4f816118d4565b9050919050565b60006020820190508181036000830152611b6f816118f7565b9050919050565b60006020820190508181036000830152611b8f8161191a565b9050919050565b60006020820190508181036000830152611baf8161193d565b9050919050565b60006020820190508181036000830152611bcf81611960565b9050919050565b6000602082019050611beb6000830184611983565b92915050565b600082825260208201905092915050565b6000611c0d82611d55565b9150611c1883611d55565b9250827fffffffffffffffffffffffffffffffffffffffffffffffffffffffffffffffff03821115611c4d57611c4c611d5f565b5b828201905092915050565b6000611c6382611d55565b9150611c6e83611d55565b925082611c7e57611c7d611d8e565b5b828204905092915050565b6000611c9482611d55565b9150611c9f83611d55565b9250817fffffffffffffffffffffffffffffffffffffffffffffffffffffffffffffffff0483118215151615611cd857611cd7611d5f565b5b828202905092915050565b6000611cee82611d55565b9150611cf983611d55565b925082821015611d0c57611d0b611d5f565b5b828203905092915050565b6000611d2282611d35565b9050919050565b60008115159050919050565b600073ffffffffffffffffffffffffffffffffffffffff82169050919050565b6000819050919050565b7f4e487b7100000000000000000000000000000000000000000000000000000000600052601160045260246000fd5b7f4e487b7100000000000000000000000000000000000000000000000000000000600052601260045260246000fd5b600080fd5b7f4e6f7420656e6f756768207b746f6b656e427d2068617665206265656e20616c60008201527f6c6f776564000000000000000000000000000000000000000000000000000000602082015250565b7f53656e64696e67206c697175696469747920746f6b656e73206661696c656400600082015250565b7f596f75206469646e277420636f6e74726962757465207375636820616e20616d60008201527f6f756e7420746f2074686520706f6f6c00000000000000000000000000000000602082015250565b7f4f776e61626c653a206e6577206f776e657220697320746865207a65726f206160008201527f6464726573730000000000000000000000000000000000000000000000000000602082015250565b7f5468652076616c75652070726f7669646564206973206e6f742074686520736160008201527f6d6520666f72206561636820746f6b656e000000000000000000000000000000602082015250565b7f4e6f7420656e6f756768207b746f6b656e417d2068617665206265656e20616c60008201527f6c6f776564000000000000000000000000000000000000000000000000000000602082015250565b7f54686520706f6f6c20646f6573206e6f7420737570706f72742074686973206360008201527f6f696e0000000000000000000000000000000000000000000000000000000000602082015250565b7f4f776e61626c653a2063616c6c6572206973206e6f7420746865206f776e6572600082015250565b7f4e6f7420656e6f75676820746f6b656e732068617665206265656e20616c6c6f60008201527f7765640000000000000000000000000000000000000000000000000000000000602082015250565b7f4e6f7420656e6f756768206c697175696469747920546f6b656e73202842757260008201527f6765722053776170292068617665206265656e20616c6c6f7765640000000000602082015250565b7f53656e64696e6720636f696e42206661696c6564000000000000000000000000600082015250565b7f6e6f7420656e6f7567682066756e647320746f20706572666f726d207472616e60008201527f73616374696f6e00000000000000000000000000000000000000000000000000602082015250565b7f53656e64696e6720636f696e41206661696c6564000000000000000000000000600082015250565b61213681611d17565b811461214157600080fd5b50565b61214d81611d29565b811461215857600080fd5b50565b61216481611d55565b811461216f57600080fd5b5056fea264697066735822122018a8e9452e52e581f1568c0567142fb723da20b04db6cbbbad0682f7f4f80b0964736f6c63430008060033",
			"opcodes": "PUSH1 0x80 PUSH1 0x40 MSTORE CALLVALUE DUP1 ISZERO PUSH3 0x11 JUMPI PUSH1 0x0 DUP1 REVERT JUMPDEST POP PUSH1 0x40 MLOAD PUSH3 0x2545 CODESIZE SUB DUP1 PUSH3 0x2545 DUP4 CODECOPY DUP2 DUP2 ADD PUSH1 0x40 MSTORE DUP2 ADD SWAP1 PUSH3 0x37 SWAP2 SWAP1 PUSH3 0x2B2 JUMP JUMPDEST PUSH3 0x57 PUSH3 0x4B PUSH3 0x1CF PUSH1 0x20 SHL PUSH1 0x20 SHR JUMP JUMPDEST PUSH3 0x1D7 PUSH1 0x20 SHL PUSH1 0x20 SHR JUMP JUMPDEST DUP5 PUSH1 0x1 PUSH1 0x0 PUSH2 0x100 EXP DUP2 SLOAD DUP2 PUSH20 0xFFFFFFFFFFFFFFFFFFFFFFFFFFFFFFFFFFFFFFFF MUL NOT AND SWAP1 DUP4 PUSH20 0xFFFFFFFFFFFFFFFFFFFFFFFFFFFFFFFFFFFFFFFF AND MUL OR SWAP1 SSTORE POP DUP4 PUSH1 0x2 PUSH1 0x0 PUSH2 0x100 EXP DUP2 SLOAD DUP2 PUSH20 0xFFFFFFFFFFFFFFFFFFFFFFFFFFFFFFFFFFFFFFFF MUL NOT AND SWAP1 DUP4 PUSH20 0xFFFFFFFFFFFFFFFFFFFFFFFFFFFFFFFFFFFFFFFF AND MUL OR SWAP1 SSTORE POP DUP3 PUSH1 0x3 PUSH1 0x0 PUSH2 0x100 EXP DUP2 SLOAD DUP2 PUSH20 0xFFFFFFFFFFFFFFFFFFFFFFFFFFFFFFFFFFFFFFFF MUL NOT AND SWAP1 DUP4 PUSH20 0xFFFFFFFFFFFFFFFFFFFFFFFFFFFFFFFFFFFFFFFF AND MUL OR SWAP1 SSTORE POP PUSH1 0x0 PUSH1 0x9 DUP2 SWAP1 SSTORE POP PUSH1 0x0 PUSH1 0xA DUP2 SWAP1 SSTORE POP DUP2 PUSH1 0xB PUSH1 0x0 PUSH2 0x100 EXP DUP2 SLOAD DUP2 PUSH20 0xFFFFFFFFFFFFFFFFFFFFFFFFFFFFFFFFFFFFFFFF MUL NOT AND SWAP1 DUP4 PUSH20 0xFFFFFFFFFFFFFFFFFFFFFFFFFFFFFFFFFFFFFFFF AND MUL OR SWAP1 SSTORE POP DUP1 PUSH1 0xC PUSH1 0x0 PUSH2 0x100 EXP DUP2 SLOAD DUP2 PUSH20 0xFFFFFFFFFFFFFFFFFFFFFFFFFFFFFFFFFFFFFFFF MUL NOT AND SWAP1 DUP4 PUSH20 0xFFFFFFFFFFFFFFFFFFFFFFFFFFFFFFFFFFFFFFFF AND MUL OR SWAP1 SSTORE POP PUSH1 0x0 PUSH1 0x7 DUP2 SWAP1 SSTORE POP PUSH1 0x0 PUSH1 0x8 DUP2 SWAP1 SSTORE POP PUSH1 0x0 PUSH1 0x6 DUP2 SWAP1 SSTORE POP POP POP POP POP POP PUSH3 0x38D JUMP JUMPDEST PUSH1 0x0 CALLER SWAP1 POP SWAP1 JUMP JUMPDEST PUSH1 0x0 DUP1 PUSH1 0x0 SWAP1 SLOAD SWAP1 PUSH2 0x100 EXP SWAP1 DIV PUSH20 0xFFFFFFFFFFFFFFFFFFFFFFFFFFFFFFFFFFFFFFFF AND SWAP1 POP DUP2 PUSH1 0x0 DUP1 PUSH2 0x100 EXP DUP2 SLOAD DUP2 PUSH20 0xFFFFFFFFFFFFFFFFFFFFFFFFFFFFFFFFFFFFFFFF MUL NOT AND SWAP1 DUP4 PUSH20 0xFFFFFFFFFFFFFFFFFFFFFFFFFFFFFFFFFFFFFFFF AND MUL OR SWAP1 SSTORE POP DUP2 PUSH20 0xFFFFFFFFFFFFFFFFFFFFFFFFFFFFFFFFFFFFFFFF AND DUP2 PUSH20 0xFFFFFFFFFFFFFFFFFFFFFFFFFFFFFFFFFFFFFFFF AND PUSH32 0x8BE0079C531659141344CD1FD0A4F28419497F9722A3DAAFE3B4186F6B6457E0 PUSH1 0x40 MLOAD PUSH1 0x40 MLOAD DUP1 SWAP2 SUB SWAP1 LOG3 POP POP JUMP JUMPDEST PUSH1 0x0 DUP2 MLOAD SWAP1 POP PUSH3 0x2AC DUP2 PUSH3 0x373 JUMP JUMPDEST SWAP3 SWAP2 POP POP JUMP JUMPDEST PUSH1 0x0 DUP1 PUSH1 0x0 DUP1 PUSH1 0x0 PUSH1 0xA0 DUP7 DUP9 SUB SLT ISZERO PUSH3 0x2D1 JUMPI PUSH3 0x2D0 PUSH3 0x36E JUMP JUMPDEST JUMPDEST PUSH1 0x0 PUSH3 0x2E1 DUP9 DUP3 DUP10 ADD PUSH3 0x29B JUMP JUMPDEST SWAP6 POP POP PUSH1 0x20 PUSH3 0x2F4 DUP9 DUP3 DUP10 ADD PUSH3 0x29B JUMP JUMPDEST SWAP5 POP POP PUSH1 0x40 PUSH3 0x307 DUP9 DUP3 DUP10 ADD PUSH3 0x29B JUMP JUMPDEST SWAP4 POP POP PUSH1 0x60 PUSH3 0x31A DUP9 DUP3 DUP10 ADD PUSH3 0x29B JUMP JUMPDEST SWAP3 POP POP PUSH1 0x80 PUSH3 0x32D DUP9 DUP3 DUP10 ADD PUSH3 0x29B JUMP JUMPDEST SWAP2 POP POP SWAP3 SWAP6 POP SWAP3 SWAP6 SWAP1 SWAP4 POP JUMP JUMPDEST PUSH1 0x0 PUSH3 0x347 DUP3 PUSH3 0x34E JUMP JUMPDEST SWAP1 POP SWAP2 SWAP1 POP JUMP JUMPDEST PUSH1 0x0 PUSH20 0xFFFFFFFFFFFFFFFFFFFFFFFFFFFFFFFFFFFFFFFF DUP3 AND SWAP1 POP SWAP2 SWAP1 POP JUMP JUMPDEST PUSH1 0x0 DUP1 REVERT JUMPDEST PUSH3 0x37E DUP2 PUSH3 0x33A JUMP JUMPDEST DUP2 EQ PUSH3 0x38A JUMPI PUSH1 0x0 DUP1 REVERT JUMPDEST POP JUMP JUMPDEST PUSH2 0x21A8 DUP1 PUSH3 0x39D PUSH1 0x0 CODECOPY PUSH1 0x0 RETURN INVALID PUSH1 0x80 PUSH1 0x40 MSTORE PUSH1 0x4 CALLDATASIZE LT PUSH2 0x91 JUMPI PUSH1 0x0 CALLDATALOAD PUSH1 0xE0 SHR DUP1 PUSH4 0x715018A6 GT PUSH2 0x59 JUMPI DUP1 PUSH4 0x715018A6 EQ PUSH2 0x14F JUMPI DUP1 PUSH4 0x8DA5CB5B EQ PUSH2 0x166 JUMPI DUP1 PUSH4 0xBCD75989 EQ PUSH2 0x191 JUMPI DUP1 PUSH4 0xDB006A75 EQ PUSH2 0x1BC JUMPI DUP1 PUSH4 0xF2FDE38B EQ PUSH2 0x1D8 JUMPI PUSH2 0x91 JUMP JUMPDEST DUP1 PUSH4 0xCDD53F6 EQ PUSH2 0x96 JUMPI DUP1 PUSH4 0xFC63D10 EQ PUSH2 0xB2 JUMPI DUP1 PUSH4 0xFE2ABCF EQ PUSH2 0xDD JUMPI DUP1 PUSH4 0x43CD8F7E EQ PUSH2 0xF9 JUMPI DUP1 PUSH4 0x5F64B55B EQ PUSH2 0x124 JUMPI JUMPDEST PUSH1 0x0 DUP1 REVERT JUMPDEST PUSH2 0xB0 PUSH1 0x4 DUP1 CALLDATASIZE SUB DUP2 ADD SWAP1 PUSH2 0xAB SWAP2 SWAP1 PUSH2 0x176D JUMP JUMPDEST PUSH2 0x201 JUMP JUMPDEST STOP JUMPDEST CALLVALUE DUP1 ISZERO PUSH2 0xBE JUMPI PUSH1 0x0 DUP1 REVERT JUMPDEST POP PUSH2 0xC7 PUSH2 0x7B0 JUMP JUMPDEST PUSH1 0x40 MLOAD PUSH2 0xD4 SWAP2 SWAP1 PUSH2 0x1992 JUMP JUMPDEST PUSH1 0x40 MLOAD DUP1 SWAP2 SUB SWAP1 RETURN JUMPDEST PUSH2 0xF7 PUSH1 0x4 DUP1 CALLDATASIZE SUB DUP2 ADD SWAP1 PUSH2 0xF2 SWAP2 SWAP1 PUSH2 0x172D JUMP JUMPDEST PUSH2 0x7D6 JUMP JUMPDEST STOP JUMPDEST CALLVALUE DUP1 ISZERO PUSH2 0x105 JUMPI PUSH1 0x0 DUP1 REVERT JUMPDEST POP PUSH2 0x10E PUSH2 0xE39 JUMP JUMPDEST PUSH1 0x40 MLOAD PUSH2 0x11B SWAP2 SWAP1 PUSH2 0x1992 JUMP JUMPDEST PUSH1 0x40 MLOAD DUP1 SWAP2 SUB SWAP1 RETURN JUMPDEST CALLVALUE DUP1 ISZERO PUSH2 0x130 JUMPI PUSH1 0x0 DUP1 REVERT JUMPDEST POP PUSH2 0x139 PUSH2 0xE5F JUMP JUMPDEST PUSH1 0x40 MLOAD PUSH2 0x146 SWAP2 SWAP1 PUSH2 0x1992 JUMP JUMPDEST PUSH1 0x40 MLOAD DUP1 SWAP2 SUB SWAP1 RETURN JUMPDEST CALLVALUE DUP1 ISZERO PUSH2 0x15B JUMPI PUSH1 0x0 DUP1 REVERT JUMPDEST POP PUSH2 0x164 PUSH2 0xE85 JUMP JUMPDEST STOP JUMPDEST CALLVALUE DUP1 ISZERO PUSH2 0x172 JUMPI PUSH1 0x0 DUP1 REVERT JUMPDEST POP PUSH2 0x17B PUSH2 0xE99 JUMP JUMPDEST PUSH1 0x40 MLOAD PUSH2 0x188 SWAP2 SWAP1 PUSH2 0x1992 JUMP JUMPDEST PUSH1 0x40 MLOAD DUP1 SWAP2 SUB SWAP1 RETURN JUMPDEST CALLVALUE DUP1 ISZERO PUSH2 0x19D JUMPI PUSH1 0x0 DUP1 REVERT JUMPDEST POP PUSH2 0x1A6 PUSH2 0xEC2 JUMP JUMPDEST PUSH1 0x40 MLOAD PUSH2 0x1B3 SWAP2 SWAP1 PUSH2 0x1BD6 JUMP JUMPDEST PUSH1 0x40 MLOAD DUP1 SWAP2 SUB SWAP1 RETURN JUMPDEST PUSH2 0x1D6 PUSH1 0x4 DUP1 CALLDATASIZE SUB DUP2 ADD SWAP1 PUSH2 0x1D1 SWAP2 SWAP1 PUSH2 0x16D3 JUMP JUMPDEST PUSH2 0xEC8 JUMP JUMPDEST STOP JUMPDEST CALLVALUE DUP1 ISZERO PUSH2 0x1E4 JUMPI PUSH1 0x0 DUP1 REVERT JUMPDEST POP PUSH2 0x1FF PUSH1 0x4 DUP1 CALLDATASIZE SUB DUP2 ADD SWAP1 PUSH2 0x1FA SWAP2 SWAP1 PUSH2 0x1679 JUMP JUMPDEST PUSH2 0x1457 JUMP JUMPDEST STOP JUMPDEST PUSH1 0x0 PUSH1 0x2 SWAP1 POP PUSH1 0x0 PUSH1 0x1 SWAP1 POP PUSH1 0x0 DUP3 DUP6 PUSH2 0x21B SWAP2 SWAP1 PUSH2 0x1C89 JUMP JUMPDEST SWAP1 POP PUSH1 0x0 DUP3 DUP6 PUSH2 0x22B SWAP2 SWAP1 PUSH2 0x1C89 JUMP JUMPDEST SWAP1 POP DUP1 DUP3 EQ PUSH2 0x26F JUMPI PUSH1 0x40 MLOAD PUSH32 0x8C379A000000000000000000000000000000000000000000000000000000000 DUP2 MSTORE PUSH1 0x4 ADD PUSH2 0x266 SWAP1 PUSH2 0x1AB6 JUMP JUMPDEST PUSH1 0x40 MLOAD DUP1 SWAP2 SUB SWAP1 REVERT JUMPDEST DUP6 PUSH1 0x1 PUSH1 0x0 SWAP1 SLOAD SWAP1 PUSH2 0x100 EXP SWAP1 DIV PUSH20 0xFFFFFFFFFFFFFFFFFFFFFFFFFFFFFFFFFFFFFFFF AND PUSH20 0xFFFFFFFFFFFFFFFFFFFFFFFFFFFFFFFFFFFFFFFF AND PUSH4 0xDD62ED3E CALLER ADDRESS PUSH1 0x40 MLOAD DUP4 PUSH4 0xFFFFFFFF AND PUSH1 0xE0 SHL DUP2 MSTORE PUSH1 0x4 ADD PUSH2 0x2CD SWAP3 SWAP2 SWAP1 PUSH2 0x19AD JUMP JUMPDEST PUSH1 0x20 PUSH1 0x40 MLOAD DUP1 DUP4 SUB DUP2 DUP7 DUP1 EXTCODESIZE ISZERO DUP1 ISZERO PUSH2 0x2E5 JUMPI PUSH1 0x0 DUP1 REVERT JUMPDEST POP GAS STATICCALL ISZERO DUP1 ISZERO PUSH2 0x2F9 JUMPI RETURNDATASIZE PUSH1 0x0 DUP1 RETURNDATACOPY RETURNDATASIZE PUSH1 0x0 REVERT JUMPDEST POP POP POP POP PUSH1 0x40 MLOAD RETURNDATASIZE PUSH1 0x1F NOT PUSH1 0x1F DUP3 ADD AND DUP3 ADD DUP1 PUSH1 0x40 MSTORE POP DUP2 ADD SWAP1 PUSH2 0x31D SWAP2 SWAP1 PUSH2 0x1700 JUMP JUMPDEST LT ISZERO PUSH2 0x35E JUMPI PUSH1 0x40 MLOAD PUSH32 0x8C379A000000000000000000000000000000000000000000000000000000000 DUP2 MSTORE PUSH1 0x4 ADD PUSH2 0x355 SWAP1 PUSH2 0x1AD6 JUMP JUMPDEST PUSH1 0x40 MLOAD DUP1 SWAP2 SUB SWAP1 REVERT JUMPDEST DUP5 PUSH1 0x2 PUSH1 0x0 SWAP1 SLOAD SWAP1 PUSH2 0x100 EXP SWAP1 DIV PUSH20 0xFFFFFFFFFFFFFFFFFFFFFFFFFFFFFFFFFFFFFFFF AND PUSH20 0xFFFFFFFFFFFFFFFFFFFFFFFFFFFFFFFFFFFFFFFF AND PUSH4 0xDD62ED3E CALLER ADDRESS PUSH1 0x40 MLOAD DUP4 PUSH4 0xFFFFFFFF AND PUSH1 0xE0 SHL DUP2 MSTORE PUSH1 0x4 ADD PUSH2 0x3BC SWAP3 SWAP2 SWAP1 PUSH2 0x19AD JUMP JUMPDEST PUSH1 0x20 PUSH1 0x40 MLOAD DUP1 DUP4 SUB DUP2 DUP7 DUP1 EXTCODESIZE ISZERO DUP1 ISZERO PUSH2 0x3D4 JUMPI PUSH1 0x0 DUP1 REVERT JUMPDEST POP GAS STATICCALL ISZERO DUP1 ISZERO PUSH2 0x3E8 JUMPI RETURNDATASIZE PUSH1 0x0 DUP1 RETURNDATACOPY RETURNDATASIZE PUSH1 0x0 REVERT JUMPDEST POP POP POP POP PUSH1 0x40 MLOAD RETURNDATASIZE PUSH1 0x1F NOT PUSH1 0x1F DUP3 ADD AND DUP3 ADD DUP1 PUSH1 0x40 MSTORE POP DUP2 ADD SWAP1 PUSH2 0x40C SWAP2 SWAP1 PUSH2 0x1700 JUMP JUMPDEST LT ISZERO PUSH2 0x44D JUMPI PUSH1 0x40 MLOAD PUSH32 0x8C379A000000000000000000000000000000000000000000000000000000000 DUP2 MSTORE PUSH1 0x4 ADD PUSH2 0x444 SWAP1 PUSH2 0x1A36 JUMP JUMPDEST PUSH1 0x40 MLOAD DUP1 SWAP2 SUB SWAP1 REVERT JUMPDEST PUSH1 0x1 PUSH1 0x0 SWAP1 SLOAD SWAP1 PUSH2 0x100 EXP SWAP1 DIV PUSH20 0xFFFFFFFFFFFFFFFFFFFFFFFFFFFFFFFFFFFFFFFF AND PUSH20 0xFFFFFFFFFFFFFFFFFFFFFFFFFFFFFFFFFFFFFFFF AND PUSH4 0x23B872DD CALLER ADDRESS DUP10 PUSH1 0x40 MLOAD DUP5 PUSH4 0xFFFFFFFF AND PUSH1 0xE0 SHL DUP2 MSTORE PUSH1 0x4 ADD PUSH2 0x4AC SWAP4 SWAP3 SWAP2 SWAP1 PUSH2 0x19D6 JUMP JUMPDEST PUSH1 0x20 PUSH1 0x40 MLOAD DUP1 DUP4 SUB DUP2 PUSH1 0x0 DUP8 DUP1 EXTCODESIZE ISZERO DUP1 ISZERO PUSH2 0x4C6 JUMPI PUSH1 0x0 DUP1 REVERT JUMPDEST POP GAS CALL ISZERO DUP1 ISZERO PUSH2 0x4DA JUMPI RETURNDATASIZE PUSH1 0x0 DUP1 RETURNDATACOPY RETURNDATASIZE PUSH1 0x0 REVERT JUMPDEST POP POP POP POP PUSH1 0x40 MLOAD RETURNDATASIZE PUSH1 0x1F NOT PUSH1 0x1F DUP3 ADD AND DUP3 ADD DUP1 PUSH1 0x40 MSTORE POP DUP2 ADD SWAP1 PUSH2 0x4FE SWAP2 SWAP1 PUSH2 0x16A6 JUMP JUMPDEST POP PUSH1 0x2 PUSH1 0x0 SWAP1 SLOAD SWAP1 PUSH2 0x100 EXP SWAP1 DIV PUSH20 0xFFFFFFFFFFFFFFFFFFFFFFFFFFFFFFFFFFFFFFFF AND PUSH20 0xFFFFFFFFFFFFFFFFFFFFFFFFFFFFFFFFFFFFFFFF AND PUSH4 0x23B872DD CALLER ADDRESS DUP9 PUSH1 0x40 MLOAD DUP5 PUSH4 0xFFFFFFFF AND PUSH1 0xE0 SHL DUP2 MSTORE PUSH1 0x4 ADD PUSH2 0x55E SWAP4 SWAP3 SWAP2 SWAP1 PUSH2 0x19D6 JUMP JUMPDEST PUSH1 0x20 PUSH1 0x40 MLOAD DUP1 DUP4 SUB DUP2 PUSH1 0x0 DUP8 DUP1 EXTCODESIZE ISZERO DUP1 ISZERO PUSH2 0x578 JUMPI PUSH1 0x0 DUP1 REVERT JUMPDEST POP GAS CALL ISZERO DUP1 ISZERO PUSH2 0x58C JUMPI RETURNDATASIZE PUSH1 0x0 DUP1 RETURNDATACOPY RETURNDATASIZE PUSH1 0x0 REVERT JUMPDEST POP POP POP POP PUSH1 0x40 MLOAD RETURNDATASIZE PUSH1 0x1F NOT PUSH1 0x1F DUP3 ADD AND DUP3 ADD DUP1 PUSH1 0x40 MSTORE POP DUP2 ADD SWAP1 PUSH2 0x5B0 SWAP2 SWAP1 PUSH2 0x16A6 JUMP JUMPDEST POP PUSH1 0x3 PUSH1 0x0 SWAP1 SLOAD SWAP1 PUSH2 0x100 EXP SWAP1 DIV PUSH20 0xFFFFFFFFFFFFFFFFFFFFFFFFFFFFFFFFFFFFFFFF AND PUSH20 0xFFFFFFFFFFFFFFFFFFFFFFFFFFFFFFFFFFFFFFFF AND PUSH4 0x23B872DD PUSH2 0x5F7 PUSH2 0xE99 JUMP JUMPDEST CALLER PUSH1 0x2 DUP7 PUSH2 0x605 SWAP2 SWAP1 PUSH2 0x1C89 JUMP JUMPDEST PUSH1 0x40 MLOAD DUP5 PUSH4 0xFFFFFFFF AND PUSH1 0xE0 SHL DUP2 MSTORE PUSH1 0x4 ADD PUSH2 0x623 SWAP4 SWAP3 SWAP2 SWAP1 PUSH2 0x19D6 JUMP JUMPDEST PUSH1 0x20 PUSH1 0x40 MLOAD DUP1 DUP4 SUB DUP2 PUSH1 0x0 DUP8 DUP1 EXTCODESIZE ISZERO DUP1 ISZERO PUSH2 0x63D JUMPI PUSH1 0x0 DUP1 REVERT JUMPDEST POP GAS CALL ISZERO DUP1 ISZERO PUSH2 0x651 JUMPI RETURNDATASIZE PUSH1 0x0 DUP1 RETURNDATACOPY RETURNDATASIZE PUSH1 0x0 REVERT JUMPDEST POP POP POP POP PUSH1 0x40 MLOAD RETURNDATASIZE PUSH1 0x1F NOT PUSH1 0x1F DUP3 ADD AND DUP3 ADD DUP1 PUSH1 0x40 MSTORE POP DUP2 ADD SWAP1 PUSH2 0x675 SWAP2 SWAP1 PUSH2 0x16A6 JUMP JUMPDEST POP PUSH1 0x2 DUP3 PUSH2 0x683 SWAP2 SWAP1 PUSH2 0x1C89 JUMP JUMPDEST PUSH1 0x4 PUSH1 0x0 CALLER PUSH20 0xFFFFFFFFFFFFFFFFFFFFFFFFFFFFFFFFFFFFFFFF AND PUSH20 0xFFFFFFFFFFFFFFFFFFFFFFFFFFFFFFFFFFFFFFFF AND DUP2 MSTORE PUSH1 0x20 ADD SWAP1 DUP2 MSTORE PUSH1 0x20 ADD PUSH1 0x0 KECCAK256 PUSH1 0x0 DUP3 DUP3 SLOAD PUSH2 0x6D1 SWAP2 SWAP1 PUSH2 0x1C02 JUMP JUMPDEST SWAP3 POP POP DUP2 SWAP1 SSTORE POP PUSH1 0x5 CALLER SWAP1 DUP1 PUSH1 0x1 DUP2 SLOAD ADD DUP1 DUP3 SSTORE DUP1 SWAP2 POP POP PUSH1 0x1 SWAP1 SUB SWAP1 PUSH1 0x0 MSTORE PUSH1 0x20 PUSH1 0x0 KECCAK256 ADD PUSH1 0x0 SWAP1 SWAP2 SWAP1 SWAP2 SWAP1 SWAP2 PUSH2 0x100 EXP DUP2 SLOAD DUP2 PUSH20 0xFFFFFFFFFFFFFFFFFFFFFFFFFFFFFFFFFFFFFFFF MUL NOT AND SWAP1 DUP4 PUSH20 0xFFFFFFFFFFFFFFFFFFFFFFFFFFFFFFFFFFFFFFFF AND MUL OR SWAP1 SSTORE POP DUP6 PUSH1 0x9 PUSH1 0x0 DUP3 DUP3 SLOAD PUSH2 0x74D SWAP2 SWAP1 PUSH2 0x1C02 JUMP JUMPDEST SWAP3 POP POP DUP2 SWAP1 SSTORE POP DUP5 PUSH1 0xA PUSH1 0x0 DUP3 DUP3 SLOAD PUSH2 0x766 SWAP2 SWAP1 PUSH2 0x1C02 JUMP JUMPDEST SWAP3 POP POP DUP2 SWAP1 SSTORE POP PUSH1 0xA SLOAD PUSH1 0x9 SLOAD PUSH2 0x77D SWAP2 SWAP1 PUSH2 0x1C89 JUMP JUMPDEST PUSH1 0x6 DUP2 SWAP1 SSTORE POP PUSH1 0x2 DUP3 PUSH2 0x790 SWAP2 SWAP1 PUSH2 0x1C89 JUMP JUMPDEST PUSH1 0x7 PUSH1 0x0 DUP3 DUP3 SLOAD PUSH2 0x7A1 SWAP2 SWAP1 PUSH2 0x1C02 JUMP JUMPDEST SWAP3 POP POP DUP2 SWAP1 SSTORE POP POP POP POP POP POP POP JUMP JUMPDEST PUSH1 0x1 PUSH1 0x0 SWAP1 SLOAD SWAP1 PUSH2 0x100 EXP SWAP1 DIV PUSH20 0xFFFFFFFFFFFFFFFFFFFFFFFFFFFFFFFFFFFFFFFF AND DUP2 JUMP JUMPDEST PUSH1 0x1 PUSH1 0x0 SWAP1 SLOAD SWAP1 PUSH2 0x100 EXP SWAP1 DIV PUSH20 0xFFFFFFFFFFFFFFFFFFFFFFFFFFFFFFFFFFFFFFFF AND PUSH20 0xFFFFFFFFFFFFFFFFFFFFFFFFFFFFFFFFFFFFFFFF AND DUP2 PUSH20 0xFFFFFFFFFFFFFFFFFFFFFFFFFFFFFFFFFFFFFFFF AND EQ DUP1 PUSH2 0x87F JUMPI POP PUSH1 0x2 PUSH1 0x0 SWAP1 SLOAD SWAP1 PUSH2 0x100 EXP SWAP1 DIV PUSH20 0xFFFFFFFFFFFFFFFFFFFFFFFFFFFFFFFFFFFFFFFF AND PUSH20 0xFFFFFFFFFFFFFFFFFFFFFFFFFFFFFFFFFFFFFFFF AND DUP2 PUSH20 0xFFFFFFFFFFFFFFFFFFFFFFFFFFFFFFFFFFFFFFFF AND EQ JUMPDEST PUSH2 0x8BE JUMPI PUSH1 0x40 MLOAD PUSH32 0x8C379A000000000000000000000000000000000000000000000000000000000 DUP2 MSTORE PUSH1 0x4 ADD PUSH2 0x8B5 SWAP1 PUSH2 0x1AF6 JUMP JUMPDEST PUSH1 0x40 MLOAD DUP1 SWAP2 SUB SWAP1 REVERT JUMPDEST DUP2 DUP2 PUSH20 0xFFFFFFFFFFFFFFFFFFFFFFFFFFFFFFFFFFFFFFFF AND PUSH4 0xDD62ED3E CALLER ADDRESS PUSH1 0x40 MLOAD DUP4 PUSH4 0xFFFFFFFF AND PUSH1 0xE0 SHL DUP2 MSTORE PUSH1 0x4 ADD PUSH2 0x8FA SWAP3 SWAP2 SWAP1 PUSH2 0x19AD JUMP JUMPDEST PUSH1 0x20 PUSH1 0x40 MLOAD DUP1 DUP4 SUB DUP2 DUP7 DUP1 EXTCODESIZE ISZERO DUP1 ISZERO PUSH2 0x912 JUMPI PUSH1 0x0 DUP1 REVERT JUMPDEST POP GAS STATICCALL ISZERO DUP1 ISZERO PUSH2 0x926 JUMPI RETURNDATASIZE PUSH1 0x0 DUP1 RETURNDATACOPY RETURNDATASIZE PUSH1 0x0 REVERT JUMPDEST POP POP POP POP PUSH1 0x40 MLOAD RETURNDATASIZE PUSH1 0x1F NOT PUSH1 0x1F DUP3 ADD AND DUP3 ADD DUP1 PUSH1 0x40 MSTORE POP DUP2 ADD SWAP1 PUSH2 0x94A SWAP2 SWAP1 PUSH2 0x1700 JUMP JUMPDEST LT ISZERO PUSH2 0x98B JUMPI PUSH1 0x40 MLOAD PUSH32 0x8C379A000000000000000000000000000000000000000000000000000000000 DUP2 MSTORE PUSH1 0x4 ADD PUSH2 0x982 SWAP1 PUSH2 0x1B36 JUMP JUMPDEST PUSH1 0x40 MLOAD DUP1 SWAP2 SUB SWAP1 REVERT JUMPDEST PUSH1 0x0 PUSH1 0x64 PUSH1 0x61 DUP5 PUSH2 0x99C SWAP2 SWAP1 PUSH2 0x1C89 JUMP JUMPDEST PUSH2 0x9A6 SWAP2 SWAP1 PUSH2 0x1C58 JUMP JUMPDEST SWAP1 POP PUSH1 0x0 DUP2 DUP5 PUSH2 0x9B6 SWAP2 SWAP1 PUSH2 0x1CE3 JUMP JUMPDEST SWAP1 POP DUP1 PUSH1 0x8 PUSH1 0x0 DUP3 DUP3 SLOAD PUSH2 0x9CA SWAP2 SWAP1 PUSH2 0x1C02 JUMP JUMPDEST SWAP3 POP POP DUP2 SWAP1 SSTORE POP PUSH1 0x1 PUSH1 0x0 SWAP1 SLOAD SWAP1 PUSH2 0x100 EXP SWAP1 DIV PUSH20 0xFFFFFFFFFFFFFFFFFFFFFFFFFFFFFFFFFFFFFFFF AND PUSH20 0xFFFFFFFFFFFFFFFFFFFFFFFFFFFFFFFFFFFFFFFF AND DUP4 PUSH20 0xFFFFFFFFFFFFFFFFFFFFFFFFFFFFFFFFFFFFFFFF AND EQ ISZERO PUSH2 0xC2F JUMPI PUSH1 0x0 DUP3 PUSH1 0x9 SLOAD PUSH2 0xA37 SWAP2 SWAP1 PUSH2 0x1C02 JUMP JUMPDEST PUSH1 0xA SLOAD DUP5 PUSH2 0xA45 SWAP2 SWAP1 PUSH2 0x1C89 JUMP JUMPDEST PUSH2 0xA4F SWAP2 SWAP1 PUSH2 0x1C58 JUMP JUMPDEST SWAP1 POP PUSH1 0xA SLOAD DUP2 LT PUSH2 0xA95 JUMPI PUSH1 0x40 MLOAD PUSH32 0x8C379A000000000000000000000000000000000000000000000000000000000 DUP2 MSTORE PUSH1 0x4 ADD PUSH2 0xA8C SWAP1 PUSH2 0x1B96 JUMP JUMPDEST PUSH1 0x40 MLOAD DUP1 SWAP2 SUB SWAP1 REVERT JUMPDEST PUSH1 0x1 PUSH1 0x0 SWAP1 SLOAD SWAP1 PUSH2 0x100 EXP SWAP1 DIV PUSH20 0xFFFFFFFFFFFFFFFFFFFFFFFFFFFFFFFFFFFFFFFF AND PUSH20 0xFFFFFFFFFFFFFFFFFFFFFFFFFFFFFFFFFFFFFFFF AND PUSH4 0x23B872DD CALLER ADDRESS DUP9 PUSH1 0x40 MLOAD DUP5 PUSH4 0xFFFFFFFF AND PUSH1 0xE0 SHL DUP2 MSTORE PUSH1 0x4 ADD PUSH2 0xAF4 SWAP4 SWAP3 SWAP2 SWAP1 PUSH2 0x19D6 JUMP JUMPDEST PUSH1 0x20 PUSH1 0x40 MLOAD DUP1 DUP4 SUB DUP2 PUSH1 0x0 DUP8 DUP1 EXTCODESIZE ISZERO DUP1 ISZERO PUSH2 0xB0E JUMPI PUSH1 0x0 DUP1 REVERT JUMPDEST POP GAS CALL ISZERO DUP1 ISZERO PUSH2 0xB22 JUMPI RETURNDATASIZE PUSH1 0x0 DUP1 RETURNDATACOPY RETURNDATASIZE PUSH1 0x0 REVERT JUMPDEST POP POP POP POP PUSH1 0x40 MLOAD RETURNDATASIZE PUSH1 0x1F NOT PUSH1 0x1F DUP3 ADD AND DUP3 ADD DUP1 PUSH1 0x40 MSTORE POP DUP2 ADD SWAP1 PUSH2 0xB46 SWAP2 SWAP1 PUSH2 0x16A6 JUMP JUMPDEST POP PUSH1 0x2 PUSH1 0x0 SWAP1 SLOAD SWAP1 PUSH2 0x100 EXP SWAP1 DIV PUSH20 0xFFFFFFFFFFFFFFFFFFFFFFFFFFFFFFFFFFFFFFFF AND PUSH20 0xFFFFFFFFFFFFFFFFFFFFFFFFFFFFFFFFFFFFFFFF AND PUSH4 0xA9059CBB CALLER DUP4 PUSH1 0x40 MLOAD DUP4 PUSH4 0xFFFFFFFF AND PUSH1 0xE0 SHL DUP2 MSTORE PUSH1 0x4 ADD PUSH2 0xBA4 SWAP3 SWAP2 SWAP1 PUSH2 0x1A0D JUMP JUMPDEST PUSH1 0x20 PUSH1 0x40 MLOAD DUP1 DUP4 SUB DUP2 PUSH1 0x0 DUP8 DUP1 EXTCODESIZE ISZERO DUP1 ISZERO PUSH2 0xBBE JUMPI PUSH1 0x0 DUP1 REVERT JUMPDEST POP GAS CALL ISZERO DUP1 ISZERO PUSH2 0xBD2 JUMPI RETURNDATASIZE PUSH1 0x0 DUP1 RETURNDATACOPY RETURNDATASIZE PUSH1 0x0 REVERT JUMPDEST POP POP POP POP PUSH1 0x40 MLOAD RETURNDATASIZE PUSH1 0x1F NOT PUSH1 0x1F DUP3 ADD AND DUP3 ADD DUP1 PUSH1 0x40 MSTORE POP DUP2 ADD SWAP1 PUSH2 0xBF6 SWAP2 SWAP1 PUSH2 0x16A6 JUMP JUMPDEST POP DUP5 PUSH1 0x9 PUSH1 0x0 DUP3 DUP3 SLOAD PUSH2 0xC09 SWAP2 SWAP1 PUSH2 0x1C02 JUMP JUMPDEST SWAP3 POP POP DUP2 SWAP1 SSTORE POP DUP1 PUSH1 0xA PUSH1 0x0 DUP3 DUP3 SLOAD PUSH2 0xC22 SWAP2 SWAP1 PUSH2 0x1CE3 JUMP JUMPDEST SWAP3 POP POP DUP2 SWAP1 SSTORE POP POP PUSH2 0xE33 JUMP JUMPDEST PUSH1 0x0 DUP3 PUSH1 0xA SLOAD PUSH2 0xC3F SWAP2 SWAP1 PUSH2 0x1C02 JUMP JUMPDEST PUSH1 0x9 SLOAD DUP5 PUSH2 0xC4D SWAP2 SWAP1 PUSH2 0x1C89 JUMP JUMPDEST PUSH2 0xC57 SWAP2 SWAP1 PUSH2 0x1C58 JUMP JUMPDEST SWAP1 POP PUSH1 0x9 SLOAD DUP2 LT PUSH2 0xC9D JUMPI PUSH1 0x40 MLOAD PUSH32 0x8C379A000000000000000000000000000000000000000000000000000000000 DUP2 MSTORE PUSH1 0x4 ADD PUSH2 0xC94 SWAP1 PUSH2 0x1B96 JUMP JUMPDEST PUSH1 0x40 MLOAD DUP1 SWAP2 SUB SWAP1 REVERT JUMPDEST PUSH1 0x2 PUSH1 0x0 SWAP1 SLOAD SWAP1 PUSH2 0x100 EXP SWAP1 DIV PUSH20 0xFFFFFFFFFFFFFFFFFFFFFFFFFFFFFFFFFFFFFFFF AND PUSH20 0xFFFFFFFFFFFFFFFFFFFFFFFFFFFFFFFFFFFFFFFF AND PUSH4 0x23B872DD CALLER ADDRESS DUP9 PUSH1 0x40 MLOAD DUP5 PUSH4 0xFFFFFFFF AND PUSH1 0xE0 SHL DUP2 MSTORE PUSH1 0x4 ADD PUSH2 0xCFC SWAP4 SWAP3 SWAP2 SWAP1 PUSH2 0x19D6 JUMP JUMPDEST PUSH1 0x20 PUSH1 0x40 MLOAD DUP1 DUP4 SUB DUP2 PUSH1 0x0 DUP8 DUP1 EXTCODESIZE ISZERO DUP1 ISZERO PUSH2 0xD16 JUMPI PUSH1 0x0 DUP1 REVERT JUMPDEST POP GAS CALL ISZERO DUP1 ISZERO PUSH2 0xD2A JUMPI RETURNDATASIZE PUSH1 0x0 DUP1 RETURNDATACOPY RETURNDATASIZE PUSH1 0x0 REVERT JUMPDEST POP POP POP POP PUSH1 0x40 MLOAD RETURNDATASIZE PUSH1 0x1F NOT PUSH1 0x1F DUP3 ADD AND DUP3 ADD DUP1 PUSH1 0x40 MSTORE POP DUP2 ADD SWAP1 PUSH2 0xD4E SWAP2 SWAP1 PUSH2 0x16A6 JUMP JUMPDEST POP PUSH1 0x1 PUSH1 0x0 SWAP1 SLOAD SWAP1 PUSH2 0x100 EXP SWAP1 DIV PUSH20 0xFFFFFFFFFFFFFFFFFFFFFFFFFFFFFFFFFFFFFFFF AND PUSH20 0xFFFFFFFFFFFFFFFFFFFFFFFFFFFFFFFFFFFFFFFF AND PUSH4 0xA9059CBB CALLER DUP4 PUSH1 0x40 MLOAD DUP4 PUSH4 0xFFFFFFFF AND PUSH1 0xE0 SHL DUP2 MSTORE PUSH1 0x4 ADD PUSH2 0xDAC SWAP3 SWAP2 SWAP1 PUSH2 0x1A0D JUMP JUMPDEST PUSH1 0x20 PUSH1 0x40 MLOAD DUP1 DUP4 SUB DUP2 PUSH1 0x0 DUP8 DUP1 EXTCODESIZE ISZERO DUP1 ISZERO PUSH2 0xDC6 JUMPI PUSH1 0x0 DUP1 REVERT JUMPDEST POP GAS CALL ISZERO DUP1 ISZERO PUSH2 0xDDA JUMPI RETURNDATASIZE PUSH1 0x0 DUP1 RETURNDATACOPY RETURNDATASIZE PUSH1 0x0 REVERT JUMPDEST POP POP POP POP PUSH1 0x40 MLOAD RETURNDATASIZE PUSH1 0x1F NOT PUSH1 0x1F DUP3 ADD AND DUP3 ADD DUP1 PUSH1 0x40 MSTORE POP DUP2 ADD SWAP1 PUSH2 0xDFE SWAP2 SWAP1 PUSH2 0x16A6 JUMP JUMPDEST POP DUP1 PUSH1 0x9 PUSH1 0x0 DUP3 DUP3 SLOAD PUSH2 0xE11 SWAP2 SWAP1 PUSH2 0x1CE3 JUMP JUMPDEST SWAP3 POP POP DUP2 SWAP1 SSTORE POP DUP5 PUSH1 0xA PUSH1 0x0 DUP3 DUP3 SLOAD PUSH2 0xE2A SWAP2 SWAP1 PUSH2 0x1C02 JUMP JUMPDEST SWAP3 POP POP DUP2 SWAP1 SSTORE POP POP JUMPDEST POP POP POP POP JUMP JUMPDEST PUSH1 0x3 PUSH1 0x0 SWAP1 SLOAD SWAP1 PUSH2 0x100 EXP SWAP1 DIV PUSH20 0xFFFFFFFFFFFFFFFFFFFFFFFFFFFFFFFFFFFFFFFF AND DUP2 JUMP JUMPDEST PUSH1 0x2 PUSH1 0x0 SWAP1 SLOAD SWAP1 PUSH2 0x100 EXP SWAP1 DIV PUSH20 0xFFFFFFFFFFFFFFFFFFFFFFFFFFFFFFFFFFFFFFFF AND DUP2 JUMP JUMPDEST PUSH2 0xE8D PUSH2 0x14DB JUMP JUMPDEST PUSH2 0xE97 PUSH1 0x0 PUSH2 0x1559 JUMP JUMPDEST JUMP JUMPDEST PUSH1 0x0 DUP1 PUSH1 0x0 SWAP1 SLOAD SWAP1 PUSH2 0x100 EXP SWAP1 DIV PUSH20 0xFFFFFFFFFFFFFFFFFFFFFFFFFFFFFFFFFFFFFFFF AND SWAP1 POP SWAP1 JUMP JUMPDEST PUSH1 0x7 SLOAD DUP2 JUMP JUMPDEST DUP1 PUSH1 0x3 PUSH1 0x0 SWAP1 SLOAD SWAP1 PUSH2 0x100 EXP SWAP1 DIV PUSH20 0xFFFFFFFFFFFFFFFFFFFFFFFFFFFFFFFFFFFFFFFF AND PUSH20 0xFFFFFFFFFFFFFFFFFFFFFFFFFFFFFFFFFFFFFFFF AND PUSH4 0xDD62ED3E CALLER ADDRESS PUSH1 0x40 MLOAD DUP4 PUSH4 0xFFFFFFFF AND PUSH1 0xE0 SHL DUP2 MSTORE PUSH1 0x4 ADD PUSH2 0xF26 SWAP3 SWAP2 SWAP1 PUSH2 0x19AD JUMP JUMPDEST PUSH1 0x20 PUSH1 0x40 MLOAD DUP1 DUP4 SUB DUP2 DUP7 DUP1 EXTCODESIZE ISZERO DUP1 ISZERO PUSH2 0xF3E JUMPI PUSH1 0x0 DUP1 REVERT JUMPDEST POP GAS STATICCALL ISZERO DUP1 ISZERO PUSH2 0xF52 JUMPI RETURNDATASIZE PUSH1 0x0 DUP1 RETURNDATACOPY RETURNDATASIZE PUSH1 0x0 REVERT JUMPDEST POP POP POP POP PUSH1 0x40 MLOAD RETURNDATASIZE PUSH1 0x1F NOT PUSH1 0x1F DUP3 ADD AND DUP3 ADD DUP1 PUSH1 0x40 MSTORE POP DUP2 ADD SWAP1 PUSH2 0xF76 SWAP2 SWAP1 PUSH2 0x1700 JUMP JUMPDEST LT ISZERO PUSH2 0xFB7 JUMPI PUSH1 0x40 MLOAD PUSH32 0x8C379A000000000000000000000000000000000000000000000000000000000 DUP2 MSTORE PUSH1 0x4 ADD PUSH2 0xFAE SWAP1 PUSH2 0x1B56 JUMP JUMPDEST PUSH1 0x40 MLOAD DUP1 SWAP2 SUB SWAP1 REVERT JUMPDEST DUP1 PUSH1 0x4 PUSH1 0x0 CALLER PUSH20 0xFFFFFFFFFFFFFFFFFFFFFFFFFFFFFFFFFFFFFFFF AND PUSH20 0xFFFFFFFFFFFFFFFFFFFFFFFFFFFFFFFFFFFFFFFF AND DUP2 MSTORE PUSH1 0x20 ADD SWAP1 DUP2 MSTORE PUSH1 0x20 ADD PUSH1 0x0 KECCAK256 SLOAD LT ISZERO PUSH2 0x1039 JUMPI PUSH1 0x40 MLOAD PUSH32 0x8C379A000000000000000000000000000000000000000000000000000000000 DUP2 MSTORE PUSH1 0x4 ADD PUSH2 0x1030 SWAP1 PUSH2 0x1A76 JUMP JUMPDEST PUSH1 0x40 MLOAD DUP1 SWAP2 SUB SWAP1 REVERT JUMPDEST PUSH1 0x0 PUSH1 0x7 SLOAD DUP3 PUSH2 0x1049 SWAP2 SWAP1 PUSH2 0x1C58 JUMP JUMPDEST SWAP1 POP PUSH1 0x0 PUSH1 0x2 SWAP1 POP PUSH1 0x0 PUSH1 0x1 SWAP1 POP PUSH1 0x0 DUP2 PUSH1 0xA SLOAD PUSH2 0x1067 SWAP2 SWAP1 PUSH2 0x1C89 JUMP JUMPDEST DUP4 PUSH1 0x9 SLOAD PUSH2 0x1075 SWAP2 SWAP1 PUSH2 0x1C89 JUMP JUMPDEST PUSH2 0x107F SWAP2 SWAP1 PUSH2 0x1C02 JUMP JUMPDEST DUP5 PUSH2 0x108A SWAP2 SWAP1 PUSH2 0x1C89 JUMP JUMPDEST SWAP1 POP DUP5 PUSH1 0x7 PUSH1 0x0 DUP3 DUP3 SLOAD PUSH2 0x109E SWAP2 SWAP1 PUSH2 0x1CE3 JUMP JUMPDEST SWAP3 POP POP DUP2 SWAP1 SSTORE POP DUP5 PUSH1 0x4 PUSH1 0x0 CALLER PUSH20 0xFFFFFFFFFFFFFFFFFFFFFFFFFFFFFFFFFFFFFFFF AND PUSH20 0xFFFFFFFFFFFFFFFFFFFFFFFFFFFFFFFFFFFFFFFF AND DUP2 MSTORE PUSH1 0x20 ADD SWAP1 DUP2 MSTORE PUSH1 0x20 ADD PUSH1 0x0 KECCAK256 PUSH1 0x0 DUP3 DUP3 SLOAD PUSH2 0x10F4 SWAP2 SWAP1 PUSH2 0x1CE3 JUMP JUMPDEST SWAP3 POP POP DUP2 SWAP1 SSTORE POP PUSH1 0x0 DUP4 PUSH1 0x2 PUSH2 0x110A SWAP2 SWAP1 PUSH2 0x1C89 JUMP JUMPDEST DUP3 PUSH2 0x1115 SWAP2 SWAP1 PUSH2 0x1C58 JUMP JUMPDEST SWAP1 POP PUSH1 0x0 DUP4 PUSH1 0x2 PUSH2 0x1126 SWAP2 SWAP1 PUSH2 0x1C89 JUMP JUMPDEST DUP4 PUSH2 0x1131 SWAP2 SWAP1 PUSH2 0x1C58 JUMP JUMPDEST SWAP1 POP DUP2 PUSH1 0x9 PUSH1 0x0 DUP3 DUP3 SLOAD PUSH2 0x1145 SWAP2 SWAP1 PUSH2 0x1CE3 JUMP JUMPDEST SWAP3 POP POP DUP2 SWAP1 SSTORE POP DUP1 PUSH1 0xA PUSH1 0x0 DUP3 DUP3 SLOAD PUSH2 0x115E SWAP2 SWAP1 PUSH2 0x1CE3 JUMP JUMPDEST SWAP3 POP POP DUP2 SWAP1 SSTORE POP PUSH1 0x3 PUSH1 0x0 SWAP1 SLOAD SWAP1 PUSH2 0x100 EXP SWAP1 DIV PUSH20 0xFFFFFFFFFFFFFFFFFFFFFFFFFFFFFFFFFFFFFFFF AND PUSH20 0xFFFFFFFFFFFFFFFFFFFFFFFFFFFFFFFFFFFFFFFF AND PUSH4 0x23B872DD CALLER PUSH2 0x11AC PUSH2 0xE99 JUMP JUMPDEST DUP11 PUSH1 0x40 MLOAD DUP5 PUSH4 0xFFFFFFFF AND PUSH1 0xE0 SHL DUP2 MSTORE PUSH1 0x4 ADD PUSH2 0x11CB SWAP4 SWAP3 SWAP2 SWAP1 PUSH2 0x19D6 JUMP JUMPDEST PUSH1 0x20 PUSH1 0x40 MLOAD DUP1 DUP4 SUB DUP2 PUSH1 0x0 DUP8 DUP1 EXTCODESIZE ISZERO DUP1 ISZERO PUSH2 0x11E5 JUMPI PUSH1 0x0 DUP1 REVERT JUMPDEST POP GAS CALL ISZERO DUP1 ISZERO PUSH2 0x11F9 JUMPI RETURNDATASIZE PUSH1 0x0 DUP1 RETURNDATACOPY RETURNDATASIZE PUSH1 0x0 REVERT JUMPDEST POP POP POP POP PUSH1 0x40 MLOAD RETURNDATASIZE PUSH1 0x1F NOT PUSH1 0x1F DUP3 ADD AND DUP3 ADD DUP1 PUSH1 0x40 MSTORE POP DUP2 ADD SWAP1 PUSH2 0x121D SWAP2 SWAP1 PUSH2 0x16A6 JUMP JUMPDEST PUSH2 0x125C JUMPI PUSH1 0x40 MLOAD PUSH32 0x8C379A000000000000000000000000000000000000000000000000000000000 DUP2 MSTORE PUSH1 0x4 ADD PUSH2 0x1253 SWAP1 PUSH2 0x1A56 JUMP JUMPDEST PUSH1 0x40 MLOAD DUP1 SWAP2 SUB SWAP1 REVERT JUMPDEST PUSH1 0x1 PUSH1 0x0 SWAP1 SLOAD SWAP1 PUSH2 0x100 EXP SWAP1 DIV PUSH20 0xFFFFFFFFFFFFFFFFFFFFFFFFFFFFFFFFFFFFFFFF AND PUSH20 0xFFFFFFFFFFFFFFFFFFFFFFFFFFFFFFFFFFFFFFFF AND PUSH4 0xA9059CBB CALLER DUP5 PUSH1 0x40 MLOAD DUP4 PUSH4 0xFFFFFFFF AND PUSH1 0xE0 SHL DUP2 MSTORE PUSH1 0x4 ADD PUSH2 0x12B9 SWAP3 SWAP2 SWAP1 PUSH2 0x1A0D JUMP JUMPDEST PUSH1 0x20 PUSH1 0x40 MLOAD DUP1 DUP4 SUB DUP2 PUSH1 0x0 DUP8 DUP1 EXTCODESIZE ISZERO DUP1 ISZERO PUSH2 0x12D3 JUMPI PUSH1 0x0 DUP1 REVERT JUMPDEST POP GAS CALL ISZERO DUP1 ISZERO PUSH2 0x12E7 JUMPI RETURNDATASIZE PUSH1 0x0 DUP1 RETURNDATACOPY RETURNDATASIZE PUSH1 0x0 REVERT JUMPDEST POP POP POP POP PUSH1 0x40 MLOAD RETURNDATASIZE PUSH1 0x1F NOT PUSH1 0x1F DUP3 ADD AND DUP3 ADD DUP1 PUSH1 0x40 MSTORE POP DUP2 ADD SWAP1 PUSH2 0x130B SWAP2 SWAP1 PUSH2 0x16A6 JUMP JUMPDEST PUSH2 0x134A JUMPI PUSH1 0x40 MLOAD PUSH32 0x8C379A000000000000000000000000000000000000000000000000000000000 DUP2 MSTORE PUSH1 0x4 ADD PUSH2 0x1341 SWAP1 PUSH2 0x1BB6 JUMP JUMPDEST PUSH1 0x40 MLOAD DUP1 SWAP2 SUB SWAP1 REVERT JUMPDEST PUSH1 0x2 PUSH1 0x0 SWAP1 SLOAD SWAP1 PUSH2 0x100 EXP SWAP1 DIV PUSH20 0xFFFFFFFFFFFFFFFFFFFFFFFFFFFFFFFFFFFFFFFF AND PUSH20 0xFFFFFFFFFFFFFFFFFFFFFFFFFFFFFFFFFFFFFFFF AND PUSH4 0xA9059CBB CALLER DUP4 PUSH1 0x40 MLOAD DUP4 PUSH4 0xFFFFFFFF AND PUSH1 0xE0 SHL DUP2 MSTORE PUSH1 0x4 ADD PUSH2 0x13A7 SWAP3 SWAP2 SWAP1 PUSH2 0x1A0D JUMP JUMPDEST PUSH1 0x20 PUSH1 0x40 MLOAD DUP1 DUP4 SUB DUP2 PUSH1 0x0 DUP8 DUP1 EXTCODESIZE ISZERO DUP1 ISZERO PUSH2 0x13C1 JUMPI PUSH1 0x0 DUP1 REVERT JUMPDEST POP GAS CALL ISZERO DUP1 ISZERO PUSH2 0x13D5 JUMPI RETURNDATASIZE PUSH1 0x0 DUP1 RETURNDATACOPY RETURNDATASIZE PUSH1 0x0 REVERT JUMPDEST POP POP POP POP PUSH1 0x40 MLOAD RETURNDATASIZE PUSH1 0x1F NOT PUSH1 0x1F DUP3 ADD AND DUP3 ADD DUP1 PUSH1 0x40 MSTORE POP DUP2 ADD SWAP1 PUSH2 0x13F9 SWAP2 SWAP1 PUSH2 0x16A6 JUMP JUMPDEST PUSH2 0x1438 JUMPI PUSH1 0x40 MLOAD PUSH32 0x8C379A000000000000000000000000000000000000000000000000000000000 DUP2 MSTORE PUSH1 0x4 ADD PUSH2 0x142F SWAP1 PUSH2 0x1B76 JUMP JUMPDEST PUSH1 0x40 MLOAD DUP1 SWAP2 SUB SWAP1 REVERT JUMPDEST PUSH1 0xA SLOAD PUSH1 0x9 SLOAD PUSH2 0x1448 SWAP2 SWAP1 PUSH2 0x1C89 JUMP JUMPDEST PUSH1 0x6 DUP2 SWAP1 SSTORE POP POP POP POP POP POP POP POP JUMP JUMPDEST PUSH2 0x145F PUSH2 0x14DB JUMP JUMPDEST PUSH1 0x0 PUSH20 0xFFFFFFFFFFFFFFFFFFFFFFFFFFFFFFFFFFFFFFFF AND DUP2 PUSH20 0xFFFFFFFFFFFFFFFFFFFFFFFFFFFFFFFFFFFFFFFF AND EQ ISZERO PUSH2 0x14CF JUMPI PUSH1 0x40 MLOAD PUSH32 0x8C379A000000000000000000000000000000000000000000000000000000000 DUP2 MSTORE PUSH1 0x4 ADD PUSH2 0x14C6 SWAP1 PUSH2 0x1A96 JUMP JUMPDEST PUSH1 0x40 MLOAD DUP1 SWAP2 SUB SWAP1 REVERT JUMPDEST PUSH2 0x14D8 DUP2 PUSH2 0x1559 JUMP JUMPDEST POP JUMP JUMPDEST PUSH2 0x14E3 PUSH2 0x161D JUMP JUMPDEST PUSH20 0xFFFFFFFFFFFFFFFFFFFFFFFFFFFFFFFFFFFFFFFF AND PUSH2 0x1501 PUSH2 0xE99 JUMP JUMPDEST PUSH20 0xFFFFFFFFFFFFFFFFFFFFFFFFFFFFFFFFFFFFFFFF AND EQ PUSH2 0x1557 JUMPI PUSH1 0x40 MLOAD PUSH32 0x8C379A000000000000000000000000000000000000000000000000000000000 DUP2 MSTORE PUSH1 0x4 ADD PUSH2 0x154E SWAP1 PUSH2 0x1B16 JUMP JUMPDEST PUSH1 0x40 MLOAD DUP1 SWAP2 SUB SWAP1 REVERT JUMPDEST JUMP JUMPDEST PUSH1 0x0 DUP1 PUSH1 0x0 SWAP1 SLOAD SWAP1 PUSH2 0x100 EXP SWAP1 DIV PUSH20 0xFFFFFFFFFFFFFFFFFFFFFFFFFFFFFFFFFFFFFFFF AND SWAP1 POP DUP2 PUSH1 0x0 DUP1 PUSH2 0x100 EXP DUP2 SLOAD DUP2 PUSH20 0xFFFFFFFFFFFFFFFFFFFFFFFFFFFFFFFFFFFFFFFF MUL NOT AND SWAP1 DUP4 PUSH20 0xFFFFFFFFFFFFFFFFFFFFFFFFFFFFFFFFFFFFFFFF AND MUL OR SWAP1 SSTORE POP DUP2 PUSH20 0xFFFFFFFFFFFFFFFFFFFFFFFFFFFFFFFFFFFFFFFF AND DUP2 PUSH20 0xFFFFFFFFFFFFFFFFFFFFFFFFFFFFFFFFFFFFFFFF AND PUSH32 0x8BE0079C531659141344CD1FD0A4F28419497F9722A3DAAFE3B4186F6B6457E0 PUSH1 0x40 MLOAD PUSH1 0x40 MLOAD DUP1 SWAP2 SUB SWAP1 LOG3 POP POP JUMP JUMPDEST PUSH1 0x0 CALLER SWAP1 POP SWAP1 JUMP JUMPDEST PUSH1 0x0 DUP2 CALLDATALOAD SWAP1 POP PUSH2 0x1634 DUP2 PUSH2 0x212D JUMP JUMPDEST SWAP3 SWAP2 POP POP JUMP JUMPDEST PUSH1 0x0 DUP2 MLOAD SWAP1 POP PUSH2 0x1649 DUP2 PUSH2 0x2144 JUMP JUMPDEST SWAP3 SWAP2 POP POP JUMP JUMPDEST PUSH1 0x0 DUP2 CALLDATALOAD SWAP1 POP PUSH2 0x165E DUP2 PUSH2 0x215B JUMP JUMPDEST SWAP3 SWAP2 POP POP JUMP JUMPDEST PUSH1 0x0 DUP2 MLOAD SWAP1 POP PUSH2 0x1673 DUP2 PUSH2 0x215B JUMP JUMPDEST SWAP3 SWAP2 POP POP JUMP JUMPDEST PUSH1 0x0 PUSH1 0x20 DUP3 DUP5 SUB SLT ISZERO PUSH2 0x168F JUMPI PUSH2 0x168E PUSH2 0x1DBD JUMP JUMPDEST JUMPDEST PUSH1 0x0 PUSH2 0x169D DUP5 DUP3 DUP6 ADD PUSH2 0x1625 JUMP JUMPDEST SWAP2 POP POP SWAP3 SWAP2 POP POP JUMP JUMPDEST PUSH1 0x0 PUSH1 0x20 DUP3 DUP5 SUB SLT ISZERO PUSH2 0x16BC JUMPI PUSH2 0x16BB PUSH2 0x1DBD JUMP JUMPDEST JUMPDEST PUSH1 0x0 PUSH2 0x16CA DUP5 DUP3 DUP6 ADD PUSH2 0x163A JUMP JUMPDEST SWAP2 POP POP SWAP3 SWAP2 POP POP JUMP JUMPDEST PUSH1 0x0 PUSH1 0x20 DUP3 DUP5 SUB SLT ISZERO PUSH2 0x16E9 JUMPI PUSH2 0x16E8 PUSH2 0x1DBD JUMP JUMPDEST JUMPDEST PUSH1 0x0 PUSH2 0x16F7 DUP5 DUP3 DUP6 ADD PUSH2 0x164F JUMP JUMPDEST SWAP2 POP POP SWAP3 SWAP2 POP POP JUMP JUMPDEST PUSH1 0x0 PUSH1 0x20 DUP3 DUP5 SUB SLT ISZERO PUSH2 0x1716 JUMPI PUSH2 0x1715 PUSH2 0x1DBD JUMP JUMPDEST JUMPDEST PUSH1 0x0 PUSH2 0x1724 DUP5 DUP3 DUP6 ADD PUSH2 0x1664 JUMP JUMPDEST SWAP2 POP POP SWAP3 SWAP2 POP POP JUMP JUMPDEST PUSH1 0x0 DUP1 PUSH1 0x40 DUP4 DUP6 SUB SLT ISZERO PUSH2 0x1744 JUMPI PUSH2 0x1743 PUSH2 0x1DBD JUMP JUMPDEST JUMPDEST PUSH1 0x0 PUSH2 0x1752 DUP6 DUP3 DUP7 ADD PUSH2 0x164F JUMP JUMPDEST SWAP3 POP POP PUSH1 0x20 PUSH2 0x1763 DUP6 DUP3 DUP7 ADD PUSH2 0x1625 JUMP JUMPDEST SWAP2 POP POP SWAP3 POP SWAP3 SWAP1 POP JUMP JUMPDEST PUSH1 0x0 DUP1 PUSH1 0x40 DUP4 DUP6 SUB SLT ISZERO PUSH2 0x1784 JUMPI PUSH2 0x1783 PUSH2 0x1DBD JUMP JUMPDEST JUMPDEST PUSH1 0x0 PUSH2 0x1792 DUP6 DUP3 DUP7 ADD PUSH2 0x164F JUMP JUMPDEST SWAP3 POP POP PUSH1 0x20 PUSH2 0x17A3 DUP6 DUP3 DUP7 ADD PUSH2 0x164F JUMP JUMPDEST SWAP2 POP POP SWAP3 POP SWAP3 SWAP1 POP JUMP JUMPDEST PUSH2 0x17B6 DUP2 PUSH2 0x1D17 JUMP JUMPDEST DUP3 MSTORE POP POP JUMP JUMPDEST PUSH1 0x0 PUSH2 0x17C9 PUSH1 0x25 DUP4 PUSH2 0x1BF1 JUMP JUMPDEST SWAP2 POP PUSH2 0x17D4 DUP3 PUSH2 0x1DC2 JUMP JUMPDEST PUSH1 0x40 DUP3 ADD SWAP1 POP SWAP2 SWAP1 POP JUMP JUMPDEST PUSH1 0x0 PUSH2 0x17EC PUSH1 0x1F DUP4 PUSH2 0x1BF1 JUMP JUMPDEST SWAP2 POP PUSH2 0x17F7 DUP3 PUSH2 0x1E11 JUMP JUMPDEST PUSH1 0x20 DUP3 ADD SWAP1 POP SWAP2 SWAP1 POP JUMP JUMPDEST PUSH1 0x0 PUSH2 0x180F PUSH1 0x30 DUP4 PUSH2 0x1BF1 JUMP JUMPDEST SWAP2 POP PUSH2 0x181A DUP3 PUSH2 0x1E3A JUMP JUMPDEST PUSH1 0x40 DUP3 ADD SWAP1 POP SWAP2 SWAP1 POP JUMP JUMPDEST PUSH1 0x0 PUSH2 0x1832 PUSH1 0x26 DUP4 PUSH2 0x1BF1 JUMP JUMPDEST SWAP2 POP PUSH2 0x183D DUP3 PUSH2 0x1E89 JUMP JUMPDEST PUSH1 0x40 DUP3 ADD SWAP1 POP SWAP2 SWAP1 POP JUMP JUMPDEST PUSH1 0x0 PUSH2 0x1855 PUSH1 0x31 DUP4 PUSH2 0x1BF1 JUMP JUMPDEST SWAP2 POP PUSH2 0x1860 DUP3 PUSH2 0x1ED8 JUMP JUMPDEST PUSH1 0x40 DUP3 ADD SWAP1 POP SWAP2 SWAP1 POP JUMP JUMPDEST PUSH1 0x0 PUSH2 0x1878 PUSH1 0x25 DUP4 PUSH2 0x1BF1 JUMP JUMPDEST SWAP2 POP PUSH2 0x1883 DUP3 PUSH2 0x1F27 JUMP JUMPDEST PUSH1 0x40 DUP3 ADD SWAP1 POP SWAP2 SWAP1 POP JUMP JUMPDEST PUSH1 0x0 PUSH2 0x189B PUSH1 0x23 DUP4 PUSH2 0x1BF1 JUMP JUMPDEST SWAP2 POP PUSH2 0x18A6 DUP3 PUSH2 0x1F76 JUMP JUMPDEST PUSH1 0x40 DUP3 ADD SWAP1 POP SWAP2 SWAP1 POP JUMP JUMPDEST PUSH1 0x0 PUSH2 0x18BE PUSH1 0x20 DUP4 PUSH2 0x1BF1 JUMP JUMPDEST SWAP2 POP PUSH2 0x18C9 DUP3 PUSH2 0x1FC5 JUMP JUMPDEST PUSH1 0x20 DUP3 ADD SWAP1 POP SWAP2 SWAP1 POP JUMP JUMPDEST PUSH1 0x0 PUSH2 0x18E1 PUSH1 0x23 DUP4 PUSH2 0x1BF1 JUMP JUMPDEST SWAP2 POP PUSH2 0x18EC DUP3 PUSH2 0x1FEE JUMP JUMPDEST PUSH1 0x40 DUP3 ADD SWAP1 POP SWAP2 SWAP1 POP JUMP JUMPDEST PUSH1 0x0 PUSH2 0x1904 PUSH1 0x3B DUP4 PUSH2 0x1BF1 JUMP JUMPDEST SWAP2 POP PUSH2 0x190F DUP3 PUSH2 0x203D JUMP JUMPDEST PUSH1 0x40 DUP3 ADD SWAP1 POP SWAP2 SWAP1 POP JUMP JUMPDEST PUSH1 0x0 PUSH2 0x1927 PUSH1 0x14 DUP4 PUSH2 0x1BF1 JUMP JUMPDEST SWAP2 POP PUSH2 0x1932 DUP3 PUSH2 0x208C JUMP JUMPDEST PUSH1 0x20 DUP3 ADD SWAP1 POP SWAP2 SWAP1 POP JUMP JUMPDEST PUSH1 0x0 PUSH2 0x194A PUSH1 0x27 DUP4 PUSH2 0x1BF1 JUMP JUMPDEST SWAP2 POP PUSH2 0x1955 DUP3 PUSH2 0x20B5 JUMP JUMPDEST PUSH1 0x40 DUP3 ADD SWAP1 POP SWAP2 SWAP1 POP JUMP JUMPDEST PUSH1 0x0 PUSH2 0x196D PUSH1 0x14 DUP4 PUSH2 0x1BF1 JUMP JUMPDEST SWAP2 POP PUSH2 0x1978 DUP3 PUSH2 0x2104 JUMP JUMPDEST PUSH1 0x20 DUP3 ADD SWAP1 POP SWAP2 SWAP1 POP JUMP JUMPDEST PUSH2 0x198C DUP2 PUSH2 0x1D55 JUMP JUMPDEST DUP3 MSTORE POP POP JUMP JUMPDEST PUSH1 0x0 PUSH1 0x20 DUP3 ADD SWAP1 POP PUSH2 0x19A7 PUSH1 0x0 DUP4 ADD DUP5 PUSH2 0x17AD JUMP JUMPDEST SWAP3 SWAP2 POP POP JUMP JUMPDEST PUSH1 0x0 PUSH1 0x40 DUP3 ADD SWAP1 POP PUSH2 0x19C2 PUSH1 0x0 DUP4 ADD DUP6 PUSH2 0x17AD JUMP JUMPDEST PUSH2 0x19CF PUSH1 0x20 DUP4 ADD DUP5 PUSH2 0x17AD JUMP JUMPDEST SWAP4 SWAP3 POP POP POP JUMP JUMPDEST PUSH1 0x0 PUSH1 0x60 DUP3 ADD SWAP1 POP PUSH2 0x19EB PUSH1 0x0 DUP4 ADD DUP7 PUSH2 0x17AD JUMP JUMPDEST PUSH2 0x19F8 PUSH1 0x20 DUP4 ADD DUP6 PUSH2 0x17AD JUMP JUMPDEST PUSH2 0x1A05 PUSH1 0x40 DUP4 ADD DUP5 PUSH2 0x1983 JUMP JUMPDEST SWAP5 SWAP4 POP POP POP POP JUMP JUMPDEST PUSH1 0x0 PUSH1 0x40 DUP3 ADD SWAP1 POP PUSH2 0x1A22 PUSH1 0x0 DUP4 ADD DUP6 PUSH2 0x17AD JUMP JUMPDEST PUSH2 0x1A2F PUSH1 0x20 DUP4 ADD DUP5 PUSH2 0x1983 JUMP JUMPDEST SWAP4 SWAP3 POP POP POP JUMP JUMPDEST PUSH1 0x0 PUSH1 0x20 DUP3 ADD SWAP1 POP DUP2 DUP2 SUB PUSH1 0x0 DUP4 ADD MSTORE PUSH2 0x1A4F DUP2 PUSH2 0x17BC JUMP JUMPDEST SWAP1 POP SWAP2 SWAP1 POP JUMP JUMPDEST PUSH1 0x0 PUSH1 0x20 DUP3 ADD SWAP1 POP DUP2 DUP2 SUB PUSH1 0x0 DUP4 ADD MSTORE PUSH2 0x1A6F DUP2 PUSH2 0x17DF JUMP JUMPDEST SWAP1 POP SWAP2 SWAP1 POP JUMP JUMPDEST PUSH1 0x0 PUSH1 0x20 DUP3 ADD SWAP1 POP DUP2 DUP2 SUB PUSH1 0x0 DUP4 ADD MSTORE PUSH2 0x1A8F DUP2 PUSH2 0x1802 JUMP JUMPDEST SWAP1 POP SWAP2 SWAP1 POP JUMP JUMPDEST PUSH1 0x0 PUSH1 0x20 DUP3 ADD SWAP1 POP DUP2 DUP2 SUB PUSH1 0x0 DUP4 ADD MSTORE PUSH2 0x1AAF DUP2 PUSH2 0x1825 JUMP JUMPDEST SWAP1 POP SWAP2 SWAP1 POP JUMP JUMPDEST PUSH1 0x0 PUSH1 0x20 DUP3 ADD SWAP1 POP DUP2 DUP2 SUB PUSH1 0x0 DUP4 ADD MSTORE PUSH2 0x1ACF DUP2 PUSH2 0x1848 JUMP JUMPDEST SWAP1 POP SWAP2 SWAP1 POP JUMP JUMPDEST PUSH1 0x0 PUSH1 0x20 DUP3 ADD SWAP1 POP DUP2 DUP2 SUB PUSH1 0x0 DUP4 ADD MSTORE PUSH2 0x1AEF DUP2 PUSH2 0x186B JUMP JUMPDEST SWAP1 POP SWAP2 SWAP1 POP JUMP JUMPDEST PUSH1 0x0 PUSH1 0x20 DUP3 ADD SWAP1 POP DUP2 DUP2 SUB PUSH1 0x0 DUP4 ADD MSTORE PUSH2 0x1B0F DUP2 PUSH2 0x188E JUMP JUMPDEST SWAP1 POP SWAP2 SWAP1 POP JUMP JUMPDEST PUSH1 0x0 PUSH1 0x20 DUP3 ADD SWAP1 POP DUP2 DUP2 SUB PUSH1 0x0 DUP4 ADD MSTORE PUSH2 0x1B2F DUP2 PUSH2 0x18B1 JUMP JUMPDEST SWAP1 POP SWAP2 SWAP1 POP JUMP JUMPDEST PUSH1 0x0 PUSH1 0x20 DUP3 ADD SWAP1 POP DUP2 DUP2 SUB PUSH1 0x0 DUP4 ADD MSTORE PUSH2 0x1B4F DUP2 PUSH2 0x18D4 JUMP JUMPDEST SWAP1 POP SWAP2 SWAP1 POP JUMP JUMPDEST PUSH1 0x0 PUSH1 0x20 DUP3 ADD SWAP1 POP DUP2 DUP2 SUB PUSH1 0x0 DUP4 ADD MSTORE PUSH2 0x1B6F DUP2 PUSH2 0x18F7 JUMP JUMPDEST SWAP1 POP SWAP2 SWAP1 POP JUMP JUMPDEST PUSH1 0x0 PUSH1 0x20 DUP3 ADD SWAP1 POP DUP2 DUP2 SUB PUSH1 0x0 DUP4 ADD MSTORE PUSH2 0x1B8F DUP2 PUSH2 0x191A JUMP JUMPDEST SWAP1 POP SWAP2 SWAP1 POP JUMP JUMPDEST PUSH1 0x0 PUSH1 0x20 DUP3 ADD SWAP1 POP DUP2 DUP2 SUB PUSH1 0x0 DUP4 ADD MSTORE PUSH2 0x1BAF DUP2 PUSH2 0x193D JUMP JUMPDEST SWAP1 POP SWAP2 SWAP1 POP JUMP JUMPDEST PUSH1 0x0 PUSH1 0x20 DUP3 ADD SWAP1 POP DUP2 DUP2 SUB PUSH1 0x0 DUP4 ADD MSTORE PUSH2 0x1BCF DUP2 PUSH2 0x1960 JUMP JUMPDEST SWAP1 POP SWAP2 SWAP1 POP JUMP JUMPDEST PUSH1 0x0 PUSH1 0x20 DUP3 ADD SWAP1 POP PUSH2 0x1BEB PUSH1 0x0 DUP4 ADD DUP5 PUSH2 0x1983 JUMP JUMPDEST SWAP3 SWAP2 POP POP JUMP JUMPDEST PUSH1 0x0 DUP3 DUP3 MSTORE PUSH1 0x20 DUP3 ADD SWAP1 POP SWAP3 SWAP2 POP POP JUMP JUMPDEST PUSH1 0x0 PUSH2 0x1C0D DUP3 PUSH2 0x1D55 JUMP JUMPDEST SWAP2 POP PUSH2 0x1C18 DUP4 PUSH2 0x1D55 JUMP JUMPDEST SWAP3 POP DUP3 PUSH32 0xFFFFFFFFFFFFFFFFFFFFFFFFFFFFFFFFFFFFFFFFFFFFFFFFFFFFFFFFFFFFFFFF SUB DUP3 GT ISZERO PUSH2 0x1C4D JUMPI PUSH2 0x1C4C PUSH2 0x1D5F JUMP JUMPDEST JUMPDEST DUP3 DUP3 ADD SWAP1 POP SWAP3 SWAP2 POP POP JUMP JUMPDEST PUSH1 0x0 PUSH2 0x1C63 DUP3 PUSH2 0x1D55 JUMP JUMPDEST SWAP2 POP PUSH2 0x1C6E DUP4 PUSH2 0x1D55 JUMP JUMPDEST SWAP3 POP DUP3 PUSH2 0x1C7E JUMPI PUSH2 0x1C7D PUSH2 0x1D8E JUMP JUMPDEST JUMPDEST DUP3 DUP3 DIV SWAP1 POP SWAP3 SWAP2 POP POP JUMP JUMPDEST PUSH1 0x0 PUSH2 0x1C94 DUP3 PUSH2 0x1D55 JUMP JUMPDEST SWAP2 POP PUSH2 0x1C9F DUP4 PUSH2 0x1D55 JUMP JUMPDEST SWAP3 POP DUP2 PUSH32 0xFFFFFFFFFFFFFFFFFFFFFFFFFFFFFFFFFFFFFFFFFFFFFFFFFFFFFFFFFFFFFFFF DIV DUP4 GT DUP3 ISZERO ISZERO AND ISZERO PUSH2 0x1CD8 JUMPI PUSH2 0x1CD7 PUSH2 0x1D5F JUMP JUMPDEST JUMPDEST DUP3 DUP3 MUL SWAP1 POP SWAP3 SWAP2 POP POP JUMP JUMPDEST PUSH1 0x0 PUSH2 0x1CEE DUP3 PUSH2 0x1D55 JUMP JUMPDEST SWAP2 POP PUSH2 0x1CF9 DUP4 PUSH2 0x1D55 JUMP JUMPDEST SWAP3 POP DUP3 DUP3 LT ISZERO PUSH2 0x1D0C JUMPI PUSH2 0x1D0B PUSH2 0x1D5F JUMP JUMPDEST JUMPDEST DUP3 DUP3 SUB SWAP1 POP SWAP3 SWAP2 POP POP JUMP JUMPDEST PUSH1 0x0 PUSH2 0x1D22 DUP3 PUSH2 0x1D35 JUMP JUMPDEST SWAP1 POP SWAP2 SWAP1 POP JUMP JUMPDEST PUSH1 0x0 DUP2 ISZERO ISZERO SWAP1 POP SWAP2 SWAP1 POP JUMP JUMPDEST PUSH1 0x0 PUSH20 0xFFFFFFFFFFFFFFFFFFFFFFFFFFFFFFFFFFFFFFFF DUP3 AND SWAP1 POP SWAP2 SWAP1 POP JUMP JUMPDEST PUSH1 0x0 DUP2 SWAP1 POP SWAP2 SWAP1 POP JUMP JUMPDEST PUSH32 0x4E487B7100000000000000000000000000000000000000000000000000000000 PUSH1 0x0 MSTORE PUSH1 0x11 PUSH1 0x4 MSTORE PUSH1 0x24 PUSH1 0x0 REVERT JUMPDEST PUSH32 0x4E487B7100000000000000000000000000000000000000000000000000000000 PUSH1 0x0 MSTORE PUSH1 0x12 PUSH1 0x4 MSTORE PUSH1 0x24 PUSH1 0x0 REVERT JUMPDEST PUSH1 0x0 DUP1 REVERT JUMPDEST PUSH32 0x4E6F7420656E6F756768207B746F6B656E427D2068617665206265656E20616C PUSH1 0x0 DUP3 ADD MSTORE PUSH32 0x6C6F776564000000000000000000000000000000000000000000000000000000 PUSH1 0x20 DUP3 ADD MSTORE POP JUMP JUMPDEST PUSH32 0x53656E64696E67206C697175696469747920746F6B656E73206661696C656400 PUSH1 0x0 DUP3 ADD MSTORE POP JUMP JUMPDEST PUSH32 0x596F75206469646E277420636F6E74726962757465207375636820616E20616D PUSH1 0x0 DUP3 ADD MSTORE PUSH32 0x6F756E7420746F2074686520706F6F6C00000000000000000000000000000000 PUSH1 0x20 DUP3 ADD MSTORE POP JUMP JUMPDEST PUSH32 0x4F776E61626C653A206E6577206F776E657220697320746865207A65726F2061 PUSH1 0x0 DUP3 ADD MSTORE PUSH32 0x6464726573730000000000000000000000000000000000000000000000000000 PUSH1 0x20 DUP3 ADD MSTORE POP JUMP JUMPDEST PUSH32 0x5468652076616C75652070726F7669646564206973206E6F7420746865207361 PUSH1 0x0 DUP3 ADD MSTORE PUSH32 0x6D6520666F72206561636820746F6B656E000000000000000000000000000000 PUSH1 0x20 DUP3 ADD MSTORE POP JUMP JUMPDEST PUSH32 0x4E6F7420656E6F756768207B746F6B656E417D2068617665206265656E20616C PUSH1 0x0 DUP3 ADD MSTORE PUSH32 0x6C6F776564000000000000000000000000000000000000000000000000000000 PUSH1 0x20 DUP3 ADD MSTORE POP JUMP JUMPDEST PUSH32 0x54686520706F6F6C20646F6573206E6F7420737570706F727420746869732063 PUSH1 0x0 DUP3 ADD MSTORE PUSH32 0x6F696E0000000000000000000000000000000000000000000000000000000000 PUSH1 0x20 DUP3 ADD MSTORE POP JUMP JUMPDEST PUSH32 0x4F776E61626C653A2063616C6C6572206973206E6F7420746865206F776E6572 PUSH1 0x0 DUP3 ADD MSTORE POP JUMP JUMPDEST PUSH32 0x4E6F7420656E6F75676820746F6B656E732068617665206265656E20616C6C6F PUSH1 0x0 DUP3 ADD MSTORE PUSH32 0x7765640000000000000000000000000000000000000000000000000000000000 PUSH1 0x20 DUP3 ADD MSTORE POP JUMP JUMPDEST PUSH32 0x4E6F7420656E6F756768206C697175696469747920546F6B656E732028427572 PUSH1 0x0 DUP3 ADD MSTORE PUSH32 0x6765722053776170292068617665206265656E20616C6C6F7765640000000000 PUSH1 0x20 DUP3 ADD MSTORE POP JUMP JUMPDEST PUSH32 0x53656E64696E6720636F696E42206661696C6564000000000000000000000000 PUSH1 0x0 DUP3 ADD MSTORE POP JUMP JUMPDEST PUSH32 0x6E6F7420656E6F7567682066756E647320746F20706572666F726D207472616E PUSH1 0x0 DUP3 ADD MSTORE PUSH32 0x73616374696F6E00000000000000000000000000000000000000000000000000 PUSH1 0x20 DUP3 ADD MSTORE POP JUMP JUMPDEST PUSH32 0x53656E64696E6720636F696E41206661696C6564000000000000000000000000 PUSH1 0x0 DUP3 ADD MSTORE POP JUMP JUMPDEST PUSH2 0x2136 DUP2 PUSH2 0x1D17 JUMP JUMPDEST DUP2 EQ PUSH2 0x2141 JUMPI PUSH1 0x0 DUP1 REVERT JUMPDEST POP JUMP JUMPDEST PUSH2 0x214D DUP2 PUSH2 0x1D29 JUMP JUMPDEST DUP2 EQ PUSH2 0x2158 JUMPI PUSH1 0x0 DUP1 REVERT JUMPDEST POP JUMP JUMPDEST PUSH2 0x2164 DUP2 PUSH2 0x1D55 JUMP JUMPDEST DUP2 EQ PUSH2 0x216F JUMPI PUSH1 0x0 DUP1 REVERT JUMPDEST POP JUMP INVALID LOG2 PUSH5 0x6970667358 0x22 SLT KECCAK256 XOR 0xA8 0xE9 GASLIMIT 0x2E MSTORE 0xE5 DUP2 CALL JUMP DUP13 SDIV PUSH8 0x142FB723DA20B04D 0xB6 0xCB 0xBB 0xAD MOD DUP3 0xF7 DELEGATECALL 0xF8 SIGNEXTEND MULMOD PUSH5 0x736F6C6343 STOP ADDMOD MOD STOP CALLER "
		},
		"gasEstimates": {
			"creation": {
				"codeDepositCost": "1723200",
				"executionCost": "infinite",
				"totalCost": "infinite"
			},
			"external": {
				"donate(uint256,uint256)": "infinite",
				"exchange(uint256,address)": "infinite",
				"liquidityToken()": "2581",
				"owner()": "2544",
				"redeem(uint256)": "infinite",
				"renounceOwnership()": "30398",
				"tokenA()": "2537",
				"tokenB()": "2603",
				"total_funds_received()": "2473",
				"transferOwnership(address)": "30835"
			},
			"internal": {
				"distributeDividends()": "infinite"
			}
		},
		"methodIdentifiers": {
			"donate(uint256,uint256)": "0cdd53f6",
			"exchange(uint256,address)": "0fe2abcf",
			"liquidityToken()": "43cd8f7e",
			"owner()": "8da5cb5b",
			"redeem(uint256)": "db006a75",
			"renounceOwnership()": "715018a6",
			"tokenA()": "0fc63d10",
			"tokenB()": "5f64b55b",
			"total_funds_received()": "bcd75989",
			"transferOwnership(address)": "f2fde38b"
		}
	},
	"abi": [
		{
			"inputs": [
				{
					"internalType": "address",
					"name": "_tokenA",
					"type": "address"
				},
				{
					"internalType": "address",
					"name": "_tokenB",
					"type": "address"
				},
				{
					"internalType": "address",
					"name": "_poolToken",
					"type": "address"
				},
				{
					"internalType": "address",
					"name": "_dataFeedA",
					"type": "address"
				},
				{
					"internalType": "address",
					"name": "_dataFeedB",
					"type": "address"
				}
			],
			"stateMutability": "nonpayable",
			"type": "constructor"
		},
		{
			"anonymous": false,
			"inputs": [
				{
					"indexed": true,
					"internalType": "address",
					"name": "previousOwner",
					"type": "address"
				},
				{
					"indexed": true,
					"internalType": "address",
					"name": "newOwner",
					"type": "address"
				}
			],
			"name": "OwnershipTransferred",
			"type": "event"
		},
		{
			"inputs": [
				{
					"internalType": "uint256",
					"name": "_amount_coin_A",
					"type": "uint256"
				},
				{
					"internalType": "uint256",
					"name": "_amount_coin_B",
					"type": "uint256"
				}
			],
			"name": "donate",
			"outputs": [],
			"stateMutability": "payable",
			"type": "function"
		},
		{
			"inputs": [
				{
					"internalType": "uint256",
					"name": "_amount",
					"type": "uint256"
				},
				{
					"internalType": "address",
					"name": "_coin_received",
					"type": "address"
				}
			],
			"name": "exchange",
			"outputs": [],
			"stateMutability": "payable",
			"type": "function"
		},
		{
			"inputs": [],
			"name": "liquidityToken",
			"outputs": [
				{
					"internalType": "address",
					"name": "",
					"type": "address"
				}
			],
			"stateMutability": "view",
			"type": "function"
		},
		{
			"inputs": [],
			"name": "owner",
			"outputs": [
				{
					"internalType": "address",
					"name": "",
					"type": "address"
				}
			],
			"stateMutability": "view",
			"type": "function"
		},
		{
			"inputs": [
				{
					"internalType": "uint256",
					"name": "_amount",
					"type": "uint256"
				}
			],
			"name": "redeem",
			"outputs": [],
			"stateMutability": "payable",
			"type": "function"
		},
		{
			"inputs": [],
			"name": "renounceOwnership",
			"outputs": [],
			"stateMutability": "nonpayable",
			"type": "function"
		},
		{
			"inputs": [],
			"name": "tokenA",
			"outputs": [
				{
					"internalType": "address",
					"name": "",
					"type": "address"
				}
			],
			"stateMutability": "view",
			"type": "function"
		},
		{
			"inputs": [],
			"name": "tokenB",
			"outputs": [
				{
					"internalType": "address",
					"name": "",
					"type": "address"
				}
			],
			"stateMutability": "view",
			"type": "function"
		},
		{
			"inputs": [],
			"name": "total_funds_received",
			"outputs": [
				{
					"internalType": "uint256",
					"name": "",
					"type": "uint256"
				}
			],
			"stateMutability": "view",
			"type": "function"
		},
		{
			"inputs": [
				{
					"internalType": "address",
					"name": "newOwner",
					"type": "address"
				}
			],
			"name": "transferOwnership",
			"outputs": [],
			"stateMutability": "nonpayable",
			"type": "function"
		}
	]
}