{
	"data": {
		"bytecode": {
			"linkReferences": {},
			"object": "6105da610053600b82828239805160001a607314610046577f4e487b7100000000000000000000000000000000000000000000000000000000600052600060045260246000fd5b30600052607381538281f3fe730000000000000000000000000000000000000000301460806040526004361061004b5760003560e01c80630159a91d14610050578063266001d314610080578063aab1d2cd146100b0575b600080fd5b61006a600480360381019061006591906102d9565b6100e0565b604051610077919061043e565b60405180910390f35b61009a600480360381019061009591906101ba565b610100565b6040516100a7919061043e565b60405180910390f35b6100ca60048036038101906100c59190610232565b61012c565b6040516100d7919061043e565b60405180910390f35b60606100f66100f086868661012c565b83610100565b9050949350505050565b6060828260405160200161011592919061041a565b604051602081830303815290604052905092915050565b606061014161013b8585610100565b83610100565b90509392505050565b600061015d61015884610485565b610460565b90508281526020810184848401111561017957610178610584565b5b6101848482856104dd565b509392505050565b600082601f8301126101a1576101a061057f565b5b81356101b184826020860161014a565b91505092915050565b600080604083850312156101d1576101d061058e565b5b600083013567ffffffffffffffff8111156101ef576101ee610589565b5b6101fb8582860161018c565b925050602083013567ffffffffffffffff81111561021c5761021b610589565b5b6102288582860161018c565b9150509250929050565b60008060006060848603121561024b5761024a61058e565b5b600084013567ffffffffffffffff81111561026957610268610589565b5b6102758682870161018c565b935050602084013567ffffffffffffffff81111561029657610295610589565b5b6102a28682870161018c565b925050604084013567ffffffffffffffff8111156102c3576102c2610589565b5b6102cf8682870161018c565b9150509250925092565b600080600080608085870312156102f3576102f261058e565b5b600085013567ffffffffffffffff81111561031157610310610589565b5b61031d8782880161018c565b945050602085013567ffffffffffffffff81111561033e5761033d610589565b5b61034a8782880161018c565b935050604085013567ffffffffffffffff81111561036b5761036a610589565b5b6103778782880161018c565b925050606085013567ffffffffffffffff81111561039857610397610589565b5b6103a48782880161018c565b91505092959194509250565b60006103bb826104b6565b6103c581856104c1565b93506103d58185602086016104ec565b6103de81610593565b840191505092915050565b60006103f4826104b6565b6103fe81856104d2565b935061040e8185602086016104ec565b80840191505092915050565b600061042682856103e9565b915061043282846103e9565b91508190509392505050565b6000602082019050818103600083015261045881846103b0565b905092915050565b600061046a61047b565b9050610476828261051f565b919050565b6000604051905090565b600067ffffffffffffffff8211156104a05761049f610550565b5b6104a982610593565b9050602081019050919050565b600081519050919050565b600082825260208201905092915050565b600081905092915050565b82818337600083830152505050565b60005b8381101561050a5780820151818401526020810190506104ef565b83811115610519576000848401525b50505050565b61052882610593565b810181811067ffffffffffffffff8211171561054757610546610550565b5b80604052505050565b7f4e487b7100000000000000000000000000000000000000000000000000000000600052604160045260246000fd5b600080fd5b600080fd5b600080fd5b600080fd5b6000601f19601f830116905091905056fea2646970667358221220b3b791ae941fef3e59ef1df5d8b9869966b09f6c3686c6ef00f4b884e4abb97864736f6c63430008060033",
			"opcodes": "PUSH2 0x5DA PUSH2 0x53 PUSH1 0xB DUP3 DUP3 DUP3 CODECOPY DUP1 MLOAD PUSH1 0x0 BYTE PUSH1 0x73 EQ PUSH2 0x46 JUMPI PUSH32 0x4E487B7100000000000000000000000000000000000000000000000000000000 PUSH1 0x0 MSTORE PUSH1 0x0 PUSH1 0x4 MSTORE PUSH1 0x24 PUSH1 0x0 REVERT JUMPDEST ADDRESS PUSH1 0x0 MSTORE PUSH1 0x73 DUP2 MSTORE8 DUP3 DUP2 RETURN INVALID PUSH20 0x0 ADDRESS EQ PUSH1 0x80 PUSH1 0x40 MSTORE PUSH1 0x4 CALLDATASIZE LT PUSH2 0x4B JUMPI PUSH1 0x0 CALLDATALOAD PUSH1 0xE0 SHR DUP1 PUSH4 0x159A91D EQ PUSH2 0x50 JUMPI DUP1 PUSH4 0x266001D3 EQ PUSH2 0x80 JUMPI DUP1 PUSH4 0xAAB1D2CD EQ PUSH2 0xB0 JUMPI JUMPDEST PUSH1 0x0 DUP1 REVERT JUMPDEST PUSH2 0x6A PUSH1 0x4 DUP1 CALLDATASIZE SUB DUP2 ADD SWAP1 PUSH2 0x65 SWAP2 SWAP1 PUSH2 0x2D9 JUMP JUMPDEST PUSH2 0xE0 JUMP JUMPDEST PUSH1 0x40 MLOAD PUSH2 0x77 SWAP2 SWAP1 PUSH2 0x43E JUMP JUMPDEST PUSH1 0x40 MLOAD DUP1 SWAP2 SUB SWAP1 RETURN JUMPDEST PUSH2 0x9A PUSH1 0x4 DUP1 CALLDATASIZE SUB DUP2 ADD SWAP1 PUSH2 0x95 SWAP2 SWAP1 PUSH2 0x1BA JUMP JUMPDEST PUSH2 0x100 JUMP JUMPDEST PUSH1 0x40 MLOAD PUSH2 0xA7 SWAP2 SWAP1 PUSH2 0x43E JUMP JUMPDEST PUSH1 0x40 MLOAD DUP1 SWAP2 SUB SWAP1 RETURN JUMPDEST PUSH2 0xCA PUSH1 0x4 DUP1 CALLDATASIZE SUB DUP2 ADD SWAP1 PUSH2 0xC5 SWAP2 SWAP1 PUSH2 0x232 JUMP JUMPDEST PUSH2 0x12C JUMP JUMPDEST PUSH1 0x40 MLOAD PUSH2 0xD7 SWAP2 SWAP1 PUSH2 0x43E JUMP JUMPDEST PUSH1 0x40 MLOAD DUP1 SWAP2 SUB SWAP1 RETURN JUMPDEST PUSH1 0x60 PUSH2 0xF6 PUSH2 0xF0 DUP7 DUP7 DUP7 PUSH2 0x12C JUMP JUMPDEST DUP4 PUSH2 0x100 JUMP JUMPDEST SWAP1 POP SWAP5 SWAP4 POP POP POP POP JUMP JUMPDEST PUSH1 0x60 DUP3 DUP3 PUSH1 0x40 MLOAD PUSH1 0x20 ADD PUSH2 0x115 SWAP3 SWAP2 SWAP1 PUSH2 0x41A JUMP JUMPDEST PUSH1 0x40 MLOAD PUSH1 0x20 DUP2 DUP4 SUB SUB DUP2 MSTORE SWAP1 PUSH1 0x40 MSTORE SWAP1 POP SWAP3 SWAP2 POP POP JUMP JUMPDEST PUSH1 0x60 PUSH2 0x141 PUSH2 0x13B DUP6 DUP6 PUSH2 0x100 JUMP JUMPDEST DUP4 PUSH2 0x100 JUMP JUMPDEST SWAP1 POP SWAP4 SWAP3 POP POP POP JUMP JUMPDEST PUSH1 0x0 PUSH2 0x15D PUSH2 0x158 DUP5 PUSH2 0x485 JUMP JUMPDEST PUSH2 0x460 JUMP JUMPDEST SWAP1 POP DUP3 DUP2 MSTORE PUSH1 0x20 DUP2 ADD DUP5 DUP5 DUP5 ADD GT ISZERO PUSH2 0x179 JUMPI PUSH2 0x178 PUSH2 0x584 JUMP JUMPDEST JUMPDEST PUSH2 0x184 DUP5 DUP3 DUP6 PUSH2 0x4DD JUMP JUMPDEST POP SWAP4 SWAP3 POP POP POP JUMP JUMPDEST PUSH1 0x0 DUP3 PUSH1 0x1F DUP4 ADD SLT PUSH2 0x1A1 JUMPI PUSH2 0x1A0 PUSH2 0x57F JUMP JUMPDEST JUMPDEST DUP2 CALLDATALOAD PUSH2 0x1B1 DUP5 DUP3 PUSH1 0x20 DUP7 ADD PUSH2 0x14A JUMP JUMPDEST SWAP2 POP POP SWAP3 SWAP2 POP POP JUMP JUMPDEST PUSH1 0x0 DUP1 PUSH1 0x40 DUP4 DUP6 SUB SLT ISZERO PUSH2 0x1D1 JUMPI PUSH2 0x1D0 PUSH2 0x58E JUMP JUMPDEST JUMPDEST PUSH1 0x0 DUP4 ADD CALLDATALOAD PUSH8 0xFFFFFFFFFFFFFFFF DUP2 GT ISZERO PUSH2 0x1EF JUMPI PUSH2 0x1EE PUSH2 0x589 JUMP JUMPDEST JUMPDEST PUSH2 0x1FB DUP6 DUP3 DUP7 ADD PUSH2 0x18C JUMP JUMPDEST SWAP3 POP POP PUSH1 0x20 DUP4 ADD CALLDATALOAD PUSH8 0xFFFFFFFFFFFFFFFF DUP2 GT ISZERO PUSH2 0x21C JUMPI PUSH2 0x21B PUSH2 0x589 JUMP JUMPDEST JUMPDEST PUSH2 0x228 DUP6 DUP3 DUP7 ADD PUSH2 0x18C JUMP JUMPDEST SWAP2 POP POP SWAP3 POP SWAP3 SWAP1 POP JUMP JUMPDEST PUSH1 0x0 DUP1 PUSH1 0x0 PUSH1 0x60 DUP5 DUP7 SUB SLT ISZERO PUSH2 0x24B JUMPI PUSH2 0x24A PUSH2 0x58E JUMP JUMPDEST JUMPDEST PUSH1 0x0 DUP5 ADD CALLDATALOAD PUSH8 0xFFFFFFFFFFFFFFFF DUP2 GT ISZERO PUSH2 0x269 JUMPI PUSH2 0x268 PUSH2 0x589 JUMP JUMPDEST JUMPDEST PUSH2 0x275 DUP7 DUP3 DUP8 ADD PUSH2 0x18C JUMP JUMPDEST SWAP4 POP POP PUSH1 0x20 DUP5 ADD CALLDATALOAD PUSH8 0xFFFFFFFFFFFFFFFF DUP2 GT ISZERO PUSH2 0x296 JUMPI PUSH2 0x295 PUSH2 0x589 JUMP JUMPDEST JUMPDEST PUSH2 0x2A2 DUP7 DUP3 DUP8 ADD PUSH2 0x18C JUMP JUMPDEST SWAP3 POP POP PUSH1 0x40 DUP5 ADD CALLDATALOAD PUSH8 0xFFFFFFFFFFFFFFFF DUP2 GT ISZERO PUSH2 0x2C3 JUMPI PUSH2 0x2C2 PUSH2 0x589 JUMP JUMPDEST JUMPDEST PUSH2 0x2CF DUP7 DUP3 DUP8 ADD PUSH2 0x18C JUMP JUMPDEST SWAP2 POP POP SWAP3 POP SWAP3 POP SWAP3 JUMP JUMPDEST PUSH1 0x0 DUP1 PUSH1 0x0 DUP1 PUSH1 0x80 DUP6 DUP8 SUB SLT ISZERO PUSH2 0x2F3 JUMPI PUSH2 0x2F2 PUSH2 0x58E JUMP JUMPDEST JUMPDEST PUSH1 0x0 DUP6 ADD CALLDATALOAD PUSH8 0xFFFFFFFFFFFFFFFF DUP2 GT ISZERO PUSH2 0x311 JUMPI PUSH2 0x310 PUSH2 0x589 JUMP JUMPDEST JUMPDEST PUSH2 0x31D DUP8 DUP3 DUP9 ADD PUSH2 0x18C JUMP JUMPDEST SWAP5 POP POP PUSH1 0x20 DUP6 ADD CALLDATALOAD PUSH8 0xFFFFFFFFFFFFFFFF DUP2 GT ISZERO PUSH2 0x33E JUMPI PUSH2 0x33D PUSH2 0x589 JUMP JUMPDEST JUMPDEST PUSH2 0x34A DUP8 DUP3 DUP9 ADD PUSH2 0x18C JUMP JUMPDEST SWAP4 POP POP PUSH1 0x40 DUP6 ADD CALLDATALOAD PUSH8 0xFFFFFFFFFFFFFFFF DUP2 GT ISZERO PUSH2 0x36B JUMPI PUSH2 0x36A PUSH2 0x589 JUMP JUMPDEST JUMPDEST PUSH2 0x377 DUP8 DUP3 DUP9 ADD PUSH2 0x18C JUMP JUMPDEST SWAP3 POP POP PUSH1 0x60 DUP6 ADD CALLDATALOAD PUSH8 0xFFFFFFFFFFFFFFFF DUP2 GT ISZERO PUSH2 0x398 JUMPI PUSH2 0x397 PUSH2 0x589 JUMP JUMPDEST JUMPDEST PUSH2 0x3A4 DUP8 DUP3 DUP9 ADD PUSH2 0x18C JUMP JUMPDEST SWAP2 POP POP SWAP3 SWAP6 SWAP2 SWAP5 POP SWAP3 POP JUMP JUMPDEST PUSH1 0x0 PUSH2 0x3BB DUP3 PUSH2 0x4B6 JUMP JUMPDEST PUSH2 0x3C5 DUP2 DUP6 PUSH2 0x4C1 JUMP JUMPDEST SWAP4 POP PUSH2 0x3D5 DUP2 DUP6 PUSH1 0x20 DUP7 ADD PUSH2 0x4EC JUMP JUMPDEST PUSH2 0x3DE DUP2 PUSH2 0x593 JUMP JUMPDEST DUP5 ADD SWAP2 POP POP SWAP3 SWAP2 POP POP JUMP JUMPDEST PUSH1 0x0 PUSH2 0x3F4 DUP3 PUSH2 0x4B6 JUMP JUMPDEST PUSH2 0x3FE DUP2 DUP6 PUSH2 0x4D2 JUMP JUMPDEST SWAP4 POP PUSH2 0x40E DUP2 DUP6 PUSH1 0x20 DUP7 ADD PUSH2 0x4EC JUMP JUMPDEST DUP1 DUP5 ADD SWAP2 POP POP SWAP3 SWAP2 POP POP JUMP JUMPDEST PUSH1 0x0 PUSH2 0x426 DUP3 DUP6 PUSH2 0x3E9 JUMP JUMPDEST SWAP2 POP PUSH2 0x432 DUP3 DUP5 PUSH2 0x3E9 JUMP JUMPDEST SWAP2 POP DUP2 SWAP1 POP SWAP4 SWAP3 POP POP POP JUMP JUMPDEST PUSH1 0x0 PUSH1 0x20 DUP3 ADD SWAP1 POP DUP2 DUP2 SUB PUSH1 0x0 DUP4 ADD MSTORE PUSH2 0x458 DUP2 DUP5 PUSH2 0x3B0 JUMP JUMPDEST SWAP1 POP SWAP3 SWAP2 POP POP JUMP JUMPDEST PUSH1 0x0 PUSH2 0x46A PUSH2 0x47B JUMP JUMPDEST SWAP1 POP PUSH2 0x476 DUP3 DUP3 PUSH2 0x51F JUMP JUMPDEST SWAP2 SWAP1 POP JUMP JUMPDEST PUSH1 0x0 PUSH1 0x40 MLOAD SWAP1 POP SWAP1 JUMP JUMPDEST PUSH1 0x0 PUSH8 0xFFFFFFFFFFFFFFFF DUP3 GT ISZERO PUSH2 0x4A0 JUMPI PUSH2 0x49F PUSH2 0x550 JUMP JUMPDEST JUMPDEST PUSH2 0x4A9 DUP3 PUSH2 0x593 JUMP JUMPDEST SWAP1 POP PUSH1 0x20 DUP2 ADD SWAP1 POP SWAP2 SWAP1 POP JUMP JUMPDEST PUSH1 0x0 DUP2 MLOAD SWAP1 POP SWAP2 SWAP1 POP JUMP JUMPDEST PUSH1 0x0 DUP3 DUP3 MSTORE PUSH1 0x20 DUP3 ADD SWAP1 POP SWAP3 SWAP2 POP POP JUMP JUMPDEST PUSH1 0x0 DUP2 SWAP1 POP SWAP3 SWAP2 POP POP JUMP JUMPDEST DUP3 DUP2 DUP4 CALLDATACOPY PUSH1 0x0 DUP4 DUP4 ADD MSTORE POP POP POP JUMP JUMPDEST PUSH1 0x0 JUMPDEST DUP4 DUP2 LT ISZERO PUSH2 0x50A JUMPI DUP1 DUP3 ADD MLOAD DUP2 DUP5 ADD MSTORE PUSH1 0x20 DUP2 ADD SWAP1 POP PUSH2 0x4EF JUMP JUMPDEST DUP4 DUP2 GT ISZERO PUSH2 0x519 JUMPI PUSH1 0x0 DUP5 DUP5 ADD MSTORE JUMPDEST POP POP POP POP JUMP JUMPDEST PUSH2 0x528 DUP3 PUSH2 0x593 JUMP JUMPDEST DUP2 ADD DUP2 DUP2 LT PUSH8 0xFFFFFFFFFFFFFFFF DUP3 GT OR ISZERO PUSH2 0x547 JUMPI PUSH2 0x546 PUSH2 0x550 JUMP JUMPDEST JUMPDEST DUP1 PUSH1 0x40 MSTORE POP POP POP JUMP JUMPDEST PUSH32 0x4E487B7100000000000000000000000000000000000000000000000000000000 PUSH1 0x0 MSTORE PUSH1 0x41 PUSH1 0x4 MSTORE PUSH1 0x24 PUSH1 0x0 REVERT JUMPDEST PUSH1 0x0 DUP1 REVERT JUMPDEST PUSH1 0x0 DUP1 REVERT JUMPDEST PUSH1 0x0 DUP1 REVERT JUMPDEST PUSH1 0x0 DUP1 REVERT JUMPDEST PUSH1 0x0 PUSH1 0x1F NOT PUSH1 0x1F DUP4 ADD AND SWAP1 POP SWAP2 SWAP1 POP JUMP INVALID LOG2 PUSH5 0x6970667358 0x22 SLT KECCAK256 0xB3 0xB7 SWAP2 0xAE SWAP5 0x1F 0xEF RETURNDATACOPY MSIZE 0xEF SAR CREATE2 0xD8 0xB9 DUP7 SWAP10 PUSH7 0xB09F6C3686C6EF STOP DELEGATECALL 0xB8 DUP5 0xE4 0xAB 0xB9 PUSH25 0x64736F6C634300080600330000000000000000000000000000 "
		},
		"gasEstimates": {
			"creation": {
				"codeDepositCost": "299600",
				"executionCost": "365",
				"totalCost": "299965"
			},
			"external": {
				"concatenate(string,string)": "infinite",
				"concatenate(string,string,string)": "infinite",
				"concatenate(string,string,string,string)": "infinite"
			},
			"internal": {
				"toHexString(address)": "infinite",
				"toHexString(uint256)": "infinite",
				"toHexString(uint256,uint256)": "infinite",
				"toString(uint256)": "infinite"
			}
		},
		"methodIdentifiers": {
			"concatenate(string,string)": "266001d3",
			"concatenate(string,string,string)": "aab1d2cd",
			"concatenate(string,string,string,string)": "0159a91d"
		}
	},
	"abi": [
		{
			"inputs": [
				{
					"internalType": "string",
					"name": "a",
					"type": "string"
				},
				{
					"internalType": "string",
					"name": "b",
					"type": "string"
				},
				{
					"internalType": "string",
					"name": "c",
					"type": "string"
				},
				{
					"internalType": "string",
					"name": "d",
					"type": "string"
				}
			],
			"name": "concatenate",
			"outputs": [
				{
					"internalType": "string",
					"name": "",
					"type": "string"
				}
			],
			"stateMutability": "pure",
			"type": "function"
		},
		{
			"inputs": [
				{
					"internalType": "string",
					"name": "a",
					"type": "string"
				},
				{
					"internalType": "string",
					"name": "b",
					"type": "string"
				}
			],
			"name": "concatenate",
			"outputs": [
				{
					"internalType": "string",
					"name": "",
					"type": "string"
				}
			],
			"stateMutability": "pure",
			"type": "function"
		},
		{
			"inputs": [
				{
					"internalType": "string",
					"name": "a",
					"type": "string"
				},
				{
					"internalType": "string",
					"name": "b",
					"type": "string"
				},
				{
					"internalType": "string",
					"name": "c",
					"type": "string"
				}
			],
			"name": "concatenate",
			"outputs": [
				{
					"internalType": "string",
					"name": "",
					"type": "string"
				}
			],
			"stateMutability": "pure",
			"type": "function"
		}
	]
}