{
	"data": {
		"bytecode": {
			"linkReferences": {},
			"object": "60806040523480156200001157600080fd5b5060405162008aaa38038062008aaa8339818101604052810190620000379190620002bc565b82600090805190602001906200004f92919062000169565b508160018190555080600281905550600a6402540be4006040516200007490620001fa565b62000081929190620003ce565b604051809103906000f0801580156200009e573d6000803e3d6000fd5b50600360006101000a81548173ffffffffffffffffffffffffffffffffffffffff021916908373ffffffffffffffffffffffffffffffffffffffff160217905550600a6402540be400604051620000f590620001fa565b6200010292919062000425565b604051809103906000f0801580156200011f573d6000803e3d6000fd5b50600460006101000a81548173ffffffffffffffffffffffffffffffffffffffff021916908373ffffffffffffffffffffffffffffffffffffffff160217905550505050620006d8565b828054620001779062000554565b90600052602060002090601f0160209004810192826200019b5760008555620001e7565b82601f10620001b657805160ff1916838001178555620001e7565b82800160010185558215620001e7579182015b82811115620001e6578251825591602001919060010190620001c9565b5b509050620001f6919062000208565b5090565b6113ff80620076ab83390190565b5b808211156200022357600081600090555060010162000209565b5090565b60006200023e6200023884620004a5565b6200047c565b9050828152602081018484840111156200025d576200025c62000623565b5b6200026a8482856200051e565b509392505050565b600082601f8301126200028a57620002896200061e565b5b81516200029c84826020860162000227565b91505092915050565b600081519050620002b681620006be565b92915050565b600080600060608486031215620002d857620002d76200062d565b5b600084015167ffffffffffffffff811115620002f957620002f862000628565b5b620003078682870162000272565b93505060206200031a86828701620002a5565b92505060406200032d86828701620002a5565b9150509250925092565b6200034281620004f6565b82525050565b62000353816200050a565b82525050565b600062000368600383620004db565b9150620003758262000643565b602082019050919050565b60006200038f600783620004db565b91506200039c826200066c565b602082019050919050565b6000620003b6600383620004db565b9150620003c38262000695565b602082019050919050565b60006080820190508181036000830152620003e98162000380565b90508181036020830152620003fe8162000359565b90506200040f604083018562000348565b6200041e606083018462000337565b9392505050565b60006080820190508181036000830152620004408162000380565b905081810360208301526200045581620003a7565b905062000466604083018562000348565b62000475606083018462000337565b9392505050565b6000620004886200049b565b90506200049682826200058a565b919050565b6000604051905090565b600067ffffffffffffffff821115620004c357620004c2620005ef565b5b620004ce8262000632565b9050602081019050919050565b600082825260208201905092915050565b6000819050919050565b60006200050382620004ec565b9050919050565b60006200051782620004ec565b9050919050565b60005b838110156200053e57808201518184015260208101905062000521565b838111156200054e576000848401525b50505050565b600060028204905060018216806200056d57607f821691505b60208210811415620005845762000583620005c0565b5b50919050565b620005958262000632565b810181811067ffffffffffffffff82111715620005b757620005b6620005ef565b5b80604052505050565b7f4e487b7100000000000000000000000000000000000000000000000000000000600052602260045260246000fd5b7f4e487b7100000000000000000000000000000000000000000000000000000000600052604160045260246000fd5b600080fd5b600080fd5b600080fd5b600080fd5b6000601f19601f8301169050919050565b7f544b410000000000000000000000000000000000000000000000000000000000600082015250565b7f746f6b656e5f6100000000000000000000000000000000000000000000000000600082015250565b7f544b420000000000000000000000000000000000000000000000000000000000600082015250565b620006c981620004ec565b8114620006d557600080fd5b50565b616fc380620006e86000396000f3fe60806040523480156200001157600080fd5b5060043610620000525760003560e01c80630828cfd914620000575780632b687ef61462000077578063ac01cde21462000099578063f04d631e14620000bb575b600080fd5b6200007560048036038101906200006f9190620010f9565b620000dd565b005b6200008162000f8f565b60405162000090919062001668565b60405180910390f35b620000a362001025565b604051620000b291906200168c565b60405180910390f35b620000c56200102b565b604051620000d491906200168c565b60405180910390f35b6000620f424080600360009054906101000a900473ffffffffffffffffffffffffffffffffffffffff16600460009054906101000a900473ffffffffffffffffffffffffffffffffffffffff16604051620001389062001031565b62000147949392919062001402565b604051809103906000f08015801562000164573d6000803e3d6000fd5b50905060008160405162000178906200103f565b620001849190620013e5565b604051809103906000f080158015620001a1573d6000803e3d6000fd5b50905060008173ffffffffffffffffffffffffffffffffffffffff1663072982036040518163ffffffff1660e01b815260040160006040518083038186803b158015620001ed57600080fd5b505afa15801562000202573d6000803e3d6000fd5b505050506040513d6000823e3d601f19601f820116820180604052508101906200022d91906200119d565b9062000271576040517f08c379a000000000000000000000000000000000000000000000000000000000815260040162000268919062001668565b60405180910390fd5b50600360009054906101000a900473ffffffffffffffffffffffffffffffffffffffff1673ffffffffffffffffffffffffffffffffffffffff166330e0789e30886101f46040518463ffffffff1660e01b8152600401620002d5939291906200136b565b600060405180830381600087803b158015620002f057600080fd5b505af115801562000305573d6000803e3d6000fd5b50505050600360009054906101000a900473ffffffffffffffffffffffffffffffffffffffff1673ffffffffffffffffffffffffffffffffffffffff166330e0789e30876101f46040518463ffffffff1660e01b81526004016200036c939291906200136b565b600060405180830381600087803b1580156200038757600080fd5b505af11580156200039c573d6000803e3d6000fd5b50505050600360009054906101000a900473ffffffffffffffffffffffffffffffffffffffff1673ffffffffffffffffffffffffffffffffffffffff166330e0789e30866101f46040518463ffffffff1660e01b815260040162000403939291906200136b565b600060405180830381600087803b1580156200041e57600080fd5b505af115801562000433573d6000803e3d6000fd5b50505050600360009054906101000a900473ffffffffffffffffffffffffffffffffffffffff1673ffffffffffffffffffffffffffffffffffffffff166330e0789e30856101f46040518463ffffffff1660e01b81526004016200049a939291906200136b565b600060405180830381600087803b158015620004b557600080fd5b505af1158015620004ca573d6000803e3d6000fd5b50505050600460009054906101000a900473ffffffffffffffffffffffffffffffffffffffff1673ffffffffffffffffffffffffffffffffffffffff166330e0789e30886101f46040518463ffffffff1660e01b815260040162000531939291906200136b565b600060405180830381600087803b1580156200054c57600080fd5b505af115801562000561573d6000803e3d6000fd5b50505050600460009054906101000a900473ffffffffffffffffffffffffffffffffffffffff1673ffffffffffffffffffffffffffffffffffffffff166330e0789e30876101f46040518463ffffffff1660e01b8152600401620005c8939291906200136b565b600060405180830381600087803b158015620005e357600080fd5b505af1158015620005f8573d6000803e3d6000fd5b50505050600460009054906101000a900473ffffffffffffffffffffffffffffffffffffffff1673ffffffffffffffffffffffffffffffffffffffff166330e0789e30866101f46040518463ffffffff1660e01b81526004016200065f939291906200136b565b600060405180830381600087803b1580156200067a57600080fd5b505af11580156200068f573d6000803e3d6000fd5b50505050600460009054906101000a900473ffffffffffffffffffffffffffffffffffffffff1673ffffffffffffffffffffffffffffffffffffffff166330e0789e30856101f46040518463ffffffff1660e01b8152600401620006f6939291906200136b565b600060405180830381600087803b1580156200071157600080fd5b505af115801562000726573d6000803e3d6000fd5b50505050600460009054906101000a900473ffffffffffffffffffffffffffffffffffffffff1673ffffffffffffffffffffffffffffffffffffffff1663abe19ba3836101f4876040518463ffffffff1660e01b81526004016200078d93929190620013a8565b602060405180830381600087803b158015620007a857600080fd5b505af1158015620007bd573d6000803e3d6000fd5b505050506040513d601f19601f82011682018060405250810190620007e391906200116b565b50600460009054906101000a900473ffffffffffffffffffffffffffffffffffffffff1673ffffffffffffffffffffffffffffffffffffffff1663abe19ba3836101f4866040518463ffffffff1660e01b81526004016200084793929190620013a8565b602060405180830381600087803b1580156200086257600080fd5b505af115801562000877573d6000803e3d6000fd5b505050506040513d601f19601f820116820180604052508101906200089d91906200116b565b508173ffffffffffffffffffffffffffffffffffffffff1663b7e6cf0d60c86064896040518463ffffffff1660e01b8152600401620008df939291906200157f565b600060405180830381600087803b158015620008fa57600080fd5b505af11580156200090f573d6000803e3d6000fd5b505050508173ffffffffffffffffffffffffffffffffffffffff1663b7e6cf0d605a601e876040518463ffffffff1660e01b815260040162000954939291906200162b565b600060405180830381600087803b1580156200096f57600080fd5b505af115801562000984573d6000803e3d6000fd5b505050508173ffffffffffffffffffffffffffffffffffffffff1663b7e6cf0d60786028866040518463ffffffff1660e01b8152600401620009c99392919062001542565b600060405180830381600087803b158015620009e457600080fd5b505af1158015620009f9573d6000803e3d6000fd5b5050505060008173ffffffffffffffffffffffffffffffffffffffff1663072982036040518163ffffffff1660e01b815260040160006040518083038186803b15801562000a4657600080fd5b505afa15801562000a5b573d6000803e3d6000fd5b505050506040513d6000823e3d601f19601f8201168201806040525081019062000a8691906200119d565b9062000aca576040517f08c379a000000000000000000000000000000000000000000000000000000000815260040162000ac1919062001668565b60405180910390fd5b508173ffffffffffffffffffffffffffffffffffffffff1663c7bf8dcd600a886040518363ffffffff1660e01b815260040162000b09929190620014be565b600060405180830381600087803b15801562000b2457600080fd5b505af115801562000b39573d6000803e3d6000fd5b505050508173ffffffffffffffffffffffffffffffffffffffff1663c7bf8dcd6103e8886040518363ffffffff1660e01b815260040162000b7c9291906200147c565b600060405180830381600087803b15801562000b9757600080fd5b505af115801562000bac573d6000803e3d6000fd5b505050508173ffffffffffffffffffffffffffffffffffffffff1663c7bf8dcd600a886040518363ffffffff1660e01b815260040162000bee92919062001500565b600060405180830381600087803b15801562000c0957600080fd5b505af115801562000c1e573d6000803e3d6000fd5b505050508173ffffffffffffffffffffffffffffffffffffffff1663c7bf8dcd6014876040518363ffffffff1660e01b815260040162000c60929190620015bc565b600060405180830381600087803b15801562000c7b57600080fd5b505af115801562000c90573d6000803e3d6000fd5b5050505060008173ffffffffffffffffffffffffffffffffffffffff1663072982036040518163ffffffff1660e01b815260040160006040518083038186803b15801562000cdd57600080fd5b505afa15801562000cf2573d6000803e3d6000fd5b505050506040513d6000823e3d601f19601f8201168201806040525081019062000d1d91906200119d565b9062000d61576040517f08c379a000000000000000000000000000000000000000000000000000000000815260040162000d58919062001668565b60405180910390fd5b508173ffffffffffffffffffffffffffffffffffffffff166358bdf5936103e8886040518363ffffffff1660e01b815260040162000da19291906200144f565b600060405180830381600087803b15801562000dbc57600080fd5b505af115801562000dd1573d6000803e3d6000fd5b505050508173ffffffffffffffffffffffffffffffffffffffff166358bdf593601e886040518363ffffffff1660e01b815260040162000e13929190620015fe565b600060405180830381600087803b15801562000e2e57600080fd5b505af115801562000e43573d6000803e3d6000fd5b505050508173ffffffffffffffffffffffffffffffffffffffff166358bdf593601e876040518363ffffffff1660e01b815260040162000e85929190620015fe565b600060405180830381600087803b15801562000ea057600080fd5b505af115801562000eb5573d6000803e3d6000fd5b5050505060008173ffffffffffffffffffffffffffffffffffffffff1663072982036040518163ffffffff1660e01b815260040160006040518083038186803b15801562000f0257600080fd5b505afa15801562000f17573d6000803e3d6000fd5b505050506040513d6000823e3d601f19601f8201168201806040525081019062000f4291906200119d565b9062000f86576040517f08c379a000000000000000000000000000000000000000000000000000000000815260040162000f7d919062001668565b60405180910390fd5b50505050505050565b6000805462000f9e90620018a8565b80601f016020809104026020016040519081016040528092919081815260200182805462000fcc90620018a8565b80156200101d5780601f1062000ff1576101008083540402835291602001916200101d565b820191906000526020600020905b81548152906001019060200180831162000fff57829003601f168201915b505050505081565b60015481565b60025481565b614eb18062001a1e83390190565b6106bf80620068cf83390190565b6000620010646200105e84620016d2565b620016a9565b90508281526020810184848401111562001083576200108262001977565b5b6200109084828562001872565b509392505050565b600081359050620010a981620019e9565b92915050565b600081519050620010c08162001a03565b92915050565b600082601f830112620010de57620010dd62001972565b5b8151620010f08482602086016200104d565b91505092915050565b6000806000806080858703121562001116576200111562001981565b5b6000620011268782880162001098565b9450506020620011398782880162001098565b93505060406200114c8782880162001098565b92505060606200115f8782880162001098565b91505092959194509250565b60006020828403121562001184576200118362001981565b5b60006200119484828501620010af565b91505092915050565b600060208284031215620011b657620011b562001981565b5b600082015167ffffffffffffffff811115620011d757620011d66200197c565b5b620011e584828501620010c6565b91505092915050565b620011f98162001724565b82525050565b6200120a816200176e565b82525050565b6200121b8162001796565b82525050565b6200122c81620017aa565b82525050565b6200123d81620017be565b82525050565b6200124e81620017d2565b82525050565b6200125f81620017e6565b82525050565b6200127081620017fa565b82525050565b62001281816200180e565b82525050565b620012928162001822565b82525050565b620012a38162001836565b82525050565b620012b4816200184a565b82525050565b620012c5816200185e565b82525050565b6000620012d88262001708565b620012e4818562001713565b9350620012f681856020860162001872565b620013018162001986565b840191505092915050565b60006200131b600e8362001713565b9150620013288262001997565b602082019050919050565b60006200134260038362001713565b91506200134f82620019c0565b602082019050919050565b620013658162001764565b82525050565b6000606082019050620013826000830186620011ee565b620013916020830185620011ee565b620013a06040830184620012a9565b949350505050565b6000606082019050620013bf6000830186620011ee565b620013ce6020830185620012a9565b620013dd6040830184620011ee565b949350505050565b6000602082019050620013fc6000830184620011ff565b92915050565b600060808201905062001419600083018762001210565b62001428602083018662001210565b620014376040830185620011ee565b620014466060830184620011ee565b95945050505050565b600060408201905062001466600083018562001221565b620014756020830184620011ee565b9392505050565b600060608201905062001493600083018562001221565b8181036020830152620014a68162001333565b9050620014b76040830184620011ee565b9392505050565b6000606082019050620014d5600083018562001243565b8181036020830152620014e8816200130c565b9050620014f96040830184620011ee565b9392505050565b600060608201905062001517600083018562001243565b81810360208301526200152a8162001333565b90506200153b6040830184620011ee565b9392505050565b600060608201905062001559600083018662001254565b62001568602083018562001298565b620015776040830184620011ee565b949350505050565b600060608201905062001596600083018662001265565b620015a5602083018562001232565b620015b46040830184620011ee565b949350505050565b6000606082019050620015d3600083018562001276565b8181036020830152620015e68162001333565b9050620015f76040830184620011ee565b9392505050565b600060408201905062001615600083018562001287565b620016246020830184620011ee565b9392505050565b6000606082019050620016426000830186620012ba565b62001651602083018562001287565b620016606040830184620011ee565b949350505050565b60006020820190508181036000830152620016848184620012cb565b905092915050565b6000602082019050620016a360008301846200135a565b92915050565b6000620016b5620016c8565b9050620016c38282620018de565b919050565b6000604051905090565b600067ffffffffffffffff821115620016f057620016ef62001943565b5b620016fb8262001986565b9050602081019050919050565b600081519050919050565b600082825260208201905092915050565b6000620017318262001744565b9050919050565b60008115159050919050565b600073ffffffffffffffffffffffffffffffffffffffff82169050919050565b6000819050919050565b60006200177b8262001782565b9050919050565b60006200178f8262001744565b9050919050565b6000620017a38262001764565b9050919050565b6000620017b78262001764565b9050919050565b6000620017cb8262001764565b9050919050565b6000620017df8262001764565b9050919050565b6000620017f38262001764565b9050919050565b6000620018078262001764565b9050919050565b60006200181b8262001764565b9050919050565b60006200182f8262001764565b9050919050565b6000620018438262001764565b9050919050565b6000620018578262001764565b9050919050565b60006200186b8262001764565b9050919050565b60005b838110156200189257808201518184015260208101905062001875565b83811115620018a2576000848401525b50505050565b60006002820490506001821680620018c157607f821691505b60208210811415620018d857620018d762001914565b5b50919050565b620018e98262001986565b810181811067ffffffffffffffff821117156200190b576200190a62001943565b5b80604052505050565b7f4e487b7100000000000000000000000000000000000000000000000000000000600052602260045260246000fd5b7f4e487b7100000000000000000000000000000000000000000000000000000000600052604160045260246000fd5b600080fd5b600080fd5b600080fd5b600080fd5b6000601f19601f8301169050919050565b7f6261645f746f6b656e5f6e616d65000000000000000000000000000000000000600082015250565b7f544b420000000000000000000000000000000000000000000000000000000000600082015250565b620019f48162001724565b811462001a0057600080fd5b50565b62001a0e8162001738565b811462001a1a57600080fd5b5056fe60806040523480156200001157600080fd5b5060405162004eb138038062004eb18339818101604052810190620000379190620002d6565b620000576200004b620001ce60201b60201c565b620001d660201b60201c565b6012670de0b6b3a764000060405162000070906200029a565b6200007d929190620003b8565b604051809103906000f0801580156200009a573d6000803e3d6000fd5b50600360006101000a81548173ffffffffffffffffffffffffffffffffffffffff021916908373ffffffffffffffffffffffffffffffffffffffff1602179055508360088190555082600981905550600a8081905550601e600b8190555081600160006101000a81548173ffffffffffffffffffffffffffffffffffffffff021916908373ffffffffffffffffffffffffffffffffffffffff16021790555080600260006101000a81548173ffffffffffffffffffffffffffffffffffffffff021916908373ffffffffffffffffffffffffffffffffffffffff160217905550600b54836200018a91906200047d565b600a54856200019a91906200047d565b620001a6919062000420565b600781905550600954600854620001be91906200047d565b60058190555050505050620005fe565b600033905090565b60008060009054906101000a900473ffffffffffffffffffffffffffffffffffffffff169050816000806101000a81548173ffffffffffffffffffffffffffffffffffffffff021916908373ffffffffffffffffffffffffffffffffffffffff1602179055508173ffffffffffffffffffffffffffffffffffffffff168173ffffffffffffffffffffffffffffffffffffffff167f8be0079c531659141344cd1fd0a4f28419497f9722a3daafe3b4186f6b6457e060405160405180910390a35050565b61120e8062003ca383390190565b600081519050620002b981620005ca565b92915050565b600081519050620002d081620005e4565b92915050565b60008060008060808587031215620002f357620002f262000573565b5b60006200030387828801620002bf565b94505060206200031687828801620002bf565b93505060406200032987828801620002a8565b92505060606200033c87828801620002a8565b91505092959194509250565b62000353816200051c565b82525050565b620003648162000530565b82525050565b6000620003796003836200040f565b9150620003868262000578565b602082019050919050565b6000620003a06006836200040f565b9150620003ad82620005a1565b602082019050919050565b60006080820190508181036000830152620003d38162000391565b90508181036020830152620003e8816200036a565b9050620003f9604083018562000359565b62000408606083018462000348565b9392505050565b600082825260208201905092915050565b60006200042d8262000512565b91506200043a8362000512565b9250827fffffffffffffffffffffffffffffffffffffffffffffffffffffffffffffffff0382111562000472576200047162000544565b5b828201905092915050565b60006200048a8262000512565b9150620004978362000512565b9250817fffffffffffffffffffffffffffffffffffffffffffffffffffffffffffffffff0483118215151615620004d357620004d262000544565b5b828202905092915050565b6000620004eb82620004f2565b9050919050565b600073ffffffffffffffffffffffffffffffffffffffff82169050919050565b6000819050919050565b6000620005298262000512565b9050919050565b60006200053d8262000512565b9050919050565b7f4e487b7100000000000000000000000000000000000000000000000000000000600052601160045260246000fd5b600080fd5b7f4c50540000000000000000000000000000000000000000000000000000000000600082015250565b7f6c69717569640000000000000000000000000000000000000000000000000000600082015250565b620005d581620004de565b8114620005e157600080fd5b50565b620005ef8162000512565b8114620005fb57600080fd5b50565b613695806200060e6000396000f3fe6080604052600436106101145760003560e01c8063715018a6116100a0578063d342f97011610064578063d342f97014610314578063db006a751461033f578063e1a296b11461035b578063ee39e7a014610386578063f2fde38b146103b157610114565b8063715018a61461026f5780637a3278d7146102865780638da5cb5b146102b1578063b7e6cf0d146102dc578063c7bf8dcd146102f857610114565b806343cd8f7e116100e757806343cd8f7e146101a75780634d9b3735146101d257806358bdf593146101fd5780635cddc766146102195780635f64b55b1461024457610114565b80630cdd53f6146101195780630fc63d101461013557806323a56849146101605780632a4ca5ea1461017c575b600080fd5b610133600480360381019061012e9190612be6565b6103da565b005b34801561014157600080fd5b5061014a610913565b6040516101579190612f46565b60405180910390f35b61017a60048036038101906101759190612b1b565b610939565b005b34801561018857600080fd5b50610191610f60565b60405161019e9190613063565b60405180910390f35b3480156101b357600080fd5b506101bc610f6a565b6040516101c99190612f2b565b60405180910390f35b3480156101de57600080fd5b506101e7610f90565b6040516101f49190613063565b60405180910390f35b61021760048036038101906102129190612adb565b610f9a565b005b34801561022557600080fd5b5061022e61147b565b60405161023b9190613063565b60405180910390f35b34801561025057600080fd5b50610259611485565b6040516102669190612f46565b60405180910390f35b34801561027b57600080fd5b506102846114ab565b005b34801561029257600080fd5b5061029b6114bf565b6040516102a89190613063565b60405180910390f35b3480156102bd57600080fd5b506102c66114c5565b6040516102d39190612e87565b60405180910390f35b6102f660048036038101906102f19190612c26565b6114ee565b005b610312600480360381019061030d9190612b77565b611a28565b005b34801561032057600080fd5b50610329612050565b6040516103369190613063565b60405180910390f35b61035960048036038101906103549190612a81565b61205a565b005b34801561036757600080fd5b5061037061253a565b60405161037d9190613063565b60405180910390f35b34801561039257600080fd5b5061039b612540565b6040516103a89190613063565b60405180910390f35b3480156103bd57600080fd5b506103d860048036038101906103d391906129de565b61254a565b005b6000600a54836103ea9190613182565b90506000600b54836103fc9190613182565b9050808214610440576040517f08c379a000000000000000000000000000000000000000000000000000000000815260040161043790612fc3565b60405180910390fd5b83600160009054906101000a900473ffffffffffffffffffffffffffffffffffffffff1673ffffffffffffffffffffffffffffffffffffffff1663dd62ed3e33306040518363ffffffff1660e01b815260040161049e929190612ea2565b60206040518083038186803b1580156104b657600080fd5b505afa1580156104ca573d6000803e3d6000fd5b505050506040513d601f19601f820116820180604052508101906104ee9190612aae565b101561052f576040517f08c379a000000000000000000000000000000000000000000000000000000000815260040161052690612fe3565b60405180910390fd5b82600260009054906101000a900473ffffffffffffffffffffffffffffffffffffffff1673ffffffffffffffffffffffffffffffffffffffff1663dd62ed3e33306040518363ffffffff1660e01b815260040161058d929190612ea2565b60206040518083038186803b1580156105a557600080fd5b505afa1580156105b9573d6000803e3d6000fd5b505050506040513d601f19601f820116820180604052508101906105dd9190612aae565b101561061e576040517f08c379a000000000000000000000000000000000000000000000000000000000815260040161061590612f83565b60405180910390fd5b600160009054906101000a900473ffffffffffffffffffffffffffffffffffffffff1673ffffffffffffffffffffffffffffffffffffffff166323b872dd3330876040518463ffffffff1660e01b815260040161067d93929190612ecb565b602060405180830381600087803b15801561069757600080fd5b505af11580156106ab573d6000803e3d6000fd5b505050506040513d601f19601f820116820180604052508101906106cf9190612a0b565b50600260009054906101000a900473ffffffffffffffffffffffffffffffffffffffff1673ffffffffffffffffffffffffffffffffffffffff166323b872dd3330866040518463ffffffff1660e01b815260040161072f93929190612ecb565b602060405180830381600087803b15801561074957600080fd5b505af115801561075d573d6000803e3d6000fd5b505050506040513d601f19601f820116820180604052508101906107819190612a0b565b50600360009054906101000a900473ffffffffffffffffffffffffffffffffffffffff1673ffffffffffffffffffffffffffffffffffffffff1663a9059cbb336002856107ce9190613182565b6040518363ffffffff1660e01b81526004016107eb929190612f02565b602060405180830381600087803b15801561080557600080fd5b505af1158015610819573d6000803e3d6000fd5b505050506040513d601f19601f8201168201806040525081019061083d9190612a0b565b5060028261084b9190613182565b600460003373ffffffffffffffffffffffffffffffffffffffff1673ffffffffffffffffffffffffffffffffffffffff168152602001908152602001600020600082825461089991906130fb565b9250508190555083600860008282546108b291906130fb565b9250508190555082600960008282546108cb91906130fb565b925050819055506009546008546108e29190613182565b6005819055506002826108f59190613182565b6007600082825461090691906130fb565b9250508190555050505050565b600160009054906101000a900473ffffffffffffffffffffffffffffffffffffffff1681565b6000610944826125ce565b141561094f57600080fd5b600060618361095e9190613182565b9050600161096b836125ce565b1415610c685782600160009054906101000a900473ffffffffffffffffffffffffffffffffffffffff1673ffffffffffffffffffffffffffffffffffffffff1663dd62ed3e33306040518363ffffffff1660e01b81526004016109cf929190612ea2565b60206040518083038186803b1580156109e757600080fd5b505afa1580156109fb573d6000803e3d6000fd5b505050506040513d601f19601f82011682018060405250810190610a1f9190612aae565b1015610a60576040517f08c379a0000000000000000000000000000000000000000000000000000000008152600401610a5790613023565b60405180910390fd5b600081600854610a7091906130fb565b60095483610a7e9190613182565b610a889190613151565b90506009548110610ace576040517f08c379a0000000000000000000000000000000000000000000000000000000008152600401610ac590613043565b60405180910390fd5b600160009054906101000a900473ffffffffffffffffffffffffffffffffffffffff1673ffffffffffffffffffffffffffffffffffffffff166323b872dd3330876040518463ffffffff1660e01b8152600401610b2d93929190612ecb565b602060405180830381600087803b158015610b4757600080fd5b505af1158015610b5b573d6000803e3d6000fd5b505050506040513d601f19601f82011682018060405250810190610b7f9190612a0b565b50600260009054906101000a900473ffffffffffffffffffffffffffffffffffffffff1673ffffffffffffffffffffffffffffffffffffffff1663a9059cbb33836040518363ffffffff1660e01b8152600401610bdd929190612f02565b602060405180830381600087803b158015610bf757600080fd5b505af1158015610c0b573d6000803e3d6000fd5b505050506040513d601f19601f82011682018060405250810190610c2f9190612a0b565b508360086000828254610c4291906130fb565b925050819055508060096000828254610c5b91906131dc565b9250508190555050610f5b565b82600260009054906101000a900473ffffffffffffffffffffffffffffffffffffffff1673ffffffffffffffffffffffffffffffffffffffff1663dd62ed3e33306040518363ffffffff1660e01b8152600401610cc6929190612ea2565b60206040518083038186803b158015610cde57600080fd5b505afa158015610cf2573d6000803e3d6000fd5b505050506040513d601f19601f82011682018060405250810190610d169190612aae565b1015610d57576040517f08c379a0000000000000000000000000000000000000000000000000000000008152600401610d4e90613023565b60405180910390fd5b600081600954610d6791906130fb565b60085483610d759190613182565b610d7f9190613151565b90506008548110610dc5576040517f08c379a0000000000000000000000000000000000000000000000000000000008152600401610dbc90613043565b60405180910390fd5b600260009054906101000a900473ffffffffffffffffffffffffffffffffffffffff1673ffffffffffffffffffffffffffffffffffffffff166323b872dd3330876040518463ffffffff1660e01b8152600401610e2493929190612ecb565b602060405180830381600087803b158015610e3e57600080fd5b505af1158015610e52573d6000803e3d6000fd5b505050506040513d601f19601f82011682018060405250810190610e769190612a0b565b50600160009054906101000a900473ffffffffffffffffffffffffffffffffffffffff1673ffffffffffffffffffffffffffffffffffffffff1663a9059cbb33836040518363ffffffff1660e01b8152600401610ed4929190612f02565b602060405180830381600087803b158015610eee57600080fd5b505af1158015610f02573d6000803e3d6000fd5b505050506040513d601f19601f82011682018060405250810190610f269190612a0b565b508060086000828254610f3991906131dc565b925050819055508360096000828254610f5291906130fb565b92505081905550505b505050565b6000600954905090565b600360009054906101000a900473ffffffffffffffffffffffffffffffffffffffff1681565b6000600754905090565b81600360009054906101000a900473ffffffffffffffffffffffffffffffffffffffff1673ffffffffffffffffffffffffffffffffffffffff1663dd62ed3e83306040518363ffffffff1660e01b8152600401610ff8929190612ea2565b60206040518083038186803b15801561101057600080fd5b505afa158015611024573d6000803e3d6000fd5b505050506040513d601f19601f820116820180604052508101906110489190612aae565b1015600360009054906101000a900473ffffffffffffffffffffffffffffffffffffffff1673ffffffffffffffffffffffffffffffffffffffff1663150704016040518163ffffffff1660e01b815260040160006040518083038186803b1580156110b257600080fd5b505afa1580156110c6573d6000803e3d6000fd5b505050506040513d6000823e3d601f19601f820116820180604052508101906110ef9190612a38565b6040516020016110ff9190612e5a565b6040516020818303038152906040529061114f576040517f08c379a00000000000000000000000000000000000000000000000000000000081526004016111469190612f61565b60405180910390fd5b5081600460008373ffffffffffffffffffffffffffffffffffffffff1673ffffffffffffffffffffffffffffffffffffffff16815260200190815260200160002054101561119c57600080fd5b6000600754836111ac9190613151565b90506000600b546009546111c09190613182565b600a546008546111d09190613182565b6111da91906130fb565b826111e59190613182565b90506000600954600854111561120c576009546008546112059190613151565b905061121f565b60085460095461121c9190613151565b90505b846007600082825461123191906131dc565b9250508190555084600460008673ffffffffffffffffffffffffffffffffffffffff1673ffffffffffffffffffffffffffffffffffffffff168152602001908152602001600020600082825461128791906131dc565b925050819055506000600a54600261129f9190613182565b836112aa9190613151565b90506000600b5460026112bd9190613182565b846112c89190613151565b905081600860008282546112dc91906131dc565b9250508190555080600960008282546112f591906131dc565b92505081905550600160009054906101000a900473ffffffffffffffffffffffffffffffffffffffff1673ffffffffffffffffffffffffffffffffffffffff1663a9059cbb87846040518363ffffffff1660e01b8152600401611359929190612f02565b602060405180830381600087803b15801561137357600080fd5b505af1158015611387573d6000803e3d6000fd5b505050506040513d601f19601f820116820180604052508101906113ab9190612a0b565b50600260009054906101000a900473ffffffffffffffffffffffffffffffffffffffff1673ffffffffffffffffffffffffffffffffffffffff1663a9059cbb87836040518363ffffffff1660e01b8152600401611409929190612f02565b602060405180830381600087803b15801561142357600080fd5b505af1158015611437573d6000803e3d6000fd5b505050506040513d601f19601f8201168201806040525081019061145b9190612a0b565b5060095460085461146c9190613182565b60058190555050505050505050565b6000600854905090565b600260009054906101000a900473ffffffffffffffffffffffffffffffffffffffff1681565b6114b3612760565b6114bd60006127de565b565b600a5481565b60008060009054906101000a900473ffffffffffffffffffffffffffffffffffffffff16905090565b6000600a54846114fe9190613182565b90506000600b54846115109190613182565b9050808214611554576040517f08c379a000000000000000000000000000000000000000000000000000000000815260040161154b90612fc3565b60405180910390fd5b84600160009054906101000a900473ffffffffffffffffffffffffffffffffffffffff1673ffffffffffffffffffffffffffffffffffffffff1663dd62ed3e85306040518363ffffffff1660e01b81526004016115b2929190612ea2565b60206040518083038186803b1580156115ca57600080fd5b505afa1580156115de573d6000803e3d6000fd5b505050506040513d601f19601f820116820180604052508101906116029190612aae565b1015611643576040517f08c379a000000000000000000000000000000000000000000000000000000000815260040161163a90612fe3565b60405180910390fd5b83600260009054906101000a900473ffffffffffffffffffffffffffffffffffffffff1673ffffffffffffffffffffffffffffffffffffffff1663dd62ed3e85306040518363ffffffff1660e01b81526004016116a1929190612ea2565b60206040518083038186803b1580156116b957600080fd5b505afa1580156116cd573d6000803e3d6000fd5b505050506040513d601f19601f820116820180604052508101906116f19190612aae565b1015611732576040517f08c379a000000000000000000000000000000000000000000000000000000000815260040161172990612f83565b60405180910390fd5b600160009054906101000a900473ffffffffffffffffffffffffffffffffffffffff1673ffffffffffffffffffffffffffffffffffffffff166323b872dd8430886040518463ffffffff1660e01b815260040161179193929190612ecb565b602060405180830381600087803b1580156117ab57600080fd5b505af11580156117bf573d6000803e3d6000fd5b505050506040513d601f19601f820116820180604052508101906117e39190612a0b565b50600260009054906101000a900473ffffffffffffffffffffffffffffffffffffffff1673ffffffffffffffffffffffffffffffffffffffff166323b872dd8430876040518463ffffffff1660e01b815260040161184393929190612ecb565b602060405180830381600087803b15801561185d57600080fd5b505af1158015611871573d6000803e3d6000fd5b505050506040513d601f19601f820116820180604052508101906118959190612a0b565b50600360009054906101000a900473ffffffffffffffffffffffffffffffffffffffff1673ffffffffffffffffffffffffffffffffffffffff1663a9059cbb846002856118e29190613182565b6040518363ffffffff1660e01b81526004016118ff929190612f02565b602060405180830381600087803b15801561191957600080fd5b505af115801561192d573d6000803e3d6000fd5b505050506040513d601f19601f820116820180604052508101906119519190612a0b565b5060028261195f9190613182565b600460008573ffffffffffffffffffffffffffffffffffffffff1673ffffffffffffffffffffffffffffffffffffffff16815260200190815260200160002060008282546119ad91906130fb565b9250508190555084600860008282546119c691906130fb565b9250508190555083600960008282546119df91906130fb565b925050819055506009546008546119f69190613182565b600581905550600282611a099190613182565b60076000828254611a1a91906130fb565b925050819055505050505050565b6000611a33836125ce565b1415611a3e57600080fd5b6000606184611a4d9190613182565b90506001611a5a846125ce565b1415611d575783600160009054906101000a900473ffffffffffffffffffffffffffffffffffffffff1673ffffffffffffffffffffffffffffffffffffffff1663dd62ed3e84306040518363ffffffff1660e01b8152600401611abe929190612ea2565b60206040518083038186803b158015611ad657600080fd5b505afa158015611aea573d6000803e3d6000fd5b505050506040513d601f19601f82011682018060405250810190611b0e9190612aae565b1015611b4f576040517f08c379a0000000000000000000000000000000000000000000000000000000008152600401611b4690613023565b60405180910390fd5b600081600854611b5f91906130fb565b60095483611b6d9190613182565b611b779190613151565b90506009548110611bbd576040517f08c379a0000000000000000000000000000000000000000000000000000000008152600401611bb490613043565b60405180910390fd5b600160009054906101000a900473ffffffffffffffffffffffffffffffffffffffff1673ffffffffffffffffffffffffffffffffffffffff166323b872dd8430886040518463ffffffff1660e01b8152600401611c1c93929190612ecb565b602060405180830381600087803b158015611c3657600080fd5b505af1158015611c4a573d6000803e3d6000fd5b505050506040513d601f19601f82011682018060405250810190611c6e9190612a0b565b50600260009054906101000a900473ffffffffffffffffffffffffffffffffffffffff1673ffffffffffffffffffffffffffffffffffffffff1663a9059cbb84836040518363ffffffff1660e01b8152600401611ccc929190612f02565b602060405180830381600087803b158015611ce657600080fd5b505af1158015611cfa573d6000803e3d6000fd5b505050506040513d601f19601f82011682018060405250810190611d1e9190612a0b565b508460086000828254611d3191906130fb565b925050819055508060096000828254611d4a91906131dc565b925050819055505061204a565b83600260009054906101000a900473ffffffffffffffffffffffffffffffffffffffff1673ffffffffffffffffffffffffffffffffffffffff1663dd62ed3e84306040518363ffffffff1660e01b8152600401611db5929190612ea2565b60206040518083038186803b158015611dcd57600080fd5b505afa158015611de1573d6000803e3d6000fd5b505050506040513d601f19601f82011682018060405250810190611e059190612aae565b1015611e46576040517f08c379a0000000000000000000000000000000000000000000000000000000008152600401611e3d90613023565b60405180910390fd5b600081600954611e5691906130fb565b60085483611e649190613182565b611e6e9190613151565b90506008548110611eb4576040517f08c379a0000000000000000000000000000000000000000000000000000000008152600401611eab90613043565b60405180910390fd5b600260009054906101000a900473ffffffffffffffffffffffffffffffffffffffff1673ffffffffffffffffffffffffffffffffffffffff166323b872dd8430886040518463ffffffff1660e01b8152600401611f1393929190612ecb565b602060405180830381600087803b158015611f2d57600080fd5b505af1158015611f41573d6000803e3d6000fd5b505050506040513d601f19601f82011682018060405250810190611f659190612a0b565b50600160009054906101000a900473ffffffffffffffffffffffffffffffffffffffff1673ffffffffffffffffffffffffffffffffffffffff1663a9059cbb84836040518363ffffffff1660e01b8152600401611fc3929190612f02565b602060405180830381600087803b158015611fdd57600080fd5b505af1158015611ff1573d6000803e3d6000fd5b505050506040513d601f19601f820116820180604052508101906120159190612a0b565b50806008600082825461202891906131dc565b92505081905550846009600082825461204191906130fb565b92505081905550505b50505050565b6000600654905090565b80600360009054906101000a900473ffffffffffffffffffffffffffffffffffffffff1673ffffffffffffffffffffffffffffffffffffffff1663dd62ed3e33306040518363ffffffff1660e01b81526004016120b8929190612ea2565b60206040518083038186803b1580156120d057600080fd5b505afa1580156120e4573d6000803e3d6000fd5b505050506040513d601f19601f820116820180604052508101906121089190612aae565b1015600360009054906101000a900473ffffffffffffffffffffffffffffffffffffffff1673ffffffffffffffffffffffffffffffffffffffff1663150704016040518163ffffffff1660e01b815260040160006040518083038186803b15801561217257600080fd5b505afa158015612186573d6000803e3d6000fd5b505050506040513d6000823e3d601f19601f820116820180604052508101906121af9190612a38565b6040516020016121bf9190612e5a565b6040516020818303038152906040529061220f576040517f08c379a00000000000000000000000000000000000000000000000000000000081526004016122069190612f61565b60405180910390fd5b5080600460003373ffffffffffffffffffffffffffffffffffffffff1673ffffffffffffffffffffffffffffffffffffffff16815260200190815260200160002054101561225c57600080fd5b60006007548261226c9190613151565b90506000600b546009546122809190613182565b600a546008546122909190613182565b61229a91906130fb565b826122a59190613182565b9050600060095460085411156122cc576009546008546122c59190613151565b90506122df565b6008546009546122dc9190613151565b90505b83600760008282546122f191906131dc565b9250508190555083600460003373ffffffffffffffffffffffffffffffffffffffff1673ffffffffffffffffffffffffffffffffffffffff168152602001908152602001600020600082825461234791906131dc565b925050819055506000600a54600261235f9190613182565b8361236a9190613151565b90506000600b54600261237d9190613182565b846123889190613151565b9050816008600082825461239c91906131dc565b9250508190555080600960008282546123b591906131dc565b92505081905550600160009054906101000a900473ffffffffffffffffffffffffffffffffffffffff1673ffffffffffffffffffffffffffffffffffffffff1663a9059cbb33846040518363ffffffff1660e01b8152600401612419929190612f02565b602060405180830381600087803b15801561243357600080fd5b505af1158015612447573d6000803e3d6000fd5b505050506040513d601f19601f8201168201806040525081019061246b9190612a0b565b50600260009054906101000a900473ffffffffffffffffffffffffffffffffffffffff1673ffffffffffffffffffffffffffffffffffffffff1663a9059cbb33836040518363ffffffff1660e01b81526004016124c9929190612f02565b602060405180830381600087803b1580156124e357600080fd5b505af11580156124f7573d6000803e3d6000fd5b505050506040513d601f19601f8201168201806040525081019061251b9190612a0b565b5060095460085461252c9190613182565b600581905550505050505050565b600b5481565b6000600554905090565b612552612760565b600073ffffffffffffffffffffffffffffffffffffffff168173ffffffffffffffffffffffffffffffffffffffff1614156125c2576040517f08c379a00000000000000000000000000000000000000000000000000000000081526004016125b990612fa3565b60405180910390fd5b6125cb816127de565b50565b6000600160009054906101000a900473ffffffffffffffffffffffffffffffffffffffff1673ffffffffffffffffffffffffffffffffffffffff1663150704016040518163ffffffff1660e01b815260040160006040518083038186803b15801561263857600080fd5b505afa15801561264c573d6000803e3d6000fd5b505050506040513d6000823e3d601f19601f820116820180604052508101906126759190612a38565b8051906020012082805190602001201415612693576001905061275b565b600260009054906101000a900473ffffffffffffffffffffffffffffffffffffffff1673ffffffffffffffffffffffffffffffffffffffff1663150704016040518163ffffffff1660e01b815260040160006040518083038186803b1580156126fb57600080fd5b505afa15801561270f573d6000803e3d6000fd5b505050506040513d6000823e3d601f19601f820116820180604052508101906127389190612a38565b8051906020012082805190602001201415612756576002905061275b565b600090505b919050565b6127686128a2565b73ffffffffffffffffffffffffffffffffffffffff166127866114c5565b73ffffffffffffffffffffffffffffffffffffffff16146127dc576040517f08c379a00000000000000000000000000000000000000000000000000000000081526004016127d390613003565b60405180910390fd5b565b60008060009054906101000a900473ffffffffffffffffffffffffffffffffffffffff169050816000806101000a81548173ffffffffffffffffffffffffffffffffffffffff021916908373ffffffffffffffffffffffffffffffffffffffff1602179055508173ffffffffffffffffffffffffffffffffffffffff168173ffffffffffffffffffffffffffffffffffffffff167f8be0079c531659141344cd1fd0a4f28419497f9722a3daafe3b4186f6b6457e060405160405180910390a35050565b600033905090565b60006128bd6128b8846130a3565b61307e565b9050828152602081018484840111156128d9576128d86133a5565b5b6128e48482856132a0565b509392505050565b60006128ff6128fa846130a3565b61307e565b90508281526020810184848401111561291b5761291a6133a5565b5b6129268482856132af565b509392505050565b60008135905061293d8161361a565b92915050565b60008151905061295281613631565b92915050565b600082601f83011261296d5761296c6133a0565b5b813561297d8482602086016128aa565b91505092915050565b600082601f83011261299b5761299a6133a0565b5b81516129ab8482602086016128ec565b91505092915050565b6000813590506129c381613648565b92915050565b6000815190506129d881613648565b92915050565b6000602082840312156129f4576129f36133af565b5b6000612a028482850161292e565b91505092915050565b600060208284031215612a2157612a206133af565b5b6000612a2f84828501612943565b91505092915050565b600060208284031215612a4e57612a4d6133af565b5b600082015167ffffffffffffffff811115612a6c57612a6b6133aa565b5b612a7884828501612986565b91505092915050565b600060208284031215612a9757612a966133af565b5b6000612aa5848285016129b4565b91505092915050565b600060208284031215612ac457612ac36133af565b5b6000612ad2848285016129c9565b91505092915050565b60008060408385031215612af257612af16133af565b5b6000612b00858286016129b4565b9250506020612b118582860161292e565b9150509250929050565b60008060408385031215612b3257612b316133af565b5b6000612b40858286016129b4565b925050602083013567ffffffffffffffff811115612b6157612b606133aa565b5b612b6d85828601612958565b9150509250929050565b600080600060608486031215612b9057612b8f6133af565b5b6000612b9e868287016129b4565b935050602084013567ffffffffffffffff811115612bbf57612bbe6133aa565b5b612bcb86828701612958565b9250506040612bdc8682870161292e565b9150509250925092565b60008060408385031215612bfd57612bfc6133af565b5b6000612c0b858286016129b4565b9250506020612c1c858286016129b4565b9150509250929050565b600080600060608486031215612c3f57612c3e6133af565b5b6000612c4d868287016129b4565b9350506020612c5e868287016129b4565b9250506040612c6f8682870161292e565b9150509250925092565b612c8281613210565b82525050565b612c9181613258565b82525050565b612ca08161327c565b82525050565b6000612cb1826130d4565b612cbb81856130df565b9350612ccb8185602086016132af565b612cd4816133b4565b840191505092915050565b6000612cea826130d4565b612cf481856130f0565b9350612d048185602086016132af565b80840191505092915050565b6000612d1d6025836130df565b9150612d28826133c5565b604082019050919050565b6000612d406026836130df565b9150612d4b82613414565b604082019050919050565b6000612d636031836130df565b9150612d6e82613463565b604082019050919050565b6000612d866025836130df565b9150612d91826134b2565b604082019050919050565b6000612da9600a836130f0565b9150612db482613501565b600a82019050919050565b6000612dcc6011836130f0565b9150612dd78261352a565b601182019050919050565b6000612def6020836130df565b9150612dfa82613553565b602082019050919050565b6000612e126023836130df565b9150612e1d8261357c565b604082019050919050565b6000612e356027836130df565b9150612e40826135cb565b604082019050919050565b612e548161324e565b82525050565b6000612e6582612d9c565b9150612e718284612cdf565b9150612e7c82612dbf565b915081905092915050565b6000602082019050612e9c6000830184612c79565b92915050565b6000604082019050612eb76000830185612c79565b612ec46020830184612c79565b9392505050565b6000606082019050612ee06000830186612c79565b612eed6020830185612c79565b612efa6040830184612e4b565b949350505050565b6000604082019050612f176000830185612c79565b612f246020830184612e4b565b9392505050565b6000602082019050612f406000830184612c88565b92915050565b6000602082019050612f5b6000830184612c97565b92915050565b60006020820190508181036000830152612f7b8184612ca6565b905092915050565b60006020820190508181036000830152612f9c81612d10565b9050919050565b60006020820190508181036000830152612fbc81612d33565b9050919050565b60006020820190508181036000830152612fdc81612d56565b9050919050565b60006020820190508181036000830152612ffc81612d79565b9050919050565b6000602082019050818103600083015261301c81612de2565b9050919050565b6000602082019050818103600083015261303c81612e05565b9050919050565b6000602082019050818103600083015261305c81612e28565b9050919050565b60006020820190506130786000830184612e4b565b92915050565b6000613088613099565b905061309482826132e2565b919050565b6000604051905090565b600067ffffffffffffffff8211156130be576130bd613371565b5b6130c7826133b4565b9050602081019050919050565b600081519050919050565b600082825260208201905092915050565b600081905092915050565b60006131068261324e565b91506131118361324e565b9250827fffffffffffffffffffffffffffffffffffffffffffffffffffffffffffffffff0382111561314657613145613313565b5b828201905092915050565b600061315c8261324e565b91506131678361324e565b92508261317757613176613342565b5b828204905092915050565b600061318d8261324e565b91506131988361324e565b9250817fffffffffffffffffffffffffffffffffffffffffffffffffffffffffffffffff04831182151516156131d1576131d0613313565b5b828202905092915050565b60006131e78261324e565b91506131f28361324e565b92508282101561320557613204613313565b5b828203905092915050565b600061321b8261322e565b9050919050565b60008115159050919050565b600073ffffffffffffffffffffffffffffffffffffffff82169050919050565b6000819050919050565b60006132638261326a565b9050919050565b60006132758261322e565b9050919050565b60006132878261328e565b9050919050565b60006132998261322e565b9050919050565b82818337600083830152505050565b60005b838110156132cd5780820151818401526020810190506132b2565b838111156132dc576000848401525b50505050565b6132eb826133b4565b810181811067ffffffffffffffff8211171561330a57613309613371565b5b80604052505050565b7f4e487b7100000000000000000000000000000000000000000000000000000000600052601160045260246000fd5b7f4e487b7100000000000000000000000000000000000000000000000000000000600052601260045260246000fd5b7f4e487b7100000000000000000000000000000000000000000000000000000000600052604160045260246000fd5b600080fd5b600080fd5b600080fd5b600080fd5b6000601f19601f8301169050919050565b7f4e6f7420656e6f756768207b746f6b656e427d2068617665206265656e20616c60008201527f6c6f776564000000000000000000000000000000000000000000000000000000602082015250565b7f4f776e61626c653a206e6577206f776e657220697320746865207a65726f206160008201527f6464726573730000000000000000000000000000000000000000000000000000602082015250565b7f5468652076616c75652070726f7669646564206973206e6f742074686520736160008201527f6d6520666f72206561636820746f6b656e000000000000000000000000000000602082015250565b7f4e6f7420656e6f756768207b746f6b656e417d2068617665206265656e20616c60008201527f6c6f776564000000000000000000000000000000000000000000000000000000602082015250565b7f4e6f7420656e6f75676800000000000000000000000000000000000000000000600082015250565b7f68617665206265656e20616c6c6f776564000000000000000000000000000000600082015250565b7f4f776e61626c653a2063616c6c6572206973206e6f7420746865206f776e6572600082015250565b7f4e6f7420656e6f75676820746f6b656e732068617665206265656e20616c6c6f60008201527f7765640000000000000000000000000000000000000000000000000000000000602082015250565b7f6e6f7420656e6f7567682066756e647320746f20706572666f726d207472616e60008201527f73616374696f6e00000000000000000000000000000000000000000000000000602082015250565b61362381613210565b811461362e57600080fd5b50565b61363a81613222565b811461364557600080fd5b50565b6136518161324e565b811461365c57600080fd5b5056fea2646970667358221220e7eb89f992c3443609b52788a7d2109113d9817cbca905248ac072f3fbaf0a1264736f6c6343000806003360806040523480156200001157600080fd5b506040516200120e3803806200120e83398181016040528101906200003791906200020c565b83600090805190602001906200004f929190620000c7565b50826001908051906020019062000068929190620000c7565b508160028190555080600381905550600354600460003373ffffffffffffffffffffffffffffffffffffffff1673ffffffffffffffffffffffffffffffffffffffff168152602001908152602001600020819055505050505062000464565b828054620000d5906200035b565b90600052602060002090601f016020900481019282620000f9576000855562000145565b82601f106200011457805160ff191683800117855562000145565b8280016001018555821562000145579182015b828111156200014457825182559160200191906001019062000127565b5b50905062000154919062000158565b5090565b5b808211156200017357600081600090555060010162000159565b5090565b60006200018e6200018884620002e5565b620002bc565b905082815260208101848484011115620001ad57620001ac6200042a565b5b620001ba84828562000325565b509392505050565b600082601f830112620001da57620001d962000425565b5b8151620001ec84826020860162000177565b91505092915050565b60008151905062000206816200044a565b92915050565b6000806000806080858703121562000229576200022862000434565b5b600085015167ffffffffffffffff8111156200024a57620002496200042f565b5b6200025887828801620001c2565b945050602085015167ffffffffffffffff8111156200027c576200027b6200042f565b5b6200028a87828801620001c2565b93505060406200029d87828801620001f5565b9250506060620002b087828801620001f5565b91505092959194509250565b6000620002c8620002db565b9050620002d6828262000391565b919050565b6000604051905090565b600067ffffffffffffffff821115620003035762000302620003f6565b5b6200030e8262000439565b9050602081019050919050565b6000819050919050565b60005b838110156200034557808201518184015260208101905062000328565b8381111562000355576000848401525b50505050565b600060028204905060018216806200037457607f821691505b602082108114156200038b576200038a620003c7565b5b50919050565b6200039c8262000439565b810181811067ffffffffffffffff82111715620003be57620003bd620003f6565b5b80604052505050565b7f4e487b7100000000000000000000000000000000000000000000000000000000600052602260045260246000fd5b7f4e487b7100000000000000000000000000000000000000000000000000000000600052604160045260246000fd5b600080fd5b600080fd5b600080fd5b600080fd5b6000601f19601f8301169050919050565b62000455816200031b565b81146200046157600080fd5b50565b610d9a80620004746000396000f3fe608060405234801561001057600080fd5b50600436106100a95760003560e01c8063313ce56711610071578063313ce5671461016857806370a082311461018657806395d89b41146101b6578063a9059cbb146101d4578063c4e41b2214610204578063dd62ed3e14610222576100a9565b806306fdde03146100ae578063095ea7b3146100cc57806315070401146100fc57806318160ddd1461011a57806323b872dd14610138575b600080fd5b6100b6610252565b6040516100c39190610b32565b60405180910390f35b6100e660048036038101906100e19190610a80565b6102e0565b6040516100f39190610b17565b60405180910390f35b61010461040b565b6040516101119190610b32565b60405180910390f35b61012261049d565b60405161012f9190610b54565b60405180910390f35b610152600480360381019061014d9190610a2d565b6104a3565b60405161015f9190610b17565b60405180910390f35b610170610698565b60405161017d9190610b54565b60405180910390f35b6101a0600480360381019061019b91906109c0565b61069e565b6040516101ad9190610b54565b60405180910390f35b6101be6106b6565b6040516101cb9190610b32565b60405180910390f35b6101ee60048036038101906101e99190610a80565b610744565b6040516101fb9190610b17565b60405180910390f35b61020c6107a7565b6040516102199190610b54565b60405180910390f35b61023c600480360381019061023791906109ed565b6107b1565b6040516102499190610b54565b60405180910390f35b6000805461025f90610c90565b80601f016020809104026020016040519081016040528092919081815260200182805461028b90610c90565b80156102d85780601f106102ad576101008083540402835291602001916102d8565b820191906000526020600020905b8154815290600101906020018083116102bb57829003601f168201915b505050505081565b60008073ffffffffffffffffffffffffffffffffffffffff168373ffffffffffffffffffffffffffffffffffffffff16141561031b57600080fd5b81600560003373ffffffffffffffffffffffffffffffffffffffff1673ffffffffffffffffffffffffffffffffffffffff16815260200190815260200160002060008573ffffffffffffffffffffffffffffffffffffffff1673ffffffffffffffffffffffffffffffffffffffff168152602001908152602001600020819055508273ffffffffffffffffffffffffffffffffffffffff163373ffffffffffffffffffffffffffffffffffffffff167f8c5be1e5ebec7d5bd14f71427d1e84f3dd0314c0f7b2291e5b200ac8c7c3b925846040516103f99190610b54565b60405180910390a36001905092915050565b60606001805461041a90610c90565b80601f016020809104026020016040519081016040528092919081815260200182805461044690610c90565b80156104935780601f1061046857610100808354040283529160200191610493565b820191906000526020600020905b81548152906001019060200180831161047657829003601f168201915b5050505050905090565b60035481565b6000600460008573ffffffffffffffffffffffffffffffffffffffff1673ffffffffffffffffffffffffffffffffffffffff168152602001908152602001600020548211156104f157600080fd5b600560008573ffffffffffffffffffffffffffffffffffffffff1673ffffffffffffffffffffffffffffffffffffffff16815260200190815260200160002060003373ffffffffffffffffffffffffffffffffffffffff1673ffffffffffffffffffffffffffffffffffffffff1681526020019081526020016000205482111561057a57600080fd5b81600560008673ffffffffffffffffffffffffffffffffffffffff1673ffffffffffffffffffffffffffffffffffffffff16815260200190815260200160002060003373ffffffffffffffffffffffffffffffffffffffff1673ffffffffffffffffffffffffffffffffffffffff168152602001908152602001600020546106029190610be1565b600560008673ffffffffffffffffffffffffffffffffffffffff1673ffffffffffffffffffffffffffffffffffffffff16815260200190815260200160002060003373ffffffffffffffffffffffffffffffffffffffff1673ffffffffffffffffffffffffffffffffffffffff1681526020019081526020016000208190555061068d8484846107d6565b600190509392505050565b60025481565b60046020528060005260406000206000915090505481565b600180546106c390610c90565b80601f01602080910402602001604051908101604052809291908181526020018280546106ef90610c90565b801561073c5780601f106107115761010080835404028352916020019161073c565b820191906000526020600020905b81548152906001019060200180831161071f57829003601f168201915b505050505081565b600081600460003373ffffffffffffffffffffffffffffffffffffffff1673ffffffffffffffffffffffffffffffffffffffff16815260200190815260200160002054101561079257600080fd5b61079d3384846107d6565b6001905092915050565b6000600354905090565b6005602052816000526040600020602052806000526040600020600091509150505481565b600073ffffffffffffffffffffffffffffffffffffffff168273ffffffffffffffffffffffffffffffffffffffff16141561081057600080fd5b80600460008573ffffffffffffffffffffffffffffffffffffffff1673ffffffffffffffffffffffffffffffffffffffff1681526020019081526020016000205461085b9190610be1565b600460008573ffffffffffffffffffffffffffffffffffffffff1673ffffffffffffffffffffffffffffffffffffffff1681526020019081526020016000208190555080600460008473ffffffffffffffffffffffffffffffffffffffff1673ffffffffffffffffffffffffffffffffffffffff168152602001908152602001600020546108e99190610b8b565b600460008473ffffffffffffffffffffffffffffffffffffffff1673ffffffffffffffffffffffffffffffffffffffff168152602001908152602001600020819055508173ffffffffffffffffffffffffffffffffffffffff168373ffffffffffffffffffffffffffffffffffffffff167fddf252ad1be2c89b69c2b068fc378daa952ba7f163c4a11628f55a4df523b3ef836040516109899190610b54565b60405180910390a3505050565b6000813590506109a581610d36565b92915050565b6000813590506109ba81610d4d565b92915050565b6000602082840312156109d6576109d5610d20565b5b60006109e484828501610996565b91505092915050565b60008060408385031215610a0457610a03610d20565b5b6000610a1285828601610996565b9250506020610a2385828601610996565b9150509250929050565b600080600060608486031215610a4657610a45610d20565b5b6000610a5486828701610996565b9350506020610a6586828701610996565b9250506040610a76868287016109ab565b9150509250925092565b60008060408385031215610a9757610a96610d20565b5b6000610aa585828601610996565b9250506020610ab6858286016109ab565b9150509250929050565b610ac981610c27565b82525050565b6000610ada82610b6f565b610ae48185610b7a565b9350610af4818560208601610c5d565b610afd81610d25565b840191505092915050565b610b1181610c53565b82525050565b6000602082019050610b2c6000830184610ac0565b92915050565b60006020820190508181036000830152610b4c8184610acf565b905092915050565b6000602082019050610b696000830184610b08565b92915050565b600081519050919050565b600082825260208201905092915050565b6000610b9682610c53565b9150610ba183610c53565b9250827fffffffffffffffffffffffffffffffffffffffffffffffffffffffffffffffff03821115610bd657610bd5610cc2565b5b828201905092915050565b6000610bec82610c53565b9150610bf783610c53565b925082821015610c0a57610c09610cc2565b5b828203905092915050565b6000610c2082610c33565b9050919050565b60008115159050919050565b600073ffffffffffffffffffffffffffffffffffffffff82169050919050565b6000819050919050565b60005b83811015610c7b578082015181840152602081019050610c60565b83811115610c8a576000848401525b50505050565b60006002820490506001821680610ca857607f821691505b60208210811415610cbc57610cbb610cf1565b5b50919050565b7f4e487b7100000000000000000000000000000000000000000000000000000000600052601160045260246000fd5b7f4e487b7100000000000000000000000000000000000000000000000000000000600052602260045260246000fd5b600080fd5b6000601f19601f8301169050919050565b610d3f81610c15565b8114610d4a57600080fd5b50565b610d5681610c53565b8114610d6157600080fd5b5056fea26469706673582212206aba40e8b7d98441ae9ddc923d8a57612428c05b12b1aa3014b1812028ee373964736f6c63430008060033608060405234801561001057600080fd5b506040516106bf3803806106bf8339818101604052810190610032919061008d565b806000806101000a81548173ffffffffffffffffffffffffffffffffffffffff021916908373ffffffffffffffffffffffffffffffffffffffff1602179055505061011a565b60008151905061008781610103565b92915050565b6000602082840312156100a3576100a26100fe565b5b60006100b184828501610078565b91505092915050565b60006100c5826100de565b9050919050565b60006100d7826100ba565b9050919050565b600073ffffffffffffffffffffffffffffffffffffffff82169050919050565b600080fd5b61010c816100cc565b811461011757600080fd5b50565b610596806101296000396000f3fe608060405234801561001057600080fd5b506004361061002b5760003560e01c80630729820314610030575b600080fd5b61003861004e565b6040516100459190610454565b60405180910390f35b606060008054906101000a900473ffffffffffffffffffffffffffffffffffffffff1673ffffffffffffffffffffffffffffffffffffffff1663ee39e7a06040518163ffffffff1660e01b815260040160206040518083038186803b1580156100b657600080fd5b505afa1580156100ca573d6000803e3d6000fd5b505050506040513d601f19601f820116820180604052508101906100ee91906102c2565b6040516020016100fe9190610439565b60405160208183030381529060405260008054906101000a900473ffffffffffffffffffffffffffffffffffffffff1673ffffffffffffffffffffffffffffffffffffffff16634d9b37356040518163ffffffff1660e01b815260040160206040518083038186803b15801561017357600080fd5b505afa158015610187573d6000803e3d6000fd5b505050506040513d601f19601f820116820180604052508101906101ab91906102c2565b6040516020016101bb9190610439565b60405160208183030381529060405260008054906101000a900473ffffffffffffffffffffffffffffffffffffffff1673ffffffffffffffffffffffffffffffffffffffff1663d342f9706040518163ffffffff1660e01b815260040160206040518083038186803b15801561023057600080fd5b505afa158015610244573d6000803e3d6000fd5b505050506040513d601f19601f8201168201806040525081019061026891906102c2565b6040516020016102789190610439565b604051602081830303815290604052604051602001610299939291906103df565b604051602081830303815290604052905090565b6000815190506102bc81610549565b92915050565b6000602082840312156102d8576102d76104e4565b5b60006102e6848285016102ad565b91505092915050565b60006102fa82610476565b6103048185610481565b93506103148185602086016104a7565b61031d816104e9565b840191505092915050565b600061033382610476565b61033d8185610492565b935061034d8185602086016104a7565b80840191505092915050565b7f202020746f74616c2066756e6473206f662074686520706f6f6c3a0000000000815250565b600061038c602483610492565b9150610397826104fa565b602482019050919050565b7f202020746865206b206f662074686520706f6f6c3a0000000000000000000000815250565b6103d96103d48261049d565b6104da565b82525050565b60006103ea826103a2565b6015820191506103fa8286610328565b915061040582610359565b601b820191506104158285610328565b91506104208261037f565b915061042c8284610328565b9150819050949350505050565b600061044582846103c8565b60208201915081905092915050565b6000602082019050818103600083015261046e81846102ef565b905092915050565b600081519050919050565b600082825260208201905092915050565b600081905092915050565b6000819050919050565b60005b838110156104c55780820151818401526020810190506104aa565b838111156104d4576000848401525b50505050565b6000819050919050565b600080fd5b6000601f19601f8301169050919050565b7f202020746f74616c206c6f636b65642070726f666974206f66206c697175696460008201527f6974793a00000000000000000000000000000000000000000000000000000000602082015250565b6105528161049d565b811461055d57600080fd5b5056fea2646970667358221220e7cc1535b9b18f212dc19518e9b7c07495efd040b00d84a6985601a4f805751964736f6c63430008060033a2646970667358221220f82899606ccbd10333227c768e79ae97a46ae116844578d22a058c41d2c7a2f164736f6c6343000806003360806040523480156200001157600080fd5b50604051620013ff380380620013ff83398181016040528101906200003791906200020c565b83600090805190602001906200004f929190620000c7565b50826001908051906020019062000068929190620000c7565b508160028190555080600381905550600354600460003373ffffffffffffffffffffffffffffffffffffffff1673ffffffffffffffffffffffffffffffffffffffff168152602001908152602001600020819055505050505062000464565b828054620000d5906200035b565b90600052602060002090601f016020900481019282620000f9576000855562000145565b82601f106200011457805160ff191683800117855562000145565b8280016001018555821562000145579182015b828111156200014457825182559160200191906001019062000127565b5b50905062000154919062000158565b5090565b5b808211156200017357600081600090555060010162000159565b5090565b60006200018e6200018884620002e5565b620002bc565b905082815260208101848484011115620001ad57620001ac6200042a565b5b620001ba84828562000325565b509392505050565b600082601f830112620001da57620001d962000425565b5b8151620001ec84826020860162000177565b91505092915050565b60008151905062000206816200044a565b92915050565b6000806000806080858703121562000229576200022862000434565b5b600085015167ffffffffffffffff8111156200024a57620002496200042f565b5b6200025887828801620001c2565b945050602085015167ffffffffffffffff8111156200027c576200027b6200042f565b5b6200028a87828801620001c2565b93505060406200029d87828801620001f5565b9250506060620002b087828801620001f5565b91505092959194509250565b6000620002c8620002db565b9050620002d6828262000391565b919050565b6000604051905090565b600067ffffffffffffffff821115620003035762000302620003f6565b5b6200030e8262000439565b9050602081019050919050565b6000819050919050565b60005b838110156200034557808201518184015260208101905062000328565b8381111562000355576000848401525b50505050565b600060028204905060018216806200037457607f821691505b602082108114156200038b576200038a620003c7565b5b50919050565b6200039c8262000439565b810181811067ffffffffffffffff82111715620003be57620003bd620003f6565b5b80604052505050565b7f4e487b7100000000000000000000000000000000000000000000000000000000600052602260045260246000fd5b7f4e487b7100000000000000000000000000000000000000000000000000000000600052604160045260246000fd5b600080fd5b600080fd5b600080fd5b600080fd5b6000601f19601f8301169050919050565b62000455816200031b565b81146200046157600080fd5b50565b610f8b80620004746000396000f3fe608060405234801561001057600080fd5b50600436106100cf5760003560e01c8063313ce5671161008c578063a9059cbb11610066578063a9059cbb14610216578063abe19ba314610246578063c4e41b2214610276578063dd62ed3e14610294576100cf565b8063313ce567146101aa57806370a08231146101c857806395d89b41146101f8576100cf565b806306fdde03146100d4578063095ea7b3146100f2578063150704011461012257806318160ddd1461014057806323b872dd1461015e57806330e0789e1461018e575b600080fd5b6100dc6102c4565b6040516100e99190610d23565b60405180910390f35b61010c60048036038101906101079190610c1e565b610352565b6040516101199190610d08565b60405180910390f35b61012a61047d565b6040516101379190610d23565b60405180910390f35b61014861050f565b6040516101559190610d45565b60405180910390f35b61017860048036038101906101739190610bcb565b610515565b6040516101859190610d08565b60405180910390f35b6101a860048036038101906101a39190610bcb565b61070a565b005b6101b26108ca565b6040516101bf9190610d45565b60405180910390f35b6101e260048036038101906101dd9190610b5e565b6108d0565b6040516101ef9190610d45565b60405180910390f35b6102006108e8565b60405161020d9190610d23565b60405180910390f35b610230600480360381019061022b9190610c1e565b610976565b60405161023d9190610d08565b60405180910390f35b610260600480360381019061025b9190610c5e565b6109d9565b60405161026d9190610d08565b60405180910390f35b61027e610b05565b60405161028b9190610d45565b60405180910390f35b6102ae60048036038101906102a99190610b8b565b610b0f565b6040516102bb9190610d45565b60405180910390f35b600080546102d190610e81565b80601f01602080910402602001604051908101604052809291908181526020018280546102fd90610e81565b801561034a5780601f1061031f5761010080835404028352916020019161034a565b820191906000526020600020905b81548152906001019060200180831161032d57829003601f168201915b505050505081565b60008073ffffffffffffffffffffffffffffffffffffffff168373ffffffffffffffffffffffffffffffffffffffff16141561038d57600080fd5b81600560003373ffffffffffffffffffffffffffffffffffffffff1673ffffffffffffffffffffffffffffffffffffffff16815260200190815260200160002060008573ffffffffffffffffffffffffffffffffffffffff1673ffffffffffffffffffffffffffffffffffffffff168152602001908152602001600020819055508273ffffffffffffffffffffffffffffffffffffffff163373ffffffffffffffffffffffffffffffffffffffff167f8c5be1e5ebec7d5bd14f71427d1e84f3dd0314c0f7b2291e5b200ac8c7c3b9258460405161046b9190610d45565b60405180910390a36001905092915050565b60606001805461048c90610e81565b80601f01602080910402602001604051908101604052809291908181526020018280546104b890610e81565b80156105055780601f106104da57610100808354040283529160200191610505565b820191906000526020600020905b8154815290600101906020018083116104e857829003601f168201915b5050505050905090565b60035481565b6000600460008573ffffffffffffffffffffffffffffffffffffffff1673ffffffffffffffffffffffffffffffffffffffff1681526020019081526020016000205482111561056357600080fd5b600560008573ffffffffffffffffffffffffffffffffffffffff1673ffffffffffffffffffffffffffffffffffffffff16815260200190815260200160002060003373ffffffffffffffffffffffffffffffffffffffff1673ffffffffffffffffffffffffffffffffffffffff168152602001908152602001600020548211156105ec57600080fd5b81600560008673ffffffffffffffffffffffffffffffffffffffff1673ffffffffffffffffffffffffffffffffffffffff16815260200190815260200160002060003373ffffffffffffffffffffffffffffffffffffffff1673ffffffffffffffffffffffffffffffffffffffff168152602001908152602001600020546106749190610dd2565b600560008673ffffffffffffffffffffffffffffffffffffffff1673ffffffffffffffffffffffffffffffffffffffff16815260200190815260200160002060003373ffffffffffffffffffffffffffffffffffffffff1673ffffffffffffffffffffffffffffffffffffffff168152602001908152602001600020819055506106ff84848461070a565b600190509392505050565b600073ffffffffffffffffffffffffffffffffffffffff168273ffffffffffffffffffffffffffffffffffffffff16141561074457600080fd5b80600460008573ffffffffffffffffffffffffffffffffffffffff1673ffffffffffffffffffffffffffffffffffffffff1681526020019081526020016000205461078f9190610dd2565b600460008573ffffffffffffffffffffffffffffffffffffffff1673ffffffffffffffffffffffffffffffffffffffff1681526020019081526020016000208190555080600460008473ffffffffffffffffffffffffffffffffffffffff1673ffffffffffffffffffffffffffffffffffffffff1681526020019081526020016000205461081d9190610d7c565b600460008473ffffffffffffffffffffffffffffffffffffffff1673ffffffffffffffffffffffffffffffffffffffff168152602001908152602001600020819055508173ffffffffffffffffffffffffffffffffffffffff168373ffffffffffffffffffffffffffffffffffffffff167fddf252ad1be2c89b69c2b068fc378daa952ba7f163c4a11628f55a4df523b3ef836040516108bd9190610d45565b60405180910390a3505050565b60025481565b60046020528060005260406000206000915090505481565b600180546108f590610e81565b80601f016020809104026020016040519081016040528092919081815260200182805461092190610e81565b801561096e5780601f106109435761010080835404028352916020019161096e565b820191906000526020600020905b81548152906001019060200180831161095157829003601f168201915b505050505081565b600081600460003373ffffffffffffffffffffffffffffffffffffffff1673ffffffffffffffffffffffffffffffffffffffff1681526020019081526020016000205410156109c457600080fd5b6109cf33848461070a565b6001905092915050565b60008073ffffffffffffffffffffffffffffffffffffffff168473ffffffffffffffffffffffffffffffffffffffff161415610a1457600080fd5b82600560008473ffffffffffffffffffffffffffffffffffffffff1673ffffffffffffffffffffffffffffffffffffffff16815260200190815260200160002060008673ffffffffffffffffffffffffffffffffffffffff1673ffffffffffffffffffffffffffffffffffffffff168152602001908152602001600020819055508373ffffffffffffffffffffffffffffffffffffffff168273ffffffffffffffffffffffffffffffffffffffff167f8c5be1e5ebec7d5bd14f71427d1e84f3dd0314c0f7b2291e5b200ac8c7c3b92585604051610af29190610d45565b60405180910390a3600190509392505050565b6000600354905090565b6005602052816000526040600020602052806000526040600020600091509150505481565b600081359050610b4381610f27565b92915050565b600081359050610b5881610f3e565b92915050565b600060208284031215610b7457610b73610f11565b5b6000610b8284828501610b34565b91505092915050565b60008060408385031215610ba257610ba1610f11565b5b6000610bb085828601610b34565b9250506020610bc185828601610b34565b9150509250929050565b600080600060608486031215610be457610be3610f11565b5b6000610bf286828701610b34565b9350506020610c0386828701610b34565b9250506040610c1486828701610b49565b9150509250925092565b60008060408385031215610c3557610c34610f11565b5b6000610c4385828601610b34565b9250506020610c5485828601610b49565b9150509250929050565b600080600060608486031215610c7757610c76610f11565b5b6000610c8586828701610b34565b9350506020610c9686828701610b49565b9250506040610ca786828701610b34565b9150509250925092565b610cba81610e18565b82525050565b6000610ccb82610d60565b610cd58185610d6b565b9350610ce5818560208601610e4e565b610cee81610f16565b840191505092915050565b610d0281610e44565b82525050565b6000602082019050610d1d6000830184610cb1565b92915050565b60006020820190508181036000830152610d3d8184610cc0565b905092915050565b6000602082019050610d5a6000830184610cf9565b92915050565b600081519050919050565b600082825260208201905092915050565b6000610d8782610e44565b9150610d9283610e44565b9250827fffffffffffffffffffffffffffffffffffffffffffffffffffffffffffffffff03821115610dc757610dc6610eb3565b5b828201905092915050565b6000610ddd82610e44565b9150610de883610e44565b925082821015610dfb57610dfa610eb3565b5b828203905092915050565b6000610e1182610e24565b9050919050565b60008115159050919050565b600073ffffffffffffffffffffffffffffffffffffffff82169050919050565b6000819050919050565b60005b83811015610e6c578082015181840152602081019050610e51565b83811115610e7b576000848401525b50505050565b60006002820490506001821680610e9957607f821691505b60208210811415610ead57610eac610ee2565b5b50919050565b7f4e487b7100000000000000000000000000000000000000000000000000000000600052601160045260246000fd5b7f4e487b7100000000000000000000000000000000000000000000000000000000600052602260045260246000fd5b600080fd5b6000601f19601f8301169050919050565b610f3081610e06565b8114610f3b57600080fd5b50565b610f4781610e44565b8114610f5257600080fd5b5056fea264697066735822122057138f4c802b9ec2990c9344f5ec5730c17601c0f8f4f48b658947e3b7637e5164736f6c63430008060033",
			"opcodes": "PUSH1 0x80 PUSH1 0x40 MSTORE CALLVALUE DUP1 ISZERO PUSH3 0x11 JUMPI PUSH1 0x0 DUP1 REVERT JUMPDEST POP PUSH1 0x40 MLOAD PUSH3 0x8AAA CODESIZE SUB DUP1 PUSH3 0x8AAA DUP4 CODECOPY DUP2 DUP2 ADD PUSH1 0x40 MSTORE DUP2 ADD SWAP1 PUSH3 0x37 SWAP2 SWAP1 PUSH3 0x2BC JUMP JUMPDEST DUP3 PUSH1 0x0 SWAP1 DUP1 MLOAD SWAP1 PUSH1 0x20 ADD SWAP1 PUSH3 0x4F SWAP3 SWAP2 SWAP1 PUSH3 0x169 JUMP JUMPDEST POP DUP2 PUSH1 0x1 DUP2 SWAP1 SSTORE POP DUP1 PUSH1 0x2 DUP2 SWAP1 SSTORE POP PUSH1 0xA PUSH5 0x2540BE400 PUSH1 0x40 MLOAD PUSH3 0x74 SWAP1 PUSH3 0x1FA JUMP JUMPDEST PUSH3 0x81 SWAP3 SWAP2 SWAP1 PUSH3 0x3CE JUMP JUMPDEST PUSH1 0x40 MLOAD DUP1 SWAP2 SUB SWAP1 PUSH1 0x0 CREATE DUP1 ISZERO DUP1 ISZERO PUSH3 0x9E JUMPI RETURNDATASIZE PUSH1 0x0 DUP1 RETURNDATACOPY RETURNDATASIZE PUSH1 0x0 REVERT JUMPDEST POP PUSH1 0x3 PUSH1 0x0 PUSH2 0x100 EXP DUP2 SLOAD DUP2 PUSH20 0xFFFFFFFFFFFFFFFFFFFFFFFFFFFFFFFFFFFFFFFF MUL NOT AND SWAP1 DUP4 PUSH20 0xFFFFFFFFFFFFFFFFFFFFFFFFFFFFFFFFFFFFFFFF AND MUL OR SWAP1 SSTORE POP PUSH1 0xA PUSH5 0x2540BE400 PUSH1 0x40 MLOAD PUSH3 0xF5 SWAP1 PUSH3 0x1FA JUMP JUMPDEST PUSH3 0x102 SWAP3 SWAP2 SWAP1 PUSH3 0x425 JUMP JUMPDEST PUSH1 0x40 MLOAD DUP1 SWAP2 SUB SWAP1 PUSH1 0x0 CREATE DUP1 ISZERO DUP1 ISZERO PUSH3 0x11F JUMPI RETURNDATASIZE PUSH1 0x0 DUP1 RETURNDATACOPY RETURNDATASIZE PUSH1 0x0 REVERT JUMPDEST POP PUSH1 0x4 PUSH1 0x0 PUSH2 0x100 EXP DUP2 SLOAD DUP2 PUSH20 0xFFFFFFFFFFFFFFFFFFFFFFFFFFFFFFFFFFFFFFFF MUL NOT AND SWAP1 DUP4 PUSH20 0xFFFFFFFFFFFFFFFFFFFFFFFFFFFFFFFFFFFFFFFF AND MUL OR SWAP1 SSTORE POP POP POP POP PUSH3 0x6D8 JUMP JUMPDEST DUP3 DUP1 SLOAD PUSH3 0x177 SWAP1 PUSH3 0x554 JUMP JUMPDEST SWAP1 PUSH1 0x0 MSTORE PUSH1 0x20 PUSH1 0x0 KECCAK256 SWAP1 PUSH1 0x1F ADD PUSH1 0x20 SWAP1 DIV DUP2 ADD SWAP3 DUP3 PUSH3 0x19B JUMPI PUSH1 0x0 DUP6 SSTORE PUSH3 0x1E7 JUMP JUMPDEST DUP3 PUSH1 0x1F LT PUSH3 0x1B6 JUMPI DUP1 MLOAD PUSH1 0xFF NOT AND DUP4 DUP1 ADD OR DUP6 SSTORE PUSH3 0x1E7 JUMP JUMPDEST DUP3 DUP1 ADD PUSH1 0x1 ADD DUP6 SSTORE DUP3 ISZERO PUSH3 0x1E7 JUMPI SWAP2 DUP3 ADD JUMPDEST DUP3 DUP2 GT ISZERO PUSH3 0x1E6 JUMPI DUP3 MLOAD DUP3 SSTORE SWAP2 PUSH1 0x20 ADD SWAP2 SWAP1 PUSH1 0x1 ADD SWAP1 PUSH3 0x1C9 JUMP JUMPDEST JUMPDEST POP SWAP1 POP PUSH3 0x1F6 SWAP2 SWAP1 PUSH3 0x208 JUMP JUMPDEST POP SWAP1 JUMP JUMPDEST PUSH2 0x13FF DUP1 PUSH3 0x76AB DUP4 CODECOPY ADD SWAP1 JUMP JUMPDEST JUMPDEST DUP1 DUP3 GT ISZERO PUSH3 0x223 JUMPI PUSH1 0x0 DUP2 PUSH1 0x0 SWAP1 SSTORE POP PUSH1 0x1 ADD PUSH3 0x209 JUMP JUMPDEST POP SWAP1 JUMP JUMPDEST PUSH1 0x0 PUSH3 0x23E PUSH3 0x238 DUP5 PUSH3 0x4A5 JUMP JUMPDEST PUSH3 0x47C JUMP JUMPDEST SWAP1 POP DUP3 DUP2 MSTORE PUSH1 0x20 DUP2 ADD DUP5 DUP5 DUP5 ADD GT ISZERO PUSH3 0x25D JUMPI PUSH3 0x25C PUSH3 0x623 JUMP JUMPDEST JUMPDEST PUSH3 0x26A DUP5 DUP3 DUP6 PUSH3 0x51E JUMP JUMPDEST POP SWAP4 SWAP3 POP POP POP JUMP JUMPDEST PUSH1 0x0 DUP3 PUSH1 0x1F DUP4 ADD SLT PUSH3 0x28A JUMPI PUSH3 0x289 PUSH3 0x61E JUMP JUMPDEST JUMPDEST DUP2 MLOAD PUSH3 0x29C DUP5 DUP3 PUSH1 0x20 DUP7 ADD PUSH3 0x227 JUMP JUMPDEST SWAP2 POP POP SWAP3 SWAP2 POP POP JUMP JUMPDEST PUSH1 0x0 DUP2 MLOAD SWAP1 POP PUSH3 0x2B6 DUP2 PUSH3 0x6BE JUMP JUMPDEST SWAP3 SWAP2 POP POP JUMP JUMPDEST PUSH1 0x0 DUP1 PUSH1 0x0 PUSH1 0x60 DUP5 DUP7 SUB SLT ISZERO PUSH3 0x2D8 JUMPI PUSH3 0x2D7 PUSH3 0x62D JUMP JUMPDEST JUMPDEST PUSH1 0x0 DUP5 ADD MLOAD PUSH8 0xFFFFFFFFFFFFFFFF DUP2 GT ISZERO PUSH3 0x2F9 JUMPI PUSH3 0x2F8 PUSH3 0x628 JUMP JUMPDEST JUMPDEST PUSH3 0x307 DUP7 DUP3 DUP8 ADD PUSH3 0x272 JUMP JUMPDEST SWAP4 POP POP PUSH1 0x20 PUSH3 0x31A DUP7 DUP3 DUP8 ADD PUSH3 0x2A5 JUMP JUMPDEST SWAP3 POP POP PUSH1 0x40 PUSH3 0x32D DUP7 DUP3 DUP8 ADD PUSH3 0x2A5 JUMP JUMPDEST SWAP2 POP POP SWAP3 POP SWAP3 POP SWAP3 JUMP JUMPDEST PUSH3 0x342 DUP2 PUSH3 0x4F6 JUMP JUMPDEST DUP3 MSTORE POP POP JUMP JUMPDEST PUSH3 0x353 DUP2 PUSH3 0x50A JUMP JUMPDEST DUP3 MSTORE POP POP JUMP JUMPDEST PUSH1 0x0 PUSH3 0x368 PUSH1 0x3 DUP4 PUSH3 0x4DB JUMP JUMPDEST SWAP2 POP PUSH3 0x375 DUP3 PUSH3 0x643 JUMP JUMPDEST PUSH1 0x20 DUP3 ADD SWAP1 POP SWAP2 SWAP1 POP JUMP JUMPDEST PUSH1 0x0 PUSH3 0x38F PUSH1 0x7 DUP4 PUSH3 0x4DB JUMP JUMPDEST SWAP2 POP PUSH3 0x39C DUP3 PUSH3 0x66C JUMP JUMPDEST PUSH1 0x20 DUP3 ADD SWAP1 POP SWAP2 SWAP1 POP JUMP JUMPDEST PUSH1 0x0 PUSH3 0x3B6 PUSH1 0x3 DUP4 PUSH3 0x4DB JUMP JUMPDEST SWAP2 POP PUSH3 0x3C3 DUP3 PUSH3 0x695 JUMP JUMPDEST PUSH1 0x20 DUP3 ADD SWAP1 POP SWAP2 SWAP1 POP JUMP JUMPDEST PUSH1 0x0 PUSH1 0x80 DUP3 ADD SWAP1 POP DUP2 DUP2 SUB PUSH1 0x0 DUP4 ADD MSTORE PUSH3 0x3E9 DUP2 PUSH3 0x380 JUMP JUMPDEST SWAP1 POP DUP2 DUP2 SUB PUSH1 0x20 DUP4 ADD MSTORE PUSH3 0x3FE DUP2 PUSH3 0x359 JUMP JUMPDEST SWAP1 POP PUSH3 0x40F PUSH1 0x40 DUP4 ADD DUP6 PUSH3 0x348 JUMP JUMPDEST PUSH3 0x41E PUSH1 0x60 DUP4 ADD DUP5 PUSH3 0x337 JUMP JUMPDEST SWAP4 SWAP3 POP POP POP JUMP JUMPDEST PUSH1 0x0 PUSH1 0x80 DUP3 ADD SWAP1 POP DUP2 DUP2 SUB PUSH1 0x0 DUP4 ADD MSTORE PUSH3 0x440 DUP2 PUSH3 0x380 JUMP JUMPDEST SWAP1 POP DUP2 DUP2 SUB PUSH1 0x20 DUP4 ADD MSTORE PUSH3 0x455 DUP2 PUSH3 0x3A7 JUMP JUMPDEST SWAP1 POP PUSH3 0x466 PUSH1 0x40 DUP4 ADD DUP6 PUSH3 0x348 JUMP JUMPDEST PUSH3 0x475 PUSH1 0x60 DUP4 ADD DUP5 PUSH3 0x337 JUMP JUMPDEST SWAP4 SWAP3 POP POP POP JUMP JUMPDEST PUSH1 0x0 PUSH3 0x488 PUSH3 0x49B JUMP JUMPDEST SWAP1 POP PUSH3 0x496 DUP3 DUP3 PUSH3 0x58A JUMP JUMPDEST SWAP2 SWAP1 POP JUMP JUMPDEST PUSH1 0x0 PUSH1 0x40 MLOAD SWAP1 POP SWAP1 JUMP JUMPDEST PUSH1 0x0 PUSH8 0xFFFFFFFFFFFFFFFF DUP3 GT ISZERO PUSH3 0x4C3 JUMPI PUSH3 0x4C2 PUSH3 0x5EF JUMP JUMPDEST JUMPDEST PUSH3 0x4CE DUP3 PUSH3 0x632 JUMP JUMPDEST SWAP1 POP PUSH1 0x20 DUP2 ADD SWAP1 POP SWAP2 SWAP1 POP JUMP JUMPDEST PUSH1 0x0 DUP3 DUP3 MSTORE PUSH1 0x20 DUP3 ADD SWAP1 POP SWAP3 SWAP2 POP POP JUMP JUMPDEST PUSH1 0x0 DUP2 SWAP1 POP SWAP2 SWAP1 POP JUMP JUMPDEST PUSH1 0x0 PUSH3 0x503 DUP3 PUSH3 0x4EC JUMP JUMPDEST SWAP1 POP SWAP2 SWAP1 POP JUMP JUMPDEST PUSH1 0x0 PUSH3 0x517 DUP3 PUSH3 0x4EC JUMP JUMPDEST SWAP1 POP SWAP2 SWAP1 POP JUMP JUMPDEST PUSH1 0x0 JUMPDEST DUP4 DUP2 LT ISZERO PUSH3 0x53E JUMPI DUP1 DUP3 ADD MLOAD DUP2 DUP5 ADD MSTORE PUSH1 0x20 DUP2 ADD SWAP1 POP PUSH3 0x521 JUMP JUMPDEST DUP4 DUP2 GT ISZERO PUSH3 0x54E JUMPI PUSH1 0x0 DUP5 DUP5 ADD MSTORE JUMPDEST POP POP POP POP JUMP JUMPDEST PUSH1 0x0 PUSH1 0x2 DUP3 DIV SWAP1 POP PUSH1 0x1 DUP3 AND DUP1 PUSH3 0x56D JUMPI PUSH1 0x7F DUP3 AND SWAP2 POP JUMPDEST PUSH1 0x20 DUP3 LT DUP2 EQ ISZERO PUSH3 0x584 JUMPI PUSH3 0x583 PUSH3 0x5C0 JUMP JUMPDEST JUMPDEST POP SWAP2 SWAP1 POP JUMP JUMPDEST PUSH3 0x595 DUP3 PUSH3 0x632 JUMP JUMPDEST DUP2 ADD DUP2 DUP2 LT PUSH8 0xFFFFFFFFFFFFFFFF DUP3 GT OR ISZERO PUSH3 0x5B7 JUMPI PUSH3 0x5B6 PUSH3 0x5EF JUMP JUMPDEST JUMPDEST DUP1 PUSH1 0x40 MSTORE POP POP POP JUMP JUMPDEST PUSH32 0x4E487B7100000000000000000000000000000000000000000000000000000000 PUSH1 0x0 MSTORE PUSH1 0x22 PUSH1 0x4 MSTORE PUSH1 0x24 PUSH1 0x0 REVERT JUMPDEST PUSH32 0x4E487B7100000000000000000000000000000000000000000000000000000000 PUSH1 0x0 MSTORE PUSH1 0x41 PUSH1 0x4 MSTORE PUSH1 0x24 PUSH1 0x0 REVERT JUMPDEST PUSH1 0x0 DUP1 REVERT JUMPDEST PUSH1 0x0 DUP1 REVERT JUMPDEST PUSH1 0x0 DUP1 REVERT JUMPDEST PUSH1 0x0 DUP1 REVERT JUMPDEST PUSH1 0x0 PUSH1 0x1F NOT PUSH1 0x1F DUP4 ADD AND SWAP1 POP SWAP2 SWAP1 POP JUMP JUMPDEST PUSH32 0x544B410000000000000000000000000000000000000000000000000000000000 PUSH1 0x0 DUP3 ADD MSTORE POP JUMP JUMPDEST PUSH32 0x746F6B656E5F6100000000000000000000000000000000000000000000000000 PUSH1 0x0 DUP3 ADD MSTORE POP JUMP JUMPDEST PUSH32 0x544B420000000000000000000000000000000000000000000000000000000000 PUSH1 0x0 DUP3 ADD MSTORE POP JUMP JUMPDEST PUSH3 0x6C9 DUP2 PUSH3 0x4EC JUMP JUMPDEST DUP2 EQ PUSH3 0x6D5 JUMPI PUSH1 0x0 DUP1 REVERT JUMPDEST POP JUMP JUMPDEST PUSH2 0x6FC3 DUP1 PUSH3 0x6E8 PUSH1 0x0 CODECOPY PUSH1 0x0 RETURN INVALID PUSH1 0x80 PUSH1 0x40 MSTORE CALLVALUE DUP1 ISZERO PUSH3 0x11 JUMPI PUSH1 0x0 DUP1 REVERT JUMPDEST POP PUSH1 0x4 CALLDATASIZE LT PUSH3 0x52 JUMPI PUSH1 0x0 CALLDATALOAD PUSH1 0xE0 SHR DUP1 PUSH4 0x828CFD9 EQ PUSH3 0x57 JUMPI DUP1 PUSH4 0x2B687EF6 EQ PUSH3 0x77 JUMPI DUP1 PUSH4 0xAC01CDE2 EQ PUSH3 0x99 JUMPI DUP1 PUSH4 0xF04D631E EQ PUSH3 0xBB JUMPI JUMPDEST PUSH1 0x0 DUP1 REVERT JUMPDEST PUSH3 0x75 PUSH1 0x4 DUP1 CALLDATASIZE SUB DUP2 ADD SWAP1 PUSH3 0x6F SWAP2 SWAP1 PUSH3 0x10F9 JUMP JUMPDEST PUSH3 0xDD JUMP JUMPDEST STOP JUMPDEST PUSH3 0x81 PUSH3 0xF8F JUMP JUMPDEST PUSH1 0x40 MLOAD PUSH3 0x90 SWAP2 SWAP1 PUSH3 0x1668 JUMP JUMPDEST PUSH1 0x40 MLOAD DUP1 SWAP2 SUB SWAP1 RETURN JUMPDEST PUSH3 0xA3 PUSH3 0x1025 JUMP JUMPDEST PUSH1 0x40 MLOAD PUSH3 0xB2 SWAP2 SWAP1 PUSH3 0x168C JUMP JUMPDEST PUSH1 0x40 MLOAD DUP1 SWAP2 SUB SWAP1 RETURN JUMPDEST PUSH3 0xC5 PUSH3 0x102B JUMP JUMPDEST PUSH1 0x40 MLOAD PUSH3 0xD4 SWAP2 SWAP1 PUSH3 0x168C JUMP JUMPDEST PUSH1 0x40 MLOAD DUP1 SWAP2 SUB SWAP1 RETURN JUMPDEST PUSH1 0x0 PUSH3 0xF4240 DUP1 PUSH1 0x3 PUSH1 0x0 SWAP1 SLOAD SWAP1 PUSH2 0x100 EXP SWAP1 DIV PUSH20 0xFFFFFFFFFFFFFFFFFFFFFFFFFFFFFFFFFFFFFFFF AND PUSH1 0x4 PUSH1 0x0 SWAP1 SLOAD SWAP1 PUSH2 0x100 EXP SWAP1 DIV PUSH20 0xFFFFFFFFFFFFFFFFFFFFFFFFFFFFFFFFFFFFFFFF AND PUSH1 0x40 MLOAD PUSH3 0x138 SWAP1 PUSH3 0x1031 JUMP JUMPDEST PUSH3 0x147 SWAP5 SWAP4 SWAP3 SWAP2 SWAP1 PUSH3 0x1402 JUMP JUMPDEST PUSH1 0x40 MLOAD DUP1 SWAP2 SUB SWAP1 PUSH1 0x0 CREATE DUP1 ISZERO DUP1 ISZERO PUSH3 0x164 JUMPI RETURNDATASIZE PUSH1 0x0 DUP1 RETURNDATACOPY RETURNDATASIZE PUSH1 0x0 REVERT JUMPDEST POP SWAP1 POP PUSH1 0x0 DUP2 PUSH1 0x40 MLOAD PUSH3 0x178 SWAP1 PUSH3 0x103F JUMP JUMPDEST PUSH3 0x184 SWAP2 SWAP1 PUSH3 0x13E5 JUMP JUMPDEST PUSH1 0x40 MLOAD DUP1 SWAP2 SUB SWAP1 PUSH1 0x0 CREATE DUP1 ISZERO DUP1 ISZERO PUSH3 0x1A1 JUMPI RETURNDATASIZE PUSH1 0x0 DUP1 RETURNDATACOPY RETURNDATASIZE PUSH1 0x0 REVERT JUMPDEST POP SWAP1 POP PUSH1 0x0 DUP2 PUSH20 0xFFFFFFFFFFFFFFFFFFFFFFFFFFFFFFFFFFFFFFFF AND PUSH4 0x7298203 PUSH1 0x40 MLOAD DUP2 PUSH4 0xFFFFFFFF AND PUSH1 0xE0 SHL DUP2 MSTORE PUSH1 0x4 ADD PUSH1 0x0 PUSH1 0x40 MLOAD DUP1 DUP4 SUB DUP2 DUP7 DUP1 EXTCODESIZE ISZERO DUP1 ISZERO PUSH3 0x1ED JUMPI PUSH1 0x0 DUP1 REVERT JUMPDEST POP GAS STATICCALL ISZERO DUP1 ISZERO PUSH3 0x202 JUMPI RETURNDATASIZE PUSH1 0x0 DUP1 RETURNDATACOPY RETURNDATASIZE PUSH1 0x0 REVERT JUMPDEST POP POP POP POP PUSH1 0x40 MLOAD RETURNDATASIZE PUSH1 0x0 DUP3 RETURNDATACOPY RETURNDATASIZE PUSH1 0x1F NOT PUSH1 0x1F DUP3 ADD AND DUP3 ADD DUP1 PUSH1 0x40 MSTORE POP DUP2 ADD SWAP1 PUSH3 0x22D SWAP2 SWAP1 PUSH3 0x119D JUMP JUMPDEST SWAP1 PUSH3 0x271 JUMPI PUSH1 0x40 MLOAD PUSH32 0x8C379A000000000000000000000000000000000000000000000000000000000 DUP2 MSTORE PUSH1 0x4 ADD PUSH3 0x268 SWAP2 SWAP1 PUSH3 0x1668 JUMP JUMPDEST PUSH1 0x40 MLOAD DUP1 SWAP2 SUB SWAP1 REVERT JUMPDEST POP PUSH1 0x3 PUSH1 0x0 SWAP1 SLOAD SWAP1 PUSH2 0x100 EXP SWAP1 DIV PUSH20 0xFFFFFFFFFFFFFFFFFFFFFFFFFFFFFFFFFFFFFFFF AND PUSH20 0xFFFFFFFFFFFFFFFFFFFFFFFFFFFFFFFFFFFFFFFF AND PUSH4 0x30E0789E ADDRESS DUP9 PUSH2 0x1F4 PUSH1 0x40 MLOAD DUP5 PUSH4 0xFFFFFFFF AND PUSH1 0xE0 SHL DUP2 MSTORE PUSH1 0x4 ADD PUSH3 0x2D5 SWAP4 SWAP3 SWAP2 SWAP1 PUSH3 0x136B JUMP JUMPDEST PUSH1 0x0 PUSH1 0x40 MLOAD DUP1 DUP4 SUB DUP2 PUSH1 0x0 DUP8 DUP1 EXTCODESIZE ISZERO DUP1 ISZERO PUSH3 0x2F0 JUMPI PUSH1 0x0 DUP1 REVERT JUMPDEST POP GAS CALL ISZERO DUP1 ISZERO PUSH3 0x305 JUMPI RETURNDATASIZE PUSH1 0x0 DUP1 RETURNDATACOPY RETURNDATASIZE PUSH1 0x0 REVERT JUMPDEST POP POP POP POP PUSH1 0x3 PUSH1 0x0 SWAP1 SLOAD SWAP1 PUSH2 0x100 EXP SWAP1 DIV PUSH20 0xFFFFFFFFFFFFFFFFFFFFFFFFFFFFFFFFFFFFFFFF AND PUSH20 0xFFFFFFFFFFFFFFFFFFFFFFFFFFFFFFFFFFFFFFFF AND PUSH4 0x30E0789E ADDRESS DUP8 PUSH2 0x1F4 PUSH1 0x40 MLOAD DUP5 PUSH4 0xFFFFFFFF AND PUSH1 0xE0 SHL DUP2 MSTORE PUSH1 0x4 ADD PUSH3 0x36C SWAP4 SWAP3 SWAP2 SWAP1 PUSH3 0x136B JUMP JUMPDEST PUSH1 0x0 PUSH1 0x40 MLOAD DUP1 DUP4 SUB DUP2 PUSH1 0x0 DUP8 DUP1 EXTCODESIZE ISZERO DUP1 ISZERO PUSH3 0x387 JUMPI PUSH1 0x0 DUP1 REVERT JUMPDEST POP GAS CALL ISZERO DUP1 ISZERO PUSH3 0x39C JUMPI RETURNDATASIZE PUSH1 0x0 DUP1 RETURNDATACOPY RETURNDATASIZE PUSH1 0x0 REVERT JUMPDEST POP POP POP POP PUSH1 0x3 PUSH1 0x0 SWAP1 SLOAD SWAP1 PUSH2 0x100 EXP SWAP1 DIV PUSH20 0xFFFFFFFFFFFFFFFFFFFFFFFFFFFFFFFFFFFFFFFF AND PUSH20 0xFFFFFFFFFFFFFFFFFFFFFFFFFFFFFFFFFFFFFFFF AND PUSH4 0x30E0789E ADDRESS DUP7 PUSH2 0x1F4 PUSH1 0x40 MLOAD DUP5 PUSH4 0xFFFFFFFF AND PUSH1 0xE0 SHL DUP2 MSTORE PUSH1 0x4 ADD PUSH3 0x403 SWAP4 SWAP3 SWAP2 SWAP1 PUSH3 0x136B JUMP JUMPDEST PUSH1 0x0 PUSH1 0x40 MLOAD DUP1 DUP4 SUB DUP2 PUSH1 0x0 DUP8 DUP1 EXTCODESIZE ISZERO DUP1 ISZERO PUSH3 0x41E JUMPI PUSH1 0x0 DUP1 REVERT JUMPDEST POP GAS CALL ISZERO DUP1 ISZERO PUSH3 0x433 JUMPI RETURNDATASIZE PUSH1 0x0 DUP1 RETURNDATACOPY RETURNDATASIZE PUSH1 0x0 REVERT JUMPDEST POP POP POP POP PUSH1 0x3 PUSH1 0x0 SWAP1 SLOAD SWAP1 PUSH2 0x100 EXP SWAP1 DIV PUSH20 0xFFFFFFFFFFFFFFFFFFFFFFFFFFFFFFFFFFFFFFFF AND PUSH20 0xFFFFFFFFFFFFFFFFFFFFFFFFFFFFFFFFFFFFFFFF AND PUSH4 0x30E0789E ADDRESS DUP6 PUSH2 0x1F4 PUSH1 0x40 MLOAD DUP5 PUSH4 0xFFFFFFFF AND PUSH1 0xE0 SHL DUP2 MSTORE PUSH1 0x4 ADD PUSH3 0x49A SWAP4 SWAP3 SWAP2 SWAP1 PUSH3 0x136B JUMP JUMPDEST PUSH1 0x0 PUSH1 0x40 MLOAD DUP1 DUP4 SUB DUP2 PUSH1 0x0 DUP8 DUP1 EXTCODESIZE ISZERO DUP1 ISZERO PUSH3 0x4B5 JUMPI PUSH1 0x0 DUP1 REVERT JUMPDEST POP GAS CALL ISZERO DUP1 ISZERO PUSH3 0x4CA JUMPI RETURNDATASIZE PUSH1 0x0 DUP1 RETURNDATACOPY RETURNDATASIZE PUSH1 0x0 REVERT JUMPDEST POP POP POP POP PUSH1 0x4 PUSH1 0x0 SWAP1 SLOAD SWAP1 PUSH2 0x100 EXP SWAP1 DIV PUSH20 0xFFFFFFFFFFFFFFFFFFFFFFFFFFFFFFFFFFFFFFFF AND PUSH20 0xFFFFFFFFFFFFFFFFFFFFFFFFFFFFFFFFFFFFFFFF AND PUSH4 0x30E0789E ADDRESS DUP9 PUSH2 0x1F4 PUSH1 0x40 MLOAD DUP5 PUSH4 0xFFFFFFFF AND PUSH1 0xE0 SHL DUP2 MSTORE PUSH1 0x4 ADD PUSH3 0x531 SWAP4 SWAP3 SWAP2 SWAP1 PUSH3 0x136B JUMP JUMPDEST PUSH1 0x0 PUSH1 0x40 MLOAD DUP1 DUP4 SUB DUP2 PUSH1 0x0 DUP8 DUP1 EXTCODESIZE ISZERO DUP1 ISZERO PUSH3 0x54C JUMPI PUSH1 0x0 DUP1 REVERT JUMPDEST POP GAS CALL ISZERO DUP1 ISZERO PUSH3 0x561 JUMPI RETURNDATASIZE PUSH1 0x0 DUP1 RETURNDATACOPY RETURNDATASIZE PUSH1 0x0 REVERT JUMPDEST POP POP POP POP PUSH1 0x4 PUSH1 0x0 SWAP1 SLOAD SWAP1 PUSH2 0x100 EXP SWAP1 DIV PUSH20 0xFFFFFFFFFFFFFFFFFFFFFFFFFFFFFFFFFFFFFFFF AND PUSH20 0xFFFFFFFFFFFFFFFFFFFFFFFFFFFFFFFFFFFFFFFF AND PUSH4 0x30E0789E ADDRESS DUP8 PUSH2 0x1F4 PUSH1 0x40 MLOAD DUP5 PUSH4 0xFFFFFFFF AND PUSH1 0xE0 SHL DUP2 MSTORE PUSH1 0x4 ADD PUSH3 0x5C8 SWAP4 SWAP3 SWAP2 SWAP1 PUSH3 0x136B JUMP JUMPDEST PUSH1 0x0 PUSH1 0x40 MLOAD DUP1 DUP4 SUB DUP2 PUSH1 0x0 DUP8 DUP1 EXTCODESIZE ISZERO DUP1 ISZERO PUSH3 0x5E3 JUMPI PUSH1 0x0 DUP1 REVERT JUMPDEST POP GAS CALL ISZERO DUP1 ISZERO PUSH3 0x5F8 JUMPI RETURNDATASIZE PUSH1 0x0 DUP1 RETURNDATACOPY RETURNDATASIZE PUSH1 0x0 REVERT JUMPDEST POP POP POP POP PUSH1 0x4 PUSH1 0x0 SWAP1 SLOAD SWAP1 PUSH2 0x100 EXP SWAP1 DIV PUSH20 0xFFFFFFFFFFFFFFFFFFFFFFFFFFFFFFFFFFFFFFFF AND PUSH20 0xFFFFFFFFFFFFFFFFFFFFFFFFFFFFFFFFFFFFFFFF AND PUSH4 0x30E0789E ADDRESS DUP7 PUSH2 0x1F4 PUSH1 0x40 MLOAD DUP5 PUSH4 0xFFFFFFFF AND PUSH1 0xE0 SHL DUP2 MSTORE PUSH1 0x4 ADD PUSH3 0x65F SWAP4 SWAP3 SWAP2 SWAP1 PUSH3 0x136B JUMP JUMPDEST PUSH1 0x0 PUSH1 0x40 MLOAD DUP1 DUP4 SUB DUP2 PUSH1 0x0 DUP8 DUP1 EXTCODESIZE ISZERO DUP1 ISZERO PUSH3 0x67A JUMPI PUSH1 0x0 DUP1 REVERT JUMPDEST POP GAS CALL ISZERO DUP1 ISZERO PUSH3 0x68F JUMPI RETURNDATASIZE PUSH1 0x0 DUP1 RETURNDATACOPY RETURNDATASIZE PUSH1 0x0 REVERT JUMPDEST POP POP POP POP PUSH1 0x4 PUSH1 0x0 SWAP1 SLOAD SWAP1 PUSH2 0x100 EXP SWAP1 DIV PUSH20 0xFFFFFFFFFFFFFFFFFFFFFFFFFFFFFFFFFFFFFFFF AND PUSH20 0xFFFFFFFFFFFFFFFFFFFFFFFFFFFFFFFFFFFFFFFF AND PUSH4 0x30E0789E ADDRESS DUP6 PUSH2 0x1F4 PUSH1 0x40 MLOAD DUP5 PUSH4 0xFFFFFFFF AND PUSH1 0xE0 SHL DUP2 MSTORE PUSH1 0x4 ADD PUSH3 0x6F6 SWAP4 SWAP3 SWAP2 SWAP1 PUSH3 0x136B JUMP JUMPDEST PUSH1 0x0 PUSH1 0x40 MLOAD DUP1 DUP4 SUB DUP2 PUSH1 0x0 DUP8 DUP1 EXTCODESIZE ISZERO DUP1 ISZERO PUSH3 0x711 JUMPI PUSH1 0x0 DUP1 REVERT JUMPDEST POP GAS CALL ISZERO DUP1 ISZERO PUSH3 0x726 JUMPI RETURNDATASIZE PUSH1 0x0 DUP1 RETURNDATACOPY RETURNDATASIZE PUSH1 0x0 REVERT JUMPDEST POP POP POP POP PUSH1 0x4 PUSH1 0x0 SWAP1 SLOAD SWAP1 PUSH2 0x100 EXP SWAP1 DIV PUSH20 0xFFFFFFFFFFFFFFFFFFFFFFFFFFFFFFFFFFFFFFFF AND PUSH20 0xFFFFFFFFFFFFFFFFFFFFFFFFFFFFFFFFFFFFFFFF AND PUSH4 0xABE19BA3 DUP4 PUSH2 0x1F4 DUP8 PUSH1 0x40 MLOAD DUP5 PUSH4 0xFFFFFFFF AND PUSH1 0xE0 SHL DUP2 MSTORE PUSH1 0x4 ADD PUSH3 0x78D SWAP4 SWAP3 SWAP2 SWAP1 PUSH3 0x13A8 JUMP JUMPDEST PUSH1 0x20 PUSH1 0x40 MLOAD DUP1 DUP4 SUB DUP2 PUSH1 0x0 DUP8 DUP1 EXTCODESIZE ISZERO DUP1 ISZERO PUSH3 0x7A8 JUMPI PUSH1 0x0 DUP1 REVERT JUMPDEST POP GAS CALL ISZERO DUP1 ISZERO PUSH3 0x7BD JUMPI RETURNDATASIZE PUSH1 0x0 DUP1 RETURNDATACOPY RETURNDATASIZE PUSH1 0x0 REVERT JUMPDEST POP POP POP POP PUSH1 0x40 MLOAD RETURNDATASIZE PUSH1 0x1F NOT PUSH1 0x1F DUP3 ADD AND DUP3 ADD DUP1 PUSH1 0x40 MSTORE POP DUP2 ADD SWAP1 PUSH3 0x7E3 SWAP2 SWAP1 PUSH3 0x116B JUMP JUMPDEST POP PUSH1 0x4 PUSH1 0x0 SWAP1 SLOAD SWAP1 PUSH2 0x100 EXP SWAP1 DIV PUSH20 0xFFFFFFFFFFFFFFFFFFFFFFFFFFFFFFFFFFFFFFFF AND PUSH20 0xFFFFFFFFFFFFFFFFFFFFFFFFFFFFFFFFFFFFFFFF AND PUSH4 0xABE19BA3 DUP4 PUSH2 0x1F4 DUP7 PUSH1 0x40 MLOAD DUP5 PUSH4 0xFFFFFFFF AND PUSH1 0xE0 SHL DUP2 MSTORE PUSH1 0x4 ADD PUSH3 0x847 SWAP4 SWAP3 SWAP2 SWAP1 PUSH3 0x13A8 JUMP JUMPDEST PUSH1 0x20 PUSH1 0x40 MLOAD DUP1 DUP4 SUB DUP2 PUSH1 0x0 DUP8 DUP1 EXTCODESIZE ISZERO DUP1 ISZERO PUSH3 0x862 JUMPI PUSH1 0x0 DUP1 REVERT JUMPDEST POP GAS CALL ISZERO DUP1 ISZERO PUSH3 0x877 JUMPI RETURNDATASIZE PUSH1 0x0 DUP1 RETURNDATACOPY RETURNDATASIZE PUSH1 0x0 REVERT JUMPDEST POP POP POP POP PUSH1 0x40 MLOAD RETURNDATASIZE PUSH1 0x1F NOT PUSH1 0x1F DUP3 ADD AND DUP3 ADD DUP1 PUSH1 0x40 MSTORE POP DUP2 ADD SWAP1 PUSH3 0x89D SWAP2 SWAP1 PUSH3 0x116B JUMP JUMPDEST POP DUP2 PUSH20 0xFFFFFFFFFFFFFFFFFFFFFFFFFFFFFFFFFFFFFFFF AND PUSH4 0xB7E6CF0D PUSH1 0xC8 PUSH1 0x64 DUP10 PUSH1 0x40 MLOAD DUP5 PUSH4 0xFFFFFFFF AND PUSH1 0xE0 SHL DUP2 MSTORE PUSH1 0x4 ADD PUSH3 0x8DF SWAP4 SWAP3 SWAP2 SWAP1 PUSH3 0x157F JUMP JUMPDEST PUSH1 0x0 PUSH1 0x40 MLOAD DUP1 DUP4 SUB DUP2 PUSH1 0x0 DUP8 DUP1 EXTCODESIZE ISZERO DUP1 ISZERO PUSH3 0x8FA JUMPI PUSH1 0x0 DUP1 REVERT JUMPDEST POP GAS CALL ISZERO DUP1 ISZERO PUSH3 0x90F JUMPI RETURNDATASIZE PUSH1 0x0 DUP1 RETURNDATACOPY RETURNDATASIZE PUSH1 0x0 REVERT JUMPDEST POP POP POP POP DUP2 PUSH20 0xFFFFFFFFFFFFFFFFFFFFFFFFFFFFFFFFFFFFFFFF AND PUSH4 0xB7E6CF0D PUSH1 0x5A PUSH1 0x1E DUP8 PUSH1 0x40 MLOAD DUP5 PUSH4 0xFFFFFFFF AND PUSH1 0xE0 SHL DUP2 MSTORE PUSH1 0x4 ADD PUSH3 0x954 SWAP4 SWAP3 SWAP2 SWAP1 PUSH3 0x162B JUMP JUMPDEST PUSH1 0x0 PUSH1 0x40 MLOAD DUP1 DUP4 SUB DUP2 PUSH1 0x0 DUP8 DUP1 EXTCODESIZE ISZERO DUP1 ISZERO PUSH3 0x96F JUMPI PUSH1 0x0 DUP1 REVERT JUMPDEST POP GAS CALL ISZERO DUP1 ISZERO PUSH3 0x984 JUMPI RETURNDATASIZE PUSH1 0x0 DUP1 RETURNDATACOPY RETURNDATASIZE PUSH1 0x0 REVERT JUMPDEST POP POP POP POP DUP2 PUSH20 0xFFFFFFFFFFFFFFFFFFFFFFFFFFFFFFFFFFFFFFFF AND PUSH4 0xB7E6CF0D PUSH1 0x78 PUSH1 0x28 DUP7 PUSH1 0x40 MLOAD DUP5 PUSH4 0xFFFFFFFF AND PUSH1 0xE0 SHL DUP2 MSTORE PUSH1 0x4 ADD PUSH3 0x9C9 SWAP4 SWAP3 SWAP2 SWAP1 PUSH3 0x1542 JUMP JUMPDEST PUSH1 0x0 PUSH1 0x40 MLOAD DUP1 DUP4 SUB DUP2 PUSH1 0x0 DUP8 DUP1 EXTCODESIZE ISZERO DUP1 ISZERO PUSH3 0x9E4 JUMPI PUSH1 0x0 DUP1 REVERT JUMPDEST POP GAS CALL ISZERO DUP1 ISZERO PUSH3 0x9F9 JUMPI RETURNDATASIZE PUSH1 0x0 DUP1 RETURNDATACOPY RETURNDATASIZE PUSH1 0x0 REVERT JUMPDEST POP POP POP POP PUSH1 0x0 DUP2 PUSH20 0xFFFFFFFFFFFFFFFFFFFFFFFFFFFFFFFFFFFFFFFF AND PUSH4 0x7298203 PUSH1 0x40 MLOAD DUP2 PUSH4 0xFFFFFFFF AND PUSH1 0xE0 SHL DUP2 MSTORE PUSH1 0x4 ADD PUSH1 0x0 PUSH1 0x40 MLOAD DUP1 DUP4 SUB DUP2 DUP7 DUP1 EXTCODESIZE ISZERO DUP1 ISZERO PUSH3 0xA46 JUMPI PUSH1 0x0 DUP1 REVERT JUMPDEST POP GAS STATICCALL ISZERO DUP1 ISZERO PUSH3 0xA5B JUMPI RETURNDATASIZE PUSH1 0x0 DUP1 RETURNDATACOPY RETURNDATASIZE PUSH1 0x0 REVERT JUMPDEST POP POP POP POP PUSH1 0x40 MLOAD RETURNDATASIZE PUSH1 0x0 DUP3 RETURNDATACOPY RETURNDATASIZE PUSH1 0x1F NOT PUSH1 0x1F DUP3 ADD AND DUP3 ADD DUP1 PUSH1 0x40 MSTORE POP DUP2 ADD SWAP1 PUSH3 0xA86 SWAP2 SWAP1 PUSH3 0x119D JUMP JUMPDEST SWAP1 PUSH3 0xACA JUMPI PUSH1 0x40 MLOAD PUSH32 0x8C379A000000000000000000000000000000000000000000000000000000000 DUP2 MSTORE PUSH1 0x4 ADD PUSH3 0xAC1 SWAP2 SWAP1 PUSH3 0x1668 JUMP JUMPDEST PUSH1 0x40 MLOAD DUP1 SWAP2 SUB SWAP1 REVERT JUMPDEST POP DUP2 PUSH20 0xFFFFFFFFFFFFFFFFFFFFFFFFFFFFFFFFFFFFFFFF AND PUSH4 0xC7BF8DCD PUSH1 0xA DUP9 PUSH1 0x40 MLOAD DUP4 PUSH4 0xFFFFFFFF AND PUSH1 0xE0 SHL DUP2 MSTORE PUSH1 0x4 ADD PUSH3 0xB09 SWAP3 SWAP2 SWAP1 PUSH3 0x14BE JUMP JUMPDEST PUSH1 0x0 PUSH1 0x40 MLOAD DUP1 DUP4 SUB DUP2 PUSH1 0x0 DUP8 DUP1 EXTCODESIZE ISZERO DUP1 ISZERO PUSH3 0xB24 JUMPI PUSH1 0x0 DUP1 REVERT JUMPDEST POP GAS CALL ISZERO DUP1 ISZERO PUSH3 0xB39 JUMPI RETURNDATASIZE PUSH1 0x0 DUP1 RETURNDATACOPY RETURNDATASIZE PUSH1 0x0 REVERT JUMPDEST POP POP POP POP DUP2 PUSH20 0xFFFFFFFFFFFFFFFFFFFFFFFFFFFFFFFFFFFFFFFF AND PUSH4 0xC7BF8DCD PUSH2 0x3E8 DUP9 PUSH1 0x40 MLOAD DUP4 PUSH4 0xFFFFFFFF AND PUSH1 0xE0 SHL DUP2 MSTORE PUSH1 0x4 ADD PUSH3 0xB7C SWAP3 SWAP2 SWAP1 PUSH3 0x147C JUMP JUMPDEST PUSH1 0x0 PUSH1 0x40 MLOAD DUP1 DUP4 SUB DUP2 PUSH1 0x0 DUP8 DUP1 EXTCODESIZE ISZERO DUP1 ISZERO PUSH3 0xB97 JUMPI PUSH1 0x0 DUP1 REVERT JUMPDEST POP GAS CALL ISZERO DUP1 ISZERO PUSH3 0xBAC JUMPI RETURNDATASIZE PUSH1 0x0 DUP1 RETURNDATACOPY RETURNDATASIZE PUSH1 0x0 REVERT JUMPDEST POP POP POP POP DUP2 PUSH20 0xFFFFFFFFFFFFFFFFFFFFFFFFFFFFFFFFFFFFFFFF AND PUSH4 0xC7BF8DCD PUSH1 0xA DUP9 PUSH1 0x40 MLOAD DUP4 PUSH4 0xFFFFFFFF AND PUSH1 0xE0 SHL DUP2 MSTORE PUSH1 0x4 ADD PUSH3 0xBEE SWAP3 SWAP2 SWAP1 PUSH3 0x1500 JUMP JUMPDEST PUSH1 0x0 PUSH1 0x40 MLOAD DUP1 DUP4 SUB DUP2 PUSH1 0x0 DUP8 DUP1 EXTCODESIZE ISZERO DUP1 ISZERO PUSH3 0xC09 JUMPI PUSH1 0x0 DUP1 REVERT JUMPDEST POP GAS CALL ISZERO DUP1 ISZERO PUSH3 0xC1E JUMPI RETURNDATASIZE PUSH1 0x0 DUP1 RETURNDATACOPY RETURNDATASIZE PUSH1 0x0 REVERT JUMPDEST POP POP POP POP DUP2 PUSH20 0xFFFFFFFFFFFFFFFFFFFFFFFFFFFFFFFFFFFFFFFF AND PUSH4 0xC7BF8DCD PUSH1 0x14 DUP8 PUSH1 0x40 MLOAD DUP4 PUSH4 0xFFFFFFFF AND PUSH1 0xE0 SHL DUP2 MSTORE PUSH1 0x4 ADD PUSH3 0xC60 SWAP3 SWAP2 SWAP1 PUSH3 0x15BC JUMP JUMPDEST PUSH1 0x0 PUSH1 0x40 MLOAD DUP1 DUP4 SUB DUP2 PUSH1 0x0 DUP8 DUP1 EXTCODESIZE ISZERO DUP1 ISZERO PUSH3 0xC7B JUMPI PUSH1 0x0 DUP1 REVERT JUMPDEST POP GAS CALL ISZERO DUP1 ISZERO PUSH3 0xC90 JUMPI RETURNDATASIZE PUSH1 0x0 DUP1 RETURNDATACOPY RETURNDATASIZE PUSH1 0x0 REVERT JUMPDEST POP POP POP POP PUSH1 0x0 DUP2 PUSH20 0xFFFFFFFFFFFFFFFFFFFFFFFFFFFFFFFFFFFFFFFF AND PUSH4 0x7298203 PUSH1 0x40 MLOAD DUP2 PUSH4 0xFFFFFFFF AND PUSH1 0xE0 SHL DUP2 MSTORE PUSH1 0x4 ADD PUSH1 0x0 PUSH1 0x40 MLOAD DUP1 DUP4 SUB DUP2 DUP7 DUP1 EXTCODESIZE ISZERO DUP1 ISZERO PUSH3 0xCDD JUMPI PUSH1 0x0 DUP1 REVERT JUMPDEST POP GAS STATICCALL ISZERO DUP1 ISZERO PUSH3 0xCF2 JUMPI RETURNDATASIZE PUSH1 0x0 DUP1 RETURNDATACOPY RETURNDATASIZE PUSH1 0x0 REVERT JUMPDEST POP POP POP POP PUSH1 0x40 MLOAD RETURNDATASIZE PUSH1 0x0 DUP3 RETURNDATACOPY RETURNDATASIZE PUSH1 0x1F NOT PUSH1 0x1F DUP3 ADD AND DUP3 ADD DUP1 PUSH1 0x40 MSTORE POP DUP2 ADD SWAP1 PUSH3 0xD1D SWAP2 SWAP1 PUSH3 0x119D JUMP JUMPDEST SWAP1 PUSH3 0xD61 JUMPI PUSH1 0x40 MLOAD PUSH32 0x8C379A000000000000000000000000000000000000000000000000000000000 DUP2 MSTORE PUSH1 0x4 ADD PUSH3 0xD58 SWAP2 SWAP1 PUSH3 0x1668 JUMP JUMPDEST PUSH1 0x40 MLOAD DUP1 SWAP2 SUB SWAP1 REVERT JUMPDEST POP DUP2 PUSH20 0xFFFFFFFFFFFFFFFFFFFFFFFFFFFFFFFFFFFFFFFF AND PUSH4 0x58BDF593 PUSH2 0x3E8 DUP9 PUSH1 0x40 MLOAD DUP4 PUSH4 0xFFFFFFFF AND PUSH1 0xE0 SHL DUP2 MSTORE PUSH1 0x4 ADD PUSH3 0xDA1 SWAP3 SWAP2 SWAP1 PUSH3 0x144F JUMP JUMPDEST PUSH1 0x0 PUSH1 0x40 MLOAD DUP1 DUP4 SUB DUP2 PUSH1 0x0 DUP8 DUP1 EXTCODESIZE ISZERO DUP1 ISZERO PUSH3 0xDBC JUMPI PUSH1 0x0 DUP1 REVERT JUMPDEST POP GAS CALL ISZERO DUP1 ISZERO PUSH3 0xDD1 JUMPI RETURNDATASIZE PUSH1 0x0 DUP1 RETURNDATACOPY RETURNDATASIZE PUSH1 0x0 REVERT JUMPDEST POP POP POP POP DUP2 PUSH20 0xFFFFFFFFFFFFFFFFFFFFFFFFFFFFFFFFFFFFFFFF AND PUSH4 0x58BDF593 PUSH1 0x1E DUP9 PUSH1 0x40 MLOAD DUP4 PUSH4 0xFFFFFFFF AND PUSH1 0xE0 SHL DUP2 MSTORE PUSH1 0x4 ADD PUSH3 0xE13 SWAP3 SWAP2 SWAP1 PUSH3 0x15FE JUMP JUMPDEST PUSH1 0x0 PUSH1 0x40 MLOAD DUP1 DUP4 SUB DUP2 PUSH1 0x0 DUP8 DUP1 EXTCODESIZE ISZERO DUP1 ISZERO PUSH3 0xE2E JUMPI PUSH1 0x0 DUP1 REVERT JUMPDEST POP GAS CALL ISZERO DUP1 ISZERO PUSH3 0xE43 JUMPI RETURNDATASIZE PUSH1 0x0 DUP1 RETURNDATACOPY RETURNDATASIZE PUSH1 0x0 REVERT JUMPDEST POP POP POP POP DUP2 PUSH20 0xFFFFFFFFFFFFFFFFFFFFFFFFFFFFFFFFFFFFFFFF AND PUSH4 0x58BDF593 PUSH1 0x1E DUP8 PUSH1 0x40 MLOAD DUP4 PUSH4 0xFFFFFFFF AND PUSH1 0xE0 SHL DUP2 MSTORE PUSH1 0x4 ADD PUSH3 0xE85 SWAP3 SWAP2 SWAP1 PUSH3 0x15FE JUMP JUMPDEST PUSH1 0x0 PUSH1 0x40 MLOAD DUP1 DUP4 SUB DUP2 PUSH1 0x0 DUP8 DUP1 EXTCODESIZE ISZERO DUP1 ISZERO PUSH3 0xEA0 JUMPI PUSH1 0x0 DUP1 REVERT JUMPDEST POP GAS CALL ISZERO DUP1 ISZERO PUSH3 0xEB5 JUMPI RETURNDATASIZE PUSH1 0x0 DUP1 RETURNDATACOPY RETURNDATASIZE PUSH1 0x0 REVERT JUMPDEST POP POP POP POP PUSH1 0x0 DUP2 PUSH20 0xFFFFFFFFFFFFFFFFFFFFFFFFFFFFFFFFFFFFFFFF AND PUSH4 0x7298203 PUSH1 0x40 MLOAD DUP2 PUSH4 0xFFFFFFFF AND PUSH1 0xE0 SHL DUP2 MSTORE PUSH1 0x4 ADD PUSH1 0x0 PUSH1 0x40 MLOAD DUP1 DUP4 SUB DUP2 DUP7 DUP1 EXTCODESIZE ISZERO DUP1 ISZERO PUSH3 0xF02 JUMPI PUSH1 0x0 DUP1 REVERT JUMPDEST POP GAS STATICCALL ISZERO DUP1 ISZERO PUSH3 0xF17 JUMPI RETURNDATASIZE PUSH1 0x0 DUP1 RETURNDATACOPY RETURNDATASIZE PUSH1 0x0 REVERT JUMPDEST POP POP POP POP PUSH1 0x40 MLOAD RETURNDATASIZE PUSH1 0x0 DUP3 RETURNDATACOPY RETURNDATASIZE PUSH1 0x1F NOT PUSH1 0x1F DUP3 ADD AND DUP3 ADD DUP1 PUSH1 0x40 MSTORE POP DUP2 ADD SWAP1 PUSH3 0xF42 SWAP2 SWAP1 PUSH3 0x119D JUMP JUMPDEST SWAP1 PUSH3 0xF86 JUMPI PUSH1 0x40 MLOAD PUSH32 0x8C379A000000000000000000000000000000000000000000000000000000000 DUP2 MSTORE PUSH1 0x4 ADD PUSH3 0xF7D SWAP2 SWAP1 PUSH3 0x1668 JUMP JUMPDEST PUSH1 0x40 MLOAD DUP1 SWAP2 SUB SWAP1 REVERT JUMPDEST POP POP POP POP POP POP POP JUMP JUMPDEST PUSH1 0x0 DUP1 SLOAD PUSH3 0xF9E SWAP1 PUSH3 0x18A8 JUMP JUMPDEST DUP1 PUSH1 0x1F ADD PUSH1 0x20 DUP1 SWAP2 DIV MUL PUSH1 0x20 ADD PUSH1 0x40 MLOAD SWAP1 DUP2 ADD PUSH1 0x40 MSTORE DUP1 SWAP3 SWAP2 SWAP1 DUP2 DUP2 MSTORE PUSH1 0x20 ADD DUP3 DUP1 SLOAD PUSH3 0xFCC SWAP1 PUSH3 0x18A8 JUMP JUMPDEST DUP1 ISZERO PUSH3 0x101D JUMPI DUP1 PUSH1 0x1F LT PUSH3 0xFF1 JUMPI PUSH2 0x100 DUP1 DUP4 SLOAD DIV MUL DUP4 MSTORE SWAP2 PUSH1 0x20 ADD SWAP2 PUSH3 0x101D JUMP JUMPDEST DUP3 ADD SWAP2 SWAP1 PUSH1 0x0 MSTORE PUSH1 0x20 PUSH1 0x0 KECCAK256 SWAP1 JUMPDEST DUP2 SLOAD DUP2 MSTORE SWAP1 PUSH1 0x1 ADD SWAP1 PUSH1 0x20 ADD DUP1 DUP4 GT PUSH3 0xFFF JUMPI DUP3 SWAP1 SUB PUSH1 0x1F AND DUP3 ADD SWAP2 JUMPDEST POP POP POP POP POP DUP2 JUMP JUMPDEST PUSH1 0x1 SLOAD DUP2 JUMP JUMPDEST PUSH1 0x2 SLOAD DUP2 JUMP JUMPDEST PUSH2 0x4EB1 DUP1 PUSH3 0x1A1E DUP4 CODECOPY ADD SWAP1 JUMP JUMPDEST PUSH2 0x6BF DUP1 PUSH3 0x68CF DUP4 CODECOPY ADD SWAP1 JUMP JUMPDEST PUSH1 0x0 PUSH3 0x1064 PUSH3 0x105E DUP5 PUSH3 0x16D2 JUMP JUMPDEST PUSH3 0x16A9 JUMP JUMPDEST SWAP1 POP DUP3 DUP2 MSTORE PUSH1 0x20 DUP2 ADD DUP5 DUP5 DUP5 ADD GT ISZERO PUSH3 0x1083 JUMPI PUSH3 0x1082 PUSH3 0x1977 JUMP JUMPDEST JUMPDEST PUSH3 0x1090 DUP5 DUP3 DUP6 PUSH3 0x1872 JUMP JUMPDEST POP SWAP4 SWAP3 POP POP POP JUMP JUMPDEST PUSH1 0x0 DUP2 CALLDATALOAD SWAP1 POP PUSH3 0x10A9 DUP2 PUSH3 0x19E9 JUMP JUMPDEST SWAP3 SWAP2 POP POP JUMP JUMPDEST PUSH1 0x0 DUP2 MLOAD SWAP1 POP PUSH3 0x10C0 DUP2 PUSH3 0x1A03 JUMP JUMPDEST SWAP3 SWAP2 POP POP JUMP JUMPDEST PUSH1 0x0 DUP3 PUSH1 0x1F DUP4 ADD SLT PUSH3 0x10DE JUMPI PUSH3 0x10DD PUSH3 0x1972 JUMP JUMPDEST JUMPDEST DUP2 MLOAD PUSH3 0x10F0 DUP5 DUP3 PUSH1 0x20 DUP7 ADD PUSH3 0x104D JUMP JUMPDEST SWAP2 POP POP SWAP3 SWAP2 POP POP JUMP JUMPDEST PUSH1 0x0 DUP1 PUSH1 0x0 DUP1 PUSH1 0x80 DUP6 DUP8 SUB SLT ISZERO PUSH3 0x1116 JUMPI PUSH3 0x1115 PUSH3 0x1981 JUMP JUMPDEST JUMPDEST PUSH1 0x0 PUSH3 0x1126 DUP8 DUP3 DUP9 ADD PUSH3 0x1098 JUMP JUMPDEST SWAP5 POP POP PUSH1 0x20 PUSH3 0x1139 DUP8 DUP3 DUP9 ADD PUSH3 0x1098 JUMP JUMPDEST SWAP4 POP POP PUSH1 0x40 PUSH3 0x114C DUP8 DUP3 DUP9 ADD PUSH3 0x1098 JUMP JUMPDEST SWAP3 POP POP PUSH1 0x60 PUSH3 0x115F DUP8 DUP3 DUP9 ADD PUSH3 0x1098 JUMP JUMPDEST SWAP2 POP POP SWAP3 SWAP6 SWAP2 SWAP5 POP SWAP3 POP JUMP JUMPDEST PUSH1 0x0 PUSH1 0x20 DUP3 DUP5 SUB SLT ISZERO PUSH3 0x1184 JUMPI PUSH3 0x1183 PUSH3 0x1981 JUMP JUMPDEST JUMPDEST PUSH1 0x0 PUSH3 0x1194 DUP5 DUP3 DUP6 ADD PUSH3 0x10AF JUMP JUMPDEST SWAP2 POP POP SWAP3 SWAP2 POP POP JUMP JUMPDEST PUSH1 0x0 PUSH1 0x20 DUP3 DUP5 SUB SLT ISZERO PUSH3 0x11B6 JUMPI PUSH3 0x11B5 PUSH3 0x1981 JUMP JUMPDEST JUMPDEST PUSH1 0x0 DUP3 ADD MLOAD PUSH8 0xFFFFFFFFFFFFFFFF DUP2 GT ISZERO PUSH3 0x11D7 JUMPI PUSH3 0x11D6 PUSH3 0x197C JUMP JUMPDEST JUMPDEST PUSH3 0x11E5 DUP5 DUP3 DUP6 ADD PUSH3 0x10C6 JUMP JUMPDEST SWAP2 POP POP SWAP3 SWAP2 POP POP JUMP JUMPDEST PUSH3 0x11F9 DUP2 PUSH3 0x1724 JUMP JUMPDEST DUP3 MSTORE POP POP JUMP JUMPDEST PUSH3 0x120A DUP2 PUSH3 0x176E JUMP JUMPDEST DUP3 MSTORE POP POP JUMP JUMPDEST PUSH3 0x121B DUP2 PUSH3 0x1796 JUMP JUMPDEST DUP3 MSTORE POP POP JUMP JUMPDEST PUSH3 0x122C DUP2 PUSH3 0x17AA JUMP JUMPDEST DUP3 MSTORE POP POP JUMP JUMPDEST PUSH3 0x123D DUP2 PUSH3 0x17BE JUMP JUMPDEST DUP3 MSTORE POP POP JUMP JUMPDEST PUSH3 0x124E DUP2 PUSH3 0x17D2 JUMP JUMPDEST DUP3 MSTORE POP POP JUMP JUMPDEST PUSH3 0x125F DUP2 PUSH3 0x17E6 JUMP JUMPDEST DUP3 MSTORE POP POP JUMP JUMPDEST PUSH3 0x1270 DUP2 PUSH3 0x17FA JUMP JUMPDEST DUP3 MSTORE POP POP JUMP JUMPDEST PUSH3 0x1281 DUP2 PUSH3 0x180E JUMP JUMPDEST DUP3 MSTORE POP POP JUMP JUMPDEST PUSH3 0x1292 DUP2 PUSH3 0x1822 JUMP JUMPDEST DUP3 MSTORE POP POP JUMP JUMPDEST PUSH3 0x12A3 DUP2 PUSH3 0x1836 JUMP JUMPDEST DUP3 MSTORE POP POP JUMP JUMPDEST PUSH3 0x12B4 DUP2 PUSH3 0x184A JUMP JUMPDEST DUP3 MSTORE POP POP JUMP JUMPDEST PUSH3 0x12C5 DUP2 PUSH3 0x185E JUMP JUMPDEST DUP3 MSTORE POP POP JUMP JUMPDEST PUSH1 0x0 PUSH3 0x12D8 DUP3 PUSH3 0x1708 JUMP JUMPDEST PUSH3 0x12E4 DUP2 DUP6 PUSH3 0x1713 JUMP JUMPDEST SWAP4 POP PUSH3 0x12F6 DUP2 DUP6 PUSH1 0x20 DUP7 ADD PUSH3 0x1872 JUMP JUMPDEST PUSH3 0x1301 DUP2 PUSH3 0x1986 JUMP JUMPDEST DUP5 ADD SWAP2 POP POP SWAP3 SWAP2 POP POP JUMP JUMPDEST PUSH1 0x0 PUSH3 0x131B PUSH1 0xE DUP4 PUSH3 0x1713 JUMP JUMPDEST SWAP2 POP PUSH3 0x1328 DUP3 PUSH3 0x1997 JUMP JUMPDEST PUSH1 0x20 DUP3 ADD SWAP1 POP SWAP2 SWAP1 POP JUMP JUMPDEST PUSH1 0x0 PUSH3 0x1342 PUSH1 0x3 DUP4 PUSH3 0x1713 JUMP JUMPDEST SWAP2 POP PUSH3 0x134F DUP3 PUSH3 0x19C0 JUMP JUMPDEST PUSH1 0x20 DUP3 ADD SWAP1 POP SWAP2 SWAP1 POP JUMP JUMPDEST PUSH3 0x1365 DUP2 PUSH3 0x1764 JUMP JUMPDEST DUP3 MSTORE POP POP JUMP JUMPDEST PUSH1 0x0 PUSH1 0x60 DUP3 ADD SWAP1 POP PUSH3 0x1382 PUSH1 0x0 DUP4 ADD DUP7 PUSH3 0x11EE JUMP JUMPDEST PUSH3 0x1391 PUSH1 0x20 DUP4 ADD DUP6 PUSH3 0x11EE JUMP JUMPDEST PUSH3 0x13A0 PUSH1 0x40 DUP4 ADD DUP5 PUSH3 0x12A9 JUMP JUMPDEST SWAP5 SWAP4 POP POP POP POP JUMP JUMPDEST PUSH1 0x0 PUSH1 0x60 DUP3 ADD SWAP1 POP PUSH3 0x13BF PUSH1 0x0 DUP4 ADD DUP7 PUSH3 0x11EE JUMP JUMPDEST PUSH3 0x13CE PUSH1 0x20 DUP4 ADD DUP6 PUSH3 0x12A9 JUMP JUMPDEST PUSH3 0x13DD PUSH1 0x40 DUP4 ADD DUP5 PUSH3 0x11EE JUMP JUMPDEST SWAP5 SWAP4 POP POP POP POP JUMP JUMPDEST PUSH1 0x0 PUSH1 0x20 DUP3 ADD SWAP1 POP PUSH3 0x13FC PUSH1 0x0 DUP4 ADD DUP5 PUSH3 0x11FF JUMP JUMPDEST SWAP3 SWAP2 POP POP JUMP JUMPDEST PUSH1 0x0 PUSH1 0x80 DUP3 ADD SWAP1 POP PUSH3 0x1419 PUSH1 0x0 DUP4 ADD DUP8 PUSH3 0x1210 JUMP JUMPDEST PUSH3 0x1428 PUSH1 0x20 DUP4 ADD DUP7 PUSH3 0x1210 JUMP JUMPDEST PUSH3 0x1437 PUSH1 0x40 DUP4 ADD DUP6 PUSH3 0x11EE JUMP JUMPDEST PUSH3 0x1446 PUSH1 0x60 DUP4 ADD DUP5 PUSH3 0x11EE JUMP JUMPDEST SWAP6 SWAP5 POP POP POP POP POP JUMP JUMPDEST PUSH1 0x0 PUSH1 0x40 DUP3 ADD SWAP1 POP PUSH3 0x1466 PUSH1 0x0 DUP4 ADD DUP6 PUSH3 0x1221 JUMP JUMPDEST PUSH3 0x1475 PUSH1 0x20 DUP4 ADD DUP5 PUSH3 0x11EE JUMP JUMPDEST SWAP4 SWAP3 POP POP POP JUMP JUMPDEST PUSH1 0x0 PUSH1 0x60 DUP3 ADD SWAP1 POP PUSH3 0x1493 PUSH1 0x0 DUP4 ADD DUP6 PUSH3 0x1221 JUMP JUMPDEST DUP2 DUP2 SUB PUSH1 0x20 DUP4 ADD MSTORE PUSH3 0x14A6 DUP2 PUSH3 0x1333 JUMP JUMPDEST SWAP1 POP PUSH3 0x14B7 PUSH1 0x40 DUP4 ADD DUP5 PUSH3 0x11EE JUMP JUMPDEST SWAP4 SWAP3 POP POP POP JUMP JUMPDEST PUSH1 0x0 PUSH1 0x60 DUP3 ADD SWAP1 POP PUSH3 0x14D5 PUSH1 0x0 DUP4 ADD DUP6 PUSH3 0x1243 JUMP JUMPDEST DUP2 DUP2 SUB PUSH1 0x20 DUP4 ADD MSTORE PUSH3 0x14E8 DUP2 PUSH3 0x130C JUMP JUMPDEST SWAP1 POP PUSH3 0x14F9 PUSH1 0x40 DUP4 ADD DUP5 PUSH3 0x11EE JUMP JUMPDEST SWAP4 SWAP3 POP POP POP JUMP JUMPDEST PUSH1 0x0 PUSH1 0x60 DUP3 ADD SWAP1 POP PUSH3 0x1517 PUSH1 0x0 DUP4 ADD DUP6 PUSH3 0x1243 JUMP JUMPDEST DUP2 DUP2 SUB PUSH1 0x20 DUP4 ADD MSTORE PUSH3 0x152A DUP2 PUSH3 0x1333 JUMP JUMPDEST SWAP1 POP PUSH3 0x153B PUSH1 0x40 DUP4 ADD DUP5 PUSH3 0x11EE JUMP JUMPDEST SWAP4 SWAP3 POP POP POP JUMP JUMPDEST PUSH1 0x0 PUSH1 0x60 DUP3 ADD SWAP1 POP PUSH3 0x1559 PUSH1 0x0 DUP4 ADD DUP7 PUSH3 0x1254 JUMP JUMPDEST PUSH3 0x1568 PUSH1 0x20 DUP4 ADD DUP6 PUSH3 0x1298 JUMP JUMPDEST PUSH3 0x1577 PUSH1 0x40 DUP4 ADD DUP5 PUSH3 0x11EE JUMP JUMPDEST SWAP5 SWAP4 POP POP POP POP JUMP JUMPDEST PUSH1 0x0 PUSH1 0x60 DUP3 ADD SWAP1 POP PUSH3 0x1596 PUSH1 0x0 DUP4 ADD DUP7 PUSH3 0x1265 JUMP JUMPDEST PUSH3 0x15A5 PUSH1 0x20 DUP4 ADD DUP6 PUSH3 0x1232 JUMP JUMPDEST PUSH3 0x15B4 PUSH1 0x40 DUP4 ADD DUP5 PUSH3 0x11EE JUMP JUMPDEST SWAP5 SWAP4 POP POP POP POP JUMP JUMPDEST PUSH1 0x0 PUSH1 0x60 DUP3 ADD SWAP1 POP PUSH3 0x15D3 PUSH1 0x0 DUP4 ADD DUP6 PUSH3 0x1276 JUMP JUMPDEST DUP2 DUP2 SUB PUSH1 0x20 DUP4 ADD MSTORE PUSH3 0x15E6 DUP2 PUSH3 0x1333 JUMP JUMPDEST SWAP1 POP PUSH3 0x15F7 PUSH1 0x40 DUP4 ADD DUP5 PUSH3 0x11EE JUMP JUMPDEST SWAP4 SWAP3 POP POP POP JUMP JUMPDEST PUSH1 0x0 PUSH1 0x40 DUP3 ADD SWAP1 POP PUSH3 0x1615 PUSH1 0x0 DUP4 ADD DUP6 PUSH3 0x1287 JUMP JUMPDEST PUSH3 0x1624 PUSH1 0x20 DUP4 ADD DUP5 PUSH3 0x11EE JUMP JUMPDEST SWAP4 SWAP3 POP POP POP JUMP JUMPDEST PUSH1 0x0 PUSH1 0x60 DUP3 ADD SWAP1 POP PUSH3 0x1642 PUSH1 0x0 DUP4 ADD DUP7 PUSH3 0x12BA JUMP JUMPDEST PUSH3 0x1651 PUSH1 0x20 DUP4 ADD DUP6 PUSH3 0x1287 JUMP JUMPDEST PUSH3 0x1660 PUSH1 0x40 DUP4 ADD DUP5 PUSH3 0x11EE JUMP JUMPDEST SWAP5 SWAP4 POP POP POP POP JUMP JUMPDEST PUSH1 0x0 PUSH1 0x20 DUP3 ADD SWAP1 POP DUP2 DUP2 SUB PUSH1 0x0 DUP4 ADD MSTORE PUSH3 0x1684 DUP2 DUP5 PUSH3 0x12CB JUMP JUMPDEST SWAP1 POP SWAP3 SWAP2 POP POP JUMP JUMPDEST PUSH1 0x0 PUSH1 0x20 DUP3 ADD SWAP1 POP PUSH3 0x16A3 PUSH1 0x0 DUP4 ADD DUP5 PUSH3 0x135A JUMP JUMPDEST SWAP3 SWAP2 POP POP JUMP JUMPDEST PUSH1 0x0 PUSH3 0x16B5 PUSH3 0x16C8 JUMP JUMPDEST SWAP1 POP PUSH3 0x16C3 DUP3 DUP3 PUSH3 0x18DE JUMP JUMPDEST SWAP2 SWAP1 POP JUMP JUMPDEST PUSH1 0x0 PUSH1 0x40 MLOAD SWAP1 POP SWAP1 JUMP JUMPDEST PUSH1 0x0 PUSH8 0xFFFFFFFFFFFFFFFF DUP3 GT ISZERO PUSH3 0x16F0 JUMPI PUSH3 0x16EF PUSH3 0x1943 JUMP JUMPDEST JUMPDEST PUSH3 0x16FB DUP3 PUSH3 0x1986 JUMP JUMPDEST SWAP1 POP PUSH1 0x20 DUP2 ADD SWAP1 POP SWAP2 SWAP1 POP JUMP JUMPDEST PUSH1 0x0 DUP2 MLOAD SWAP1 POP SWAP2 SWAP1 POP JUMP JUMPDEST PUSH1 0x0 DUP3 DUP3 MSTORE PUSH1 0x20 DUP3 ADD SWAP1 POP SWAP3 SWAP2 POP POP JUMP JUMPDEST PUSH1 0x0 PUSH3 0x1731 DUP3 PUSH3 0x1744 JUMP JUMPDEST SWAP1 POP SWAP2 SWAP1 POP JUMP JUMPDEST PUSH1 0x0 DUP2 ISZERO ISZERO SWAP1 POP SWAP2 SWAP1 POP JUMP JUMPDEST PUSH1 0x0 PUSH20 0xFFFFFFFFFFFFFFFFFFFFFFFFFFFFFFFFFFFFFFFF DUP3 AND SWAP1 POP SWAP2 SWAP1 POP JUMP JUMPDEST PUSH1 0x0 DUP2 SWAP1 POP SWAP2 SWAP1 POP JUMP JUMPDEST PUSH1 0x0 PUSH3 0x177B DUP3 PUSH3 0x1782 JUMP JUMPDEST SWAP1 POP SWAP2 SWAP1 POP JUMP JUMPDEST PUSH1 0x0 PUSH3 0x178F DUP3 PUSH3 0x1744 JUMP JUMPDEST SWAP1 POP SWAP2 SWAP1 POP JUMP JUMPDEST PUSH1 0x0 PUSH3 0x17A3 DUP3 PUSH3 0x1764 JUMP JUMPDEST SWAP1 POP SWAP2 SWAP1 POP JUMP JUMPDEST PUSH1 0x0 PUSH3 0x17B7 DUP3 PUSH3 0x1764 JUMP JUMPDEST SWAP1 POP SWAP2 SWAP1 POP JUMP JUMPDEST PUSH1 0x0 PUSH3 0x17CB DUP3 PUSH3 0x1764 JUMP JUMPDEST SWAP1 POP SWAP2 SWAP1 POP JUMP JUMPDEST PUSH1 0x0 PUSH3 0x17DF DUP3 PUSH3 0x1764 JUMP JUMPDEST SWAP1 POP SWAP2 SWAP1 POP JUMP JUMPDEST PUSH1 0x0 PUSH3 0x17F3 DUP3 PUSH3 0x1764 JUMP JUMPDEST SWAP1 POP SWAP2 SWAP1 POP JUMP JUMPDEST PUSH1 0x0 PUSH3 0x1807 DUP3 PUSH3 0x1764 JUMP JUMPDEST SWAP1 POP SWAP2 SWAP1 POP JUMP JUMPDEST PUSH1 0x0 PUSH3 0x181B DUP3 PUSH3 0x1764 JUMP JUMPDEST SWAP1 POP SWAP2 SWAP1 POP JUMP JUMPDEST PUSH1 0x0 PUSH3 0x182F DUP3 PUSH3 0x1764 JUMP JUMPDEST SWAP1 POP SWAP2 SWAP1 POP JUMP JUMPDEST PUSH1 0x0 PUSH3 0x1843 DUP3 PUSH3 0x1764 JUMP JUMPDEST SWAP1 POP SWAP2 SWAP1 POP JUMP JUMPDEST PUSH1 0x0 PUSH3 0x1857 DUP3 PUSH3 0x1764 JUMP JUMPDEST SWAP1 POP SWAP2 SWAP1 POP JUMP JUMPDEST PUSH1 0x0 PUSH3 0x186B DUP3 PUSH3 0x1764 JUMP JUMPDEST SWAP1 POP SWAP2 SWAP1 POP JUMP JUMPDEST PUSH1 0x0 JUMPDEST DUP4 DUP2 LT ISZERO PUSH3 0x1892 JUMPI DUP1 DUP3 ADD MLOAD DUP2 DUP5 ADD MSTORE PUSH1 0x20 DUP2 ADD SWAP1 POP PUSH3 0x1875 JUMP JUMPDEST DUP4 DUP2 GT ISZERO PUSH3 0x18A2 JUMPI PUSH1 0x0 DUP5 DUP5 ADD MSTORE JUMPDEST POP POP POP POP JUMP JUMPDEST PUSH1 0x0 PUSH1 0x2 DUP3 DIV SWAP1 POP PUSH1 0x1 DUP3 AND DUP1 PUSH3 0x18C1 JUMPI PUSH1 0x7F DUP3 AND SWAP2 POP JUMPDEST PUSH1 0x20 DUP3 LT DUP2 EQ ISZERO PUSH3 0x18D8 JUMPI PUSH3 0x18D7 PUSH3 0x1914 JUMP JUMPDEST JUMPDEST POP SWAP2 SWAP1 POP JUMP JUMPDEST PUSH3 0x18E9 DUP3 PUSH3 0x1986 JUMP JUMPDEST DUP2 ADD DUP2 DUP2 LT PUSH8 0xFFFFFFFFFFFFFFFF DUP3 GT OR ISZERO PUSH3 0x190B JUMPI PUSH3 0x190A PUSH3 0x1943 JUMP JUMPDEST JUMPDEST DUP1 PUSH1 0x40 MSTORE POP POP POP JUMP JUMPDEST PUSH32 0x4E487B7100000000000000000000000000000000000000000000000000000000 PUSH1 0x0 MSTORE PUSH1 0x22 PUSH1 0x4 MSTORE PUSH1 0x24 PUSH1 0x0 REVERT JUMPDEST PUSH32 0x4E487B7100000000000000000000000000000000000000000000000000000000 PUSH1 0x0 MSTORE PUSH1 0x41 PUSH1 0x4 MSTORE PUSH1 0x24 PUSH1 0x0 REVERT JUMPDEST PUSH1 0x0 DUP1 REVERT JUMPDEST PUSH1 0x0 DUP1 REVERT JUMPDEST PUSH1 0x0 DUP1 REVERT JUMPDEST PUSH1 0x0 DUP1 REVERT JUMPDEST PUSH1 0x0 PUSH1 0x1F NOT PUSH1 0x1F DUP4 ADD AND SWAP1 POP SWAP2 SWAP1 POP JUMP JUMPDEST PUSH32 0x6261645F746F6B656E5F6E616D65000000000000000000000000000000000000 PUSH1 0x0 DUP3 ADD MSTORE POP JUMP JUMPDEST PUSH32 0x544B420000000000000000000000000000000000000000000000000000000000 PUSH1 0x0 DUP3 ADD MSTORE POP JUMP JUMPDEST PUSH3 0x19F4 DUP2 PUSH3 0x1724 JUMP JUMPDEST DUP2 EQ PUSH3 0x1A00 JUMPI PUSH1 0x0 DUP1 REVERT JUMPDEST POP JUMP JUMPDEST PUSH3 0x1A0E DUP2 PUSH3 0x1738 JUMP JUMPDEST DUP2 EQ PUSH3 0x1A1A JUMPI PUSH1 0x0 DUP1 REVERT JUMPDEST POP JUMP INVALID PUSH1 0x80 PUSH1 0x40 MSTORE CALLVALUE DUP1 ISZERO PUSH3 0x11 JUMPI PUSH1 0x0 DUP1 REVERT JUMPDEST POP PUSH1 0x40 MLOAD PUSH3 0x4EB1 CODESIZE SUB DUP1 PUSH3 0x4EB1 DUP4 CODECOPY DUP2 DUP2 ADD PUSH1 0x40 MSTORE DUP2 ADD SWAP1 PUSH3 0x37 SWAP2 SWAP1 PUSH3 0x2D6 JUMP JUMPDEST PUSH3 0x57 PUSH3 0x4B PUSH3 0x1CE PUSH1 0x20 SHL PUSH1 0x20 SHR JUMP JUMPDEST PUSH3 0x1D6 PUSH1 0x20 SHL PUSH1 0x20 SHR JUMP JUMPDEST PUSH1 0x12 PUSH8 0xDE0B6B3A7640000 PUSH1 0x40 MLOAD PUSH3 0x70 SWAP1 PUSH3 0x29A JUMP JUMPDEST PUSH3 0x7D SWAP3 SWAP2 SWAP1 PUSH3 0x3B8 JUMP JUMPDEST PUSH1 0x40 MLOAD DUP1 SWAP2 SUB SWAP1 PUSH1 0x0 CREATE DUP1 ISZERO DUP1 ISZERO PUSH3 0x9A JUMPI RETURNDATASIZE PUSH1 0x0 DUP1 RETURNDATACOPY RETURNDATASIZE PUSH1 0x0 REVERT JUMPDEST POP PUSH1 0x3 PUSH1 0x0 PUSH2 0x100 EXP DUP2 SLOAD DUP2 PUSH20 0xFFFFFFFFFFFFFFFFFFFFFFFFFFFFFFFFFFFFFFFF MUL NOT AND SWAP1 DUP4 PUSH20 0xFFFFFFFFFFFFFFFFFFFFFFFFFFFFFFFFFFFFFFFF AND MUL OR SWAP1 SSTORE POP DUP4 PUSH1 0x8 DUP2 SWAP1 SSTORE POP DUP3 PUSH1 0x9 DUP2 SWAP1 SSTORE POP PUSH1 0xA DUP1 DUP2 SWAP1 SSTORE POP PUSH1 0x1E PUSH1 0xB DUP2 SWAP1 SSTORE POP DUP2 PUSH1 0x1 PUSH1 0x0 PUSH2 0x100 EXP DUP2 SLOAD DUP2 PUSH20 0xFFFFFFFFFFFFFFFFFFFFFFFFFFFFFFFFFFFFFFFF MUL NOT AND SWAP1 DUP4 PUSH20 0xFFFFFFFFFFFFFFFFFFFFFFFFFFFFFFFFFFFFFFFF AND MUL OR SWAP1 SSTORE POP DUP1 PUSH1 0x2 PUSH1 0x0 PUSH2 0x100 EXP DUP2 SLOAD DUP2 PUSH20 0xFFFFFFFFFFFFFFFFFFFFFFFFFFFFFFFFFFFFFFFF MUL NOT AND SWAP1 DUP4 PUSH20 0xFFFFFFFFFFFFFFFFFFFFFFFFFFFFFFFFFFFFFFFF AND MUL OR SWAP1 SSTORE POP PUSH1 0xB SLOAD DUP4 PUSH3 0x18A SWAP2 SWAP1 PUSH3 0x47D JUMP JUMPDEST PUSH1 0xA SLOAD DUP6 PUSH3 0x19A SWAP2 SWAP1 PUSH3 0x47D JUMP JUMPDEST PUSH3 0x1A6 SWAP2 SWAP1 PUSH3 0x420 JUMP JUMPDEST PUSH1 0x7 DUP2 SWAP1 SSTORE POP PUSH1 0x9 SLOAD PUSH1 0x8 SLOAD PUSH3 0x1BE SWAP2 SWAP1 PUSH3 0x47D JUMP JUMPDEST PUSH1 0x5 DUP2 SWAP1 SSTORE POP POP POP POP POP PUSH3 0x5FE JUMP JUMPDEST PUSH1 0x0 CALLER SWAP1 POP SWAP1 JUMP JUMPDEST PUSH1 0x0 DUP1 PUSH1 0x0 SWAP1 SLOAD SWAP1 PUSH2 0x100 EXP SWAP1 DIV PUSH20 0xFFFFFFFFFFFFFFFFFFFFFFFFFFFFFFFFFFFFFFFF AND SWAP1 POP DUP2 PUSH1 0x0 DUP1 PUSH2 0x100 EXP DUP2 SLOAD DUP2 PUSH20 0xFFFFFFFFFFFFFFFFFFFFFFFFFFFFFFFFFFFFFFFF MUL NOT AND SWAP1 DUP4 PUSH20 0xFFFFFFFFFFFFFFFFFFFFFFFFFFFFFFFFFFFFFFFF AND MUL OR SWAP1 SSTORE POP DUP2 PUSH20 0xFFFFFFFFFFFFFFFFFFFFFFFFFFFFFFFFFFFFFFFF AND DUP2 PUSH20 0xFFFFFFFFFFFFFFFFFFFFFFFFFFFFFFFFFFFFFFFF AND PUSH32 0x8BE0079C531659141344CD1FD0A4F28419497F9722A3DAAFE3B4186F6B6457E0 PUSH1 0x40 MLOAD PUSH1 0x40 MLOAD DUP1 SWAP2 SUB SWAP1 LOG3 POP POP JUMP JUMPDEST PUSH2 0x120E DUP1 PUSH3 0x3CA3 DUP4 CODECOPY ADD SWAP1 JUMP JUMPDEST PUSH1 0x0 DUP2 MLOAD SWAP1 POP PUSH3 0x2B9 DUP2 PUSH3 0x5CA JUMP JUMPDEST SWAP3 SWAP2 POP POP JUMP JUMPDEST PUSH1 0x0 DUP2 MLOAD SWAP1 POP PUSH3 0x2D0 DUP2 PUSH3 0x5E4 JUMP JUMPDEST SWAP3 SWAP2 POP POP JUMP JUMPDEST PUSH1 0x0 DUP1 PUSH1 0x0 DUP1 PUSH1 0x80 DUP6 DUP8 SUB SLT ISZERO PUSH3 0x2F3 JUMPI PUSH3 0x2F2 PUSH3 0x573 JUMP JUMPDEST JUMPDEST PUSH1 0x0 PUSH3 0x303 DUP8 DUP3 DUP9 ADD PUSH3 0x2BF JUMP JUMPDEST SWAP5 POP POP PUSH1 0x20 PUSH3 0x316 DUP8 DUP3 DUP9 ADD PUSH3 0x2BF JUMP JUMPDEST SWAP4 POP POP PUSH1 0x40 PUSH3 0x329 DUP8 DUP3 DUP9 ADD PUSH3 0x2A8 JUMP JUMPDEST SWAP3 POP POP PUSH1 0x60 PUSH3 0x33C DUP8 DUP3 DUP9 ADD PUSH3 0x2A8 JUMP JUMPDEST SWAP2 POP POP SWAP3 SWAP6 SWAP2 SWAP5 POP SWAP3 POP JUMP JUMPDEST PUSH3 0x353 DUP2 PUSH3 0x51C JUMP JUMPDEST DUP3 MSTORE POP POP JUMP JUMPDEST PUSH3 0x364 DUP2 PUSH3 0x530 JUMP JUMPDEST DUP3 MSTORE POP POP JUMP JUMPDEST PUSH1 0x0 PUSH3 0x379 PUSH1 0x3 DUP4 PUSH3 0x40F JUMP JUMPDEST SWAP2 POP PUSH3 0x386 DUP3 PUSH3 0x578 JUMP JUMPDEST PUSH1 0x20 DUP3 ADD SWAP1 POP SWAP2 SWAP1 POP JUMP JUMPDEST PUSH1 0x0 PUSH3 0x3A0 PUSH1 0x6 DUP4 PUSH3 0x40F JUMP JUMPDEST SWAP2 POP PUSH3 0x3AD DUP3 PUSH3 0x5A1 JUMP JUMPDEST PUSH1 0x20 DUP3 ADD SWAP1 POP SWAP2 SWAP1 POP JUMP JUMPDEST PUSH1 0x0 PUSH1 0x80 DUP3 ADD SWAP1 POP DUP2 DUP2 SUB PUSH1 0x0 DUP4 ADD MSTORE PUSH3 0x3D3 DUP2 PUSH3 0x391 JUMP JUMPDEST SWAP1 POP DUP2 DUP2 SUB PUSH1 0x20 DUP4 ADD MSTORE PUSH3 0x3E8 DUP2 PUSH3 0x36A JUMP JUMPDEST SWAP1 POP PUSH3 0x3F9 PUSH1 0x40 DUP4 ADD DUP6 PUSH3 0x359 JUMP JUMPDEST PUSH3 0x408 PUSH1 0x60 DUP4 ADD DUP5 PUSH3 0x348 JUMP JUMPDEST SWAP4 SWAP3 POP POP POP JUMP JUMPDEST PUSH1 0x0 DUP3 DUP3 MSTORE PUSH1 0x20 DUP3 ADD SWAP1 POP SWAP3 SWAP2 POP POP JUMP JUMPDEST PUSH1 0x0 PUSH3 0x42D DUP3 PUSH3 0x512 JUMP JUMPDEST SWAP2 POP PUSH3 0x43A DUP4 PUSH3 0x512 JUMP JUMPDEST SWAP3 POP DUP3 PUSH32 0xFFFFFFFFFFFFFFFFFFFFFFFFFFFFFFFFFFFFFFFFFFFFFFFFFFFFFFFFFFFFFFFF SUB DUP3 GT ISZERO PUSH3 0x472 JUMPI PUSH3 0x471 PUSH3 0x544 JUMP JUMPDEST JUMPDEST DUP3 DUP3 ADD SWAP1 POP SWAP3 SWAP2 POP POP JUMP JUMPDEST PUSH1 0x0 PUSH3 0x48A DUP3 PUSH3 0x512 JUMP JUMPDEST SWAP2 POP PUSH3 0x497 DUP4 PUSH3 0x512 JUMP JUMPDEST SWAP3 POP DUP2 PUSH32 0xFFFFFFFFFFFFFFFFFFFFFFFFFFFFFFFFFFFFFFFFFFFFFFFFFFFFFFFFFFFFFFFF DIV DUP4 GT DUP3 ISZERO ISZERO AND ISZERO PUSH3 0x4D3 JUMPI PUSH3 0x4D2 PUSH3 0x544 JUMP JUMPDEST JUMPDEST DUP3 DUP3 MUL SWAP1 POP SWAP3 SWAP2 POP POP JUMP JUMPDEST PUSH1 0x0 PUSH3 0x4EB DUP3 PUSH3 0x4F2 JUMP JUMPDEST SWAP1 POP SWAP2 SWAP1 POP JUMP JUMPDEST PUSH1 0x0 PUSH20 0xFFFFFFFFFFFFFFFFFFFFFFFFFFFFFFFFFFFFFFFF DUP3 AND SWAP1 POP SWAP2 SWAP1 POP JUMP JUMPDEST PUSH1 0x0 DUP2 SWAP1 POP SWAP2 SWAP1 POP JUMP JUMPDEST PUSH1 0x0 PUSH3 0x529 DUP3 PUSH3 0x512 JUMP JUMPDEST SWAP1 POP SWAP2 SWAP1 POP JUMP JUMPDEST PUSH1 0x0 PUSH3 0x53D DUP3 PUSH3 0x512 JUMP JUMPDEST SWAP1 POP SWAP2 SWAP1 POP JUMP JUMPDEST PUSH32 0x4E487B7100000000000000000000000000000000000000000000000000000000 PUSH1 0x0 MSTORE PUSH1 0x11 PUSH1 0x4 MSTORE PUSH1 0x24 PUSH1 0x0 REVERT JUMPDEST PUSH1 0x0 DUP1 REVERT JUMPDEST PUSH32 0x4C50540000000000000000000000000000000000000000000000000000000000 PUSH1 0x0 DUP3 ADD MSTORE POP JUMP JUMPDEST PUSH32 0x6C69717569640000000000000000000000000000000000000000000000000000 PUSH1 0x0 DUP3 ADD MSTORE POP JUMP JUMPDEST PUSH3 0x5D5 DUP2 PUSH3 0x4DE JUMP JUMPDEST DUP2 EQ PUSH3 0x5E1 JUMPI PUSH1 0x0 DUP1 REVERT JUMPDEST POP JUMP JUMPDEST PUSH3 0x5EF DUP2 PUSH3 0x512 JUMP JUMPDEST DUP2 EQ PUSH3 0x5FB JUMPI PUSH1 0x0 DUP1 REVERT JUMPDEST POP JUMP JUMPDEST PUSH2 0x3695 DUP1 PUSH3 0x60E PUSH1 0x0 CODECOPY PUSH1 0x0 RETURN INVALID PUSH1 0x80 PUSH1 0x40 MSTORE PUSH1 0x4 CALLDATASIZE LT PUSH2 0x114 JUMPI PUSH1 0x0 CALLDATALOAD PUSH1 0xE0 SHR DUP1 PUSH4 0x715018A6 GT PUSH2 0xA0 JUMPI DUP1 PUSH4 0xD342F970 GT PUSH2 0x64 JUMPI DUP1 PUSH4 0xD342F970 EQ PUSH2 0x314 JUMPI DUP1 PUSH4 0xDB006A75 EQ PUSH2 0x33F JUMPI DUP1 PUSH4 0xE1A296B1 EQ PUSH2 0x35B JUMPI DUP1 PUSH4 0xEE39E7A0 EQ PUSH2 0x386 JUMPI DUP1 PUSH4 0xF2FDE38B EQ PUSH2 0x3B1 JUMPI PUSH2 0x114 JUMP JUMPDEST DUP1 PUSH4 0x715018A6 EQ PUSH2 0x26F JUMPI DUP1 PUSH4 0x7A3278D7 EQ PUSH2 0x286 JUMPI DUP1 PUSH4 0x8DA5CB5B EQ PUSH2 0x2B1 JUMPI DUP1 PUSH4 0xB7E6CF0D EQ PUSH2 0x2DC JUMPI DUP1 PUSH4 0xC7BF8DCD EQ PUSH2 0x2F8 JUMPI PUSH2 0x114 JUMP JUMPDEST DUP1 PUSH4 0x43CD8F7E GT PUSH2 0xE7 JUMPI DUP1 PUSH4 0x43CD8F7E EQ PUSH2 0x1A7 JUMPI DUP1 PUSH4 0x4D9B3735 EQ PUSH2 0x1D2 JUMPI DUP1 PUSH4 0x58BDF593 EQ PUSH2 0x1FD JUMPI DUP1 PUSH4 0x5CDDC766 EQ PUSH2 0x219 JUMPI DUP1 PUSH4 0x5F64B55B EQ PUSH2 0x244 JUMPI PUSH2 0x114 JUMP JUMPDEST DUP1 PUSH4 0xCDD53F6 EQ PUSH2 0x119 JUMPI DUP1 PUSH4 0xFC63D10 EQ PUSH2 0x135 JUMPI DUP1 PUSH4 0x23A56849 EQ PUSH2 0x160 JUMPI DUP1 PUSH4 0x2A4CA5EA EQ PUSH2 0x17C JUMPI JUMPDEST PUSH1 0x0 DUP1 REVERT JUMPDEST PUSH2 0x133 PUSH1 0x4 DUP1 CALLDATASIZE SUB DUP2 ADD SWAP1 PUSH2 0x12E SWAP2 SWAP1 PUSH2 0x2BE6 JUMP JUMPDEST PUSH2 0x3DA JUMP JUMPDEST STOP JUMPDEST CALLVALUE DUP1 ISZERO PUSH2 0x141 JUMPI PUSH1 0x0 DUP1 REVERT JUMPDEST POP PUSH2 0x14A PUSH2 0x913 JUMP JUMPDEST PUSH1 0x40 MLOAD PUSH2 0x157 SWAP2 SWAP1 PUSH2 0x2F46 JUMP JUMPDEST PUSH1 0x40 MLOAD DUP1 SWAP2 SUB SWAP1 RETURN JUMPDEST PUSH2 0x17A PUSH1 0x4 DUP1 CALLDATASIZE SUB DUP2 ADD SWAP1 PUSH2 0x175 SWAP2 SWAP1 PUSH2 0x2B1B JUMP JUMPDEST PUSH2 0x939 JUMP JUMPDEST STOP JUMPDEST CALLVALUE DUP1 ISZERO PUSH2 0x188 JUMPI PUSH1 0x0 DUP1 REVERT JUMPDEST POP PUSH2 0x191 PUSH2 0xF60 JUMP JUMPDEST PUSH1 0x40 MLOAD PUSH2 0x19E SWAP2 SWAP1 PUSH2 0x3063 JUMP JUMPDEST PUSH1 0x40 MLOAD DUP1 SWAP2 SUB SWAP1 RETURN JUMPDEST CALLVALUE DUP1 ISZERO PUSH2 0x1B3 JUMPI PUSH1 0x0 DUP1 REVERT JUMPDEST POP PUSH2 0x1BC PUSH2 0xF6A JUMP JUMPDEST PUSH1 0x40 MLOAD PUSH2 0x1C9 SWAP2 SWAP1 PUSH2 0x2F2B JUMP JUMPDEST PUSH1 0x40 MLOAD DUP1 SWAP2 SUB SWAP1 RETURN JUMPDEST CALLVALUE DUP1 ISZERO PUSH2 0x1DE JUMPI PUSH1 0x0 DUP1 REVERT JUMPDEST POP PUSH2 0x1E7 PUSH2 0xF90 JUMP JUMPDEST PUSH1 0x40 MLOAD PUSH2 0x1F4 SWAP2 SWAP1 PUSH2 0x3063 JUMP JUMPDEST PUSH1 0x40 MLOAD DUP1 SWAP2 SUB SWAP1 RETURN JUMPDEST PUSH2 0x217 PUSH1 0x4 DUP1 CALLDATASIZE SUB DUP2 ADD SWAP1 PUSH2 0x212 SWAP2 SWAP1 PUSH2 0x2ADB JUMP JUMPDEST PUSH2 0xF9A JUMP JUMPDEST STOP JUMPDEST CALLVALUE DUP1 ISZERO PUSH2 0x225 JUMPI PUSH1 0x0 DUP1 REVERT JUMPDEST POP PUSH2 0x22E PUSH2 0x147B JUMP JUMPDEST PUSH1 0x40 MLOAD PUSH2 0x23B SWAP2 SWAP1 PUSH2 0x3063 JUMP JUMPDEST PUSH1 0x40 MLOAD DUP1 SWAP2 SUB SWAP1 RETURN JUMPDEST CALLVALUE DUP1 ISZERO PUSH2 0x250 JUMPI PUSH1 0x0 DUP1 REVERT JUMPDEST POP PUSH2 0x259 PUSH2 0x1485 JUMP JUMPDEST PUSH1 0x40 MLOAD PUSH2 0x266 SWAP2 SWAP1 PUSH2 0x2F46 JUMP JUMPDEST PUSH1 0x40 MLOAD DUP1 SWAP2 SUB SWAP1 RETURN JUMPDEST CALLVALUE DUP1 ISZERO PUSH2 0x27B JUMPI PUSH1 0x0 DUP1 REVERT JUMPDEST POP PUSH2 0x284 PUSH2 0x14AB JUMP JUMPDEST STOP JUMPDEST CALLVALUE DUP1 ISZERO PUSH2 0x292 JUMPI PUSH1 0x0 DUP1 REVERT JUMPDEST POP PUSH2 0x29B PUSH2 0x14BF JUMP JUMPDEST PUSH1 0x40 MLOAD PUSH2 0x2A8 SWAP2 SWAP1 PUSH2 0x3063 JUMP JUMPDEST PUSH1 0x40 MLOAD DUP1 SWAP2 SUB SWAP1 RETURN JUMPDEST CALLVALUE DUP1 ISZERO PUSH2 0x2BD JUMPI PUSH1 0x0 DUP1 REVERT JUMPDEST POP PUSH2 0x2C6 PUSH2 0x14C5 JUMP JUMPDEST PUSH1 0x40 MLOAD PUSH2 0x2D3 SWAP2 SWAP1 PUSH2 0x2E87 JUMP JUMPDEST PUSH1 0x40 MLOAD DUP1 SWAP2 SUB SWAP1 RETURN JUMPDEST PUSH2 0x2F6 PUSH1 0x4 DUP1 CALLDATASIZE SUB DUP2 ADD SWAP1 PUSH2 0x2F1 SWAP2 SWAP1 PUSH2 0x2C26 JUMP JUMPDEST PUSH2 0x14EE JUMP JUMPDEST STOP JUMPDEST PUSH2 0x312 PUSH1 0x4 DUP1 CALLDATASIZE SUB DUP2 ADD SWAP1 PUSH2 0x30D SWAP2 SWAP1 PUSH2 0x2B77 JUMP JUMPDEST PUSH2 0x1A28 JUMP JUMPDEST STOP JUMPDEST CALLVALUE DUP1 ISZERO PUSH2 0x320 JUMPI PUSH1 0x0 DUP1 REVERT JUMPDEST POP PUSH2 0x329 PUSH2 0x2050 JUMP JUMPDEST PUSH1 0x40 MLOAD PUSH2 0x336 SWAP2 SWAP1 PUSH2 0x3063 JUMP JUMPDEST PUSH1 0x40 MLOAD DUP1 SWAP2 SUB SWAP1 RETURN JUMPDEST PUSH2 0x359 PUSH1 0x4 DUP1 CALLDATASIZE SUB DUP2 ADD SWAP1 PUSH2 0x354 SWAP2 SWAP1 PUSH2 0x2A81 JUMP JUMPDEST PUSH2 0x205A JUMP JUMPDEST STOP JUMPDEST CALLVALUE DUP1 ISZERO PUSH2 0x367 JUMPI PUSH1 0x0 DUP1 REVERT JUMPDEST POP PUSH2 0x370 PUSH2 0x253A JUMP JUMPDEST PUSH1 0x40 MLOAD PUSH2 0x37D SWAP2 SWAP1 PUSH2 0x3063 JUMP JUMPDEST PUSH1 0x40 MLOAD DUP1 SWAP2 SUB SWAP1 RETURN JUMPDEST CALLVALUE DUP1 ISZERO PUSH2 0x392 JUMPI PUSH1 0x0 DUP1 REVERT JUMPDEST POP PUSH2 0x39B PUSH2 0x2540 JUMP JUMPDEST PUSH1 0x40 MLOAD PUSH2 0x3A8 SWAP2 SWAP1 PUSH2 0x3063 JUMP JUMPDEST PUSH1 0x40 MLOAD DUP1 SWAP2 SUB SWAP1 RETURN JUMPDEST CALLVALUE DUP1 ISZERO PUSH2 0x3BD JUMPI PUSH1 0x0 DUP1 REVERT JUMPDEST POP PUSH2 0x3D8 PUSH1 0x4 DUP1 CALLDATASIZE SUB DUP2 ADD SWAP1 PUSH2 0x3D3 SWAP2 SWAP1 PUSH2 0x29DE JUMP JUMPDEST PUSH2 0x254A JUMP JUMPDEST STOP JUMPDEST PUSH1 0x0 PUSH1 0xA SLOAD DUP4 PUSH2 0x3EA SWAP2 SWAP1 PUSH2 0x3182 JUMP JUMPDEST SWAP1 POP PUSH1 0x0 PUSH1 0xB SLOAD DUP4 PUSH2 0x3FC SWAP2 SWAP1 PUSH2 0x3182 JUMP JUMPDEST SWAP1 POP DUP1 DUP3 EQ PUSH2 0x440 JUMPI PUSH1 0x40 MLOAD PUSH32 0x8C379A000000000000000000000000000000000000000000000000000000000 DUP2 MSTORE PUSH1 0x4 ADD PUSH2 0x437 SWAP1 PUSH2 0x2FC3 JUMP JUMPDEST PUSH1 0x40 MLOAD DUP1 SWAP2 SUB SWAP1 REVERT JUMPDEST DUP4 PUSH1 0x1 PUSH1 0x0 SWAP1 SLOAD SWAP1 PUSH2 0x100 EXP SWAP1 DIV PUSH20 0xFFFFFFFFFFFFFFFFFFFFFFFFFFFFFFFFFFFFFFFF AND PUSH20 0xFFFFFFFFFFFFFFFFFFFFFFFFFFFFFFFFFFFFFFFF AND PUSH4 0xDD62ED3E CALLER ADDRESS PUSH1 0x40 MLOAD DUP4 PUSH4 0xFFFFFFFF AND PUSH1 0xE0 SHL DUP2 MSTORE PUSH1 0x4 ADD PUSH2 0x49E SWAP3 SWAP2 SWAP1 PUSH2 0x2EA2 JUMP JUMPDEST PUSH1 0x20 PUSH1 0x40 MLOAD DUP1 DUP4 SUB DUP2 DUP7 DUP1 EXTCODESIZE ISZERO DUP1 ISZERO PUSH2 0x4B6 JUMPI PUSH1 0x0 DUP1 REVERT JUMPDEST POP GAS STATICCALL ISZERO DUP1 ISZERO PUSH2 0x4CA JUMPI RETURNDATASIZE PUSH1 0x0 DUP1 RETURNDATACOPY RETURNDATASIZE PUSH1 0x0 REVERT JUMPDEST POP POP POP POP PUSH1 0x40 MLOAD RETURNDATASIZE PUSH1 0x1F NOT PUSH1 0x1F DUP3 ADD AND DUP3 ADD DUP1 PUSH1 0x40 MSTORE POP DUP2 ADD SWAP1 PUSH2 0x4EE SWAP2 SWAP1 PUSH2 0x2AAE JUMP JUMPDEST LT ISZERO PUSH2 0x52F JUMPI PUSH1 0x40 MLOAD PUSH32 0x8C379A000000000000000000000000000000000000000000000000000000000 DUP2 MSTORE PUSH1 0x4 ADD PUSH2 0x526 SWAP1 PUSH2 0x2FE3 JUMP JUMPDEST PUSH1 0x40 MLOAD DUP1 SWAP2 SUB SWAP1 REVERT JUMPDEST DUP3 PUSH1 0x2 PUSH1 0x0 SWAP1 SLOAD SWAP1 PUSH2 0x100 EXP SWAP1 DIV PUSH20 0xFFFFFFFFFFFFFFFFFFFFFFFFFFFFFFFFFFFFFFFF AND PUSH20 0xFFFFFFFFFFFFFFFFFFFFFFFFFFFFFFFFFFFFFFFF AND PUSH4 0xDD62ED3E CALLER ADDRESS PUSH1 0x40 MLOAD DUP4 PUSH4 0xFFFFFFFF AND PUSH1 0xE0 SHL DUP2 MSTORE PUSH1 0x4 ADD PUSH2 0x58D SWAP3 SWAP2 SWAP1 PUSH2 0x2EA2 JUMP JUMPDEST PUSH1 0x20 PUSH1 0x40 MLOAD DUP1 DUP4 SUB DUP2 DUP7 DUP1 EXTCODESIZE ISZERO DUP1 ISZERO PUSH2 0x5A5 JUMPI PUSH1 0x0 DUP1 REVERT JUMPDEST POP GAS STATICCALL ISZERO DUP1 ISZERO PUSH2 0x5B9 JUMPI RETURNDATASIZE PUSH1 0x0 DUP1 RETURNDATACOPY RETURNDATASIZE PUSH1 0x0 REVERT JUMPDEST POP POP POP POP PUSH1 0x40 MLOAD RETURNDATASIZE PUSH1 0x1F NOT PUSH1 0x1F DUP3 ADD AND DUP3 ADD DUP1 PUSH1 0x40 MSTORE POP DUP2 ADD SWAP1 PUSH2 0x5DD SWAP2 SWAP1 PUSH2 0x2AAE JUMP JUMPDEST LT ISZERO PUSH2 0x61E JUMPI PUSH1 0x40 MLOAD PUSH32 0x8C379A000000000000000000000000000000000000000000000000000000000 DUP2 MSTORE PUSH1 0x4 ADD PUSH2 0x615 SWAP1 PUSH2 0x2F83 JUMP JUMPDEST PUSH1 0x40 MLOAD DUP1 SWAP2 SUB SWAP1 REVERT JUMPDEST PUSH1 0x1 PUSH1 0x0 SWAP1 SLOAD SWAP1 PUSH2 0x100 EXP SWAP1 DIV PUSH20 0xFFFFFFFFFFFFFFFFFFFFFFFFFFFFFFFFFFFFFFFF AND PUSH20 0xFFFFFFFFFFFFFFFFFFFFFFFFFFFFFFFFFFFFFFFF AND PUSH4 0x23B872DD CALLER ADDRESS DUP8 PUSH1 0x40 MLOAD DUP5 PUSH4 0xFFFFFFFF AND PUSH1 0xE0 SHL DUP2 MSTORE PUSH1 0x4 ADD PUSH2 0x67D SWAP4 SWAP3 SWAP2 SWAP1 PUSH2 0x2ECB JUMP JUMPDEST PUSH1 0x20 PUSH1 0x40 MLOAD DUP1 DUP4 SUB DUP2 PUSH1 0x0 DUP8 DUP1 EXTCODESIZE ISZERO DUP1 ISZERO PUSH2 0x697 JUMPI PUSH1 0x0 DUP1 REVERT JUMPDEST POP GAS CALL ISZERO DUP1 ISZERO PUSH2 0x6AB JUMPI RETURNDATASIZE PUSH1 0x0 DUP1 RETURNDATACOPY RETURNDATASIZE PUSH1 0x0 REVERT JUMPDEST POP POP POP POP PUSH1 0x40 MLOAD RETURNDATASIZE PUSH1 0x1F NOT PUSH1 0x1F DUP3 ADD AND DUP3 ADD DUP1 PUSH1 0x40 MSTORE POP DUP2 ADD SWAP1 PUSH2 0x6CF SWAP2 SWAP1 PUSH2 0x2A0B JUMP JUMPDEST POP PUSH1 0x2 PUSH1 0x0 SWAP1 SLOAD SWAP1 PUSH2 0x100 EXP SWAP1 DIV PUSH20 0xFFFFFFFFFFFFFFFFFFFFFFFFFFFFFFFFFFFFFFFF AND PUSH20 0xFFFFFFFFFFFFFFFFFFFFFFFFFFFFFFFFFFFFFFFF AND PUSH4 0x23B872DD CALLER ADDRESS DUP7 PUSH1 0x40 MLOAD DUP5 PUSH4 0xFFFFFFFF AND PUSH1 0xE0 SHL DUP2 MSTORE PUSH1 0x4 ADD PUSH2 0x72F SWAP4 SWAP3 SWAP2 SWAP1 PUSH2 0x2ECB JUMP JUMPDEST PUSH1 0x20 PUSH1 0x40 MLOAD DUP1 DUP4 SUB DUP2 PUSH1 0x0 DUP8 DUP1 EXTCODESIZE ISZERO DUP1 ISZERO PUSH2 0x749 JUMPI PUSH1 0x0 DUP1 REVERT JUMPDEST POP GAS CALL ISZERO DUP1 ISZERO PUSH2 0x75D JUMPI RETURNDATASIZE PUSH1 0x0 DUP1 RETURNDATACOPY RETURNDATASIZE PUSH1 0x0 REVERT JUMPDEST POP POP POP POP PUSH1 0x40 MLOAD RETURNDATASIZE PUSH1 0x1F NOT PUSH1 0x1F DUP3 ADD AND DUP3 ADD DUP1 PUSH1 0x40 MSTORE POP DUP2 ADD SWAP1 PUSH2 0x781 SWAP2 SWAP1 PUSH2 0x2A0B JUMP JUMPDEST POP PUSH1 0x3 PUSH1 0x0 SWAP1 SLOAD SWAP1 PUSH2 0x100 EXP SWAP1 DIV PUSH20 0xFFFFFFFFFFFFFFFFFFFFFFFFFFFFFFFFFFFFFFFF AND PUSH20 0xFFFFFFFFFFFFFFFFFFFFFFFFFFFFFFFFFFFFFFFF AND PUSH4 0xA9059CBB CALLER PUSH1 0x2 DUP6 PUSH2 0x7CE SWAP2 SWAP1 PUSH2 0x3182 JUMP JUMPDEST PUSH1 0x40 MLOAD DUP4 PUSH4 0xFFFFFFFF AND PUSH1 0xE0 SHL DUP2 MSTORE PUSH1 0x4 ADD PUSH2 0x7EB SWAP3 SWAP2 SWAP1 PUSH2 0x2F02 JUMP JUMPDEST PUSH1 0x20 PUSH1 0x40 MLOAD DUP1 DUP4 SUB DUP2 PUSH1 0x0 DUP8 DUP1 EXTCODESIZE ISZERO DUP1 ISZERO PUSH2 0x805 JUMPI PUSH1 0x0 DUP1 REVERT JUMPDEST POP GAS CALL ISZERO DUP1 ISZERO PUSH2 0x819 JUMPI RETURNDATASIZE PUSH1 0x0 DUP1 RETURNDATACOPY RETURNDATASIZE PUSH1 0x0 REVERT JUMPDEST POP POP POP POP PUSH1 0x40 MLOAD RETURNDATASIZE PUSH1 0x1F NOT PUSH1 0x1F DUP3 ADD AND DUP3 ADD DUP1 PUSH1 0x40 MSTORE POP DUP2 ADD SWAP1 PUSH2 0x83D SWAP2 SWAP1 PUSH2 0x2A0B JUMP JUMPDEST POP PUSH1 0x2 DUP3 PUSH2 0x84B SWAP2 SWAP1 PUSH2 0x3182 JUMP JUMPDEST PUSH1 0x4 PUSH1 0x0 CALLER PUSH20 0xFFFFFFFFFFFFFFFFFFFFFFFFFFFFFFFFFFFFFFFF AND PUSH20 0xFFFFFFFFFFFFFFFFFFFFFFFFFFFFFFFFFFFFFFFF AND DUP2 MSTORE PUSH1 0x20 ADD SWAP1 DUP2 MSTORE PUSH1 0x20 ADD PUSH1 0x0 KECCAK256 PUSH1 0x0 DUP3 DUP3 SLOAD PUSH2 0x899 SWAP2 SWAP1 PUSH2 0x30FB JUMP JUMPDEST SWAP3 POP POP DUP2 SWAP1 SSTORE POP DUP4 PUSH1 0x8 PUSH1 0x0 DUP3 DUP3 SLOAD PUSH2 0x8B2 SWAP2 SWAP1 PUSH2 0x30FB JUMP JUMPDEST SWAP3 POP POP DUP2 SWAP1 SSTORE POP DUP3 PUSH1 0x9 PUSH1 0x0 DUP3 DUP3 SLOAD PUSH2 0x8CB SWAP2 SWAP1 PUSH2 0x30FB JUMP JUMPDEST SWAP3 POP POP DUP2 SWAP1 SSTORE POP PUSH1 0x9 SLOAD PUSH1 0x8 SLOAD PUSH2 0x8E2 SWAP2 SWAP1 PUSH2 0x3182 JUMP JUMPDEST PUSH1 0x5 DUP2 SWAP1 SSTORE POP PUSH1 0x2 DUP3 PUSH2 0x8F5 SWAP2 SWAP1 PUSH2 0x3182 JUMP JUMPDEST PUSH1 0x7 PUSH1 0x0 DUP3 DUP3 SLOAD PUSH2 0x906 SWAP2 SWAP1 PUSH2 0x30FB JUMP JUMPDEST SWAP3 POP POP DUP2 SWAP1 SSTORE POP POP POP POP POP JUMP JUMPDEST PUSH1 0x1 PUSH1 0x0 SWAP1 SLOAD SWAP1 PUSH2 0x100 EXP SWAP1 DIV PUSH20 0xFFFFFFFFFFFFFFFFFFFFFFFFFFFFFFFFFFFFFFFF AND DUP2 JUMP JUMPDEST PUSH1 0x0 PUSH2 0x944 DUP3 PUSH2 0x25CE JUMP JUMPDEST EQ ISZERO PUSH2 0x94F JUMPI PUSH1 0x0 DUP1 REVERT JUMPDEST PUSH1 0x0 PUSH1 0x61 DUP4 PUSH2 0x95E SWAP2 SWAP1 PUSH2 0x3182 JUMP JUMPDEST SWAP1 POP PUSH1 0x1 PUSH2 0x96B DUP4 PUSH2 0x25CE JUMP JUMPDEST EQ ISZERO PUSH2 0xC68 JUMPI DUP3 PUSH1 0x1 PUSH1 0x0 SWAP1 SLOAD SWAP1 PUSH2 0x100 EXP SWAP1 DIV PUSH20 0xFFFFFFFFFFFFFFFFFFFFFFFFFFFFFFFFFFFFFFFF AND PUSH20 0xFFFFFFFFFFFFFFFFFFFFFFFFFFFFFFFFFFFFFFFF AND PUSH4 0xDD62ED3E CALLER ADDRESS PUSH1 0x40 MLOAD DUP4 PUSH4 0xFFFFFFFF AND PUSH1 0xE0 SHL DUP2 MSTORE PUSH1 0x4 ADD PUSH2 0x9CF SWAP3 SWAP2 SWAP1 PUSH2 0x2EA2 JUMP JUMPDEST PUSH1 0x20 PUSH1 0x40 MLOAD DUP1 DUP4 SUB DUP2 DUP7 DUP1 EXTCODESIZE ISZERO DUP1 ISZERO PUSH2 0x9E7 JUMPI PUSH1 0x0 DUP1 REVERT JUMPDEST POP GAS STATICCALL ISZERO DUP1 ISZERO PUSH2 0x9FB JUMPI RETURNDATASIZE PUSH1 0x0 DUP1 RETURNDATACOPY RETURNDATASIZE PUSH1 0x0 REVERT JUMPDEST POP POP POP POP PUSH1 0x40 MLOAD RETURNDATASIZE PUSH1 0x1F NOT PUSH1 0x1F DUP3 ADD AND DUP3 ADD DUP1 PUSH1 0x40 MSTORE POP DUP2 ADD SWAP1 PUSH2 0xA1F SWAP2 SWAP1 PUSH2 0x2AAE JUMP JUMPDEST LT ISZERO PUSH2 0xA60 JUMPI PUSH1 0x40 MLOAD PUSH32 0x8C379A000000000000000000000000000000000000000000000000000000000 DUP2 MSTORE PUSH1 0x4 ADD PUSH2 0xA57 SWAP1 PUSH2 0x3023 JUMP JUMPDEST PUSH1 0x40 MLOAD DUP1 SWAP2 SUB SWAP1 REVERT JUMPDEST PUSH1 0x0 DUP2 PUSH1 0x8 SLOAD PUSH2 0xA70 SWAP2 SWAP1 PUSH2 0x30FB JUMP JUMPDEST PUSH1 0x9 SLOAD DUP4 PUSH2 0xA7E SWAP2 SWAP1 PUSH2 0x3182 JUMP JUMPDEST PUSH2 0xA88 SWAP2 SWAP1 PUSH2 0x3151 JUMP JUMPDEST SWAP1 POP PUSH1 0x9 SLOAD DUP2 LT PUSH2 0xACE JUMPI PUSH1 0x40 MLOAD PUSH32 0x8C379A000000000000000000000000000000000000000000000000000000000 DUP2 MSTORE PUSH1 0x4 ADD PUSH2 0xAC5 SWAP1 PUSH2 0x3043 JUMP JUMPDEST PUSH1 0x40 MLOAD DUP1 SWAP2 SUB SWAP1 REVERT JUMPDEST PUSH1 0x1 PUSH1 0x0 SWAP1 SLOAD SWAP1 PUSH2 0x100 EXP SWAP1 DIV PUSH20 0xFFFFFFFFFFFFFFFFFFFFFFFFFFFFFFFFFFFFFFFF AND PUSH20 0xFFFFFFFFFFFFFFFFFFFFFFFFFFFFFFFFFFFFFFFF AND PUSH4 0x23B872DD CALLER ADDRESS DUP8 PUSH1 0x40 MLOAD DUP5 PUSH4 0xFFFFFFFF AND PUSH1 0xE0 SHL DUP2 MSTORE PUSH1 0x4 ADD PUSH2 0xB2D SWAP4 SWAP3 SWAP2 SWAP1 PUSH2 0x2ECB JUMP JUMPDEST PUSH1 0x20 PUSH1 0x40 MLOAD DUP1 DUP4 SUB DUP2 PUSH1 0x0 DUP8 DUP1 EXTCODESIZE ISZERO DUP1 ISZERO PUSH2 0xB47 JUMPI PUSH1 0x0 DUP1 REVERT JUMPDEST POP GAS CALL ISZERO DUP1 ISZERO PUSH2 0xB5B JUMPI RETURNDATASIZE PUSH1 0x0 DUP1 RETURNDATACOPY RETURNDATASIZE PUSH1 0x0 REVERT JUMPDEST POP POP POP POP PUSH1 0x40 MLOAD RETURNDATASIZE PUSH1 0x1F NOT PUSH1 0x1F DUP3 ADD AND DUP3 ADD DUP1 PUSH1 0x40 MSTORE POP DUP2 ADD SWAP1 PUSH2 0xB7F SWAP2 SWAP1 PUSH2 0x2A0B JUMP JUMPDEST POP PUSH1 0x2 PUSH1 0x0 SWAP1 SLOAD SWAP1 PUSH2 0x100 EXP SWAP1 DIV PUSH20 0xFFFFFFFFFFFFFFFFFFFFFFFFFFFFFFFFFFFFFFFF AND PUSH20 0xFFFFFFFFFFFFFFFFFFFFFFFFFFFFFFFFFFFFFFFF AND PUSH4 0xA9059CBB CALLER DUP4 PUSH1 0x40 MLOAD DUP4 PUSH4 0xFFFFFFFF AND PUSH1 0xE0 SHL DUP2 MSTORE PUSH1 0x4 ADD PUSH2 0xBDD SWAP3 SWAP2 SWAP1 PUSH2 0x2F02 JUMP JUMPDEST PUSH1 0x20 PUSH1 0x40 MLOAD DUP1 DUP4 SUB DUP2 PUSH1 0x0 DUP8 DUP1 EXTCODESIZE ISZERO DUP1 ISZERO PUSH2 0xBF7 JUMPI PUSH1 0x0 DUP1 REVERT JUMPDEST POP GAS CALL ISZERO DUP1 ISZERO PUSH2 0xC0B JUMPI RETURNDATASIZE PUSH1 0x0 DUP1 RETURNDATACOPY RETURNDATASIZE PUSH1 0x0 REVERT JUMPDEST POP POP POP POP PUSH1 0x40 MLOAD RETURNDATASIZE PUSH1 0x1F NOT PUSH1 0x1F DUP3 ADD AND DUP3 ADD DUP1 PUSH1 0x40 MSTORE POP DUP2 ADD SWAP1 PUSH2 0xC2F SWAP2 SWAP1 PUSH2 0x2A0B JUMP JUMPDEST POP DUP4 PUSH1 0x8 PUSH1 0x0 DUP3 DUP3 SLOAD PUSH2 0xC42 SWAP2 SWAP1 PUSH2 0x30FB JUMP JUMPDEST SWAP3 POP POP DUP2 SWAP1 SSTORE POP DUP1 PUSH1 0x9 PUSH1 0x0 DUP3 DUP3 SLOAD PUSH2 0xC5B SWAP2 SWAP1 PUSH2 0x31DC JUMP JUMPDEST SWAP3 POP POP DUP2 SWAP1 SSTORE POP POP PUSH2 0xF5B JUMP JUMPDEST DUP3 PUSH1 0x2 PUSH1 0x0 SWAP1 SLOAD SWAP1 PUSH2 0x100 EXP SWAP1 DIV PUSH20 0xFFFFFFFFFFFFFFFFFFFFFFFFFFFFFFFFFFFFFFFF AND PUSH20 0xFFFFFFFFFFFFFFFFFFFFFFFFFFFFFFFFFFFFFFFF AND PUSH4 0xDD62ED3E CALLER ADDRESS PUSH1 0x40 MLOAD DUP4 PUSH4 0xFFFFFFFF AND PUSH1 0xE0 SHL DUP2 MSTORE PUSH1 0x4 ADD PUSH2 0xCC6 SWAP3 SWAP2 SWAP1 PUSH2 0x2EA2 JUMP JUMPDEST PUSH1 0x20 PUSH1 0x40 MLOAD DUP1 DUP4 SUB DUP2 DUP7 DUP1 EXTCODESIZE ISZERO DUP1 ISZERO PUSH2 0xCDE JUMPI PUSH1 0x0 DUP1 REVERT JUMPDEST POP GAS STATICCALL ISZERO DUP1 ISZERO PUSH2 0xCF2 JUMPI RETURNDATASIZE PUSH1 0x0 DUP1 RETURNDATACOPY RETURNDATASIZE PUSH1 0x0 REVERT JUMPDEST POP POP POP POP PUSH1 0x40 MLOAD RETURNDATASIZE PUSH1 0x1F NOT PUSH1 0x1F DUP3 ADD AND DUP3 ADD DUP1 PUSH1 0x40 MSTORE POP DUP2 ADD SWAP1 PUSH2 0xD16 SWAP2 SWAP1 PUSH2 0x2AAE JUMP JUMPDEST LT ISZERO PUSH2 0xD57 JUMPI PUSH1 0x40 MLOAD PUSH32 0x8C379A000000000000000000000000000000000000000000000000000000000 DUP2 MSTORE PUSH1 0x4 ADD PUSH2 0xD4E SWAP1 PUSH2 0x3023 JUMP JUMPDEST PUSH1 0x40 MLOAD DUP1 SWAP2 SUB SWAP1 REVERT JUMPDEST PUSH1 0x0 DUP2 PUSH1 0x9 SLOAD PUSH2 0xD67 SWAP2 SWAP1 PUSH2 0x30FB JUMP JUMPDEST PUSH1 0x8 SLOAD DUP4 PUSH2 0xD75 SWAP2 SWAP1 PUSH2 0x3182 JUMP JUMPDEST PUSH2 0xD7F SWAP2 SWAP1 PUSH2 0x3151 JUMP JUMPDEST SWAP1 POP PUSH1 0x8 SLOAD DUP2 LT PUSH2 0xDC5 JUMPI PUSH1 0x40 MLOAD PUSH32 0x8C379A000000000000000000000000000000000000000000000000000000000 DUP2 MSTORE PUSH1 0x4 ADD PUSH2 0xDBC SWAP1 PUSH2 0x3043 JUMP JUMPDEST PUSH1 0x40 MLOAD DUP1 SWAP2 SUB SWAP1 REVERT JUMPDEST PUSH1 0x2 PUSH1 0x0 SWAP1 SLOAD SWAP1 PUSH2 0x100 EXP SWAP1 DIV PUSH20 0xFFFFFFFFFFFFFFFFFFFFFFFFFFFFFFFFFFFFFFFF AND PUSH20 0xFFFFFFFFFFFFFFFFFFFFFFFFFFFFFFFFFFFFFFFF AND PUSH4 0x23B872DD CALLER ADDRESS DUP8 PUSH1 0x40 MLOAD DUP5 PUSH4 0xFFFFFFFF AND PUSH1 0xE0 SHL DUP2 MSTORE PUSH1 0x4 ADD PUSH2 0xE24 SWAP4 SWAP3 SWAP2 SWAP1 PUSH2 0x2ECB JUMP JUMPDEST PUSH1 0x20 PUSH1 0x40 MLOAD DUP1 DUP4 SUB DUP2 PUSH1 0x0 DUP8 DUP1 EXTCODESIZE ISZERO DUP1 ISZERO PUSH2 0xE3E JUMPI PUSH1 0x0 DUP1 REVERT JUMPDEST POP GAS CALL ISZERO DUP1 ISZERO PUSH2 0xE52 JUMPI RETURNDATASIZE PUSH1 0x0 DUP1 RETURNDATACOPY RETURNDATASIZE PUSH1 0x0 REVERT JUMPDEST POP POP POP POP PUSH1 0x40 MLOAD RETURNDATASIZE PUSH1 0x1F NOT PUSH1 0x1F DUP3 ADD AND DUP3 ADD DUP1 PUSH1 0x40 MSTORE POP DUP2 ADD SWAP1 PUSH2 0xE76 SWAP2 SWAP1 PUSH2 0x2A0B JUMP JUMPDEST POP PUSH1 0x1 PUSH1 0x0 SWAP1 SLOAD SWAP1 PUSH2 0x100 EXP SWAP1 DIV PUSH20 0xFFFFFFFFFFFFFFFFFFFFFFFFFFFFFFFFFFFFFFFF AND PUSH20 0xFFFFFFFFFFFFFFFFFFFFFFFFFFFFFFFFFFFFFFFF AND PUSH4 0xA9059CBB CALLER DUP4 PUSH1 0x40 MLOAD DUP4 PUSH4 0xFFFFFFFF AND PUSH1 0xE0 SHL DUP2 MSTORE PUSH1 0x4 ADD PUSH2 0xED4 SWAP3 SWAP2 SWAP1 PUSH2 0x2F02 JUMP JUMPDEST PUSH1 0x20 PUSH1 0x40 MLOAD DUP1 DUP4 SUB DUP2 PUSH1 0x0 DUP8 DUP1 EXTCODESIZE ISZERO DUP1 ISZERO PUSH2 0xEEE JUMPI PUSH1 0x0 DUP1 REVERT JUMPDEST POP GAS CALL ISZERO DUP1 ISZERO PUSH2 0xF02 JUMPI RETURNDATASIZE PUSH1 0x0 DUP1 RETURNDATACOPY RETURNDATASIZE PUSH1 0x0 REVERT JUMPDEST POP POP POP POP PUSH1 0x40 MLOAD RETURNDATASIZE PUSH1 0x1F NOT PUSH1 0x1F DUP3 ADD AND DUP3 ADD DUP1 PUSH1 0x40 MSTORE POP DUP2 ADD SWAP1 PUSH2 0xF26 SWAP2 SWAP1 PUSH2 0x2A0B JUMP JUMPDEST POP DUP1 PUSH1 0x8 PUSH1 0x0 DUP3 DUP3 SLOAD PUSH2 0xF39 SWAP2 SWAP1 PUSH2 0x31DC JUMP JUMPDEST SWAP3 POP POP DUP2 SWAP1 SSTORE POP DUP4 PUSH1 0x9 PUSH1 0x0 DUP3 DUP3 SLOAD PUSH2 0xF52 SWAP2 SWAP1 PUSH2 0x30FB JUMP JUMPDEST SWAP3 POP POP DUP2 SWAP1 SSTORE POP POP JUMPDEST POP POP POP JUMP JUMPDEST PUSH1 0x0 PUSH1 0x9 SLOAD SWAP1 POP SWAP1 JUMP JUMPDEST PUSH1 0x3 PUSH1 0x0 SWAP1 SLOAD SWAP1 PUSH2 0x100 EXP SWAP1 DIV PUSH20 0xFFFFFFFFFFFFFFFFFFFFFFFFFFFFFFFFFFFFFFFF AND DUP2 JUMP JUMPDEST PUSH1 0x0 PUSH1 0x7 SLOAD SWAP1 POP SWAP1 JUMP JUMPDEST DUP2 PUSH1 0x3 PUSH1 0x0 SWAP1 SLOAD SWAP1 PUSH2 0x100 EXP SWAP1 DIV PUSH20 0xFFFFFFFFFFFFFFFFFFFFFFFFFFFFFFFFFFFFFFFF AND PUSH20 0xFFFFFFFFFFFFFFFFFFFFFFFFFFFFFFFFFFFFFFFF AND PUSH4 0xDD62ED3E DUP4 ADDRESS PUSH1 0x40 MLOAD DUP4 PUSH4 0xFFFFFFFF AND PUSH1 0xE0 SHL DUP2 MSTORE PUSH1 0x4 ADD PUSH2 0xFF8 SWAP3 SWAP2 SWAP1 PUSH2 0x2EA2 JUMP JUMPDEST PUSH1 0x20 PUSH1 0x40 MLOAD DUP1 DUP4 SUB DUP2 DUP7 DUP1 EXTCODESIZE ISZERO DUP1 ISZERO PUSH2 0x1010 JUMPI PUSH1 0x0 DUP1 REVERT JUMPDEST POP GAS STATICCALL ISZERO DUP1 ISZERO PUSH2 0x1024 JUMPI RETURNDATASIZE PUSH1 0x0 DUP1 RETURNDATACOPY RETURNDATASIZE PUSH1 0x0 REVERT JUMPDEST POP POP POP POP PUSH1 0x40 MLOAD RETURNDATASIZE PUSH1 0x1F NOT PUSH1 0x1F DUP3 ADD AND DUP3 ADD DUP1 PUSH1 0x40 MSTORE POP DUP2 ADD SWAP1 PUSH2 0x1048 SWAP2 SWAP1 PUSH2 0x2AAE JUMP JUMPDEST LT ISZERO PUSH1 0x3 PUSH1 0x0 SWAP1 SLOAD SWAP1 PUSH2 0x100 EXP SWAP1 DIV PUSH20 0xFFFFFFFFFFFFFFFFFFFFFFFFFFFFFFFFFFFFFFFF AND PUSH20 0xFFFFFFFFFFFFFFFFFFFFFFFFFFFFFFFFFFFFFFFF AND PUSH4 0x15070401 PUSH1 0x40 MLOAD DUP2 PUSH4 0xFFFFFFFF AND PUSH1 0xE0 SHL DUP2 MSTORE PUSH1 0x4 ADD PUSH1 0x0 PUSH1 0x40 MLOAD DUP1 DUP4 SUB DUP2 DUP7 DUP1 EXTCODESIZE ISZERO DUP1 ISZERO PUSH2 0x10B2 JUMPI PUSH1 0x0 DUP1 REVERT JUMPDEST POP GAS STATICCALL ISZERO DUP1 ISZERO PUSH2 0x10C6 JUMPI RETURNDATASIZE PUSH1 0x0 DUP1 RETURNDATACOPY RETURNDATASIZE PUSH1 0x0 REVERT JUMPDEST POP POP POP POP PUSH1 0x40 MLOAD RETURNDATASIZE PUSH1 0x0 DUP3 RETURNDATACOPY RETURNDATASIZE PUSH1 0x1F NOT PUSH1 0x1F DUP3 ADD AND DUP3 ADD DUP1 PUSH1 0x40 MSTORE POP DUP2 ADD SWAP1 PUSH2 0x10EF SWAP2 SWAP1 PUSH2 0x2A38 JUMP JUMPDEST PUSH1 0x40 MLOAD PUSH1 0x20 ADD PUSH2 0x10FF SWAP2 SWAP1 PUSH2 0x2E5A JUMP JUMPDEST PUSH1 0x40 MLOAD PUSH1 0x20 DUP2 DUP4 SUB SUB DUP2 MSTORE SWAP1 PUSH1 0x40 MSTORE SWAP1 PUSH2 0x114F JUMPI PUSH1 0x40 MLOAD PUSH32 0x8C379A000000000000000000000000000000000000000000000000000000000 DUP2 MSTORE PUSH1 0x4 ADD PUSH2 0x1146 SWAP2 SWAP1 PUSH2 0x2F61 JUMP JUMPDEST PUSH1 0x40 MLOAD DUP1 SWAP2 SUB SWAP1 REVERT JUMPDEST POP DUP2 PUSH1 0x4 PUSH1 0x0 DUP4 PUSH20 0xFFFFFFFFFFFFFFFFFFFFFFFFFFFFFFFFFFFFFFFF AND PUSH20 0xFFFFFFFFFFFFFFFFFFFFFFFFFFFFFFFFFFFFFFFF AND DUP2 MSTORE PUSH1 0x20 ADD SWAP1 DUP2 MSTORE PUSH1 0x20 ADD PUSH1 0x0 KECCAK256 SLOAD LT ISZERO PUSH2 0x119C JUMPI PUSH1 0x0 DUP1 REVERT JUMPDEST PUSH1 0x0 PUSH1 0x7 SLOAD DUP4 PUSH2 0x11AC SWAP2 SWAP1 PUSH2 0x3151 JUMP JUMPDEST SWAP1 POP PUSH1 0x0 PUSH1 0xB SLOAD PUSH1 0x9 SLOAD PUSH2 0x11C0 SWAP2 SWAP1 PUSH2 0x3182 JUMP JUMPDEST PUSH1 0xA SLOAD PUSH1 0x8 SLOAD PUSH2 0x11D0 SWAP2 SWAP1 PUSH2 0x3182 JUMP JUMPDEST PUSH2 0x11DA SWAP2 SWAP1 PUSH2 0x30FB JUMP JUMPDEST DUP3 PUSH2 0x11E5 SWAP2 SWAP1 PUSH2 0x3182 JUMP JUMPDEST SWAP1 POP PUSH1 0x0 PUSH1 0x9 SLOAD PUSH1 0x8 SLOAD GT ISZERO PUSH2 0x120C JUMPI PUSH1 0x9 SLOAD PUSH1 0x8 SLOAD PUSH2 0x1205 SWAP2 SWAP1 PUSH2 0x3151 JUMP JUMPDEST SWAP1 POP PUSH2 0x121F JUMP JUMPDEST PUSH1 0x8 SLOAD PUSH1 0x9 SLOAD PUSH2 0x121C SWAP2 SWAP1 PUSH2 0x3151 JUMP JUMPDEST SWAP1 POP JUMPDEST DUP5 PUSH1 0x7 PUSH1 0x0 DUP3 DUP3 SLOAD PUSH2 0x1231 SWAP2 SWAP1 PUSH2 0x31DC JUMP JUMPDEST SWAP3 POP POP DUP2 SWAP1 SSTORE POP DUP5 PUSH1 0x4 PUSH1 0x0 DUP7 PUSH20 0xFFFFFFFFFFFFFFFFFFFFFFFFFFFFFFFFFFFFFFFF AND PUSH20 0xFFFFFFFFFFFFFFFFFFFFFFFFFFFFFFFFFFFFFFFF AND DUP2 MSTORE PUSH1 0x20 ADD SWAP1 DUP2 MSTORE PUSH1 0x20 ADD PUSH1 0x0 KECCAK256 PUSH1 0x0 DUP3 DUP3 SLOAD PUSH2 0x1287 SWAP2 SWAP1 PUSH2 0x31DC JUMP JUMPDEST SWAP3 POP POP DUP2 SWAP1 SSTORE POP PUSH1 0x0 PUSH1 0xA SLOAD PUSH1 0x2 PUSH2 0x129F SWAP2 SWAP1 PUSH2 0x3182 JUMP JUMPDEST DUP4 PUSH2 0x12AA SWAP2 SWAP1 PUSH2 0x3151 JUMP JUMPDEST SWAP1 POP PUSH1 0x0 PUSH1 0xB SLOAD PUSH1 0x2 PUSH2 0x12BD SWAP2 SWAP1 PUSH2 0x3182 JUMP JUMPDEST DUP5 PUSH2 0x12C8 SWAP2 SWAP1 PUSH2 0x3151 JUMP JUMPDEST SWAP1 POP DUP2 PUSH1 0x8 PUSH1 0x0 DUP3 DUP3 SLOAD PUSH2 0x12DC SWAP2 SWAP1 PUSH2 0x31DC JUMP JUMPDEST SWAP3 POP POP DUP2 SWAP1 SSTORE POP DUP1 PUSH1 0x9 PUSH1 0x0 DUP3 DUP3 SLOAD PUSH2 0x12F5 SWAP2 SWAP1 PUSH2 0x31DC JUMP JUMPDEST SWAP3 POP POP DUP2 SWAP1 SSTORE POP PUSH1 0x1 PUSH1 0x0 SWAP1 SLOAD SWAP1 PUSH2 0x100 EXP SWAP1 DIV PUSH20 0xFFFFFFFFFFFFFFFFFFFFFFFFFFFFFFFFFFFFFFFF AND PUSH20 0xFFFFFFFFFFFFFFFFFFFFFFFFFFFFFFFFFFFFFFFF AND PUSH4 0xA9059CBB DUP8 DUP5 PUSH1 0x40 MLOAD DUP4 PUSH4 0xFFFFFFFF AND PUSH1 0xE0 SHL DUP2 MSTORE PUSH1 0x4 ADD PUSH2 0x1359 SWAP3 SWAP2 SWAP1 PUSH2 0x2F02 JUMP JUMPDEST PUSH1 0x20 PUSH1 0x40 MLOAD DUP1 DUP4 SUB DUP2 PUSH1 0x0 DUP8 DUP1 EXTCODESIZE ISZERO DUP1 ISZERO PUSH2 0x1373 JUMPI PUSH1 0x0 DUP1 REVERT JUMPDEST POP GAS CALL ISZERO DUP1 ISZERO PUSH2 0x1387 JUMPI RETURNDATASIZE PUSH1 0x0 DUP1 RETURNDATACOPY RETURNDATASIZE PUSH1 0x0 REVERT JUMPDEST POP POP POP POP PUSH1 0x40 MLOAD RETURNDATASIZE PUSH1 0x1F NOT PUSH1 0x1F DUP3 ADD AND DUP3 ADD DUP1 PUSH1 0x40 MSTORE POP DUP2 ADD SWAP1 PUSH2 0x13AB SWAP2 SWAP1 PUSH2 0x2A0B JUMP JUMPDEST POP PUSH1 0x2 PUSH1 0x0 SWAP1 SLOAD SWAP1 PUSH2 0x100 EXP SWAP1 DIV PUSH20 0xFFFFFFFFFFFFFFFFFFFFFFFFFFFFFFFFFFFFFFFF AND PUSH20 0xFFFFFFFFFFFFFFFFFFFFFFFFFFFFFFFFFFFFFFFF AND PUSH4 0xA9059CBB DUP8 DUP4 PUSH1 0x40 MLOAD DUP4 PUSH4 0xFFFFFFFF AND PUSH1 0xE0 SHL DUP2 MSTORE PUSH1 0x4 ADD PUSH2 0x1409 SWAP3 SWAP2 SWAP1 PUSH2 0x2F02 JUMP JUMPDEST PUSH1 0x20 PUSH1 0x40 MLOAD DUP1 DUP4 SUB DUP2 PUSH1 0x0 DUP8 DUP1 EXTCODESIZE ISZERO DUP1 ISZERO PUSH2 0x1423 JUMPI PUSH1 0x0 DUP1 REVERT JUMPDEST POP GAS CALL ISZERO DUP1 ISZERO PUSH2 0x1437 JUMPI RETURNDATASIZE PUSH1 0x0 DUP1 RETURNDATACOPY RETURNDATASIZE PUSH1 0x0 REVERT JUMPDEST POP POP POP POP PUSH1 0x40 MLOAD RETURNDATASIZE PUSH1 0x1F NOT PUSH1 0x1F DUP3 ADD AND DUP3 ADD DUP1 PUSH1 0x40 MSTORE POP DUP2 ADD SWAP1 PUSH2 0x145B SWAP2 SWAP1 PUSH2 0x2A0B JUMP JUMPDEST POP PUSH1 0x9 SLOAD PUSH1 0x8 SLOAD PUSH2 0x146C SWAP2 SWAP1 PUSH2 0x3182 JUMP JUMPDEST PUSH1 0x5 DUP2 SWAP1 SSTORE POP POP POP POP POP POP POP POP JUMP JUMPDEST PUSH1 0x0 PUSH1 0x8 SLOAD SWAP1 POP SWAP1 JUMP JUMPDEST PUSH1 0x2 PUSH1 0x0 SWAP1 SLOAD SWAP1 PUSH2 0x100 EXP SWAP1 DIV PUSH20 0xFFFFFFFFFFFFFFFFFFFFFFFFFFFFFFFFFFFFFFFF AND DUP2 JUMP JUMPDEST PUSH2 0x14B3 PUSH2 0x2760 JUMP JUMPDEST PUSH2 0x14BD PUSH1 0x0 PUSH2 0x27DE JUMP JUMPDEST JUMP JUMPDEST PUSH1 0xA SLOAD DUP2 JUMP JUMPDEST PUSH1 0x0 DUP1 PUSH1 0x0 SWAP1 SLOAD SWAP1 PUSH2 0x100 EXP SWAP1 DIV PUSH20 0xFFFFFFFFFFFFFFFFFFFFFFFFFFFFFFFFFFFFFFFF AND SWAP1 POP SWAP1 JUMP JUMPDEST PUSH1 0x0 PUSH1 0xA SLOAD DUP5 PUSH2 0x14FE SWAP2 SWAP1 PUSH2 0x3182 JUMP JUMPDEST SWAP1 POP PUSH1 0x0 PUSH1 0xB SLOAD DUP5 PUSH2 0x1510 SWAP2 SWAP1 PUSH2 0x3182 JUMP JUMPDEST SWAP1 POP DUP1 DUP3 EQ PUSH2 0x1554 JUMPI PUSH1 0x40 MLOAD PUSH32 0x8C379A000000000000000000000000000000000000000000000000000000000 DUP2 MSTORE PUSH1 0x4 ADD PUSH2 0x154B SWAP1 PUSH2 0x2FC3 JUMP JUMPDEST PUSH1 0x40 MLOAD DUP1 SWAP2 SUB SWAP1 REVERT JUMPDEST DUP5 PUSH1 0x1 PUSH1 0x0 SWAP1 SLOAD SWAP1 PUSH2 0x100 EXP SWAP1 DIV PUSH20 0xFFFFFFFFFFFFFFFFFFFFFFFFFFFFFFFFFFFFFFFF AND PUSH20 0xFFFFFFFFFFFFFFFFFFFFFFFFFFFFFFFFFFFFFFFF AND PUSH4 0xDD62ED3E DUP6 ADDRESS PUSH1 0x40 MLOAD DUP4 PUSH4 0xFFFFFFFF AND PUSH1 0xE0 SHL DUP2 MSTORE PUSH1 0x4 ADD PUSH2 0x15B2 SWAP3 SWAP2 SWAP1 PUSH2 0x2EA2 JUMP JUMPDEST PUSH1 0x20 PUSH1 0x40 MLOAD DUP1 DUP4 SUB DUP2 DUP7 DUP1 EXTCODESIZE ISZERO DUP1 ISZERO PUSH2 0x15CA JUMPI PUSH1 0x0 DUP1 REVERT JUMPDEST POP GAS STATICCALL ISZERO DUP1 ISZERO PUSH2 0x15DE JUMPI RETURNDATASIZE PUSH1 0x0 DUP1 RETURNDATACOPY RETURNDATASIZE PUSH1 0x0 REVERT JUMPDEST POP POP POP POP PUSH1 0x40 MLOAD RETURNDATASIZE PUSH1 0x1F NOT PUSH1 0x1F DUP3 ADD AND DUP3 ADD DUP1 PUSH1 0x40 MSTORE POP DUP2 ADD SWAP1 PUSH2 0x1602 SWAP2 SWAP1 PUSH2 0x2AAE JUMP JUMPDEST LT ISZERO PUSH2 0x1643 JUMPI PUSH1 0x40 MLOAD PUSH32 0x8C379A000000000000000000000000000000000000000000000000000000000 DUP2 MSTORE PUSH1 0x4 ADD PUSH2 0x163A SWAP1 PUSH2 0x2FE3 JUMP JUMPDEST PUSH1 0x40 MLOAD DUP1 SWAP2 SUB SWAP1 REVERT JUMPDEST DUP4 PUSH1 0x2 PUSH1 0x0 SWAP1 SLOAD SWAP1 PUSH2 0x100 EXP SWAP1 DIV PUSH20 0xFFFFFFFFFFFFFFFFFFFFFFFFFFFFFFFFFFFFFFFF AND PUSH20 0xFFFFFFFFFFFFFFFFFFFFFFFFFFFFFFFFFFFFFFFF AND PUSH4 0xDD62ED3E DUP6 ADDRESS PUSH1 0x40 MLOAD DUP4 PUSH4 0xFFFFFFFF AND PUSH1 0xE0 SHL DUP2 MSTORE PUSH1 0x4 ADD PUSH2 0x16A1 SWAP3 SWAP2 SWAP1 PUSH2 0x2EA2 JUMP JUMPDEST PUSH1 0x20 PUSH1 0x40 MLOAD DUP1 DUP4 SUB DUP2 DUP7 DUP1 EXTCODESIZE ISZERO DUP1 ISZERO PUSH2 0x16B9 JUMPI PUSH1 0x0 DUP1 REVERT JUMPDEST POP GAS STATICCALL ISZERO DUP1 ISZERO PUSH2 0x16CD JUMPI RETURNDATASIZE PUSH1 0x0 DUP1 RETURNDATACOPY RETURNDATASIZE PUSH1 0x0 REVERT JUMPDEST POP POP POP POP PUSH1 0x40 MLOAD RETURNDATASIZE PUSH1 0x1F NOT PUSH1 0x1F DUP3 ADD AND DUP3 ADD DUP1 PUSH1 0x40 MSTORE POP DUP2 ADD SWAP1 PUSH2 0x16F1 SWAP2 SWAP1 PUSH2 0x2AAE JUMP JUMPDEST LT ISZERO PUSH2 0x1732 JUMPI PUSH1 0x40 MLOAD PUSH32 0x8C379A000000000000000000000000000000000000000000000000000000000 DUP2 MSTORE PUSH1 0x4 ADD PUSH2 0x1729 SWAP1 PUSH2 0x2F83 JUMP JUMPDEST PUSH1 0x40 MLOAD DUP1 SWAP2 SUB SWAP1 REVERT JUMPDEST PUSH1 0x1 PUSH1 0x0 SWAP1 SLOAD SWAP1 PUSH2 0x100 EXP SWAP1 DIV PUSH20 0xFFFFFFFFFFFFFFFFFFFFFFFFFFFFFFFFFFFFFFFF AND PUSH20 0xFFFFFFFFFFFFFFFFFFFFFFFFFFFFFFFFFFFFFFFF AND PUSH4 0x23B872DD DUP5 ADDRESS DUP9 PUSH1 0x40 MLOAD DUP5 PUSH4 0xFFFFFFFF AND PUSH1 0xE0 SHL DUP2 MSTORE PUSH1 0x4 ADD PUSH2 0x1791 SWAP4 SWAP3 SWAP2 SWAP1 PUSH2 0x2ECB JUMP JUMPDEST PUSH1 0x20 PUSH1 0x40 MLOAD DUP1 DUP4 SUB DUP2 PUSH1 0x0 DUP8 DUP1 EXTCODESIZE ISZERO DUP1 ISZERO PUSH2 0x17AB JUMPI PUSH1 0x0 DUP1 REVERT JUMPDEST POP GAS CALL ISZERO DUP1 ISZERO PUSH2 0x17BF JUMPI RETURNDATASIZE PUSH1 0x0 DUP1 RETURNDATACOPY RETURNDATASIZE PUSH1 0x0 REVERT JUMPDEST POP POP POP POP PUSH1 0x40 MLOAD RETURNDATASIZE PUSH1 0x1F NOT PUSH1 0x1F DUP3 ADD AND DUP3 ADD DUP1 PUSH1 0x40 MSTORE POP DUP2 ADD SWAP1 PUSH2 0x17E3 SWAP2 SWAP1 PUSH2 0x2A0B JUMP JUMPDEST POP PUSH1 0x2 PUSH1 0x0 SWAP1 SLOAD SWAP1 PUSH2 0x100 EXP SWAP1 DIV PUSH20 0xFFFFFFFFFFFFFFFFFFFFFFFFFFFFFFFFFFFFFFFF AND PUSH20 0xFFFFFFFFFFFFFFFFFFFFFFFFFFFFFFFFFFFFFFFF AND PUSH4 0x23B872DD DUP5 ADDRESS DUP8 PUSH1 0x40 MLOAD DUP5 PUSH4 0xFFFFFFFF AND PUSH1 0xE0 SHL DUP2 MSTORE PUSH1 0x4 ADD PUSH2 0x1843 SWAP4 SWAP3 SWAP2 SWAP1 PUSH2 0x2ECB JUMP JUMPDEST PUSH1 0x20 PUSH1 0x40 MLOAD DUP1 DUP4 SUB DUP2 PUSH1 0x0 DUP8 DUP1 EXTCODESIZE ISZERO DUP1 ISZERO PUSH2 0x185D JUMPI PUSH1 0x0 DUP1 REVERT JUMPDEST POP GAS CALL ISZERO DUP1 ISZERO PUSH2 0x1871 JUMPI RETURNDATASIZE PUSH1 0x0 DUP1 RETURNDATACOPY RETURNDATASIZE PUSH1 0x0 REVERT JUMPDEST POP POP POP POP PUSH1 0x40 MLOAD RETURNDATASIZE PUSH1 0x1F NOT PUSH1 0x1F DUP3 ADD AND DUP3 ADD DUP1 PUSH1 0x40 MSTORE POP DUP2 ADD SWAP1 PUSH2 0x1895 SWAP2 SWAP1 PUSH2 0x2A0B JUMP JUMPDEST POP PUSH1 0x3 PUSH1 0x0 SWAP1 SLOAD SWAP1 PUSH2 0x100 EXP SWAP1 DIV PUSH20 0xFFFFFFFFFFFFFFFFFFFFFFFFFFFFFFFFFFFFFFFF AND PUSH20 0xFFFFFFFFFFFFFFFFFFFFFFFFFFFFFFFFFFFFFFFF AND PUSH4 0xA9059CBB DUP5 PUSH1 0x2 DUP6 PUSH2 0x18E2 SWAP2 SWAP1 PUSH2 0x3182 JUMP JUMPDEST PUSH1 0x40 MLOAD DUP4 PUSH4 0xFFFFFFFF AND PUSH1 0xE0 SHL DUP2 MSTORE PUSH1 0x4 ADD PUSH2 0x18FF SWAP3 SWAP2 SWAP1 PUSH2 0x2F02 JUMP JUMPDEST PUSH1 0x20 PUSH1 0x40 MLOAD DUP1 DUP4 SUB DUP2 PUSH1 0x0 DUP8 DUP1 EXTCODESIZE ISZERO DUP1 ISZERO PUSH2 0x1919 JUMPI PUSH1 0x0 DUP1 REVERT JUMPDEST POP GAS CALL ISZERO DUP1 ISZERO PUSH2 0x192D JUMPI RETURNDATASIZE PUSH1 0x0 DUP1 RETURNDATACOPY RETURNDATASIZE PUSH1 0x0 REVERT JUMPDEST POP POP POP POP PUSH1 0x40 MLOAD RETURNDATASIZE PUSH1 0x1F NOT PUSH1 0x1F DUP3 ADD AND DUP3 ADD DUP1 PUSH1 0x40 MSTORE POP DUP2 ADD SWAP1 PUSH2 0x1951 SWAP2 SWAP1 PUSH2 0x2A0B JUMP JUMPDEST POP PUSH1 0x2 DUP3 PUSH2 0x195F SWAP2 SWAP1 PUSH2 0x3182 JUMP JUMPDEST PUSH1 0x4 PUSH1 0x0 DUP6 PUSH20 0xFFFFFFFFFFFFFFFFFFFFFFFFFFFFFFFFFFFFFFFF AND PUSH20 0xFFFFFFFFFFFFFFFFFFFFFFFFFFFFFFFFFFFFFFFF AND DUP2 MSTORE PUSH1 0x20 ADD SWAP1 DUP2 MSTORE PUSH1 0x20 ADD PUSH1 0x0 KECCAK256 PUSH1 0x0 DUP3 DUP3 SLOAD PUSH2 0x19AD SWAP2 SWAP1 PUSH2 0x30FB JUMP JUMPDEST SWAP3 POP POP DUP2 SWAP1 SSTORE POP DUP5 PUSH1 0x8 PUSH1 0x0 DUP3 DUP3 SLOAD PUSH2 0x19C6 SWAP2 SWAP1 PUSH2 0x30FB JUMP JUMPDEST SWAP3 POP POP DUP2 SWAP1 SSTORE POP DUP4 PUSH1 0x9 PUSH1 0x0 DUP3 DUP3 SLOAD PUSH2 0x19DF SWAP2 SWAP1 PUSH2 0x30FB JUMP JUMPDEST SWAP3 POP POP DUP2 SWAP1 SSTORE POP PUSH1 0x9 SLOAD PUSH1 0x8 SLOAD PUSH2 0x19F6 SWAP2 SWAP1 PUSH2 0x3182 JUMP JUMPDEST PUSH1 0x5 DUP2 SWAP1 SSTORE POP PUSH1 0x2 DUP3 PUSH2 0x1A09 SWAP2 SWAP1 PUSH2 0x3182 JUMP JUMPDEST PUSH1 0x7 PUSH1 0x0 DUP3 DUP3 SLOAD PUSH2 0x1A1A SWAP2 SWAP1 PUSH2 0x30FB JUMP JUMPDEST SWAP3 POP POP DUP2 SWAP1 SSTORE POP POP POP POP POP POP JUMP JUMPDEST PUSH1 0x0 PUSH2 0x1A33 DUP4 PUSH2 0x25CE JUMP JUMPDEST EQ ISZERO PUSH2 0x1A3E JUMPI PUSH1 0x0 DUP1 REVERT JUMPDEST PUSH1 0x0 PUSH1 0x61 DUP5 PUSH2 0x1A4D SWAP2 SWAP1 PUSH2 0x3182 JUMP JUMPDEST SWAP1 POP PUSH1 0x1 PUSH2 0x1A5A DUP5 PUSH2 0x25CE JUMP JUMPDEST EQ ISZERO PUSH2 0x1D57 JUMPI DUP4 PUSH1 0x1 PUSH1 0x0 SWAP1 SLOAD SWAP1 PUSH2 0x100 EXP SWAP1 DIV PUSH20 0xFFFFFFFFFFFFFFFFFFFFFFFFFFFFFFFFFFFFFFFF AND PUSH20 0xFFFFFFFFFFFFFFFFFFFFFFFFFFFFFFFFFFFFFFFF AND PUSH4 0xDD62ED3E DUP5 ADDRESS PUSH1 0x40 MLOAD DUP4 PUSH4 0xFFFFFFFF AND PUSH1 0xE0 SHL DUP2 MSTORE PUSH1 0x4 ADD PUSH2 0x1ABE SWAP3 SWAP2 SWAP1 PUSH2 0x2EA2 JUMP JUMPDEST PUSH1 0x20 PUSH1 0x40 MLOAD DUP1 DUP4 SUB DUP2 DUP7 DUP1 EXTCODESIZE ISZERO DUP1 ISZERO PUSH2 0x1AD6 JUMPI PUSH1 0x0 DUP1 REVERT JUMPDEST POP GAS STATICCALL ISZERO DUP1 ISZERO PUSH2 0x1AEA JUMPI RETURNDATASIZE PUSH1 0x0 DUP1 RETURNDATACOPY RETURNDATASIZE PUSH1 0x0 REVERT JUMPDEST POP POP POP POP PUSH1 0x40 MLOAD RETURNDATASIZE PUSH1 0x1F NOT PUSH1 0x1F DUP3 ADD AND DUP3 ADD DUP1 PUSH1 0x40 MSTORE POP DUP2 ADD SWAP1 PUSH2 0x1B0E SWAP2 SWAP1 PUSH2 0x2AAE JUMP JUMPDEST LT ISZERO PUSH2 0x1B4F JUMPI PUSH1 0x40 MLOAD PUSH32 0x8C379A000000000000000000000000000000000000000000000000000000000 DUP2 MSTORE PUSH1 0x4 ADD PUSH2 0x1B46 SWAP1 PUSH2 0x3023 JUMP JUMPDEST PUSH1 0x40 MLOAD DUP1 SWAP2 SUB SWAP1 REVERT JUMPDEST PUSH1 0x0 DUP2 PUSH1 0x8 SLOAD PUSH2 0x1B5F SWAP2 SWAP1 PUSH2 0x30FB JUMP JUMPDEST PUSH1 0x9 SLOAD DUP4 PUSH2 0x1B6D SWAP2 SWAP1 PUSH2 0x3182 JUMP JUMPDEST PUSH2 0x1B77 SWAP2 SWAP1 PUSH2 0x3151 JUMP JUMPDEST SWAP1 POP PUSH1 0x9 SLOAD DUP2 LT PUSH2 0x1BBD JUMPI PUSH1 0x40 MLOAD PUSH32 0x8C379A000000000000000000000000000000000000000000000000000000000 DUP2 MSTORE PUSH1 0x4 ADD PUSH2 0x1BB4 SWAP1 PUSH2 0x3043 JUMP JUMPDEST PUSH1 0x40 MLOAD DUP1 SWAP2 SUB SWAP1 REVERT JUMPDEST PUSH1 0x1 PUSH1 0x0 SWAP1 SLOAD SWAP1 PUSH2 0x100 EXP SWAP1 DIV PUSH20 0xFFFFFFFFFFFFFFFFFFFFFFFFFFFFFFFFFFFFFFFF AND PUSH20 0xFFFFFFFFFFFFFFFFFFFFFFFFFFFFFFFFFFFFFFFF AND PUSH4 0x23B872DD DUP5 ADDRESS DUP9 PUSH1 0x40 MLOAD DUP5 PUSH4 0xFFFFFFFF AND PUSH1 0xE0 SHL DUP2 MSTORE PUSH1 0x4 ADD PUSH2 0x1C1C SWAP4 SWAP3 SWAP2 SWAP1 PUSH2 0x2ECB JUMP JUMPDEST PUSH1 0x20 PUSH1 0x40 MLOAD DUP1 DUP4 SUB DUP2 PUSH1 0x0 DUP8 DUP1 EXTCODESIZE ISZERO DUP1 ISZERO PUSH2 0x1C36 JUMPI PUSH1 0x0 DUP1 REVERT JUMPDEST POP GAS CALL ISZERO DUP1 ISZERO PUSH2 0x1C4A JUMPI RETURNDATASIZE PUSH1 0x0 DUP1 RETURNDATACOPY RETURNDATASIZE PUSH1 0x0 REVERT JUMPDEST POP POP POP POP PUSH1 0x40 MLOAD RETURNDATASIZE PUSH1 0x1F NOT PUSH1 0x1F DUP3 ADD AND DUP3 ADD DUP1 PUSH1 0x40 MSTORE POP DUP2 ADD SWAP1 PUSH2 0x1C6E SWAP2 SWAP1 PUSH2 0x2A0B JUMP JUMPDEST POP PUSH1 0x2 PUSH1 0x0 SWAP1 SLOAD SWAP1 PUSH2 0x100 EXP SWAP1 DIV PUSH20 0xFFFFFFFFFFFFFFFFFFFFFFFFFFFFFFFFFFFFFFFF AND PUSH20 0xFFFFFFFFFFFFFFFFFFFFFFFFFFFFFFFFFFFFFFFF AND PUSH4 0xA9059CBB DUP5 DUP4 PUSH1 0x40 MLOAD DUP4 PUSH4 0xFFFFFFFF AND PUSH1 0xE0 SHL DUP2 MSTORE PUSH1 0x4 ADD PUSH2 0x1CCC SWAP3 SWAP2 SWAP1 PUSH2 0x2F02 JUMP JUMPDEST PUSH1 0x20 PUSH1 0x40 MLOAD DUP1 DUP4 SUB DUP2 PUSH1 0x0 DUP8 DUP1 EXTCODESIZE ISZERO DUP1 ISZERO PUSH2 0x1CE6 JUMPI PUSH1 0x0 DUP1 REVERT JUMPDEST POP GAS CALL ISZERO DUP1 ISZERO PUSH2 0x1CFA JUMPI RETURNDATASIZE PUSH1 0x0 DUP1 RETURNDATACOPY RETURNDATASIZE PUSH1 0x0 REVERT JUMPDEST POP POP POP POP PUSH1 0x40 MLOAD RETURNDATASIZE PUSH1 0x1F NOT PUSH1 0x1F DUP3 ADD AND DUP3 ADD DUP1 PUSH1 0x40 MSTORE POP DUP2 ADD SWAP1 PUSH2 0x1D1E SWAP2 SWAP1 PUSH2 0x2A0B JUMP JUMPDEST POP DUP5 PUSH1 0x8 PUSH1 0x0 DUP3 DUP3 SLOAD PUSH2 0x1D31 SWAP2 SWAP1 PUSH2 0x30FB JUMP JUMPDEST SWAP3 POP POP DUP2 SWAP1 SSTORE POP DUP1 PUSH1 0x9 PUSH1 0x0 DUP3 DUP3 SLOAD PUSH2 0x1D4A SWAP2 SWAP1 PUSH2 0x31DC JUMP JUMPDEST SWAP3 POP POP DUP2 SWAP1 SSTORE POP POP PUSH2 0x204A JUMP JUMPDEST DUP4 PUSH1 0x2 PUSH1 0x0 SWAP1 SLOAD SWAP1 PUSH2 0x100 EXP SWAP1 DIV PUSH20 0xFFFFFFFFFFFFFFFFFFFFFFFFFFFFFFFFFFFFFFFF AND PUSH20 0xFFFFFFFFFFFFFFFFFFFFFFFFFFFFFFFFFFFFFFFF AND PUSH4 0xDD62ED3E DUP5 ADDRESS PUSH1 0x40 MLOAD DUP4 PUSH4 0xFFFFFFFF AND PUSH1 0xE0 SHL DUP2 MSTORE PUSH1 0x4 ADD PUSH2 0x1DB5 SWAP3 SWAP2 SWAP1 PUSH2 0x2EA2 JUMP JUMPDEST PUSH1 0x20 PUSH1 0x40 MLOAD DUP1 DUP4 SUB DUP2 DUP7 DUP1 EXTCODESIZE ISZERO DUP1 ISZERO PUSH2 0x1DCD JUMPI PUSH1 0x0 DUP1 REVERT JUMPDEST POP GAS STATICCALL ISZERO DUP1 ISZERO PUSH2 0x1DE1 JUMPI RETURNDATASIZE PUSH1 0x0 DUP1 RETURNDATACOPY RETURNDATASIZE PUSH1 0x0 REVERT JUMPDEST POP POP POP POP PUSH1 0x40 MLOAD RETURNDATASIZE PUSH1 0x1F NOT PUSH1 0x1F DUP3 ADD AND DUP3 ADD DUP1 PUSH1 0x40 MSTORE POP DUP2 ADD SWAP1 PUSH2 0x1E05 SWAP2 SWAP1 PUSH2 0x2AAE JUMP JUMPDEST LT ISZERO PUSH2 0x1E46 JUMPI PUSH1 0x40 MLOAD PUSH32 0x8C379A000000000000000000000000000000000000000000000000000000000 DUP2 MSTORE PUSH1 0x4 ADD PUSH2 0x1E3D SWAP1 PUSH2 0x3023 JUMP JUMPDEST PUSH1 0x40 MLOAD DUP1 SWAP2 SUB SWAP1 REVERT JUMPDEST PUSH1 0x0 DUP2 PUSH1 0x9 SLOAD PUSH2 0x1E56 SWAP2 SWAP1 PUSH2 0x30FB JUMP JUMPDEST PUSH1 0x8 SLOAD DUP4 PUSH2 0x1E64 SWAP2 SWAP1 PUSH2 0x3182 JUMP JUMPDEST PUSH2 0x1E6E SWAP2 SWAP1 PUSH2 0x3151 JUMP JUMPDEST SWAP1 POP PUSH1 0x8 SLOAD DUP2 LT PUSH2 0x1EB4 JUMPI PUSH1 0x40 MLOAD PUSH32 0x8C379A000000000000000000000000000000000000000000000000000000000 DUP2 MSTORE PUSH1 0x4 ADD PUSH2 0x1EAB SWAP1 PUSH2 0x3043 JUMP JUMPDEST PUSH1 0x40 MLOAD DUP1 SWAP2 SUB SWAP1 REVERT JUMPDEST PUSH1 0x2 PUSH1 0x0 SWAP1 SLOAD SWAP1 PUSH2 0x100 EXP SWAP1 DIV PUSH20 0xFFFFFFFFFFFFFFFFFFFFFFFFFFFFFFFFFFFFFFFF AND PUSH20 0xFFFFFFFFFFFFFFFFFFFFFFFFFFFFFFFFFFFFFFFF AND PUSH4 0x23B872DD DUP5 ADDRESS DUP9 PUSH1 0x40 MLOAD DUP5 PUSH4 0xFFFFFFFF AND PUSH1 0xE0 SHL DUP2 MSTORE PUSH1 0x4 ADD PUSH2 0x1F13 SWAP4 SWAP3 SWAP2 SWAP1 PUSH2 0x2ECB JUMP JUMPDEST PUSH1 0x20 PUSH1 0x40 MLOAD DUP1 DUP4 SUB DUP2 PUSH1 0x0 DUP8 DUP1 EXTCODESIZE ISZERO DUP1 ISZERO PUSH2 0x1F2D JUMPI PUSH1 0x0 DUP1 REVERT JUMPDEST POP GAS CALL ISZERO DUP1 ISZERO PUSH2 0x1F41 JUMPI RETURNDATASIZE PUSH1 0x0 DUP1 RETURNDATACOPY RETURNDATASIZE PUSH1 0x0 REVERT JUMPDEST POP POP POP POP PUSH1 0x40 MLOAD RETURNDATASIZE PUSH1 0x1F NOT PUSH1 0x1F DUP3 ADD AND DUP3 ADD DUP1 PUSH1 0x40 MSTORE POP DUP2 ADD SWAP1 PUSH2 0x1F65 SWAP2 SWAP1 PUSH2 0x2A0B JUMP JUMPDEST POP PUSH1 0x1 PUSH1 0x0 SWAP1 SLOAD SWAP1 PUSH2 0x100 EXP SWAP1 DIV PUSH20 0xFFFFFFFFFFFFFFFFFFFFFFFFFFFFFFFFFFFFFFFF AND PUSH20 0xFFFFFFFFFFFFFFFFFFFFFFFFFFFFFFFFFFFFFFFF AND PUSH4 0xA9059CBB DUP5 DUP4 PUSH1 0x40 MLOAD DUP4 PUSH4 0xFFFFFFFF AND PUSH1 0xE0 SHL DUP2 MSTORE PUSH1 0x4 ADD PUSH2 0x1FC3 SWAP3 SWAP2 SWAP1 PUSH2 0x2F02 JUMP JUMPDEST PUSH1 0x20 PUSH1 0x40 MLOAD DUP1 DUP4 SUB DUP2 PUSH1 0x0 DUP8 DUP1 EXTCODESIZE ISZERO DUP1 ISZERO PUSH2 0x1FDD JUMPI PUSH1 0x0 DUP1 REVERT JUMPDEST POP GAS CALL ISZERO DUP1 ISZERO PUSH2 0x1FF1 JUMPI RETURNDATASIZE PUSH1 0x0 DUP1 RETURNDATACOPY RETURNDATASIZE PUSH1 0x0 REVERT JUMPDEST POP POP POP POP PUSH1 0x40 MLOAD RETURNDATASIZE PUSH1 0x1F NOT PUSH1 0x1F DUP3 ADD AND DUP3 ADD DUP1 PUSH1 0x40 MSTORE POP DUP2 ADD SWAP1 PUSH2 0x2015 SWAP2 SWAP1 PUSH2 0x2A0B JUMP JUMPDEST POP DUP1 PUSH1 0x8 PUSH1 0x0 DUP3 DUP3 SLOAD PUSH2 0x2028 SWAP2 SWAP1 PUSH2 0x31DC JUMP JUMPDEST SWAP3 POP POP DUP2 SWAP1 SSTORE POP DUP5 PUSH1 0x9 PUSH1 0x0 DUP3 DUP3 SLOAD PUSH2 0x2041 SWAP2 SWAP1 PUSH2 0x30FB JUMP JUMPDEST SWAP3 POP POP DUP2 SWAP1 SSTORE POP POP JUMPDEST POP POP POP POP JUMP JUMPDEST PUSH1 0x0 PUSH1 0x6 SLOAD SWAP1 POP SWAP1 JUMP JUMPDEST DUP1 PUSH1 0x3 PUSH1 0x0 SWAP1 SLOAD SWAP1 PUSH2 0x100 EXP SWAP1 DIV PUSH20 0xFFFFFFFFFFFFFFFFFFFFFFFFFFFFFFFFFFFFFFFF AND PUSH20 0xFFFFFFFFFFFFFFFFFFFFFFFFFFFFFFFFFFFFFFFF AND PUSH4 0xDD62ED3E CALLER ADDRESS PUSH1 0x40 MLOAD DUP4 PUSH4 0xFFFFFFFF AND PUSH1 0xE0 SHL DUP2 MSTORE PUSH1 0x4 ADD PUSH2 0x20B8 SWAP3 SWAP2 SWAP1 PUSH2 0x2EA2 JUMP JUMPDEST PUSH1 0x20 PUSH1 0x40 MLOAD DUP1 DUP4 SUB DUP2 DUP7 DUP1 EXTCODESIZE ISZERO DUP1 ISZERO PUSH2 0x20D0 JUMPI PUSH1 0x0 DUP1 REVERT JUMPDEST POP GAS STATICCALL ISZERO DUP1 ISZERO PUSH2 0x20E4 JUMPI RETURNDATASIZE PUSH1 0x0 DUP1 RETURNDATACOPY RETURNDATASIZE PUSH1 0x0 REVERT JUMPDEST POP POP POP POP PUSH1 0x40 MLOAD RETURNDATASIZE PUSH1 0x1F NOT PUSH1 0x1F DUP3 ADD AND DUP3 ADD DUP1 PUSH1 0x40 MSTORE POP DUP2 ADD SWAP1 PUSH2 0x2108 SWAP2 SWAP1 PUSH2 0x2AAE JUMP JUMPDEST LT ISZERO PUSH1 0x3 PUSH1 0x0 SWAP1 SLOAD SWAP1 PUSH2 0x100 EXP SWAP1 DIV PUSH20 0xFFFFFFFFFFFFFFFFFFFFFFFFFFFFFFFFFFFFFFFF AND PUSH20 0xFFFFFFFFFFFFFFFFFFFFFFFFFFFFFFFFFFFFFFFF AND PUSH4 0x15070401 PUSH1 0x40 MLOAD DUP2 PUSH4 0xFFFFFFFF AND PUSH1 0xE0 SHL DUP2 MSTORE PUSH1 0x4 ADD PUSH1 0x0 PUSH1 0x40 MLOAD DUP1 DUP4 SUB DUP2 DUP7 DUP1 EXTCODESIZE ISZERO DUP1 ISZERO PUSH2 0x2172 JUMPI PUSH1 0x0 DUP1 REVERT JUMPDEST POP GAS STATICCALL ISZERO DUP1 ISZERO PUSH2 0x2186 JUMPI RETURNDATASIZE PUSH1 0x0 DUP1 RETURNDATACOPY RETURNDATASIZE PUSH1 0x0 REVERT JUMPDEST POP POP POP POP PUSH1 0x40 MLOAD RETURNDATASIZE PUSH1 0x0 DUP3 RETURNDATACOPY RETURNDATASIZE PUSH1 0x1F NOT PUSH1 0x1F DUP3 ADD AND DUP3 ADD DUP1 PUSH1 0x40 MSTORE POP DUP2 ADD SWAP1 PUSH2 0x21AF SWAP2 SWAP1 PUSH2 0x2A38 JUMP JUMPDEST PUSH1 0x40 MLOAD PUSH1 0x20 ADD PUSH2 0x21BF SWAP2 SWAP1 PUSH2 0x2E5A JUMP JUMPDEST PUSH1 0x40 MLOAD PUSH1 0x20 DUP2 DUP4 SUB SUB DUP2 MSTORE SWAP1 PUSH1 0x40 MSTORE SWAP1 PUSH2 0x220F JUMPI PUSH1 0x40 MLOAD PUSH32 0x8C379A000000000000000000000000000000000000000000000000000000000 DUP2 MSTORE PUSH1 0x4 ADD PUSH2 0x2206 SWAP2 SWAP1 PUSH2 0x2F61 JUMP JUMPDEST PUSH1 0x40 MLOAD DUP1 SWAP2 SUB SWAP1 REVERT JUMPDEST POP DUP1 PUSH1 0x4 PUSH1 0x0 CALLER PUSH20 0xFFFFFFFFFFFFFFFFFFFFFFFFFFFFFFFFFFFFFFFF AND PUSH20 0xFFFFFFFFFFFFFFFFFFFFFFFFFFFFFFFFFFFFFFFF AND DUP2 MSTORE PUSH1 0x20 ADD SWAP1 DUP2 MSTORE PUSH1 0x20 ADD PUSH1 0x0 KECCAK256 SLOAD LT ISZERO PUSH2 0x225C JUMPI PUSH1 0x0 DUP1 REVERT JUMPDEST PUSH1 0x0 PUSH1 0x7 SLOAD DUP3 PUSH2 0x226C SWAP2 SWAP1 PUSH2 0x3151 JUMP JUMPDEST SWAP1 POP PUSH1 0x0 PUSH1 0xB SLOAD PUSH1 0x9 SLOAD PUSH2 0x2280 SWAP2 SWAP1 PUSH2 0x3182 JUMP JUMPDEST PUSH1 0xA SLOAD PUSH1 0x8 SLOAD PUSH2 0x2290 SWAP2 SWAP1 PUSH2 0x3182 JUMP JUMPDEST PUSH2 0x229A SWAP2 SWAP1 PUSH2 0x30FB JUMP JUMPDEST DUP3 PUSH2 0x22A5 SWAP2 SWAP1 PUSH2 0x3182 JUMP JUMPDEST SWAP1 POP PUSH1 0x0 PUSH1 0x9 SLOAD PUSH1 0x8 SLOAD GT ISZERO PUSH2 0x22CC JUMPI PUSH1 0x9 SLOAD PUSH1 0x8 SLOAD PUSH2 0x22C5 SWAP2 SWAP1 PUSH2 0x3151 JUMP JUMPDEST SWAP1 POP PUSH2 0x22DF JUMP JUMPDEST PUSH1 0x8 SLOAD PUSH1 0x9 SLOAD PUSH2 0x22DC SWAP2 SWAP1 PUSH2 0x3151 JUMP JUMPDEST SWAP1 POP JUMPDEST DUP4 PUSH1 0x7 PUSH1 0x0 DUP3 DUP3 SLOAD PUSH2 0x22F1 SWAP2 SWAP1 PUSH2 0x31DC JUMP JUMPDEST SWAP3 POP POP DUP2 SWAP1 SSTORE POP DUP4 PUSH1 0x4 PUSH1 0x0 CALLER PUSH20 0xFFFFFFFFFFFFFFFFFFFFFFFFFFFFFFFFFFFFFFFF AND PUSH20 0xFFFFFFFFFFFFFFFFFFFFFFFFFFFFFFFFFFFFFFFF AND DUP2 MSTORE PUSH1 0x20 ADD SWAP1 DUP2 MSTORE PUSH1 0x20 ADD PUSH1 0x0 KECCAK256 PUSH1 0x0 DUP3 DUP3 SLOAD PUSH2 0x2347 SWAP2 SWAP1 PUSH2 0x31DC JUMP JUMPDEST SWAP3 POP POP DUP2 SWAP1 SSTORE POP PUSH1 0x0 PUSH1 0xA SLOAD PUSH1 0x2 PUSH2 0x235F SWAP2 SWAP1 PUSH2 0x3182 JUMP JUMPDEST DUP4 PUSH2 0x236A SWAP2 SWAP1 PUSH2 0x3151 JUMP JUMPDEST SWAP1 POP PUSH1 0x0 PUSH1 0xB SLOAD PUSH1 0x2 PUSH2 0x237D SWAP2 SWAP1 PUSH2 0x3182 JUMP JUMPDEST DUP5 PUSH2 0x2388 SWAP2 SWAP1 PUSH2 0x3151 JUMP JUMPDEST SWAP1 POP DUP2 PUSH1 0x8 PUSH1 0x0 DUP3 DUP3 SLOAD PUSH2 0x239C SWAP2 SWAP1 PUSH2 0x31DC JUMP JUMPDEST SWAP3 POP POP DUP2 SWAP1 SSTORE POP DUP1 PUSH1 0x9 PUSH1 0x0 DUP3 DUP3 SLOAD PUSH2 0x23B5 SWAP2 SWAP1 PUSH2 0x31DC JUMP JUMPDEST SWAP3 POP POP DUP2 SWAP1 SSTORE POP PUSH1 0x1 PUSH1 0x0 SWAP1 SLOAD SWAP1 PUSH2 0x100 EXP SWAP1 DIV PUSH20 0xFFFFFFFFFFFFFFFFFFFFFFFFFFFFFFFFFFFFFFFF AND PUSH20 0xFFFFFFFFFFFFFFFFFFFFFFFFFFFFFFFFFFFFFFFF AND PUSH4 0xA9059CBB CALLER DUP5 PUSH1 0x40 MLOAD DUP4 PUSH4 0xFFFFFFFF AND PUSH1 0xE0 SHL DUP2 MSTORE PUSH1 0x4 ADD PUSH2 0x2419 SWAP3 SWAP2 SWAP1 PUSH2 0x2F02 JUMP JUMPDEST PUSH1 0x20 PUSH1 0x40 MLOAD DUP1 DUP4 SUB DUP2 PUSH1 0x0 DUP8 DUP1 EXTCODESIZE ISZERO DUP1 ISZERO PUSH2 0x2433 JUMPI PUSH1 0x0 DUP1 REVERT JUMPDEST POP GAS CALL ISZERO DUP1 ISZERO PUSH2 0x2447 JUMPI RETURNDATASIZE PUSH1 0x0 DUP1 RETURNDATACOPY RETURNDATASIZE PUSH1 0x0 REVERT JUMPDEST POP POP POP POP PUSH1 0x40 MLOAD RETURNDATASIZE PUSH1 0x1F NOT PUSH1 0x1F DUP3 ADD AND DUP3 ADD DUP1 PUSH1 0x40 MSTORE POP DUP2 ADD SWAP1 PUSH2 0x246B SWAP2 SWAP1 PUSH2 0x2A0B JUMP JUMPDEST POP PUSH1 0x2 PUSH1 0x0 SWAP1 SLOAD SWAP1 PUSH2 0x100 EXP SWAP1 DIV PUSH20 0xFFFFFFFFFFFFFFFFFFFFFFFFFFFFFFFFFFFFFFFF AND PUSH20 0xFFFFFFFFFFFFFFFFFFFFFFFFFFFFFFFFFFFFFFFF AND PUSH4 0xA9059CBB CALLER DUP4 PUSH1 0x40 MLOAD DUP4 PUSH4 0xFFFFFFFF AND PUSH1 0xE0 SHL DUP2 MSTORE PUSH1 0x4 ADD PUSH2 0x24C9 SWAP3 SWAP2 SWAP1 PUSH2 0x2F02 JUMP JUMPDEST PUSH1 0x20 PUSH1 0x40 MLOAD DUP1 DUP4 SUB DUP2 PUSH1 0x0 DUP8 DUP1 EXTCODESIZE ISZERO DUP1 ISZERO PUSH2 0x24E3 JUMPI PUSH1 0x0 DUP1 REVERT JUMPDEST POP GAS CALL ISZERO DUP1 ISZERO PUSH2 0x24F7 JUMPI RETURNDATASIZE PUSH1 0x0 DUP1 RETURNDATACOPY RETURNDATASIZE PUSH1 0x0 REVERT JUMPDEST POP POP POP POP PUSH1 0x40 MLOAD RETURNDATASIZE PUSH1 0x1F NOT PUSH1 0x1F DUP3 ADD AND DUP3 ADD DUP1 PUSH1 0x40 MSTORE POP DUP2 ADD SWAP1 PUSH2 0x251B SWAP2 SWAP1 PUSH2 0x2A0B JUMP JUMPDEST POP PUSH1 0x9 SLOAD PUSH1 0x8 SLOAD PUSH2 0x252C SWAP2 SWAP1 PUSH2 0x3182 JUMP JUMPDEST PUSH1 0x5 DUP2 SWAP1 SSTORE POP POP POP POP POP POP POP JUMP JUMPDEST PUSH1 0xB SLOAD DUP2 JUMP JUMPDEST PUSH1 0x0 PUSH1 0x5 SLOAD SWAP1 POP SWAP1 JUMP JUMPDEST PUSH2 0x2552 PUSH2 0x2760 JUMP JUMPDEST PUSH1 0x0 PUSH20 0xFFFFFFFFFFFFFFFFFFFFFFFFFFFFFFFFFFFFFFFF AND DUP2 PUSH20 0xFFFFFFFFFFFFFFFFFFFFFFFFFFFFFFFFFFFFFFFF AND EQ ISZERO PUSH2 0x25C2 JUMPI PUSH1 0x40 MLOAD PUSH32 0x8C379A000000000000000000000000000000000000000000000000000000000 DUP2 MSTORE PUSH1 0x4 ADD PUSH2 0x25B9 SWAP1 PUSH2 0x2FA3 JUMP JUMPDEST PUSH1 0x40 MLOAD DUP1 SWAP2 SUB SWAP1 REVERT JUMPDEST PUSH2 0x25CB DUP2 PUSH2 0x27DE JUMP JUMPDEST POP JUMP JUMPDEST PUSH1 0x0 PUSH1 0x1 PUSH1 0x0 SWAP1 SLOAD SWAP1 PUSH2 0x100 EXP SWAP1 DIV PUSH20 0xFFFFFFFFFFFFFFFFFFFFFFFFFFFFFFFFFFFFFFFF AND PUSH20 0xFFFFFFFFFFFFFFFFFFFFFFFFFFFFFFFFFFFFFFFF AND PUSH4 0x15070401 PUSH1 0x40 MLOAD DUP2 PUSH4 0xFFFFFFFF AND PUSH1 0xE0 SHL DUP2 MSTORE PUSH1 0x4 ADD PUSH1 0x0 PUSH1 0x40 MLOAD DUP1 DUP4 SUB DUP2 DUP7 DUP1 EXTCODESIZE ISZERO DUP1 ISZERO PUSH2 0x2638 JUMPI PUSH1 0x0 DUP1 REVERT JUMPDEST POP GAS STATICCALL ISZERO DUP1 ISZERO PUSH2 0x264C JUMPI RETURNDATASIZE PUSH1 0x0 DUP1 RETURNDATACOPY RETURNDATASIZE PUSH1 0x0 REVERT JUMPDEST POP POP POP POP PUSH1 0x40 MLOAD RETURNDATASIZE PUSH1 0x0 DUP3 RETURNDATACOPY RETURNDATASIZE PUSH1 0x1F NOT PUSH1 0x1F DUP3 ADD AND DUP3 ADD DUP1 PUSH1 0x40 MSTORE POP DUP2 ADD SWAP1 PUSH2 0x2675 SWAP2 SWAP1 PUSH2 0x2A38 JUMP JUMPDEST DUP1 MLOAD SWAP1 PUSH1 0x20 ADD KECCAK256 DUP3 DUP1 MLOAD SWAP1 PUSH1 0x20 ADD KECCAK256 EQ ISZERO PUSH2 0x2693 JUMPI PUSH1 0x1 SWAP1 POP PUSH2 0x275B JUMP JUMPDEST PUSH1 0x2 PUSH1 0x0 SWAP1 SLOAD SWAP1 PUSH2 0x100 EXP SWAP1 DIV PUSH20 0xFFFFFFFFFFFFFFFFFFFFFFFFFFFFFFFFFFFFFFFF AND PUSH20 0xFFFFFFFFFFFFFFFFFFFFFFFFFFFFFFFFFFFFFFFF AND PUSH4 0x15070401 PUSH1 0x40 MLOAD DUP2 PUSH4 0xFFFFFFFF AND PUSH1 0xE0 SHL DUP2 MSTORE PUSH1 0x4 ADD PUSH1 0x0 PUSH1 0x40 MLOAD DUP1 DUP4 SUB DUP2 DUP7 DUP1 EXTCODESIZE ISZERO DUP1 ISZERO PUSH2 0x26FB JUMPI PUSH1 0x0 DUP1 REVERT JUMPDEST POP GAS STATICCALL ISZERO DUP1 ISZERO PUSH2 0x270F JUMPI RETURNDATASIZE PUSH1 0x0 DUP1 RETURNDATACOPY RETURNDATASIZE PUSH1 0x0 REVERT JUMPDEST POP POP POP POP PUSH1 0x40 MLOAD RETURNDATASIZE PUSH1 0x0 DUP3 RETURNDATACOPY RETURNDATASIZE PUSH1 0x1F NOT PUSH1 0x1F DUP3 ADD AND DUP3 ADD DUP1 PUSH1 0x40 MSTORE POP DUP2 ADD SWAP1 PUSH2 0x2738 SWAP2 SWAP1 PUSH2 0x2A38 JUMP JUMPDEST DUP1 MLOAD SWAP1 PUSH1 0x20 ADD KECCAK256 DUP3 DUP1 MLOAD SWAP1 PUSH1 0x20 ADD KECCAK256 EQ ISZERO PUSH2 0x2756 JUMPI PUSH1 0x2 SWAP1 POP PUSH2 0x275B JUMP JUMPDEST PUSH1 0x0 SWAP1 POP JUMPDEST SWAP2 SWAP1 POP JUMP JUMPDEST PUSH2 0x2768 PUSH2 0x28A2 JUMP JUMPDEST PUSH20 0xFFFFFFFFFFFFFFFFFFFFFFFFFFFFFFFFFFFFFFFF AND PUSH2 0x2786 PUSH2 0x14C5 JUMP JUMPDEST PUSH20 0xFFFFFFFFFFFFFFFFFFFFFFFFFFFFFFFFFFFFFFFF AND EQ PUSH2 0x27DC JUMPI PUSH1 0x40 MLOAD PUSH32 0x8C379A000000000000000000000000000000000000000000000000000000000 DUP2 MSTORE PUSH1 0x4 ADD PUSH2 0x27D3 SWAP1 PUSH2 0x3003 JUMP JUMPDEST PUSH1 0x40 MLOAD DUP1 SWAP2 SUB SWAP1 REVERT JUMPDEST JUMP JUMPDEST PUSH1 0x0 DUP1 PUSH1 0x0 SWAP1 SLOAD SWAP1 PUSH2 0x100 EXP SWAP1 DIV PUSH20 0xFFFFFFFFFFFFFFFFFFFFFFFFFFFFFFFFFFFFFFFF AND SWAP1 POP DUP2 PUSH1 0x0 DUP1 PUSH2 0x100 EXP DUP2 SLOAD DUP2 PUSH20 0xFFFFFFFFFFFFFFFFFFFFFFFFFFFFFFFFFFFFFFFF MUL NOT AND SWAP1 DUP4 PUSH20 0xFFFFFFFFFFFFFFFFFFFFFFFFFFFFFFFFFFFFFFFF AND MUL OR SWAP1 SSTORE POP DUP2 PUSH20 0xFFFFFFFFFFFFFFFFFFFFFFFFFFFFFFFFFFFFFFFF AND DUP2 PUSH20 0xFFFFFFFFFFFFFFFFFFFFFFFFFFFFFFFFFFFFFFFF AND PUSH32 0x8BE0079C531659141344CD1FD0A4F28419497F9722A3DAAFE3B4186F6B6457E0 PUSH1 0x40 MLOAD PUSH1 0x40 MLOAD DUP1 SWAP2 SUB SWAP1 LOG3 POP POP JUMP JUMPDEST PUSH1 0x0 CALLER SWAP1 POP SWAP1 JUMP JUMPDEST PUSH1 0x0 PUSH2 0x28BD PUSH2 0x28B8 DUP5 PUSH2 0x30A3 JUMP JUMPDEST PUSH2 0x307E JUMP JUMPDEST SWAP1 POP DUP3 DUP2 MSTORE PUSH1 0x20 DUP2 ADD DUP5 DUP5 DUP5 ADD GT ISZERO PUSH2 0x28D9 JUMPI PUSH2 0x28D8 PUSH2 0x33A5 JUMP JUMPDEST JUMPDEST PUSH2 0x28E4 DUP5 DUP3 DUP6 PUSH2 0x32A0 JUMP JUMPDEST POP SWAP4 SWAP3 POP POP POP JUMP JUMPDEST PUSH1 0x0 PUSH2 0x28FF PUSH2 0x28FA DUP5 PUSH2 0x30A3 JUMP JUMPDEST PUSH2 0x307E JUMP JUMPDEST SWAP1 POP DUP3 DUP2 MSTORE PUSH1 0x20 DUP2 ADD DUP5 DUP5 DUP5 ADD GT ISZERO PUSH2 0x291B JUMPI PUSH2 0x291A PUSH2 0x33A5 JUMP JUMPDEST JUMPDEST PUSH2 0x2926 DUP5 DUP3 DUP6 PUSH2 0x32AF JUMP JUMPDEST POP SWAP4 SWAP3 POP POP POP JUMP JUMPDEST PUSH1 0x0 DUP2 CALLDATALOAD SWAP1 POP PUSH2 0x293D DUP2 PUSH2 0x361A JUMP JUMPDEST SWAP3 SWAP2 POP POP JUMP JUMPDEST PUSH1 0x0 DUP2 MLOAD SWAP1 POP PUSH2 0x2952 DUP2 PUSH2 0x3631 JUMP JUMPDEST SWAP3 SWAP2 POP POP JUMP JUMPDEST PUSH1 0x0 DUP3 PUSH1 0x1F DUP4 ADD SLT PUSH2 0x296D JUMPI PUSH2 0x296C PUSH2 0x33A0 JUMP JUMPDEST JUMPDEST DUP2 CALLDATALOAD PUSH2 0x297D DUP5 DUP3 PUSH1 0x20 DUP7 ADD PUSH2 0x28AA JUMP JUMPDEST SWAP2 POP POP SWAP3 SWAP2 POP POP JUMP JUMPDEST PUSH1 0x0 DUP3 PUSH1 0x1F DUP4 ADD SLT PUSH2 0x299B JUMPI PUSH2 0x299A PUSH2 0x33A0 JUMP JUMPDEST JUMPDEST DUP2 MLOAD PUSH2 0x29AB DUP5 DUP3 PUSH1 0x20 DUP7 ADD PUSH2 0x28EC JUMP JUMPDEST SWAP2 POP POP SWAP3 SWAP2 POP POP JUMP JUMPDEST PUSH1 0x0 DUP2 CALLDATALOAD SWAP1 POP PUSH2 0x29C3 DUP2 PUSH2 0x3648 JUMP JUMPDEST SWAP3 SWAP2 POP POP JUMP JUMPDEST PUSH1 0x0 DUP2 MLOAD SWAP1 POP PUSH2 0x29D8 DUP2 PUSH2 0x3648 JUMP JUMPDEST SWAP3 SWAP2 POP POP JUMP JUMPDEST PUSH1 0x0 PUSH1 0x20 DUP3 DUP5 SUB SLT ISZERO PUSH2 0x29F4 JUMPI PUSH2 0x29F3 PUSH2 0x33AF JUMP JUMPDEST JUMPDEST PUSH1 0x0 PUSH2 0x2A02 DUP5 DUP3 DUP6 ADD PUSH2 0x292E JUMP JUMPDEST SWAP2 POP POP SWAP3 SWAP2 POP POP JUMP JUMPDEST PUSH1 0x0 PUSH1 0x20 DUP3 DUP5 SUB SLT ISZERO PUSH2 0x2A21 JUMPI PUSH2 0x2A20 PUSH2 0x33AF JUMP JUMPDEST JUMPDEST PUSH1 0x0 PUSH2 0x2A2F DUP5 DUP3 DUP6 ADD PUSH2 0x2943 JUMP JUMPDEST SWAP2 POP POP SWAP3 SWAP2 POP POP JUMP JUMPDEST PUSH1 0x0 PUSH1 0x20 DUP3 DUP5 SUB SLT ISZERO PUSH2 0x2A4E JUMPI PUSH2 0x2A4D PUSH2 0x33AF JUMP JUMPDEST JUMPDEST PUSH1 0x0 DUP3 ADD MLOAD PUSH8 0xFFFFFFFFFFFFFFFF DUP2 GT ISZERO PUSH2 0x2A6C JUMPI PUSH2 0x2A6B PUSH2 0x33AA JUMP JUMPDEST JUMPDEST PUSH2 0x2A78 DUP5 DUP3 DUP6 ADD PUSH2 0x2986 JUMP JUMPDEST SWAP2 POP POP SWAP3 SWAP2 POP POP JUMP JUMPDEST PUSH1 0x0 PUSH1 0x20 DUP3 DUP5 SUB SLT ISZERO PUSH2 0x2A97 JUMPI PUSH2 0x2A96 PUSH2 0x33AF JUMP JUMPDEST JUMPDEST PUSH1 0x0 PUSH2 0x2AA5 DUP5 DUP3 DUP6 ADD PUSH2 0x29B4 JUMP JUMPDEST SWAP2 POP POP SWAP3 SWAP2 POP POP JUMP JUMPDEST PUSH1 0x0 PUSH1 0x20 DUP3 DUP5 SUB SLT ISZERO PUSH2 0x2AC4 JUMPI PUSH2 0x2AC3 PUSH2 0x33AF JUMP JUMPDEST JUMPDEST PUSH1 0x0 PUSH2 0x2AD2 DUP5 DUP3 DUP6 ADD PUSH2 0x29C9 JUMP JUMPDEST SWAP2 POP POP SWAP3 SWAP2 POP POP JUMP JUMPDEST PUSH1 0x0 DUP1 PUSH1 0x40 DUP4 DUP6 SUB SLT ISZERO PUSH2 0x2AF2 JUMPI PUSH2 0x2AF1 PUSH2 0x33AF JUMP JUMPDEST JUMPDEST PUSH1 0x0 PUSH2 0x2B00 DUP6 DUP3 DUP7 ADD PUSH2 0x29B4 JUMP JUMPDEST SWAP3 POP POP PUSH1 0x20 PUSH2 0x2B11 DUP6 DUP3 DUP7 ADD PUSH2 0x292E JUMP JUMPDEST SWAP2 POP POP SWAP3 POP SWAP3 SWAP1 POP JUMP JUMPDEST PUSH1 0x0 DUP1 PUSH1 0x40 DUP4 DUP6 SUB SLT ISZERO PUSH2 0x2B32 JUMPI PUSH2 0x2B31 PUSH2 0x33AF JUMP JUMPDEST JUMPDEST PUSH1 0x0 PUSH2 0x2B40 DUP6 DUP3 DUP7 ADD PUSH2 0x29B4 JUMP JUMPDEST SWAP3 POP POP PUSH1 0x20 DUP4 ADD CALLDATALOAD PUSH8 0xFFFFFFFFFFFFFFFF DUP2 GT ISZERO PUSH2 0x2B61 JUMPI PUSH2 0x2B60 PUSH2 0x33AA JUMP JUMPDEST JUMPDEST PUSH2 0x2B6D DUP6 DUP3 DUP7 ADD PUSH2 0x2958 JUMP JUMPDEST SWAP2 POP POP SWAP3 POP SWAP3 SWAP1 POP JUMP JUMPDEST PUSH1 0x0 DUP1 PUSH1 0x0 PUSH1 0x60 DUP5 DUP7 SUB SLT ISZERO PUSH2 0x2B90 JUMPI PUSH2 0x2B8F PUSH2 0x33AF JUMP JUMPDEST JUMPDEST PUSH1 0x0 PUSH2 0x2B9E DUP7 DUP3 DUP8 ADD PUSH2 0x29B4 JUMP JUMPDEST SWAP4 POP POP PUSH1 0x20 DUP5 ADD CALLDATALOAD PUSH8 0xFFFFFFFFFFFFFFFF DUP2 GT ISZERO PUSH2 0x2BBF JUMPI PUSH2 0x2BBE PUSH2 0x33AA JUMP JUMPDEST JUMPDEST PUSH2 0x2BCB DUP7 DUP3 DUP8 ADD PUSH2 0x2958 JUMP JUMPDEST SWAP3 POP POP PUSH1 0x40 PUSH2 0x2BDC DUP7 DUP3 DUP8 ADD PUSH2 0x292E JUMP JUMPDEST SWAP2 POP POP SWAP3 POP SWAP3 POP SWAP3 JUMP JUMPDEST PUSH1 0x0 DUP1 PUSH1 0x40 DUP4 DUP6 SUB SLT ISZERO PUSH2 0x2BFD JUMPI PUSH2 0x2BFC PUSH2 0x33AF JUMP JUMPDEST JUMPDEST PUSH1 0x0 PUSH2 0x2C0B DUP6 DUP3 DUP7 ADD PUSH2 0x29B4 JUMP JUMPDEST SWAP3 POP POP PUSH1 0x20 PUSH2 0x2C1C DUP6 DUP3 DUP7 ADD PUSH2 0x29B4 JUMP JUMPDEST SWAP2 POP POP SWAP3 POP SWAP3 SWAP1 POP JUMP JUMPDEST PUSH1 0x0 DUP1 PUSH1 0x0 PUSH1 0x60 DUP5 DUP7 SUB SLT ISZERO PUSH2 0x2C3F JUMPI PUSH2 0x2C3E PUSH2 0x33AF JUMP JUMPDEST JUMPDEST PUSH1 0x0 PUSH2 0x2C4D DUP7 DUP3 DUP8 ADD PUSH2 0x29B4 JUMP JUMPDEST SWAP4 POP POP PUSH1 0x20 PUSH2 0x2C5E DUP7 DUP3 DUP8 ADD PUSH2 0x29B4 JUMP JUMPDEST SWAP3 POP POP PUSH1 0x40 PUSH2 0x2C6F DUP7 DUP3 DUP8 ADD PUSH2 0x292E JUMP JUMPDEST SWAP2 POP POP SWAP3 POP SWAP3 POP SWAP3 JUMP JUMPDEST PUSH2 0x2C82 DUP2 PUSH2 0x3210 JUMP JUMPDEST DUP3 MSTORE POP POP JUMP JUMPDEST PUSH2 0x2C91 DUP2 PUSH2 0x3258 JUMP JUMPDEST DUP3 MSTORE POP POP JUMP JUMPDEST PUSH2 0x2CA0 DUP2 PUSH2 0x327C JUMP JUMPDEST DUP3 MSTORE POP POP JUMP JUMPDEST PUSH1 0x0 PUSH2 0x2CB1 DUP3 PUSH2 0x30D4 JUMP JUMPDEST PUSH2 0x2CBB DUP2 DUP6 PUSH2 0x30DF JUMP JUMPDEST SWAP4 POP PUSH2 0x2CCB DUP2 DUP6 PUSH1 0x20 DUP7 ADD PUSH2 0x32AF JUMP JUMPDEST PUSH2 0x2CD4 DUP2 PUSH2 0x33B4 JUMP JUMPDEST DUP5 ADD SWAP2 POP POP SWAP3 SWAP2 POP POP JUMP JUMPDEST PUSH1 0x0 PUSH2 0x2CEA DUP3 PUSH2 0x30D4 JUMP JUMPDEST PUSH2 0x2CF4 DUP2 DUP6 PUSH2 0x30F0 JUMP JUMPDEST SWAP4 POP PUSH2 0x2D04 DUP2 DUP6 PUSH1 0x20 DUP7 ADD PUSH2 0x32AF JUMP JUMPDEST DUP1 DUP5 ADD SWAP2 POP POP SWAP3 SWAP2 POP POP JUMP JUMPDEST PUSH1 0x0 PUSH2 0x2D1D PUSH1 0x25 DUP4 PUSH2 0x30DF JUMP JUMPDEST SWAP2 POP PUSH2 0x2D28 DUP3 PUSH2 0x33C5 JUMP JUMPDEST PUSH1 0x40 DUP3 ADD SWAP1 POP SWAP2 SWAP1 POP JUMP JUMPDEST PUSH1 0x0 PUSH2 0x2D40 PUSH1 0x26 DUP4 PUSH2 0x30DF JUMP JUMPDEST SWAP2 POP PUSH2 0x2D4B DUP3 PUSH2 0x3414 JUMP JUMPDEST PUSH1 0x40 DUP3 ADD SWAP1 POP SWAP2 SWAP1 POP JUMP JUMPDEST PUSH1 0x0 PUSH2 0x2D63 PUSH1 0x31 DUP4 PUSH2 0x30DF JUMP JUMPDEST SWAP2 POP PUSH2 0x2D6E DUP3 PUSH2 0x3463 JUMP JUMPDEST PUSH1 0x40 DUP3 ADD SWAP1 POP SWAP2 SWAP1 POP JUMP JUMPDEST PUSH1 0x0 PUSH2 0x2D86 PUSH1 0x25 DUP4 PUSH2 0x30DF JUMP JUMPDEST SWAP2 POP PUSH2 0x2D91 DUP3 PUSH2 0x34B2 JUMP JUMPDEST PUSH1 0x40 DUP3 ADD SWAP1 POP SWAP2 SWAP1 POP JUMP JUMPDEST PUSH1 0x0 PUSH2 0x2DA9 PUSH1 0xA DUP4 PUSH2 0x30F0 JUMP JUMPDEST SWAP2 POP PUSH2 0x2DB4 DUP3 PUSH2 0x3501 JUMP JUMPDEST PUSH1 0xA DUP3 ADD SWAP1 POP SWAP2 SWAP1 POP JUMP JUMPDEST PUSH1 0x0 PUSH2 0x2DCC PUSH1 0x11 DUP4 PUSH2 0x30F0 JUMP JUMPDEST SWAP2 POP PUSH2 0x2DD7 DUP3 PUSH2 0x352A JUMP JUMPDEST PUSH1 0x11 DUP3 ADD SWAP1 POP SWAP2 SWAP1 POP JUMP JUMPDEST PUSH1 0x0 PUSH2 0x2DEF PUSH1 0x20 DUP4 PUSH2 0x30DF JUMP JUMPDEST SWAP2 POP PUSH2 0x2DFA DUP3 PUSH2 0x3553 JUMP JUMPDEST PUSH1 0x20 DUP3 ADD SWAP1 POP SWAP2 SWAP1 POP JUMP JUMPDEST PUSH1 0x0 PUSH2 0x2E12 PUSH1 0x23 DUP4 PUSH2 0x30DF JUMP JUMPDEST SWAP2 POP PUSH2 0x2E1D DUP3 PUSH2 0x357C JUMP JUMPDEST PUSH1 0x40 DUP3 ADD SWAP1 POP SWAP2 SWAP1 POP JUMP JUMPDEST PUSH1 0x0 PUSH2 0x2E35 PUSH1 0x27 DUP4 PUSH2 0x30DF JUMP JUMPDEST SWAP2 POP PUSH2 0x2E40 DUP3 PUSH2 0x35CB JUMP JUMPDEST PUSH1 0x40 DUP3 ADD SWAP1 POP SWAP2 SWAP1 POP JUMP JUMPDEST PUSH2 0x2E54 DUP2 PUSH2 0x324E JUMP JUMPDEST DUP3 MSTORE POP POP JUMP JUMPDEST PUSH1 0x0 PUSH2 0x2E65 DUP3 PUSH2 0x2D9C JUMP JUMPDEST SWAP2 POP PUSH2 0x2E71 DUP3 DUP5 PUSH2 0x2CDF JUMP JUMPDEST SWAP2 POP PUSH2 0x2E7C DUP3 PUSH2 0x2DBF JUMP JUMPDEST SWAP2 POP DUP2 SWAP1 POP SWAP3 SWAP2 POP POP JUMP JUMPDEST PUSH1 0x0 PUSH1 0x20 DUP3 ADD SWAP1 POP PUSH2 0x2E9C PUSH1 0x0 DUP4 ADD DUP5 PUSH2 0x2C79 JUMP JUMPDEST SWAP3 SWAP2 POP POP JUMP JUMPDEST PUSH1 0x0 PUSH1 0x40 DUP3 ADD SWAP1 POP PUSH2 0x2EB7 PUSH1 0x0 DUP4 ADD DUP6 PUSH2 0x2C79 JUMP JUMPDEST PUSH2 0x2EC4 PUSH1 0x20 DUP4 ADD DUP5 PUSH2 0x2C79 JUMP JUMPDEST SWAP4 SWAP3 POP POP POP JUMP JUMPDEST PUSH1 0x0 PUSH1 0x60 DUP3 ADD SWAP1 POP PUSH2 0x2EE0 PUSH1 0x0 DUP4 ADD DUP7 PUSH2 0x2C79 JUMP JUMPDEST PUSH2 0x2EED PUSH1 0x20 DUP4 ADD DUP6 PUSH2 0x2C79 JUMP JUMPDEST PUSH2 0x2EFA PUSH1 0x40 DUP4 ADD DUP5 PUSH2 0x2E4B JUMP JUMPDEST SWAP5 SWAP4 POP POP POP POP JUMP JUMPDEST PUSH1 0x0 PUSH1 0x40 DUP3 ADD SWAP1 POP PUSH2 0x2F17 PUSH1 0x0 DUP4 ADD DUP6 PUSH2 0x2C79 JUMP JUMPDEST PUSH2 0x2F24 PUSH1 0x20 DUP4 ADD DUP5 PUSH2 0x2E4B JUMP JUMPDEST SWAP4 SWAP3 POP POP POP JUMP JUMPDEST PUSH1 0x0 PUSH1 0x20 DUP3 ADD SWAP1 POP PUSH2 0x2F40 PUSH1 0x0 DUP4 ADD DUP5 PUSH2 0x2C88 JUMP JUMPDEST SWAP3 SWAP2 POP POP JUMP JUMPDEST PUSH1 0x0 PUSH1 0x20 DUP3 ADD SWAP1 POP PUSH2 0x2F5B PUSH1 0x0 DUP4 ADD DUP5 PUSH2 0x2C97 JUMP JUMPDEST SWAP3 SWAP2 POP POP JUMP JUMPDEST PUSH1 0x0 PUSH1 0x20 DUP3 ADD SWAP1 POP DUP2 DUP2 SUB PUSH1 0x0 DUP4 ADD MSTORE PUSH2 0x2F7B DUP2 DUP5 PUSH2 0x2CA6 JUMP JUMPDEST SWAP1 POP SWAP3 SWAP2 POP POP JUMP JUMPDEST PUSH1 0x0 PUSH1 0x20 DUP3 ADD SWAP1 POP DUP2 DUP2 SUB PUSH1 0x0 DUP4 ADD MSTORE PUSH2 0x2F9C DUP2 PUSH2 0x2D10 JUMP JUMPDEST SWAP1 POP SWAP2 SWAP1 POP JUMP JUMPDEST PUSH1 0x0 PUSH1 0x20 DUP3 ADD SWAP1 POP DUP2 DUP2 SUB PUSH1 0x0 DUP4 ADD MSTORE PUSH2 0x2FBC DUP2 PUSH2 0x2D33 JUMP JUMPDEST SWAP1 POP SWAP2 SWAP1 POP JUMP JUMPDEST PUSH1 0x0 PUSH1 0x20 DUP3 ADD SWAP1 POP DUP2 DUP2 SUB PUSH1 0x0 DUP4 ADD MSTORE PUSH2 0x2FDC DUP2 PUSH2 0x2D56 JUMP JUMPDEST SWAP1 POP SWAP2 SWAP1 POP JUMP JUMPDEST PUSH1 0x0 PUSH1 0x20 DUP3 ADD SWAP1 POP DUP2 DUP2 SUB PUSH1 0x0 DUP4 ADD MSTORE PUSH2 0x2FFC DUP2 PUSH2 0x2D79 JUMP JUMPDEST SWAP1 POP SWAP2 SWAP1 POP JUMP JUMPDEST PUSH1 0x0 PUSH1 0x20 DUP3 ADD SWAP1 POP DUP2 DUP2 SUB PUSH1 0x0 DUP4 ADD MSTORE PUSH2 0x301C DUP2 PUSH2 0x2DE2 JUMP JUMPDEST SWAP1 POP SWAP2 SWAP1 POP JUMP JUMPDEST PUSH1 0x0 PUSH1 0x20 DUP3 ADD SWAP1 POP DUP2 DUP2 SUB PUSH1 0x0 DUP4 ADD MSTORE PUSH2 0x303C DUP2 PUSH2 0x2E05 JUMP JUMPDEST SWAP1 POP SWAP2 SWAP1 POP JUMP JUMPDEST PUSH1 0x0 PUSH1 0x20 DUP3 ADD SWAP1 POP DUP2 DUP2 SUB PUSH1 0x0 DUP4 ADD MSTORE PUSH2 0x305C DUP2 PUSH2 0x2E28 JUMP JUMPDEST SWAP1 POP SWAP2 SWAP1 POP JUMP JUMPDEST PUSH1 0x0 PUSH1 0x20 DUP3 ADD SWAP1 POP PUSH2 0x3078 PUSH1 0x0 DUP4 ADD DUP5 PUSH2 0x2E4B JUMP JUMPDEST SWAP3 SWAP2 POP POP JUMP JUMPDEST PUSH1 0x0 PUSH2 0x3088 PUSH2 0x3099 JUMP JUMPDEST SWAP1 POP PUSH2 0x3094 DUP3 DUP3 PUSH2 0x32E2 JUMP JUMPDEST SWAP2 SWAP1 POP JUMP JUMPDEST PUSH1 0x0 PUSH1 0x40 MLOAD SWAP1 POP SWAP1 JUMP JUMPDEST PUSH1 0x0 PUSH8 0xFFFFFFFFFFFFFFFF DUP3 GT ISZERO PUSH2 0x30BE JUMPI PUSH2 0x30BD PUSH2 0x3371 JUMP JUMPDEST JUMPDEST PUSH2 0x30C7 DUP3 PUSH2 0x33B4 JUMP JUMPDEST SWAP1 POP PUSH1 0x20 DUP2 ADD SWAP1 POP SWAP2 SWAP1 POP JUMP JUMPDEST PUSH1 0x0 DUP2 MLOAD SWAP1 POP SWAP2 SWAP1 POP JUMP JUMPDEST PUSH1 0x0 DUP3 DUP3 MSTORE PUSH1 0x20 DUP3 ADD SWAP1 POP SWAP3 SWAP2 POP POP JUMP JUMPDEST PUSH1 0x0 DUP2 SWAP1 POP SWAP3 SWAP2 POP POP JUMP JUMPDEST PUSH1 0x0 PUSH2 0x3106 DUP3 PUSH2 0x324E JUMP JUMPDEST SWAP2 POP PUSH2 0x3111 DUP4 PUSH2 0x324E JUMP JUMPDEST SWAP3 POP DUP3 PUSH32 0xFFFFFFFFFFFFFFFFFFFFFFFFFFFFFFFFFFFFFFFFFFFFFFFFFFFFFFFFFFFFFFFF SUB DUP3 GT ISZERO PUSH2 0x3146 JUMPI PUSH2 0x3145 PUSH2 0x3313 JUMP JUMPDEST JUMPDEST DUP3 DUP3 ADD SWAP1 POP SWAP3 SWAP2 POP POP JUMP JUMPDEST PUSH1 0x0 PUSH2 0x315C DUP3 PUSH2 0x324E JUMP JUMPDEST SWAP2 POP PUSH2 0x3167 DUP4 PUSH2 0x324E JUMP JUMPDEST SWAP3 POP DUP3 PUSH2 0x3177 JUMPI PUSH2 0x3176 PUSH2 0x3342 JUMP JUMPDEST JUMPDEST DUP3 DUP3 DIV SWAP1 POP SWAP3 SWAP2 POP POP JUMP JUMPDEST PUSH1 0x0 PUSH2 0x318D DUP3 PUSH2 0x324E JUMP JUMPDEST SWAP2 POP PUSH2 0x3198 DUP4 PUSH2 0x324E JUMP JUMPDEST SWAP3 POP DUP2 PUSH32 0xFFFFFFFFFFFFFFFFFFFFFFFFFFFFFFFFFFFFFFFFFFFFFFFFFFFFFFFFFFFFFFFF DIV DUP4 GT DUP3 ISZERO ISZERO AND ISZERO PUSH2 0x31D1 JUMPI PUSH2 0x31D0 PUSH2 0x3313 JUMP JUMPDEST JUMPDEST DUP3 DUP3 MUL SWAP1 POP SWAP3 SWAP2 POP POP JUMP JUMPDEST PUSH1 0x0 PUSH2 0x31E7 DUP3 PUSH2 0x324E JUMP JUMPDEST SWAP2 POP PUSH2 0x31F2 DUP4 PUSH2 0x324E JUMP JUMPDEST SWAP3 POP DUP3 DUP3 LT ISZERO PUSH2 0x3205 JUMPI PUSH2 0x3204 PUSH2 0x3313 JUMP JUMPDEST JUMPDEST DUP3 DUP3 SUB SWAP1 POP SWAP3 SWAP2 POP POP JUMP JUMPDEST PUSH1 0x0 PUSH2 0x321B DUP3 PUSH2 0x322E JUMP JUMPDEST SWAP1 POP SWAP2 SWAP1 POP JUMP JUMPDEST PUSH1 0x0 DUP2 ISZERO ISZERO SWAP1 POP SWAP2 SWAP1 POP JUMP JUMPDEST PUSH1 0x0 PUSH20 0xFFFFFFFFFFFFFFFFFFFFFFFFFFFFFFFFFFFFFFFF DUP3 AND SWAP1 POP SWAP2 SWAP1 POP JUMP JUMPDEST PUSH1 0x0 DUP2 SWAP1 POP SWAP2 SWAP1 POP JUMP JUMPDEST PUSH1 0x0 PUSH2 0x3263 DUP3 PUSH2 0x326A JUMP JUMPDEST SWAP1 POP SWAP2 SWAP1 POP JUMP JUMPDEST PUSH1 0x0 PUSH2 0x3275 DUP3 PUSH2 0x322E JUMP JUMPDEST SWAP1 POP SWAP2 SWAP1 POP JUMP JUMPDEST PUSH1 0x0 PUSH2 0x3287 DUP3 PUSH2 0x328E JUMP JUMPDEST SWAP1 POP SWAP2 SWAP1 POP JUMP JUMPDEST PUSH1 0x0 PUSH2 0x3299 DUP3 PUSH2 0x322E JUMP JUMPDEST SWAP1 POP SWAP2 SWAP1 POP JUMP JUMPDEST DUP3 DUP2 DUP4 CALLDATACOPY PUSH1 0x0 DUP4 DUP4 ADD MSTORE POP POP POP JUMP JUMPDEST PUSH1 0x0 JUMPDEST DUP4 DUP2 LT ISZERO PUSH2 0x32CD JUMPI DUP1 DUP3 ADD MLOAD DUP2 DUP5 ADD MSTORE PUSH1 0x20 DUP2 ADD SWAP1 POP PUSH2 0x32B2 JUMP JUMPDEST DUP4 DUP2 GT ISZERO PUSH2 0x32DC JUMPI PUSH1 0x0 DUP5 DUP5 ADD MSTORE JUMPDEST POP POP POP POP JUMP JUMPDEST PUSH2 0x32EB DUP3 PUSH2 0x33B4 JUMP JUMPDEST DUP2 ADD DUP2 DUP2 LT PUSH8 0xFFFFFFFFFFFFFFFF DUP3 GT OR ISZERO PUSH2 0x330A JUMPI PUSH2 0x3309 PUSH2 0x3371 JUMP JUMPDEST JUMPDEST DUP1 PUSH1 0x40 MSTORE POP POP POP JUMP JUMPDEST PUSH32 0x4E487B7100000000000000000000000000000000000000000000000000000000 PUSH1 0x0 MSTORE PUSH1 0x11 PUSH1 0x4 MSTORE PUSH1 0x24 PUSH1 0x0 REVERT JUMPDEST PUSH32 0x4E487B7100000000000000000000000000000000000000000000000000000000 PUSH1 0x0 MSTORE PUSH1 0x12 PUSH1 0x4 MSTORE PUSH1 0x24 PUSH1 0x0 REVERT JUMPDEST PUSH32 0x4E487B7100000000000000000000000000000000000000000000000000000000 PUSH1 0x0 MSTORE PUSH1 0x41 PUSH1 0x4 MSTORE PUSH1 0x24 PUSH1 0x0 REVERT JUMPDEST PUSH1 0x0 DUP1 REVERT JUMPDEST PUSH1 0x0 DUP1 REVERT JUMPDEST PUSH1 0x0 DUP1 REVERT JUMPDEST PUSH1 0x0 DUP1 REVERT JUMPDEST PUSH1 0x0 PUSH1 0x1F NOT PUSH1 0x1F DUP4 ADD AND SWAP1 POP SWAP2 SWAP1 POP JUMP JUMPDEST PUSH32 0x4E6F7420656E6F756768207B746F6B656E427D2068617665206265656E20616C PUSH1 0x0 DUP3 ADD MSTORE PUSH32 0x6C6F776564000000000000000000000000000000000000000000000000000000 PUSH1 0x20 DUP3 ADD MSTORE POP JUMP JUMPDEST PUSH32 0x4F776E61626C653A206E6577206F776E657220697320746865207A65726F2061 PUSH1 0x0 DUP3 ADD MSTORE PUSH32 0x6464726573730000000000000000000000000000000000000000000000000000 PUSH1 0x20 DUP3 ADD MSTORE POP JUMP JUMPDEST PUSH32 0x5468652076616C75652070726F7669646564206973206E6F7420746865207361 PUSH1 0x0 DUP3 ADD MSTORE PUSH32 0x6D6520666F72206561636820746F6B656E000000000000000000000000000000 PUSH1 0x20 DUP3 ADD MSTORE POP JUMP JUMPDEST PUSH32 0x4E6F7420656E6F756768207B746F6B656E417D2068617665206265656E20616C PUSH1 0x0 DUP3 ADD MSTORE PUSH32 0x6C6F776564000000000000000000000000000000000000000000000000000000 PUSH1 0x20 DUP3 ADD MSTORE POP JUMP JUMPDEST PUSH32 0x4E6F7420656E6F75676800000000000000000000000000000000000000000000 PUSH1 0x0 DUP3 ADD MSTORE POP JUMP JUMPDEST PUSH32 0x68617665206265656E20616C6C6F776564000000000000000000000000000000 PUSH1 0x0 DUP3 ADD MSTORE POP JUMP JUMPDEST PUSH32 0x4F776E61626C653A2063616C6C6572206973206E6F7420746865206F776E6572 PUSH1 0x0 DUP3 ADD MSTORE POP JUMP JUMPDEST PUSH32 0x4E6F7420656E6F75676820746F6B656E732068617665206265656E20616C6C6F PUSH1 0x0 DUP3 ADD MSTORE PUSH32 0x7765640000000000000000000000000000000000000000000000000000000000 PUSH1 0x20 DUP3 ADD MSTORE POP JUMP JUMPDEST PUSH32 0x6E6F7420656E6F7567682066756E647320746F20706572666F726D207472616E PUSH1 0x0 DUP3 ADD MSTORE PUSH32 0x73616374696F6E00000000000000000000000000000000000000000000000000 PUSH1 0x20 DUP3 ADD MSTORE POP JUMP JUMPDEST PUSH2 0x3623 DUP2 PUSH2 0x3210 JUMP JUMPDEST DUP2 EQ PUSH2 0x362E JUMPI PUSH1 0x0 DUP1 REVERT JUMPDEST POP JUMP JUMPDEST PUSH2 0x363A DUP2 PUSH2 0x3222 JUMP JUMPDEST DUP2 EQ PUSH2 0x3645 JUMPI PUSH1 0x0 DUP1 REVERT JUMPDEST POP JUMP JUMPDEST PUSH2 0x3651 DUP2 PUSH2 0x324E JUMP JUMPDEST DUP2 EQ PUSH2 0x365C JUMPI PUSH1 0x0 DUP1 REVERT JUMPDEST POP JUMP INVALID LOG2 PUSH5 0x6970667358 0x22 SLT KECCAK256 0xE7 0xEB DUP10 0xF9 SWAP3 0xC3 DIFFICULTY CALLDATASIZE MULMOD 0xB5 0x27 DUP9 0xA7 0xD2 LT SWAP2 SGT 0xD9 DUP2 PUSH29 0xBCA905248AC072F3FBAF0A1264736F6C63430008060033608060405234 DUP1 ISZERO PUSH3 0x11 JUMPI PUSH1 0x0 DUP1 REVERT JUMPDEST POP PUSH1 0x40 MLOAD PUSH3 0x120E CODESIZE SUB DUP1 PUSH3 0x120E DUP4 CODECOPY DUP2 DUP2 ADD PUSH1 0x40 MSTORE DUP2 ADD SWAP1 PUSH3 0x37 SWAP2 SWAP1 PUSH3 0x20C JUMP JUMPDEST DUP4 PUSH1 0x0 SWAP1 DUP1 MLOAD SWAP1 PUSH1 0x20 ADD SWAP1 PUSH3 0x4F SWAP3 SWAP2 SWAP1 PUSH3 0xC7 JUMP JUMPDEST POP DUP3 PUSH1 0x1 SWAP1 DUP1 MLOAD SWAP1 PUSH1 0x20 ADD SWAP1 PUSH3 0x68 SWAP3 SWAP2 SWAP1 PUSH3 0xC7 JUMP JUMPDEST POP DUP2 PUSH1 0x2 DUP2 SWAP1 SSTORE POP DUP1 PUSH1 0x3 DUP2 SWAP1 SSTORE POP PUSH1 0x3 SLOAD PUSH1 0x4 PUSH1 0x0 CALLER PUSH20 0xFFFFFFFFFFFFFFFFFFFFFFFFFFFFFFFFFFFFFFFF AND PUSH20 0xFFFFFFFFFFFFFFFFFFFFFFFFFFFFFFFFFFFFFFFF AND DUP2 MSTORE PUSH1 0x20 ADD SWAP1 DUP2 MSTORE PUSH1 0x20 ADD PUSH1 0x0 KECCAK256 DUP2 SWAP1 SSTORE POP POP POP POP POP PUSH3 0x464 JUMP JUMPDEST DUP3 DUP1 SLOAD PUSH3 0xD5 SWAP1 PUSH3 0x35B JUMP JUMPDEST SWAP1 PUSH1 0x0 MSTORE PUSH1 0x20 PUSH1 0x0 KECCAK256 SWAP1 PUSH1 0x1F ADD PUSH1 0x20 SWAP1 DIV DUP2 ADD SWAP3 DUP3 PUSH3 0xF9 JUMPI PUSH1 0x0 DUP6 SSTORE PUSH3 0x145 JUMP JUMPDEST DUP3 PUSH1 0x1F LT PUSH3 0x114 JUMPI DUP1 MLOAD PUSH1 0xFF NOT AND DUP4 DUP1 ADD OR DUP6 SSTORE PUSH3 0x145 JUMP JUMPDEST DUP3 DUP1 ADD PUSH1 0x1 ADD DUP6 SSTORE DUP3 ISZERO PUSH3 0x145 JUMPI SWAP2 DUP3 ADD JUMPDEST DUP3 DUP2 GT ISZERO PUSH3 0x144 JUMPI DUP3 MLOAD DUP3 SSTORE SWAP2 PUSH1 0x20 ADD SWAP2 SWAP1 PUSH1 0x1 ADD SWAP1 PUSH3 0x127 JUMP JUMPDEST JUMPDEST POP SWAP1 POP PUSH3 0x154 SWAP2 SWAP1 PUSH3 0x158 JUMP JUMPDEST POP SWAP1 JUMP JUMPDEST JUMPDEST DUP1 DUP3 GT ISZERO PUSH3 0x173 JUMPI PUSH1 0x0 DUP2 PUSH1 0x0 SWAP1 SSTORE POP PUSH1 0x1 ADD PUSH3 0x159 JUMP JUMPDEST POP SWAP1 JUMP JUMPDEST PUSH1 0x0 PUSH3 0x18E PUSH3 0x188 DUP5 PUSH3 0x2E5 JUMP JUMPDEST PUSH3 0x2BC JUMP JUMPDEST SWAP1 POP DUP3 DUP2 MSTORE PUSH1 0x20 DUP2 ADD DUP5 DUP5 DUP5 ADD GT ISZERO PUSH3 0x1AD JUMPI PUSH3 0x1AC PUSH3 0x42A JUMP JUMPDEST JUMPDEST PUSH3 0x1BA DUP5 DUP3 DUP6 PUSH3 0x325 JUMP JUMPDEST POP SWAP4 SWAP3 POP POP POP JUMP JUMPDEST PUSH1 0x0 DUP3 PUSH1 0x1F DUP4 ADD SLT PUSH3 0x1DA JUMPI PUSH3 0x1D9 PUSH3 0x425 JUMP JUMPDEST JUMPDEST DUP2 MLOAD PUSH3 0x1EC DUP5 DUP3 PUSH1 0x20 DUP7 ADD PUSH3 0x177 JUMP JUMPDEST SWAP2 POP POP SWAP3 SWAP2 POP POP JUMP JUMPDEST PUSH1 0x0 DUP2 MLOAD SWAP1 POP PUSH3 0x206 DUP2 PUSH3 0x44A JUMP JUMPDEST SWAP3 SWAP2 POP POP JUMP JUMPDEST PUSH1 0x0 DUP1 PUSH1 0x0 DUP1 PUSH1 0x80 DUP6 DUP8 SUB SLT ISZERO PUSH3 0x229 JUMPI PUSH3 0x228 PUSH3 0x434 JUMP JUMPDEST JUMPDEST PUSH1 0x0 DUP6 ADD MLOAD PUSH8 0xFFFFFFFFFFFFFFFF DUP2 GT ISZERO PUSH3 0x24A JUMPI PUSH3 0x249 PUSH3 0x42F JUMP JUMPDEST JUMPDEST PUSH3 0x258 DUP8 DUP3 DUP9 ADD PUSH3 0x1C2 JUMP JUMPDEST SWAP5 POP POP PUSH1 0x20 DUP6 ADD MLOAD PUSH8 0xFFFFFFFFFFFFFFFF DUP2 GT ISZERO PUSH3 0x27C JUMPI PUSH3 0x27B PUSH3 0x42F JUMP JUMPDEST JUMPDEST PUSH3 0x28A DUP8 DUP3 DUP9 ADD PUSH3 0x1C2 JUMP JUMPDEST SWAP4 POP POP PUSH1 0x40 PUSH3 0x29D DUP8 DUP3 DUP9 ADD PUSH3 0x1F5 JUMP JUMPDEST SWAP3 POP POP PUSH1 0x60 PUSH3 0x2B0 DUP8 DUP3 DUP9 ADD PUSH3 0x1F5 JUMP JUMPDEST SWAP2 POP POP SWAP3 SWAP6 SWAP2 SWAP5 POP SWAP3 POP JUMP JUMPDEST PUSH1 0x0 PUSH3 0x2C8 PUSH3 0x2DB JUMP JUMPDEST SWAP1 POP PUSH3 0x2D6 DUP3 DUP3 PUSH3 0x391 JUMP JUMPDEST SWAP2 SWAP1 POP JUMP JUMPDEST PUSH1 0x0 PUSH1 0x40 MLOAD SWAP1 POP SWAP1 JUMP JUMPDEST PUSH1 0x0 PUSH8 0xFFFFFFFFFFFFFFFF DUP3 GT ISZERO PUSH3 0x303 JUMPI PUSH3 0x302 PUSH3 0x3F6 JUMP JUMPDEST JUMPDEST PUSH3 0x30E DUP3 PUSH3 0x439 JUMP JUMPDEST SWAP1 POP PUSH1 0x20 DUP2 ADD SWAP1 POP SWAP2 SWAP1 POP JUMP JUMPDEST PUSH1 0x0 DUP2 SWAP1 POP SWAP2 SWAP1 POP JUMP JUMPDEST PUSH1 0x0 JUMPDEST DUP4 DUP2 LT ISZERO PUSH3 0x345 JUMPI DUP1 DUP3 ADD MLOAD DUP2 DUP5 ADD MSTORE PUSH1 0x20 DUP2 ADD SWAP1 POP PUSH3 0x328 JUMP JUMPDEST DUP4 DUP2 GT ISZERO PUSH3 0x355 JUMPI PUSH1 0x0 DUP5 DUP5 ADD MSTORE JUMPDEST POP POP POP POP JUMP JUMPDEST PUSH1 0x0 PUSH1 0x2 DUP3 DIV SWAP1 POP PUSH1 0x1 DUP3 AND DUP1 PUSH3 0x374 JUMPI PUSH1 0x7F DUP3 AND SWAP2 POP JUMPDEST PUSH1 0x20 DUP3 LT DUP2 EQ ISZERO PUSH3 0x38B JUMPI PUSH3 0x38A PUSH3 0x3C7 JUMP JUMPDEST JUMPDEST POP SWAP2 SWAP1 POP JUMP JUMPDEST PUSH3 0x39C DUP3 PUSH3 0x439 JUMP JUMPDEST DUP2 ADD DUP2 DUP2 LT PUSH8 0xFFFFFFFFFFFFFFFF DUP3 GT OR ISZERO PUSH3 0x3BE JUMPI PUSH3 0x3BD PUSH3 0x3F6 JUMP JUMPDEST JUMPDEST DUP1 PUSH1 0x40 MSTORE POP POP POP JUMP JUMPDEST PUSH32 0x4E487B7100000000000000000000000000000000000000000000000000000000 PUSH1 0x0 MSTORE PUSH1 0x22 PUSH1 0x4 MSTORE PUSH1 0x24 PUSH1 0x0 REVERT JUMPDEST PUSH32 0x4E487B7100000000000000000000000000000000000000000000000000000000 PUSH1 0x0 MSTORE PUSH1 0x41 PUSH1 0x4 MSTORE PUSH1 0x24 PUSH1 0x0 REVERT JUMPDEST PUSH1 0x0 DUP1 REVERT JUMPDEST PUSH1 0x0 DUP1 REVERT JUMPDEST PUSH1 0x0 DUP1 REVERT JUMPDEST PUSH1 0x0 DUP1 REVERT JUMPDEST PUSH1 0x0 PUSH1 0x1F NOT PUSH1 0x1F DUP4 ADD AND SWAP1 POP SWAP2 SWAP1 POP JUMP JUMPDEST PUSH3 0x455 DUP2 PUSH3 0x31B JUMP JUMPDEST DUP2 EQ PUSH3 0x461 JUMPI PUSH1 0x0 DUP1 REVERT JUMPDEST POP JUMP JUMPDEST PUSH2 0xD9A DUP1 PUSH3 0x474 PUSH1 0x0 CODECOPY PUSH1 0x0 RETURN INVALID PUSH1 0x80 PUSH1 0x40 MSTORE CALLVALUE DUP1 ISZERO PUSH2 0x10 JUMPI PUSH1 0x0 DUP1 REVERT JUMPDEST POP PUSH1 0x4 CALLDATASIZE LT PUSH2 0xA9 JUMPI PUSH1 0x0 CALLDATALOAD PUSH1 0xE0 SHR DUP1 PUSH4 0x313CE567 GT PUSH2 0x71 JUMPI DUP1 PUSH4 0x313CE567 EQ PUSH2 0x168 JUMPI DUP1 PUSH4 0x70A08231 EQ PUSH2 0x186 JUMPI DUP1 PUSH4 0x95D89B41 EQ PUSH2 0x1B6 JUMPI DUP1 PUSH4 0xA9059CBB EQ PUSH2 0x1D4 JUMPI DUP1 PUSH4 0xC4E41B22 EQ PUSH2 0x204 JUMPI DUP1 PUSH4 0xDD62ED3E EQ PUSH2 0x222 JUMPI PUSH2 0xA9 JUMP JUMPDEST DUP1 PUSH4 0x6FDDE03 EQ PUSH2 0xAE JUMPI DUP1 PUSH4 0x95EA7B3 EQ PUSH2 0xCC JUMPI DUP1 PUSH4 0x15070401 EQ PUSH2 0xFC JUMPI DUP1 PUSH4 0x18160DDD EQ PUSH2 0x11A JUMPI DUP1 PUSH4 0x23B872DD EQ PUSH2 0x138 JUMPI JUMPDEST PUSH1 0x0 DUP1 REVERT JUMPDEST PUSH2 0xB6 PUSH2 0x252 JUMP JUMPDEST PUSH1 0x40 MLOAD PUSH2 0xC3 SWAP2 SWAP1 PUSH2 0xB32 JUMP JUMPDEST PUSH1 0x40 MLOAD DUP1 SWAP2 SUB SWAP1 RETURN JUMPDEST PUSH2 0xE6 PUSH1 0x4 DUP1 CALLDATASIZE SUB DUP2 ADD SWAP1 PUSH2 0xE1 SWAP2 SWAP1 PUSH2 0xA80 JUMP JUMPDEST PUSH2 0x2E0 JUMP JUMPDEST PUSH1 0x40 MLOAD PUSH2 0xF3 SWAP2 SWAP1 PUSH2 0xB17 JUMP JUMPDEST PUSH1 0x40 MLOAD DUP1 SWAP2 SUB SWAP1 RETURN JUMPDEST PUSH2 0x104 PUSH2 0x40B JUMP JUMPDEST PUSH1 0x40 MLOAD PUSH2 0x111 SWAP2 SWAP1 PUSH2 0xB32 JUMP JUMPDEST PUSH1 0x40 MLOAD DUP1 SWAP2 SUB SWAP1 RETURN JUMPDEST PUSH2 0x122 PUSH2 0x49D JUMP JUMPDEST PUSH1 0x40 MLOAD PUSH2 0x12F SWAP2 SWAP1 PUSH2 0xB54 JUMP JUMPDEST PUSH1 0x40 MLOAD DUP1 SWAP2 SUB SWAP1 RETURN JUMPDEST PUSH2 0x152 PUSH1 0x4 DUP1 CALLDATASIZE SUB DUP2 ADD SWAP1 PUSH2 0x14D SWAP2 SWAP1 PUSH2 0xA2D JUMP JUMPDEST PUSH2 0x4A3 JUMP JUMPDEST PUSH1 0x40 MLOAD PUSH2 0x15F SWAP2 SWAP1 PUSH2 0xB17 JUMP JUMPDEST PUSH1 0x40 MLOAD DUP1 SWAP2 SUB SWAP1 RETURN JUMPDEST PUSH2 0x170 PUSH2 0x698 JUMP JUMPDEST PUSH1 0x40 MLOAD PUSH2 0x17D SWAP2 SWAP1 PUSH2 0xB54 JUMP JUMPDEST PUSH1 0x40 MLOAD DUP1 SWAP2 SUB SWAP1 RETURN JUMPDEST PUSH2 0x1A0 PUSH1 0x4 DUP1 CALLDATASIZE SUB DUP2 ADD SWAP1 PUSH2 0x19B SWAP2 SWAP1 PUSH2 0x9C0 JUMP JUMPDEST PUSH2 0x69E JUMP JUMPDEST PUSH1 0x40 MLOAD PUSH2 0x1AD SWAP2 SWAP1 PUSH2 0xB54 JUMP JUMPDEST PUSH1 0x40 MLOAD DUP1 SWAP2 SUB SWAP1 RETURN JUMPDEST PUSH2 0x1BE PUSH2 0x6B6 JUMP JUMPDEST PUSH1 0x40 MLOAD PUSH2 0x1CB SWAP2 SWAP1 PUSH2 0xB32 JUMP JUMPDEST PUSH1 0x40 MLOAD DUP1 SWAP2 SUB SWAP1 RETURN JUMPDEST PUSH2 0x1EE PUSH1 0x4 DUP1 CALLDATASIZE SUB DUP2 ADD SWAP1 PUSH2 0x1E9 SWAP2 SWAP1 PUSH2 0xA80 JUMP JUMPDEST PUSH2 0x744 JUMP JUMPDEST PUSH1 0x40 MLOAD PUSH2 0x1FB SWAP2 SWAP1 PUSH2 0xB17 JUMP JUMPDEST PUSH1 0x40 MLOAD DUP1 SWAP2 SUB SWAP1 RETURN JUMPDEST PUSH2 0x20C PUSH2 0x7A7 JUMP JUMPDEST PUSH1 0x40 MLOAD PUSH2 0x219 SWAP2 SWAP1 PUSH2 0xB54 JUMP JUMPDEST PUSH1 0x40 MLOAD DUP1 SWAP2 SUB SWAP1 RETURN JUMPDEST PUSH2 0x23C PUSH1 0x4 DUP1 CALLDATASIZE SUB DUP2 ADD SWAP1 PUSH2 0x237 SWAP2 SWAP1 PUSH2 0x9ED JUMP JUMPDEST PUSH2 0x7B1 JUMP JUMPDEST PUSH1 0x40 MLOAD PUSH2 0x249 SWAP2 SWAP1 PUSH2 0xB54 JUMP JUMPDEST PUSH1 0x40 MLOAD DUP1 SWAP2 SUB SWAP1 RETURN JUMPDEST PUSH1 0x0 DUP1 SLOAD PUSH2 0x25F SWAP1 PUSH2 0xC90 JUMP JUMPDEST DUP1 PUSH1 0x1F ADD PUSH1 0x20 DUP1 SWAP2 DIV MUL PUSH1 0x20 ADD PUSH1 0x40 MLOAD SWAP1 DUP2 ADD PUSH1 0x40 MSTORE DUP1 SWAP3 SWAP2 SWAP1 DUP2 DUP2 MSTORE PUSH1 0x20 ADD DUP3 DUP1 SLOAD PUSH2 0x28B SWAP1 PUSH2 0xC90 JUMP JUMPDEST DUP1 ISZERO PUSH2 0x2D8 JUMPI DUP1 PUSH1 0x1F LT PUSH2 0x2AD JUMPI PUSH2 0x100 DUP1 DUP4 SLOAD DIV MUL DUP4 MSTORE SWAP2 PUSH1 0x20 ADD SWAP2 PUSH2 0x2D8 JUMP JUMPDEST DUP3 ADD SWAP2 SWAP1 PUSH1 0x0 MSTORE PUSH1 0x20 PUSH1 0x0 KECCAK256 SWAP1 JUMPDEST DUP2 SLOAD DUP2 MSTORE SWAP1 PUSH1 0x1 ADD SWAP1 PUSH1 0x20 ADD DUP1 DUP4 GT PUSH2 0x2BB JUMPI DUP3 SWAP1 SUB PUSH1 0x1F AND DUP3 ADD SWAP2 JUMPDEST POP POP POP POP POP DUP2 JUMP JUMPDEST PUSH1 0x0 DUP1 PUSH20 0xFFFFFFFFFFFFFFFFFFFFFFFFFFFFFFFFFFFFFFFF AND DUP4 PUSH20 0xFFFFFFFFFFFFFFFFFFFFFFFFFFFFFFFFFFFFFFFF AND EQ ISZERO PUSH2 0x31B JUMPI PUSH1 0x0 DUP1 REVERT JUMPDEST DUP2 PUSH1 0x5 PUSH1 0x0 CALLER PUSH20 0xFFFFFFFFFFFFFFFFFFFFFFFFFFFFFFFFFFFFFFFF AND PUSH20 0xFFFFFFFFFFFFFFFFFFFFFFFFFFFFFFFFFFFFFFFF AND DUP2 MSTORE PUSH1 0x20 ADD SWAP1 DUP2 MSTORE PUSH1 0x20 ADD PUSH1 0x0 KECCAK256 PUSH1 0x0 DUP6 PUSH20 0xFFFFFFFFFFFFFFFFFFFFFFFFFFFFFFFFFFFFFFFF AND PUSH20 0xFFFFFFFFFFFFFFFFFFFFFFFFFFFFFFFFFFFFFFFF AND DUP2 MSTORE PUSH1 0x20 ADD SWAP1 DUP2 MSTORE PUSH1 0x20 ADD PUSH1 0x0 KECCAK256 DUP2 SWAP1 SSTORE POP DUP3 PUSH20 0xFFFFFFFFFFFFFFFFFFFFFFFFFFFFFFFFFFFFFFFF AND CALLER PUSH20 0xFFFFFFFFFFFFFFFFFFFFFFFFFFFFFFFFFFFFFFFF AND PUSH32 0x8C5BE1E5EBEC7D5BD14F71427D1E84F3DD0314C0F7B2291E5B200AC8C7C3B925 DUP5 PUSH1 0x40 MLOAD PUSH2 0x3F9 SWAP2 SWAP1 PUSH2 0xB54 JUMP JUMPDEST PUSH1 0x40 MLOAD DUP1 SWAP2 SUB SWAP1 LOG3 PUSH1 0x1 SWAP1 POP SWAP3 SWAP2 POP POP JUMP JUMPDEST PUSH1 0x60 PUSH1 0x1 DUP1 SLOAD PUSH2 0x41A SWAP1 PUSH2 0xC90 JUMP JUMPDEST DUP1 PUSH1 0x1F ADD PUSH1 0x20 DUP1 SWAP2 DIV MUL PUSH1 0x20 ADD PUSH1 0x40 MLOAD SWAP1 DUP2 ADD PUSH1 0x40 MSTORE DUP1 SWAP3 SWAP2 SWAP1 DUP2 DUP2 MSTORE PUSH1 0x20 ADD DUP3 DUP1 SLOAD PUSH2 0x446 SWAP1 PUSH2 0xC90 JUMP JUMPDEST DUP1 ISZERO PUSH2 0x493 JUMPI DUP1 PUSH1 0x1F LT PUSH2 0x468 JUMPI PUSH2 0x100 DUP1 DUP4 SLOAD DIV MUL DUP4 MSTORE SWAP2 PUSH1 0x20 ADD SWAP2 PUSH2 0x493 JUMP JUMPDEST DUP3 ADD SWAP2 SWAP1 PUSH1 0x0 MSTORE PUSH1 0x20 PUSH1 0x0 KECCAK256 SWAP1 JUMPDEST DUP2 SLOAD DUP2 MSTORE SWAP1 PUSH1 0x1 ADD SWAP1 PUSH1 0x20 ADD DUP1 DUP4 GT PUSH2 0x476 JUMPI DUP3 SWAP1 SUB PUSH1 0x1F AND DUP3 ADD SWAP2 JUMPDEST POP POP POP POP POP SWAP1 POP SWAP1 JUMP JUMPDEST PUSH1 0x3 SLOAD DUP2 JUMP JUMPDEST PUSH1 0x0 PUSH1 0x4 PUSH1 0x0 DUP6 PUSH20 0xFFFFFFFFFFFFFFFFFFFFFFFFFFFFFFFFFFFFFFFF AND PUSH20 0xFFFFFFFFFFFFFFFFFFFFFFFFFFFFFFFFFFFFFFFF AND DUP2 MSTORE PUSH1 0x20 ADD SWAP1 DUP2 MSTORE PUSH1 0x20 ADD PUSH1 0x0 KECCAK256 SLOAD DUP3 GT ISZERO PUSH2 0x4F1 JUMPI PUSH1 0x0 DUP1 REVERT JUMPDEST PUSH1 0x5 PUSH1 0x0 DUP6 PUSH20 0xFFFFFFFFFFFFFFFFFFFFFFFFFFFFFFFFFFFFFFFF AND PUSH20 0xFFFFFFFFFFFFFFFFFFFFFFFFFFFFFFFFFFFFFFFF AND DUP2 MSTORE PUSH1 0x20 ADD SWAP1 DUP2 MSTORE PUSH1 0x20 ADD PUSH1 0x0 KECCAK256 PUSH1 0x0 CALLER PUSH20 0xFFFFFFFFFFFFFFFFFFFFFFFFFFFFFFFFFFFFFFFF AND PUSH20 0xFFFFFFFFFFFFFFFFFFFFFFFFFFFFFFFFFFFFFFFF AND DUP2 MSTORE PUSH1 0x20 ADD SWAP1 DUP2 MSTORE PUSH1 0x20 ADD PUSH1 0x0 KECCAK256 SLOAD DUP3 GT ISZERO PUSH2 0x57A JUMPI PUSH1 0x0 DUP1 REVERT JUMPDEST DUP2 PUSH1 0x5 PUSH1 0x0 DUP7 PUSH20 0xFFFFFFFFFFFFFFFFFFFFFFFFFFFFFFFFFFFFFFFF AND PUSH20 0xFFFFFFFFFFFFFFFFFFFFFFFFFFFFFFFFFFFFFFFF AND DUP2 MSTORE PUSH1 0x20 ADD SWAP1 DUP2 MSTORE PUSH1 0x20 ADD PUSH1 0x0 KECCAK256 PUSH1 0x0 CALLER PUSH20 0xFFFFFFFFFFFFFFFFFFFFFFFFFFFFFFFFFFFFFFFF AND PUSH20 0xFFFFFFFFFFFFFFFFFFFFFFFFFFFFFFFFFFFFFFFF AND DUP2 MSTORE PUSH1 0x20 ADD SWAP1 DUP2 MSTORE PUSH1 0x20 ADD PUSH1 0x0 KECCAK256 SLOAD PUSH2 0x602 SWAP2 SWAP1 PUSH2 0xBE1 JUMP JUMPDEST PUSH1 0x5 PUSH1 0x0 DUP7 PUSH20 0xFFFFFFFFFFFFFFFFFFFFFFFFFFFFFFFFFFFFFFFF AND PUSH20 0xFFFFFFFFFFFFFFFFFFFFFFFFFFFFFFFFFFFFFFFF AND DUP2 MSTORE PUSH1 0x20 ADD SWAP1 DUP2 MSTORE PUSH1 0x20 ADD PUSH1 0x0 KECCAK256 PUSH1 0x0 CALLER PUSH20 0xFFFFFFFFFFFFFFFFFFFFFFFFFFFFFFFFFFFFFFFF AND PUSH20 0xFFFFFFFFFFFFFFFFFFFFFFFFFFFFFFFFFFFFFFFF AND DUP2 MSTORE PUSH1 0x20 ADD SWAP1 DUP2 MSTORE PUSH1 0x20 ADD PUSH1 0x0 KECCAK256 DUP2 SWAP1 SSTORE POP PUSH2 0x68D DUP5 DUP5 DUP5 PUSH2 0x7D6 JUMP JUMPDEST PUSH1 0x1 SWAP1 POP SWAP4 SWAP3 POP POP POP JUMP JUMPDEST PUSH1 0x2 SLOAD DUP2 JUMP JUMPDEST PUSH1 0x4 PUSH1 0x20 MSTORE DUP1 PUSH1 0x0 MSTORE PUSH1 0x40 PUSH1 0x0 KECCAK256 PUSH1 0x0 SWAP2 POP SWAP1 POP SLOAD DUP2 JUMP JUMPDEST PUSH1 0x1 DUP1 SLOAD PUSH2 0x6C3 SWAP1 PUSH2 0xC90 JUMP JUMPDEST DUP1 PUSH1 0x1F ADD PUSH1 0x20 DUP1 SWAP2 DIV MUL PUSH1 0x20 ADD PUSH1 0x40 MLOAD SWAP1 DUP2 ADD PUSH1 0x40 MSTORE DUP1 SWAP3 SWAP2 SWAP1 DUP2 DUP2 MSTORE PUSH1 0x20 ADD DUP3 DUP1 SLOAD PUSH2 0x6EF SWAP1 PUSH2 0xC90 JUMP JUMPDEST DUP1 ISZERO PUSH2 0x73C JUMPI DUP1 PUSH1 0x1F LT PUSH2 0x711 JUMPI PUSH2 0x100 DUP1 DUP4 SLOAD DIV MUL DUP4 MSTORE SWAP2 PUSH1 0x20 ADD SWAP2 PUSH2 0x73C JUMP JUMPDEST DUP3 ADD SWAP2 SWAP1 PUSH1 0x0 MSTORE PUSH1 0x20 PUSH1 0x0 KECCAK256 SWAP1 JUMPDEST DUP2 SLOAD DUP2 MSTORE SWAP1 PUSH1 0x1 ADD SWAP1 PUSH1 0x20 ADD DUP1 DUP4 GT PUSH2 0x71F JUMPI DUP3 SWAP1 SUB PUSH1 0x1F AND DUP3 ADD SWAP2 JUMPDEST POP POP POP POP POP DUP2 JUMP JUMPDEST PUSH1 0x0 DUP2 PUSH1 0x4 PUSH1 0x0 CALLER PUSH20 0xFFFFFFFFFFFFFFFFFFFFFFFFFFFFFFFFFFFFFFFF AND PUSH20 0xFFFFFFFFFFFFFFFFFFFFFFFFFFFFFFFFFFFFFFFF AND DUP2 MSTORE PUSH1 0x20 ADD SWAP1 DUP2 MSTORE PUSH1 0x20 ADD PUSH1 0x0 KECCAK256 SLOAD LT ISZERO PUSH2 0x792 JUMPI PUSH1 0x0 DUP1 REVERT JUMPDEST PUSH2 0x79D CALLER DUP5 DUP5 PUSH2 0x7D6 JUMP JUMPDEST PUSH1 0x1 SWAP1 POP SWAP3 SWAP2 POP POP JUMP JUMPDEST PUSH1 0x0 PUSH1 0x3 SLOAD SWAP1 POP SWAP1 JUMP JUMPDEST PUSH1 0x5 PUSH1 0x20 MSTORE DUP2 PUSH1 0x0 MSTORE PUSH1 0x40 PUSH1 0x0 KECCAK256 PUSH1 0x20 MSTORE DUP1 PUSH1 0x0 MSTORE PUSH1 0x40 PUSH1 0x0 KECCAK256 PUSH1 0x0 SWAP2 POP SWAP2 POP POP SLOAD DUP2 JUMP JUMPDEST PUSH1 0x0 PUSH20 0xFFFFFFFFFFFFFFFFFFFFFFFFFFFFFFFFFFFFFFFF AND DUP3 PUSH20 0xFFFFFFFFFFFFFFFFFFFFFFFFFFFFFFFFFFFFFFFF AND EQ ISZERO PUSH2 0x810 JUMPI PUSH1 0x0 DUP1 REVERT JUMPDEST DUP1 PUSH1 0x4 PUSH1 0x0 DUP6 PUSH20 0xFFFFFFFFFFFFFFFFFFFFFFFFFFFFFFFFFFFFFFFF AND PUSH20 0xFFFFFFFFFFFFFFFFFFFFFFFFFFFFFFFFFFFFFFFF AND DUP2 MSTORE PUSH1 0x20 ADD SWAP1 DUP2 MSTORE PUSH1 0x20 ADD PUSH1 0x0 KECCAK256 SLOAD PUSH2 0x85B SWAP2 SWAP1 PUSH2 0xBE1 JUMP JUMPDEST PUSH1 0x4 PUSH1 0x0 DUP6 PUSH20 0xFFFFFFFFFFFFFFFFFFFFFFFFFFFFFFFFFFFFFFFF AND PUSH20 0xFFFFFFFFFFFFFFFFFFFFFFFFFFFFFFFFFFFFFFFF AND DUP2 MSTORE PUSH1 0x20 ADD SWAP1 DUP2 MSTORE PUSH1 0x20 ADD PUSH1 0x0 KECCAK256 DUP2 SWAP1 SSTORE POP DUP1 PUSH1 0x4 PUSH1 0x0 DUP5 PUSH20 0xFFFFFFFFFFFFFFFFFFFFFFFFFFFFFFFFFFFFFFFF AND PUSH20 0xFFFFFFFFFFFFFFFFFFFFFFFFFFFFFFFFFFFFFFFF AND DUP2 MSTORE PUSH1 0x20 ADD SWAP1 DUP2 MSTORE PUSH1 0x20 ADD PUSH1 0x0 KECCAK256 SLOAD PUSH2 0x8E9 SWAP2 SWAP1 PUSH2 0xB8B JUMP JUMPDEST PUSH1 0x4 PUSH1 0x0 DUP5 PUSH20 0xFFFFFFFFFFFFFFFFFFFFFFFFFFFFFFFFFFFFFFFF AND PUSH20 0xFFFFFFFFFFFFFFFFFFFFFFFFFFFFFFFFFFFFFFFF AND DUP2 MSTORE PUSH1 0x20 ADD SWAP1 DUP2 MSTORE PUSH1 0x20 ADD PUSH1 0x0 KECCAK256 DUP2 SWAP1 SSTORE POP DUP2 PUSH20 0xFFFFFFFFFFFFFFFFFFFFFFFFFFFFFFFFFFFFFFFF AND DUP4 PUSH20 0xFFFFFFFFFFFFFFFFFFFFFFFFFFFFFFFFFFFFFFFF AND PUSH32 0xDDF252AD1BE2C89B69C2B068FC378DAA952BA7F163C4A11628F55A4DF523B3EF DUP4 PUSH1 0x40 MLOAD PUSH2 0x989 SWAP2 SWAP1 PUSH2 0xB54 JUMP JUMPDEST PUSH1 0x40 MLOAD DUP1 SWAP2 SUB SWAP1 LOG3 POP POP POP JUMP JUMPDEST PUSH1 0x0 DUP2 CALLDATALOAD SWAP1 POP PUSH2 0x9A5 DUP2 PUSH2 0xD36 JUMP JUMPDEST SWAP3 SWAP2 POP POP JUMP JUMPDEST PUSH1 0x0 DUP2 CALLDATALOAD SWAP1 POP PUSH2 0x9BA DUP2 PUSH2 0xD4D JUMP JUMPDEST SWAP3 SWAP2 POP POP JUMP JUMPDEST PUSH1 0x0 PUSH1 0x20 DUP3 DUP5 SUB SLT ISZERO PUSH2 0x9D6 JUMPI PUSH2 0x9D5 PUSH2 0xD20 JUMP JUMPDEST JUMPDEST PUSH1 0x0 PUSH2 0x9E4 DUP5 DUP3 DUP6 ADD PUSH2 0x996 JUMP JUMPDEST SWAP2 POP POP SWAP3 SWAP2 POP POP JUMP JUMPDEST PUSH1 0x0 DUP1 PUSH1 0x40 DUP4 DUP6 SUB SLT ISZERO PUSH2 0xA04 JUMPI PUSH2 0xA03 PUSH2 0xD20 JUMP JUMPDEST JUMPDEST PUSH1 0x0 PUSH2 0xA12 DUP6 DUP3 DUP7 ADD PUSH2 0x996 JUMP JUMPDEST SWAP3 POP POP PUSH1 0x20 PUSH2 0xA23 DUP6 DUP3 DUP7 ADD PUSH2 0x996 JUMP JUMPDEST SWAP2 POP POP SWAP3 POP SWAP3 SWAP1 POP JUMP JUMPDEST PUSH1 0x0 DUP1 PUSH1 0x0 PUSH1 0x60 DUP5 DUP7 SUB SLT ISZERO PUSH2 0xA46 JUMPI PUSH2 0xA45 PUSH2 0xD20 JUMP JUMPDEST JUMPDEST PUSH1 0x0 PUSH2 0xA54 DUP7 DUP3 DUP8 ADD PUSH2 0x996 JUMP JUMPDEST SWAP4 POP POP PUSH1 0x20 PUSH2 0xA65 DUP7 DUP3 DUP8 ADD PUSH2 0x996 JUMP JUMPDEST SWAP3 POP POP PUSH1 0x40 PUSH2 0xA76 DUP7 DUP3 DUP8 ADD PUSH2 0x9AB JUMP JUMPDEST SWAP2 POP POP SWAP3 POP SWAP3 POP SWAP3 JUMP JUMPDEST PUSH1 0x0 DUP1 PUSH1 0x40 DUP4 DUP6 SUB SLT ISZERO PUSH2 0xA97 JUMPI PUSH2 0xA96 PUSH2 0xD20 JUMP JUMPDEST JUMPDEST PUSH1 0x0 PUSH2 0xAA5 DUP6 DUP3 DUP7 ADD PUSH2 0x996 JUMP JUMPDEST SWAP3 POP POP PUSH1 0x20 PUSH2 0xAB6 DUP6 DUP3 DUP7 ADD PUSH2 0x9AB JUMP JUMPDEST SWAP2 POP POP SWAP3 POP SWAP3 SWAP1 POP JUMP JUMPDEST PUSH2 0xAC9 DUP2 PUSH2 0xC27 JUMP JUMPDEST DUP3 MSTORE POP POP JUMP JUMPDEST PUSH1 0x0 PUSH2 0xADA DUP3 PUSH2 0xB6F JUMP JUMPDEST PUSH2 0xAE4 DUP2 DUP6 PUSH2 0xB7A JUMP JUMPDEST SWAP4 POP PUSH2 0xAF4 DUP2 DUP6 PUSH1 0x20 DUP7 ADD PUSH2 0xC5D JUMP JUMPDEST PUSH2 0xAFD DUP2 PUSH2 0xD25 JUMP JUMPDEST DUP5 ADD SWAP2 POP POP SWAP3 SWAP2 POP POP JUMP JUMPDEST PUSH2 0xB11 DUP2 PUSH2 0xC53 JUMP JUMPDEST DUP3 MSTORE POP POP JUMP JUMPDEST PUSH1 0x0 PUSH1 0x20 DUP3 ADD SWAP1 POP PUSH2 0xB2C PUSH1 0x0 DUP4 ADD DUP5 PUSH2 0xAC0 JUMP JUMPDEST SWAP3 SWAP2 POP POP JUMP JUMPDEST PUSH1 0x0 PUSH1 0x20 DUP3 ADD SWAP1 POP DUP2 DUP2 SUB PUSH1 0x0 DUP4 ADD MSTORE PUSH2 0xB4C DUP2 DUP5 PUSH2 0xACF JUMP JUMPDEST SWAP1 POP SWAP3 SWAP2 POP POP JUMP JUMPDEST PUSH1 0x0 PUSH1 0x20 DUP3 ADD SWAP1 POP PUSH2 0xB69 PUSH1 0x0 DUP4 ADD DUP5 PUSH2 0xB08 JUMP JUMPDEST SWAP3 SWAP2 POP POP JUMP JUMPDEST PUSH1 0x0 DUP2 MLOAD SWAP1 POP SWAP2 SWAP1 POP JUMP JUMPDEST PUSH1 0x0 DUP3 DUP3 MSTORE PUSH1 0x20 DUP3 ADD SWAP1 POP SWAP3 SWAP2 POP POP JUMP JUMPDEST PUSH1 0x0 PUSH2 0xB96 DUP3 PUSH2 0xC53 JUMP JUMPDEST SWAP2 POP PUSH2 0xBA1 DUP4 PUSH2 0xC53 JUMP JUMPDEST SWAP3 POP DUP3 PUSH32 0xFFFFFFFFFFFFFFFFFFFFFFFFFFFFFFFFFFFFFFFFFFFFFFFFFFFFFFFFFFFFFFFF SUB DUP3 GT ISZERO PUSH2 0xBD6 JUMPI PUSH2 0xBD5 PUSH2 0xCC2 JUMP JUMPDEST JUMPDEST DUP3 DUP3 ADD SWAP1 POP SWAP3 SWAP2 POP POP JUMP JUMPDEST PUSH1 0x0 PUSH2 0xBEC DUP3 PUSH2 0xC53 JUMP JUMPDEST SWAP2 POP PUSH2 0xBF7 DUP4 PUSH2 0xC53 JUMP JUMPDEST SWAP3 POP DUP3 DUP3 LT ISZERO PUSH2 0xC0A JUMPI PUSH2 0xC09 PUSH2 0xCC2 JUMP JUMPDEST JUMPDEST DUP3 DUP3 SUB SWAP1 POP SWAP3 SWAP2 POP POP JUMP JUMPDEST PUSH1 0x0 PUSH2 0xC20 DUP3 PUSH2 0xC33 JUMP JUMPDEST SWAP1 POP SWAP2 SWAP1 POP JUMP JUMPDEST PUSH1 0x0 DUP2 ISZERO ISZERO SWAP1 POP SWAP2 SWAP1 POP JUMP JUMPDEST PUSH1 0x0 PUSH20 0xFFFFFFFFFFFFFFFFFFFFFFFFFFFFFFFFFFFFFFFF DUP3 AND SWAP1 POP SWAP2 SWAP1 POP JUMP JUMPDEST PUSH1 0x0 DUP2 SWAP1 POP SWAP2 SWAP1 POP JUMP JUMPDEST PUSH1 0x0 JUMPDEST DUP4 DUP2 LT ISZERO PUSH2 0xC7B JUMPI DUP1 DUP3 ADD MLOAD DUP2 DUP5 ADD MSTORE PUSH1 0x20 DUP2 ADD SWAP1 POP PUSH2 0xC60 JUMP JUMPDEST DUP4 DUP2 GT ISZERO PUSH2 0xC8A JUMPI PUSH1 0x0 DUP5 DUP5 ADD MSTORE JUMPDEST POP POP POP POP JUMP JUMPDEST PUSH1 0x0 PUSH1 0x2 DUP3 DIV SWAP1 POP PUSH1 0x1 DUP3 AND DUP1 PUSH2 0xCA8 JUMPI PUSH1 0x7F DUP3 AND SWAP2 POP JUMPDEST PUSH1 0x20 DUP3 LT DUP2 EQ ISZERO PUSH2 0xCBC JUMPI PUSH2 0xCBB PUSH2 0xCF1 JUMP JUMPDEST JUMPDEST POP SWAP2 SWAP1 POP JUMP JUMPDEST PUSH32 0x4E487B7100000000000000000000000000000000000000000000000000000000 PUSH1 0x0 MSTORE PUSH1 0x11 PUSH1 0x4 MSTORE PUSH1 0x24 PUSH1 0x0 REVERT JUMPDEST PUSH32 0x4E487B7100000000000000000000000000000000000000000000000000000000 PUSH1 0x0 MSTORE PUSH1 0x22 PUSH1 0x4 MSTORE PUSH1 0x24 PUSH1 0x0 REVERT JUMPDEST PUSH1 0x0 DUP1 REVERT JUMPDEST PUSH1 0x0 PUSH1 0x1F NOT PUSH1 0x1F DUP4 ADD AND SWAP1 POP SWAP2 SWAP1 POP JUMP JUMPDEST PUSH2 0xD3F DUP2 PUSH2 0xC15 JUMP JUMPDEST DUP2 EQ PUSH2 0xD4A JUMPI PUSH1 0x0 DUP1 REVERT JUMPDEST POP JUMP JUMPDEST PUSH2 0xD56 DUP2 PUSH2 0xC53 JUMP JUMPDEST DUP2 EQ PUSH2 0xD61 JUMPI PUSH1 0x0 DUP1 REVERT JUMPDEST POP JUMP INVALID LOG2 PUSH5 0x6970667358 0x22 SLT KECCAK256 PUSH11 0xBA40E8B7D98441AE9DDC92 RETURNDATASIZE DUP11 JUMPI PUSH2 0x2428 0xC0 JUMPDEST SLT 0xB1 0xAA ADDRESS EQ 0xB1 DUP2 KECCAK256 0x28 0xEE CALLDATACOPY CODECOPY PUSH5 0x736F6C6343 STOP ADDMOD MOD STOP CALLER PUSH1 0x80 PUSH1 0x40 MSTORE CALLVALUE DUP1 ISZERO PUSH2 0x10 JUMPI PUSH1 0x0 DUP1 REVERT JUMPDEST POP PUSH1 0x40 MLOAD PUSH2 0x6BF CODESIZE SUB DUP1 PUSH2 0x6BF DUP4 CODECOPY DUP2 DUP2 ADD PUSH1 0x40 MSTORE DUP2 ADD SWAP1 PUSH2 0x32 SWAP2 SWAP1 PUSH2 0x8D JUMP JUMPDEST DUP1 PUSH1 0x0 DUP1 PUSH2 0x100 EXP DUP2 SLOAD DUP2 PUSH20 0xFFFFFFFFFFFFFFFFFFFFFFFFFFFFFFFFFFFFFFFF MUL NOT AND SWAP1 DUP4 PUSH20 0xFFFFFFFFFFFFFFFFFFFFFFFFFFFFFFFFFFFFFFFF AND MUL OR SWAP1 SSTORE POP POP PUSH2 0x11A JUMP JUMPDEST PUSH1 0x0 DUP2 MLOAD SWAP1 POP PUSH2 0x87 DUP2 PUSH2 0x103 JUMP JUMPDEST SWAP3 SWAP2 POP POP JUMP JUMPDEST PUSH1 0x0 PUSH1 0x20 DUP3 DUP5 SUB SLT ISZERO PUSH2 0xA3 JUMPI PUSH2 0xA2 PUSH2 0xFE JUMP JUMPDEST JUMPDEST PUSH1 0x0 PUSH2 0xB1 DUP5 DUP3 DUP6 ADD PUSH2 0x78 JUMP JUMPDEST SWAP2 POP POP SWAP3 SWAP2 POP POP JUMP JUMPDEST PUSH1 0x0 PUSH2 0xC5 DUP3 PUSH2 0xDE JUMP JUMPDEST SWAP1 POP SWAP2 SWAP1 POP JUMP JUMPDEST PUSH1 0x0 PUSH2 0xD7 DUP3 PUSH2 0xBA JUMP JUMPDEST SWAP1 POP SWAP2 SWAP1 POP JUMP JUMPDEST PUSH1 0x0 PUSH20 0xFFFFFFFFFFFFFFFFFFFFFFFFFFFFFFFFFFFFFFFF DUP3 AND SWAP1 POP SWAP2 SWAP1 POP JUMP JUMPDEST PUSH1 0x0 DUP1 REVERT JUMPDEST PUSH2 0x10C DUP2 PUSH2 0xCC JUMP JUMPDEST DUP2 EQ PUSH2 0x117 JUMPI PUSH1 0x0 DUP1 REVERT JUMPDEST POP JUMP JUMPDEST PUSH2 0x596 DUP1 PUSH2 0x129 PUSH1 0x0 CODECOPY PUSH1 0x0 RETURN INVALID PUSH1 0x80 PUSH1 0x40 MSTORE CALLVALUE DUP1 ISZERO PUSH2 0x10 JUMPI PUSH1 0x0 DUP1 REVERT JUMPDEST POP PUSH1 0x4 CALLDATASIZE LT PUSH2 0x2B JUMPI PUSH1 0x0 CALLDATALOAD PUSH1 0xE0 SHR DUP1 PUSH4 0x7298203 EQ PUSH2 0x30 JUMPI JUMPDEST PUSH1 0x0 DUP1 REVERT JUMPDEST PUSH2 0x38 PUSH2 0x4E JUMP JUMPDEST PUSH1 0x40 MLOAD PUSH2 0x45 SWAP2 SWAP1 PUSH2 0x454 JUMP JUMPDEST PUSH1 0x40 MLOAD DUP1 SWAP2 SUB SWAP1 RETURN JUMPDEST PUSH1 0x60 PUSH1 0x0 DUP1 SLOAD SWAP1 PUSH2 0x100 EXP SWAP1 DIV PUSH20 0xFFFFFFFFFFFFFFFFFFFFFFFFFFFFFFFFFFFFFFFF AND PUSH20 0xFFFFFFFFFFFFFFFFFFFFFFFFFFFFFFFFFFFFFFFF AND PUSH4 0xEE39E7A0 PUSH1 0x40 MLOAD DUP2 PUSH4 0xFFFFFFFF AND PUSH1 0xE0 SHL DUP2 MSTORE PUSH1 0x4 ADD PUSH1 0x20 PUSH1 0x40 MLOAD DUP1 DUP4 SUB DUP2 DUP7 DUP1 EXTCODESIZE ISZERO DUP1 ISZERO PUSH2 0xB6 JUMPI PUSH1 0x0 DUP1 REVERT JUMPDEST POP GAS STATICCALL ISZERO DUP1 ISZERO PUSH2 0xCA JUMPI RETURNDATASIZE PUSH1 0x0 DUP1 RETURNDATACOPY RETURNDATASIZE PUSH1 0x0 REVERT JUMPDEST POP POP POP POP PUSH1 0x40 MLOAD RETURNDATASIZE PUSH1 0x1F NOT PUSH1 0x1F DUP3 ADD AND DUP3 ADD DUP1 PUSH1 0x40 MSTORE POP DUP2 ADD SWAP1 PUSH2 0xEE SWAP2 SWAP1 PUSH2 0x2C2 JUMP JUMPDEST PUSH1 0x40 MLOAD PUSH1 0x20 ADD PUSH2 0xFE SWAP2 SWAP1 PUSH2 0x439 JUMP JUMPDEST PUSH1 0x40 MLOAD PUSH1 0x20 DUP2 DUP4 SUB SUB DUP2 MSTORE SWAP1 PUSH1 0x40 MSTORE PUSH1 0x0 DUP1 SLOAD SWAP1 PUSH2 0x100 EXP SWAP1 DIV PUSH20 0xFFFFFFFFFFFFFFFFFFFFFFFFFFFFFFFFFFFFFFFF AND PUSH20 0xFFFFFFFFFFFFFFFFFFFFFFFFFFFFFFFFFFFFFFFF AND PUSH4 0x4D9B3735 PUSH1 0x40 MLOAD DUP2 PUSH4 0xFFFFFFFF AND PUSH1 0xE0 SHL DUP2 MSTORE PUSH1 0x4 ADD PUSH1 0x20 PUSH1 0x40 MLOAD DUP1 DUP4 SUB DUP2 DUP7 DUP1 EXTCODESIZE ISZERO DUP1 ISZERO PUSH2 0x173 JUMPI PUSH1 0x0 DUP1 REVERT JUMPDEST POP GAS STATICCALL ISZERO DUP1 ISZERO PUSH2 0x187 JUMPI RETURNDATASIZE PUSH1 0x0 DUP1 RETURNDATACOPY RETURNDATASIZE PUSH1 0x0 REVERT JUMPDEST POP POP POP POP PUSH1 0x40 MLOAD RETURNDATASIZE PUSH1 0x1F NOT PUSH1 0x1F DUP3 ADD AND DUP3 ADD DUP1 PUSH1 0x40 MSTORE POP DUP2 ADD SWAP1 PUSH2 0x1AB SWAP2 SWAP1 PUSH2 0x2C2 JUMP JUMPDEST PUSH1 0x40 MLOAD PUSH1 0x20 ADD PUSH2 0x1BB SWAP2 SWAP1 PUSH2 0x439 JUMP JUMPDEST PUSH1 0x40 MLOAD PUSH1 0x20 DUP2 DUP4 SUB SUB DUP2 MSTORE SWAP1 PUSH1 0x40 MSTORE PUSH1 0x0 DUP1 SLOAD SWAP1 PUSH2 0x100 EXP SWAP1 DIV PUSH20 0xFFFFFFFFFFFFFFFFFFFFFFFFFFFFFFFFFFFFFFFF AND PUSH20 0xFFFFFFFFFFFFFFFFFFFFFFFFFFFFFFFFFFFFFFFF AND PUSH4 0xD342F970 PUSH1 0x40 MLOAD DUP2 PUSH4 0xFFFFFFFF AND PUSH1 0xE0 SHL DUP2 MSTORE PUSH1 0x4 ADD PUSH1 0x20 PUSH1 0x40 MLOAD DUP1 DUP4 SUB DUP2 DUP7 DUP1 EXTCODESIZE ISZERO DUP1 ISZERO PUSH2 0x230 JUMPI PUSH1 0x0 DUP1 REVERT JUMPDEST POP GAS STATICCALL ISZERO DUP1 ISZERO PUSH2 0x244 JUMPI RETURNDATASIZE PUSH1 0x0 DUP1 RETURNDATACOPY RETURNDATASIZE PUSH1 0x0 REVERT JUMPDEST POP POP POP POP PUSH1 0x40 MLOAD RETURNDATASIZE PUSH1 0x1F NOT PUSH1 0x1F DUP3 ADD AND DUP3 ADD DUP1 PUSH1 0x40 MSTORE POP DUP2 ADD SWAP1 PUSH2 0x268 SWAP2 SWAP1 PUSH2 0x2C2 JUMP JUMPDEST PUSH1 0x40 MLOAD PUSH1 0x20 ADD PUSH2 0x278 SWAP2 SWAP1 PUSH2 0x439 JUMP JUMPDEST PUSH1 0x40 MLOAD PUSH1 0x20 DUP2 DUP4 SUB SUB DUP2 MSTORE SWAP1 PUSH1 0x40 MSTORE PUSH1 0x40 MLOAD PUSH1 0x20 ADD PUSH2 0x299 SWAP4 SWAP3 SWAP2 SWAP1 PUSH2 0x3DF JUMP JUMPDEST PUSH1 0x40 MLOAD PUSH1 0x20 DUP2 DUP4 SUB SUB DUP2 MSTORE SWAP1 PUSH1 0x40 MSTORE SWAP1 POP SWAP1 JUMP JUMPDEST PUSH1 0x0 DUP2 MLOAD SWAP1 POP PUSH2 0x2BC DUP2 PUSH2 0x549 JUMP JUMPDEST SWAP3 SWAP2 POP POP JUMP JUMPDEST PUSH1 0x0 PUSH1 0x20 DUP3 DUP5 SUB SLT ISZERO PUSH2 0x2D8 JUMPI PUSH2 0x2D7 PUSH2 0x4E4 JUMP JUMPDEST JUMPDEST PUSH1 0x0 PUSH2 0x2E6 DUP5 DUP3 DUP6 ADD PUSH2 0x2AD JUMP JUMPDEST SWAP2 POP POP SWAP3 SWAP2 POP POP JUMP JUMPDEST PUSH1 0x0 PUSH2 0x2FA DUP3 PUSH2 0x476 JUMP JUMPDEST PUSH2 0x304 DUP2 DUP6 PUSH2 0x481 JUMP JUMPDEST SWAP4 POP PUSH2 0x314 DUP2 DUP6 PUSH1 0x20 DUP7 ADD PUSH2 0x4A7 JUMP JUMPDEST PUSH2 0x31D DUP2 PUSH2 0x4E9 JUMP JUMPDEST DUP5 ADD SWAP2 POP POP SWAP3 SWAP2 POP POP JUMP JUMPDEST PUSH1 0x0 PUSH2 0x333 DUP3 PUSH2 0x476 JUMP JUMPDEST PUSH2 0x33D DUP2 DUP6 PUSH2 0x492 JUMP JUMPDEST SWAP4 POP PUSH2 0x34D DUP2 DUP6 PUSH1 0x20 DUP7 ADD PUSH2 0x4A7 JUMP JUMPDEST DUP1 DUP5 ADD SWAP2 POP POP SWAP3 SWAP2 POP POP JUMP JUMPDEST PUSH32 0x202020746F74616C2066756E6473206F662074686520706F6F6C3A0000000000 DUP2 MSTORE POP JUMP JUMPDEST PUSH1 0x0 PUSH2 0x38C PUSH1 0x24 DUP4 PUSH2 0x492 JUMP JUMPDEST SWAP2 POP PUSH2 0x397 DUP3 PUSH2 0x4FA JUMP JUMPDEST PUSH1 0x24 DUP3 ADD SWAP1 POP SWAP2 SWAP1 POP JUMP JUMPDEST PUSH32 0x202020746865206B206F662074686520706F6F6C3A0000000000000000000000 DUP2 MSTORE POP JUMP JUMPDEST PUSH2 0x3D9 PUSH2 0x3D4 DUP3 PUSH2 0x49D JUMP JUMPDEST PUSH2 0x4DA JUMP JUMPDEST DUP3 MSTORE POP POP JUMP JUMPDEST PUSH1 0x0 PUSH2 0x3EA DUP3 PUSH2 0x3A2 JUMP JUMPDEST PUSH1 0x15 DUP3 ADD SWAP2 POP PUSH2 0x3FA DUP3 DUP7 PUSH2 0x328 JUMP JUMPDEST SWAP2 POP PUSH2 0x405 DUP3 PUSH2 0x359 JUMP JUMPDEST PUSH1 0x1B DUP3 ADD SWAP2 POP PUSH2 0x415 DUP3 DUP6 PUSH2 0x328 JUMP JUMPDEST SWAP2 POP PUSH2 0x420 DUP3 PUSH2 0x37F JUMP JUMPDEST SWAP2 POP PUSH2 0x42C DUP3 DUP5 PUSH2 0x328 JUMP JUMPDEST SWAP2 POP DUP2 SWAP1 POP SWAP5 SWAP4 POP POP POP POP JUMP JUMPDEST PUSH1 0x0 PUSH2 0x445 DUP3 DUP5 PUSH2 0x3C8 JUMP JUMPDEST PUSH1 0x20 DUP3 ADD SWAP2 POP DUP2 SWAP1 POP SWAP3 SWAP2 POP POP JUMP JUMPDEST PUSH1 0x0 PUSH1 0x20 DUP3 ADD SWAP1 POP DUP2 DUP2 SUB PUSH1 0x0 DUP4 ADD MSTORE PUSH2 0x46E DUP2 DUP5 PUSH2 0x2EF JUMP JUMPDEST SWAP1 POP SWAP3 SWAP2 POP POP JUMP JUMPDEST PUSH1 0x0 DUP2 MLOAD SWAP1 POP SWAP2 SWAP1 POP JUMP JUMPDEST PUSH1 0x0 DUP3 DUP3 MSTORE PUSH1 0x20 DUP3 ADD SWAP1 POP SWAP3 SWAP2 POP POP JUMP JUMPDEST PUSH1 0x0 DUP2 SWAP1 POP SWAP3 SWAP2 POP POP JUMP JUMPDEST PUSH1 0x0 DUP2 SWAP1 POP SWAP2 SWAP1 POP JUMP JUMPDEST PUSH1 0x0 JUMPDEST DUP4 DUP2 LT ISZERO PUSH2 0x4C5 JUMPI DUP1 DUP3 ADD MLOAD DUP2 DUP5 ADD MSTORE PUSH1 0x20 DUP2 ADD SWAP1 POP PUSH2 0x4AA JUMP JUMPDEST DUP4 DUP2 GT ISZERO PUSH2 0x4D4 JUMPI PUSH1 0x0 DUP5 DUP5 ADD MSTORE JUMPDEST POP POP POP POP JUMP JUMPDEST PUSH1 0x0 DUP2 SWAP1 POP SWAP2 SWAP1 POP JUMP JUMPDEST PUSH1 0x0 DUP1 REVERT JUMPDEST PUSH1 0x0 PUSH1 0x1F NOT PUSH1 0x1F DUP4 ADD AND SWAP1 POP SWAP2 SWAP1 POP JUMP JUMPDEST PUSH32 0x202020746F74616C206C6F636B65642070726F666974206F66206C6971756964 PUSH1 0x0 DUP3 ADD MSTORE PUSH32 0x6974793A00000000000000000000000000000000000000000000000000000000 PUSH1 0x20 DUP3 ADD MSTORE POP JUMP JUMPDEST PUSH2 0x552 DUP2 PUSH2 0x49D JUMP JUMPDEST DUP2 EQ PUSH2 0x55D JUMPI PUSH1 0x0 DUP1 REVERT JUMPDEST POP JUMP INVALID LOG2 PUSH5 0x6970667358 0x22 SLT KECCAK256 0xE7 0xCC ISZERO CALLDATALOAD 0xB9 0xB1 DUP16 0x21 0x2D 0xC1 SWAP6 XOR 0xE9 0xB7 0xC0 PUSH21 0x95EFD040B00D84A6985601A4F805751964736F6C63 NUMBER STOP ADDMOD MOD STOP CALLER LOG2 PUSH5 0x6970667358 0x22 SLT KECCAK256 0xF8 0x28 SWAP10 PUSH1 0x6C 0xCB 0xD1 SUB CALLER 0x22 PUSH29 0x768E79AE97A46AE116844578D22A058C41D2C7A2F164736F6C63430008 MOD STOP CALLER PUSH1 0x80 PUSH1 0x40 MSTORE CALLVALUE DUP1 ISZERO PUSH3 0x11 JUMPI PUSH1 0x0 DUP1 REVERT JUMPDEST POP PUSH1 0x40 MLOAD PUSH3 0x13FF CODESIZE SUB DUP1 PUSH3 0x13FF DUP4 CODECOPY DUP2 DUP2 ADD PUSH1 0x40 MSTORE DUP2 ADD SWAP1 PUSH3 0x37 SWAP2 SWAP1 PUSH3 0x20C JUMP JUMPDEST DUP4 PUSH1 0x0 SWAP1 DUP1 MLOAD SWAP1 PUSH1 0x20 ADD SWAP1 PUSH3 0x4F SWAP3 SWAP2 SWAP1 PUSH3 0xC7 JUMP JUMPDEST POP DUP3 PUSH1 0x1 SWAP1 DUP1 MLOAD SWAP1 PUSH1 0x20 ADD SWAP1 PUSH3 0x68 SWAP3 SWAP2 SWAP1 PUSH3 0xC7 JUMP JUMPDEST POP DUP2 PUSH1 0x2 DUP2 SWAP1 SSTORE POP DUP1 PUSH1 0x3 DUP2 SWAP1 SSTORE POP PUSH1 0x3 SLOAD PUSH1 0x4 PUSH1 0x0 CALLER PUSH20 0xFFFFFFFFFFFFFFFFFFFFFFFFFFFFFFFFFFFFFFFF AND PUSH20 0xFFFFFFFFFFFFFFFFFFFFFFFFFFFFFFFFFFFFFFFF AND DUP2 MSTORE PUSH1 0x20 ADD SWAP1 DUP2 MSTORE PUSH1 0x20 ADD PUSH1 0x0 KECCAK256 DUP2 SWAP1 SSTORE POP POP POP POP POP PUSH3 0x464 JUMP JUMPDEST DUP3 DUP1 SLOAD PUSH3 0xD5 SWAP1 PUSH3 0x35B JUMP JUMPDEST SWAP1 PUSH1 0x0 MSTORE PUSH1 0x20 PUSH1 0x0 KECCAK256 SWAP1 PUSH1 0x1F ADD PUSH1 0x20 SWAP1 DIV DUP2 ADD SWAP3 DUP3 PUSH3 0xF9 JUMPI PUSH1 0x0 DUP6 SSTORE PUSH3 0x145 JUMP JUMPDEST DUP3 PUSH1 0x1F LT PUSH3 0x114 JUMPI DUP1 MLOAD PUSH1 0xFF NOT AND DUP4 DUP1 ADD OR DUP6 SSTORE PUSH3 0x145 JUMP JUMPDEST DUP3 DUP1 ADD PUSH1 0x1 ADD DUP6 SSTORE DUP3 ISZERO PUSH3 0x145 JUMPI SWAP2 DUP3 ADD JUMPDEST DUP3 DUP2 GT ISZERO PUSH3 0x144 JUMPI DUP3 MLOAD DUP3 SSTORE SWAP2 PUSH1 0x20 ADD SWAP2 SWAP1 PUSH1 0x1 ADD SWAP1 PUSH3 0x127 JUMP JUMPDEST JUMPDEST POP SWAP1 POP PUSH3 0x154 SWAP2 SWAP1 PUSH3 0x158 JUMP JUMPDEST POP SWAP1 JUMP JUMPDEST JUMPDEST DUP1 DUP3 GT ISZERO PUSH3 0x173 JUMPI PUSH1 0x0 DUP2 PUSH1 0x0 SWAP1 SSTORE POP PUSH1 0x1 ADD PUSH3 0x159 JUMP JUMPDEST POP SWAP1 JUMP JUMPDEST PUSH1 0x0 PUSH3 0x18E PUSH3 0x188 DUP5 PUSH3 0x2E5 JUMP JUMPDEST PUSH3 0x2BC JUMP JUMPDEST SWAP1 POP DUP3 DUP2 MSTORE PUSH1 0x20 DUP2 ADD DUP5 DUP5 DUP5 ADD GT ISZERO PUSH3 0x1AD JUMPI PUSH3 0x1AC PUSH3 0x42A JUMP JUMPDEST JUMPDEST PUSH3 0x1BA DUP5 DUP3 DUP6 PUSH3 0x325 JUMP JUMPDEST POP SWAP4 SWAP3 POP POP POP JUMP JUMPDEST PUSH1 0x0 DUP3 PUSH1 0x1F DUP4 ADD SLT PUSH3 0x1DA JUMPI PUSH3 0x1D9 PUSH3 0x425 JUMP JUMPDEST JUMPDEST DUP2 MLOAD PUSH3 0x1EC DUP5 DUP3 PUSH1 0x20 DUP7 ADD PUSH3 0x177 JUMP JUMPDEST SWAP2 POP POP SWAP3 SWAP2 POP POP JUMP JUMPDEST PUSH1 0x0 DUP2 MLOAD SWAP1 POP PUSH3 0x206 DUP2 PUSH3 0x44A JUMP JUMPDEST SWAP3 SWAP2 POP POP JUMP JUMPDEST PUSH1 0x0 DUP1 PUSH1 0x0 DUP1 PUSH1 0x80 DUP6 DUP8 SUB SLT ISZERO PUSH3 0x229 JUMPI PUSH3 0x228 PUSH3 0x434 JUMP JUMPDEST JUMPDEST PUSH1 0x0 DUP6 ADD MLOAD PUSH8 0xFFFFFFFFFFFFFFFF DUP2 GT ISZERO PUSH3 0x24A JUMPI PUSH3 0x249 PUSH3 0x42F JUMP JUMPDEST JUMPDEST PUSH3 0x258 DUP8 DUP3 DUP9 ADD PUSH3 0x1C2 JUMP JUMPDEST SWAP5 POP POP PUSH1 0x20 DUP6 ADD MLOAD PUSH8 0xFFFFFFFFFFFFFFFF DUP2 GT ISZERO PUSH3 0x27C JUMPI PUSH3 0x27B PUSH3 0x42F JUMP JUMPDEST JUMPDEST PUSH3 0x28A DUP8 DUP3 DUP9 ADD PUSH3 0x1C2 JUMP JUMPDEST SWAP4 POP POP PUSH1 0x40 PUSH3 0x29D DUP8 DUP3 DUP9 ADD PUSH3 0x1F5 JUMP JUMPDEST SWAP3 POP POP PUSH1 0x60 PUSH3 0x2B0 DUP8 DUP3 DUP9 ADD PUSH3 0x1F5 JUMP JUMPDEST SWAP2 POP POP SWAP3 SWAP6 SWAP2 SWAP5 POP SWAP3 POP JUMP JUMPDEST PUSH1 0x0 PUSH3 0x2C8 PUSH3 0x2DB JUMP JUMPDEST SWAP1 POP PUSH3 0x2D6 DUP3 DUP3 PUSH3 0x391 JUMP JUMPDEST SWAP2 SWAP1 POP JUMP JUMPDEST PUSH1 0x0 PUSH1 0x40 MLOAD SWAP1 POP SWAP1 JUMP JUMPDEST PUSH1 0x0 PUSH8 0xFFFFFFFFFFFFFFFF DUP3 GT ISZERO PUSH3 0x303 JUMPI PUSH3 0x302 PUSH3 0x3F6 JUMP JUMPDEST JUMPDEST PUSH3 0x30E DUP3 PUSH3 0x439 JUMP JUMPDEST SWAP1 POP PUSH1 0x20 DUP2 ADD SWAP1 POP SWAP2 SWAP1 POP JUMP JUMPDEST PUSH1 0x0 DUP2 SWAP1 POP SWAP2 SWAP1 POP JUMP JUMPDEST PUSH1 0x0 JUMPDEST DUP4 DUP2 LT ISZERO PUSH3 0x345 JUMPI DUP1 DUP3 ADD MLOAD DUP2 DUP5 ADD MSTORE PUSH1 0x20 DUP2 ADD SWAP1 POP PUSH3 0x328 JUMP JUMPDEST DUP4 DUP2 GT ISZERO PUSH3 0x355 JUMPI PUSH1 0x0 DUP5 DUP5 ADD MSTORE JUMPDEST POP POP POP POP JUMP JUMPDEST PUSH1 0x0 PUSH1 0x2 DUP3 DIV SWAP1 POP PUSH1 0x1 DUP3 AND DUP1 PUSH3 0x374 JUMPI PUSH1 0x7F DUP3 AND SWAP2 POP JUMPDEST PUSH1 0x20 DUP3 LT DUP2 EQ ISZERO PUSH3 0x38B JUMPI PUSH3 0x38A PUSH3 0x3C7 JUMP JUMPDEST JUMPDEST POP SWAP2 SWAP1 POP JUMP JUMPDEST PUSH3 0x39C DUP3 PUSH3 0x439 JUMP JUMPDEST DUP2 ADD DUP2 DUP2 LT PUSH8 0xFFFFFFFFFFFFFFFF DUP3 GT OR ISZERO PUSH3 0x3BE JUMPI PUSH3 0x3BD PUSH3 0x3F6 JUMP JUMPDEST JUMPDEST DUP1 PUSH1 0x40 MSTORE POP POP POP JUMP JUMPDEST PUSH32 0x4E487B7100000000000000000000000000000000000000000000000000000000 PUSH1 0x0 MSTORE PUSH1 0x22 PUSH1 0x4 MSTORE PUSH1 0x24 PUSH1 0x0 REVERT JUMPDEST PUSH32 0x4E487B7100000000000000000000000000000000000000000000000000000000 PUSH1 0x0 MSTORE PUSH1 0x41 PUSH1 0x4 MSTORE PUSH1 0x24 PUSH1 0x0 REVERT JUMPDEST PUSH1 0x0 DUP1 REVERT JUMPDEST PUSH1 0x0 DUP1 REVERT JUMPDEST PUSH1 0x0 DUP1 REVERT JUMPDEST PUSH1 0x0 DUP1 REVERT JUMPDEST PUSH1 0x0 PUSH1 0x1F NOT PUSH1 0x1F DUP4 ADD AND SWAP1 POP SWAP2 SWAP1 POP JUMP JUMPDEST PUSH3 0x455 DUP2 PUSH3 0x31B JUMP JUMPDEST DUP2 EQ PUSH3 0x461 JUMPI PUSH1 0x0 DUP1 REVERT JUMPDEST POP JUMP JUMPDEST PUSH2 0xF8B DUP1 PUSH3 0x474 PUSH1 0x0 CODECOPY PUSH1 0x0 RETURN INVALID PUSH1 0x80 PUSH1 0x40 MSTORE CALLVALUE DUP1 ISZERO PUSH2 0x10 JUMPI PUSH1 0x0 DUP1 REVERT JUMPDEST POP PUSH1 0x4 CALLDATASIZE LT PUSH2 0xCF JUMPI PUSH1 0x0 CALLDATALOAD PUSH1 0xE0 SHR DUP1 PUSH4 0x313CE567 GT PUSH2 0x8C JUMPI DUP1 PUSH4 0xA9059CBB GT PUSH2 0x66 JUMPI DUP1 PUSH4 0xA9059CBB EQ PUSH2 0x216 JUMPI DUP1 PUSH4 0xABE19BA3 EQ PUSH2 0x246 JUMPI DUP1 PUSH4 0xC4E41B22 EQ PUSH2 0x276 JUMPI DUP1 PUSH4 0xDD62ED3E EQ PUSH2 0x294 JUMPI PUSH2 0xCF JUMP JUMPDEST DUP1 PUSH4 0x313CE567 EQ PUSH2 0x1AA JUMPI DUP1 PUSH4 0x70A08231 EQ PUSH2 0x1C8 JUMPI DUP1 PUSH4 0x95D89B41 EQ PUSH2 0x1F8 JUMPI PUSH2 0xCF JUMP JUMPDEST DUP1 PUSH4 0x6FDDE03 EQ PUSH2 0xD4 JUMPI DUP1 PUSH4 0x95EA7B3 EQ PUSH2 0xF2 JUMPI DUP1 PUSH4 0x15070401 EQ PUSH2 0x122 JUMPI DUP1 PUSH4 0x18160DDD EQ PUSH2 0x140 JUMPI DUP1 PUSH4 0x23B872DD EQ PUSH2 0x15E JUMPI DUP1 PUSH4 0x30E0789E EQ PUSH2 0x18E JUMPI JUMPDEST PUSH1 0x0 DUP1 REVERT JUMPDEST PUSH2 0xDC PUSH2 0x2C4 JUMP JUMPDEST PUSH1 0x40 MLOAD PUSH2 0xE9 SWAP2 SWAP1 PUSH2 0xD23 JUMP JUMPDEST PUSH1 0x40 MLOAD DUP1 SWAP2 SUB SWAP1 RETURN JUMPDEST PUSH2 0x10C PUSH1 0x4 DUP1 CALLDATASIZE SUB DUP2 ADD SWAP1 PUSH2 0x107 SWAP2 SWAP1 PUSH2 0xC1E JUMP JUMPDEST PUSH2 0x352 JUMP JUMPDEST PUSH1 0x40 MLOAD PUSH2 0x119 SWAP2 SWAP1 PUSH2 0xD08 JUMP JUMPDEST PUSH1 0x40 MLOAD DUP1 SWAP2 SUB SWAP1 RETURN JUMPDEST PUSH2 0x12A PUSH2 0x47D JUMP JUMPDEST PUSH1 0x40 MLOAD PUSH2 0x137 SWAP2 SWAP1 PUSH2 0xD23 JUMP JUMPDEST PUSH1 0x40 MLOAD DUP1 SWAP2 SUB SWAP1 RETURN JUMPDEST PUSH2 0x148 PUSH2 0x50F JUMP JUMPDEST PUSH1 0x40 MLOAD PUSH2 0x155 SWAP2 SWAP1 PUSH2 0xD45 JUMP JUMPDEST PUSH1 0x40 MLOAD DUP1 SWAP2 SUB SWAP1 RETURN JUMPDEST PUSH2 0x178 PUSH1 0x4 DUP1 CALLDATASIZE SUB DUP2 ADD SWAP1 PUSH2 0x173 SWAP2 SWAP1 PUSH2 0xBCB JUMP JUMPDEST PUSH2 0x515 JUMP JUMPDEST PUSH1 0x40 MLOAD PUSH2 0x185 SWAP2 SWAP1 PUSH2 0xD08 JUMP JUMPDEST PUSH1 0x40 MLOAD DUP1 SWAP2 SUB SWAP1 RETURN JUMPDEST PUSH2 0x1A8 PUSH1 0x4 DUP1 CALLDATASIZE SUB DUP2 ADD SWAP1 PUSH2 0x1A3 SWAP2 SWAP1 PUSH2 0xBCB JUMP JUMPDEST PUSH2 0x70A JUMP JUMPDEST STOP JUMPDEST PUSH2 0x1B2 PUSH2 0x8CA JUMP JUMPDEST PUSH1 0x40 MLOAD PUSH2 0x1BF SWAP2 SWAP1 PUSH2 0xD45 JUMP JUMPDEST PUSH1 0x40 MLOAD DUP1 SWAP2 SUB SWAP1 RETURN JUMPDEST PUSH2 0x1E2 PUSH1 0x4 DUP1 CALLDATASIZE SUB DUP2 ADD SWAP1 PUSH2 0x1DD SWAP2 SWAP1 PUSH2 0xB5E JUMP JUMPDEST PUSH2 0x8D0 JUMP JUMPDEST PUSH1 0x40 MLOAD PUSH2 0x1EF SWAP2 SWAP1 PUSH2 0xD45 JUMP JUMPDEST PUSH1 0x40 MLOAD DUP1 SWAP2 SUB SWAP1 RETURN JUMPDEST PUSH2 0x200 PUSH2 0x8E8 JUMP JUMPDEST PUSH1 0x40 MLOAD PUSH2 0x20D SWAP2 SWAP1 PUSH2 0xD23 JUMP JUMPDEST PUSH1 0x40 MLOAD DUP1 SWAP2 SUB SWAP1 RETURN JUMPDEST PUSH2 0x230 PUSH1 0x4 DUP1 CALLDATASIZE SUB DUP2 ADD SWAP1 PUSH2 0x22B SWAP2 SWAP1 PUSH2 0xC1E JUMP JUMPDEST PUSH2 0x976 JUMP JUMPDEST PUSH1 0x40 MLOAD PUSH2 0x23D SWAP2 SWAP1 PUSH2 0xD08 JUMP JUMPDEST PUSH1 0x40 MLOAD DUP1 SWAP2 SUB SWAP1 RETURN JUMPDEST PUSH2 0x260 PUSH1 0x4 DUP1 CALLDATASIZE SUB DUP2 ADD SWAP1 PUSH2 0x25B SWAP2 SWAP1 PUSH2 0xC5E JUMP JUMPDEST PUSH2 0x9D9 JUMP JUMPDEST PUSH1 0x40 MLOAD PUSH2 0x26D SWAP2 SWAP1 PUSH2 0xD08 JUMP JUMPDEST PUSH1 0x40 MLOAD DUP1 SWAP2 SUB SWAP1 RETURN JUMPDEST PUSH2 0x27E PUSH2 0xB05 JUMP JUMPDEST PUSH1 0x40 MLOAD PUSH2 0x28B SWAP2 SWAP1 PUSH2 0xD45 JUMP JUMPDEST PUSH1 0x40 MLOAD DUP1 SWAP2 SUB SWAP1 RETURN JUMPDEST PUSH2 0x2AE PUSH1 0x4 DUP1 CALLDATASIZE SUB DUP2 ADD SWAP1 PUSH2 0x2A9 SWAP2 SWAP1 PUSH2 0xB8B JUMP JUMPDEST PUSH2 0xB0F JUMP JUMPDEST PUSH1 0x40 MLOAD PUSH2 0x2BB SWAP2 SWAP1 PUSH2 0xD45 JUMP JUMPDEST PUSH1 0x40 MLOAD DUP1 SWAP2 SUB SWAP1 RETURN JUMPDEST PUSH1 0x0 DUP1 SLOAD PUSH2 0x2D1 SWAP1 PUSH2 0xE81 JUMP JUMPDEST DUP1 PUSH1 0x1F ADD PUSH1 0x20 DUP1 SWAP2 DIV MUL PUSH1 0x20 ADD PUSH1 0x40 MLOAD SWAP1 DUP2 ADD PUSH1 0x40 MSTORE DUP1 SWAP3 SWAP2 SWAP1 DUP2 DUP2 MSTORE PUSH1 0x20 ADD DUP3 DUP1 SLOAD PUSH2 0x2FD SWAP1 PUSH2 0xE81 JUMP JUMPDEST DUP1 ISZERO PUSH2 0x34A JUMPI DUP1 PUSH1 0x1F LT PUSH2 0x31F JUMPI PUSH2 0x100 DUP1 DUP4 SLOAD DIV MUL DUP4 MSTORE SWAP2 PUSH1 0x20 ADD SWAP2 PUSH2 0x34A JUMP JUMPDEST DUP3 ADD SWAP2 SWAP1 PUSH1 0x0 MSTORE PUSH1 0x20 PUSH1 0x0 KECCAK256 SWAP1 JUMPDEST DUP2 SLOAD DUP2 MSTORE SWAP1 PUSH1 0x1 ADD SWAP1 PUSH1 0x20 ADD DUP1 DUP4 GT PUSH2 0x32D JUMPI DUP3 SWAP1 SUB PUSH1 0x1F AND DUP3 ADD SWAP2 JUMPDEST POP POP POP POP POP DUP2 JUMP JUMPDEST PUSH1 0x0 DUP1 PUSH20 0xFFFFFFFFFFFFFFFFFFFFFFFFFFFFFFFFFFFFFFFF AND DUP4 PUSH20 0xFFFFFFFFFFFFFFFFFFFFFFFFFFFFFFFFFFFFFFFF AND EQ ISZERO PUSH2 0x38D JUMPI PUSH1 0x0 DUP1 REVERT JUMPDEST DUP2 PUSH1 0x5 PUSH1 0x0 CALLER PUSH20 0xFFFFFFFFFFFFFFFFFFFFFFFFFFFFFFFFFFFFFFFF AND PUSH20 0xFFFFFFFFFFFFFFFFFFFFFFFFFFFFFFFFFFFFFFFF AND DUP2 MSTORE PUSH1 0x20 ADD SWAP1 DUP2 MSTORE PUSH1 0x20 ADD PUSH1 0x0 KECCAK256 PUSH1 0x0 DUP6 PUSH20 0xFFFFFFFFFFFFFFFFFFFFFFFFFFFFFFFFFFFFFFFF AND PUSH20 0xFFFFFFFFFFFFFFFFFFFFFFFFFFFFFFFFFFFFFFFF AND DUP2 MSTORE PUSH1 0x20 ADD SWAP1 DUP2 MSTORE PUSH1 0x20 ADD PUSH1 0x0 KECCAK256 DUP2 SWAP1 SSTORE POP DUP3 PUSH20 0xFFFFFFFFFFFFFFFFFFFFFFFFFFFFFFFFFFFFFFFF AND CALLER PUSH20 0xFFFFFFFFFFFFFFFFFFFFFFFFFFFFFFFFFFFFFFFF AND PUSH32 0x8C5BE1E5EBEC7D5BD14F71427D1E84F3DD0314C0F7B2291E5B200AC8C7C3B925 DUP5 PUSH1 0x40 MLOAD PUSH2 0x46B SWAP2 SWAP1 PUSH2 0xD45 JUMP JUMPDEST PUSH1 0x40 MLOAD DUP1 SWAP2 SUB SWAP1 LOG3 PUSH1 0x1 SWAP1 POP SWAP3 SWAP2 POP POP JUMP JUMPDEST PUSH1 0x60 PUSH1 0x1 DUP1 SLOAD PUSH2 0x48C SWAP1 PUSH2 0xE81 JUMP JUMPDEST DUP1 PUSH1 0x1F ADD PUSH1 0x20 DUP1 SWAP2 DIV MUL PUSH1 0x20 ADD PUSH1 0x40 MLOAD SWAP1 DUP2 ADD PUSH1 0x40 MSTORE DUP1 SWAP3 SWAP2 SWAP1 DUP2 DUP2 MSTORE PUSH1 0x20 ADD DUP3 DUP1 SLOAD PUSH2 0x4B8 SWAP1 PUSH2 0xE81 JUMP JUMPDEST DUP1 ISZERO PUSH2 0x505 JUMPI DUP1 PUSH1 0x1F LT PUSH2 0x4DA JUMPI PUSH2 0x100 DUP1 DUP4 SLOAD DIV MUL DUP4 MSTORE SWAP2 PUSH1 0x20 ADD SWAP2 PUSH2 0x505 JUMP JUMPDEST DUP3 ADD SWAP2 SWAP1 PUSH1 0x0 MSTORE PUSH1 0x20 PUSH1 0x0 KECCAK256 SWAP1 JUMPDEST DUP2 SLOAD DUP2 MSTORE SWAP1 PUSH1 0x1 ADD SWAP1 PUSH1 0x20 ADD DUP1 DUP4 GT PUSH2 0x4E8 JUMPI DUP3 SWAP1 SUB PUSH1 0x1F AND DUP3 ADD SWAP2 JUMPDEST POP POP POP POP POP SWAP1 POP SWAP1 JUMP JUMPDEST PUSH1 0x3 SLOAD DUP2 JUMP JUMPDEST PUSH1 0x0 PUSH1 0x4 PUSH1 0x0 DUP6 PUSH20 0xFFFFFFFFFFFFFFFFFFFFFFFFFFFFFFFFFFFFFFFF AND PUSH20 0xFFFFFFFFFFFFFFFFFFFFFFFFFFFFFFFFFFFFFFFF AND DUP2 MSTORE PUSH1 0x20 ADD SWAP1 DUP2 MSTORE PUSH1 0x20 ADD PUSH1 0x0 KECCAK256 SLOAD DUP3 GT ISZERO PUSH2 0x563 JUMPI PUSH1 0x0 DUP1 REVERT JUMPDEST PUSH1 0x5 PUSH1 0x0 DUP6 PUSH20 0xFFFFFFFFFFFFFFFFFFFFFFFFFFFFFFFFFFFFFFFF AND PUSH20 0xFFFFFFFFFFFFFFFFFFFFFFFFFFFFFFFFFFFFFFFF AND DUP2 MSTORE PUSH1 0x20 ADD SWAP1 DUP2 MSTORE PUSH1 0x20 ADD PUSH1 0x0 KECCAK256 PUSH1 0x0 CALLER PUSH20 0xFFFFFFFFFFFFFFFFFFFFFFFFFFFFFFFFFFFFFFFF AND PUSH20 0xFFFFFFFFFFFFFFFFFFFFFFFFFFFFFFFFFFFFFFFF AND DUP2 MSTORE PUSH1 0x20 ADD SWAP1 DUP2 MSTORE PUSH1 0x20 ADD PUSH1 0x0 KECCAK256 SLOAD DUP3 GT ISZERO PUSH2 0x5EC JUMPI PUSH1 0x0 DUP1 REVERT JUMPDEST DUP2 PUSH1 0x5 PUSH1 0x0 DUP7 PUSH20 0xFFFFFFFFFFFFFFFFFFFFFFFFFFFFFFFFFFFFFFFF AND PUSH20 0xFFFFFFFFFFFFFFFFFFFFFFFFFFFFFFFFFFFFFFFF AND DUP2 MSTORE PUSH1 0x20 ADD SWAP1 DUP2 MSTORE PUSH1 0x20 ADD PUSH1 0x0 KECCAK256 PUSH1 0x0 CALLER PUSH20 0xFFFFFFFFFFFFFFFFFFFFFFFFFFFFFFFFFFFFFFFF AND PUSH20 0xFFFFFFFFFFFFFFFFFFFFFFFFFFFFFFFFFFFFFFFF AND DUP2 MSTORE PUSH1 0x20 ADD SWAP1 DUP2 MSTORE PUSH1 0x20 ADD PUSH1 0x0 KECCAK256 SLOAD PUSH2 0x674 SWAP2 SWAP1 PUSH2 0xDD2 JUMP JUMPDEST PUSH1 0x5 PUSH1 0x0 DUP7 PUSH20 0xFFFFFFFFFFFFFFFFFFFFFFFFFFFFFFFFFFFFFFFF AND PUSH20 0xFFFFFFFFFFFFFFFFFFFFFFFFFFFFFFFFFFFFFFFF AND DUP2 MSTORE PUSH1 0x20 ADD SWAP1 DUP2 MSTORE PUSH1 0x20 ADD PUSH1 0x0 KECCAK256 PUSH1 0x0 CALLER PUSH20 0xFFFFFFFFFFFFFFFFFFFFFFFFFFFFFFFFFFFFFFFF AND PUSH20 0xFFFFFFFFFFFFFFFFFFFFFFFFFFFFFFFFFFFFFFFF AND DUP2 MSTORE PUSH1 0x20 ADD SWAP1 DUP2 MSTORE PUSH1 0x20 ADD PUSH1 0x0 KECCAK256 DUP2 SWAP1 SSTORE POP PUSH2 0x6FF DUP5 DUP5 DUP5 PUSH2 0x70A JUMP JUMPDEST PUSH1 0x1 SWAP1 POP SWAP4 SWAP3 POP POP POP JUMP JUMPDEST PUSH1 0x0 PUSH20 0xFFFFFFFFFFFFFFFFFFFFFFFFFFFFFFFFFFFFFFFF AND DUP3 PUSH20 0xFFFFFFFFFFFFFFFFFFFFFFFFFFFFFFFFFFFFFFFF AND EQ ISZERO PUSH2 0x744 JUMPI PUSH1 0x0 DUP1 REVERT JUMPDEST DUP1 PUSH1 0x4 PUSH1 0x0 DUP6 PUSH20 0xFFFFFFFFFFFFFFFFFFFFFFFFFFFFFFFFFFFFFFFF AND PUSH20 0xFFFFFFFFFFFFFFFFFFFFFFFFFFFFFFFFFFFFFFFF AND DUP2 MSTORE PUSH1 0x20 ADD SWAP1 DUP2 MSTORE PUSH1 0x20 ADD PUSH1 0x0 KECCAK256 SLOAD PUSH2 0x78F SWAP2 SWAP1 PUSH2 0xDD2 JUMP JUMPDEST PUSH1 0x4 PUSH1 0x0 DUP6 PUSH20 0xFFFFFFFFFFFFFFFFFFFFFFFFFFFFFFFFFFFFFFFF AND PUSH20 0xFFFFFFFFFFFFFFFFFFFFFFFFFFFFFFFFFFFFFFFF AND DUP2 MSTORE PUSH1 0x20 ADD SWAP1 DUP2 MSTORE PUSH1 0x20 ADD PUSH1 0x0 KECCAK256 DUP2 SWAP1 SSTORE POP DUP1 PUSH1 0x4 PUSH1 0x0 DUP5 PUSH20 0xFFFFFFFFFFFFFFFFFFFFFFFFFFFFFFFFFFFFFFFF AND PUSH20 0xFFFFFFFFFFFFFFFFFFFFFFFFFFFFFFFFFFFFFFFF AND DUP2 MSTORE PUSH1 0x20 ADD SWAP1 DUP2 MSTORE PUSH1 0x20 ADD PUSH1 0x0 KECCAK256 SLOAD PUSH2 0x81D SWAP2 SWAP1 PUSH2 0xD7C JUMP JUMPDEST PUSH1 0x4 PUSH1 0x0 DUP5 PUSH20 0xFFFFFFFFFFFFFFFFFFFFFFFFFFFFFFFFFFFFFFFF AND PUSH20 0xFFFFFFFFFFFFFFFFFFFFFFFFFFFFFFFFFFFFFFFF AND DUP2 MSTORE PUSH1 0x20 ADD SWAP1 DUP2 MSTORE PUSH1 0x20 ADD PUSH1 0x0 KECCAK256 DUP2 SWAP1 SSTORE POP DUP2 PUSH20 0xFFFFFFFFFFFFFFFFFFFFFFFFFFFFFFFFFFFFFFFF AND DUP4 PUSH20 0xFFFFFFFFFFFFFFFFFFFFFFFFFFFFFFFFFFFFFFFF AND PUSH32 0xDDF252AD1BE2C89B69C2B068FC378DAA952BA7F163C4A11628F55A4DF523B3EF DUP4 PUSH1 0x40 MLOAD PUSH2 0x8BD SWAP2 SWAP1 PUSH2 0xD45 JUMP JUMPDEST PUSH1 0x40 MLOAD DUP1 SWAP2 SUB SWAP1 LOG3 POP POP POP JUMP JUMPDEST PUSH1 0x2 SLOAD DUP2 JUMP JUMPDEST PUSH1 0x4 PUSH1 0x20 MSTORE DUP1 PUSH1 0x0 MSTORE PUSH1 0x40 PUSH1 0x0 KECCAK256 PUSH1 0x0 SWAP2 POP SWAP1 POP SLOAD DUP2 JUMP JUMPDEST PUSH1 0x1 DUP1 SLOAD PUSH2 0x8F5 SWAP1 PUSH2 0xE81 JUMP JUMPDEST DUP1 PUSH1 0x1F ADD PUSH1 0x20 DUP1 SWAP2 DIV MUL PUSH1 0x20 ADD PUSH1 0x40 MLOAD SWAP1 DUP2 ADD PUSH1 0x40 MSTORE DUP1 SWAP3 SWAP2 SWAP1 DUP2 DUP2 MSTORE PUSH1 0x20 ADD DUP3 DUP1 SLOAD PUSH2 0x921 SWAP1 PUSH2 0xE81 JUMP JUMPDEST DUP1 ISZERO PUSH2 0x96E JUMPI DUP1 PUSH1 0x1F LT PUSH2 0x943 JUMPI PUSH2 0x100 DUP1 DUP4 SLOAD DIV MUL DUP4 MSTORE SWAP2 PUSH1 0x20 ADD SWAP2 PUSH2 0x96E JUMP JUMPDEST DUP3 ADD SWAP2 SWAP1 PUSH1 0x0 MSTORE PUSH1 0x20 PUSH1 0x0 KECCAK256 SWAP1 JUMPDEST DUP2 SLOAD DUP2 MSTORE SWAP1 PUSH1 0x1 ADD SWAP1 PUSH1 0x20 ADD DUP1 DUP4 GT PUSH2 0x951 JUMPI DUP3 SWAP1 SUB PUSH1 0x1F AND DUP3 ADD SWAP2 JUMPDEST POP POP POP POP POP DUP2 JUMP JUMPDEST PUSH1 0x0 DUP2 PUSH1 0x4 PUSH1 0x0 CALLER PUSH20 0xFFFFFFFFFFFFFFFFFFFFFFFFFFFFFFFFFFFFFFFF AND PUSH20 0xFFFFFFFFFFFFFFFFFFFFFFFFFFFFFFFFFFFFFFFF AND DUP2 MSTORE PUSH1 0x20 ADD SWAP1 DUP2 MSTORE PUSH1 0x20 ADD PUSH1 0x0 KECCAK256 SLOAD LT ISZERO PUSH2 0x9C4 JUMPI PUSH1 0x0 DUP1 REVERT JUMPDEST PUSH2 0x9CF CALLER DUP5 DUP5 PUSH2 0x70A JUMP JUMPDEST PUSH1 0x1 SWAP1 POP SWAP3 SWAP2 POP POP JUMP JUMPDEST PUSH1 0x0 DUP1 PUSH20 0xFFFFFFFFFFFFFFFFFFFFFFFFFFFFFFFFFFFFFFFF AND DUP5 PUSH20 0xFFFFFFFFFFFFFFFFFFFFFFFFFFFFFFFFFFFFFFFF AND EQ ISZERO PUSH2 0xA14 JUMPI PUSH1 0x0 DUP1 REVERT JUMPDEST DUP3 PUSH1 0x5 PUSH1 0x0 DUP5 PUSH20 0xFFFFFFFFFFFFFFFFFFFFFFFFFFFFFFFFFFFFFFFF AND PUSH20 0xFFFFFFFFFFFFFFFFFFFFFFFFFFFFFFFFFFFFFFFF AND DUP2 MSTORE PUSH1 0x20 ADD SWAP1 DUP2 MSTORE PUSH1 0x20 ADD PUSH1 0x0 KECCAK256 PUSH1 0x0 DUP7 PUSH20 0xFFFFFFFFFFFFFFFFFFFFFFFFFFFFFFFFFFFFFFFF AND PUSH20 0xFFFFFFFFFFFFFFFFFFFFFFFFFFFFFFFFFFFFFFFF AND DUP2 MSTORE PUSH1 0x20 ADD SWAP1 DUP2 MSTORE PUSH1 0x20 ADD PUSH1 0x0 KECCAK256 DUP2 SWAP1 SSTORE POP DUP4 PUSH20 0xFFFFFFFFFFFFFFFFFFFFFFFFFFFFFFFFFFFFFFFF AND DUP3 PUSH20 0xFFFFFFFFFFFFFFFFFFFFFFFFFFFFFFFFFFFFFFFF AND PUSH32 0x8C5BE1E5EBEC7D5BD14F71427D1E84F3DD0314C0F7B2291E5B200AC8C7C3B925 DUP6 PUSH1 0x40 MLOAD PUSH2 0xAF2 SWAP2 SWAP1 PUSH2 0xD45 JUMP JUMPDEST PUSH1 0x40 MLOAD DUP1 SWAP2 SUB SWAP1 LOG3 PUSH1 0x1 SWAP1 POP SWAP4 SWAP3 POP POP POP JUMP JUMPDEST PUSH1 0x0 PUSH1 0x3 SLOAD SWAP1 POP SWAP1 JUMP JUMPDEST PUSH1 0x5 PUSH1 0x20 MSTORE DUP2 PUSH1 0x0 MSTORE PUSH1 0x40 PUSH1 0x0 KECCAK256 PUSH1 0x20 MSTORE DUP1 PUSH1 0x0 MSTORE PUSH1 0x40 PUSH1 0x0 KECCAK256 PUSH1 0x0 SWAP2 POP SWAP2 POP POP SLOAD DUP2 JUMP JUMPDEST PUSH1 0x0 DUP2 CALLDATALOAD SWAP1 POP PUSH2 0xB43 DUP2 PUSH2 0xF27 JUMP JUMPDEST SWAP3 SWAP2 POP POP JUMP JUMPDEST PUSH1 0x0 DUP2 CALLDATALOAD SWAP1 POP PUSH2 0xB58 DUP2 PUSH2 0xF3E JUMP JUMPDEST SWAP3 SWAP2 POP POP JUMP JUMPDEST PUSH1 0x0 PUSH1 0x20 DUP3 DUP5 SUB SLT ISZERO PUSH2 0xB74 JUMPI PUSH2 0xB73 PUSH2 0xF11 JUMP JUMPDEST JUMPDEST PUSH1 0x0 PUSH2 0xB82 DUP5 DUP3 DUP6 ADD PUSH2 0xB34 JUMP JUMPDEST SWAP2 POP POP SWAP3 SWAP2 POP POP JUMP JUMPDEST PUSH1 0x0 DUP1 PUSH1 0x40 DUP4 DUP6 SUB SLT ISZERO PUSH2 0xBA2 JUMPI PUSH2 0xBA1 PUSH2 0xF11 JUMP JUMPDEST JUMPDEST PUSH1 0x0 PUSH2 0xBB0 DUP6 DUP3 DUP7 ADD PUSH2 0xB34 JUMP JUMPDEST SWAP3 POP POP PUSH1 0x20 PUSH2 0xBC1 DUP6 DUP3 DUP7 ADD PUSH2 0xB34 JUMP JUMPDEST SWAP2 POP POP SWAP3 POP SWAP3 SWAP1 POP JUMP JUMPDEST PUSH1 0x0 DUP1 PUSH1 0x0 PUSH1 0x60 DUP5 DUP7 SUB SLT ISZERO PUSH2 0xBE4 JUMPI PUSH2 0xBE3 PUSH2 0xF11 JUMP JUMPDEST JUMPDEST PUSH1 0x0 PUSH2 0xBF2 DUP7 DUP3 DUP8 ADD PUSH2 0xB34 JUMP JUMPDEST SWAP4 POP POP PUSH1 0x20 PUSH2 0xC03 DUP7 DUP3 DUP8 ADD PUSH2 0xB34 JUMP JUMPDEST SWAP3 POP POP PUSH1 0x40 PUSH2 0xC14 DUP7 DUP3 DUP8 ADD PUSH2 0xB49 JUMP JUMPDEST SWAP2 POP POP SWAP3 POP SWAP3 POP SWAP3 JUMP JUMPDEST PUSH1 0x0 DUP1 PUSH1 0x40 DUP4 DUP6 SUB SLT ISZERO PUSH2 0xC35 JUMPI PUSH2 0xC34 PUSH2 0xF11 JUMP JUMPDEST JUMPDEST PUSH1 0x0 PUSH2 0xC43 DUP6 DUP3 DUP7 ADD PUSH2 0xB34 JUMP JUMPDEST SWAP3 POP POP PUSH1 0x20 PUSH2 0xC54 DUP6 DUP3 DUP7 ADD PUSH2 0xB49 JUMP JUMPDEST SWAP2 POP POP SWAP3 POP SWAP3 SWAP1 POP JUMP JUMPDEST PUSH1 0x0 DUP1 PUSH1 0x0 PUSH1 0x60 DUP5 DUP7 SUB SLT ISZERO PUSH2 0xC77 JUMPI PUSH2 0xC76 PUSH2 0xF11 JUMP JUMPDEST JUMPDEST PUSH1 0x0 PUSH2 0xC85 DUP7 DUP3 DUP8 ADD PUSH2 0xB34 JUMP JUMPDEST SWAP4 POP POP PUSH1 0x20 PUSH2 0xC96 DUP7 DUP3 DUP8 ADD PUSH2 0xB49 JUMP JUMPDEST SWAP3 POP POP PUSH1 0x40 PUSH2 0xCA7 DUP7 DUP3 DUP8 ADD PUSH2 0xB34 JUMP JUMPDEST SWAP2 POP POP SWAP3 POP SWAP3 POP SWAP3 JUMP JUMPDEST PUSH2 0xCBA DUP2 PUSH2 0xE18 JUMP JUMPDEST DUP3 MSTORE POP POP JUMP JUMPDEST PUSH1 0x0 PUSH2 0xCCB DUP3 PUSH2 0xD60 JUMP JUMPDEST PUSH2 0xCD5 DUP2 DUP6 PUSH2 0xD6B JUMP JUMPDEST SWAP4 POP PUSH2 0xCE5 DUP2 DUP6 PUSH1 0x20 DUP7 ADD PUSH2 0xE4E JUMP JUMPDEST PUSH2 0xCEE DUP2 PUSH2 0xF16 JUMP JUMPDEST DUP5 ADD SWAP2 POP POP SWAP3 SWAP2 POP POP JUMP JUMPDEST PUSH2 0xD02 DUP2 PUSH2 0xE44 JUMP JUMPDEST DUP3 MSTORE POP POP JUMP JUMPDEST PUSH1 0x0 PUSH1 0x20 DUP3 ADD SWAP1 POP PUSH2 0xD1D PUSH1 0x0 DUP4 ADD DUP5 PUSH2 0xCB1 JUMP JUMPDEST SWAP3 SWAP2 POP POP JUMP JUMPDEST PUSH1 0x0 PUSH1 0x20 DUP3 ADD SWAP1 POP DUP2 DUP2 SUB PUSH1 0x0 DUP4 ADD MSTORE PUSH2 0xD3D DUP2 DUP5 PUSH2 0xCC0 JUMP JUMPDEST SWAP1 POP SWAP3 SWAP2 POP POP JUMP JUMPDEST PUSH1 0x0 PUSH1 0x20 DUP3 ADD SWAP1 POP PUSH2 0xD5A PUSH1 0x0 DUP4 ADD DUP5 PUSH2 0xCF9 JUMP JUMPDEST SWAP3 SWAP2 POP POP JUMP JUMPDEST PUSH1 0x0 DUP2 MLOAD SWAP1 POP SWAP2 SWAP1 POP JUMP JUMPDEST PUSH1 0x0 DUP3 DUP3 MSTORE PUSH1 0x20 DUP3 ADD SWAP1 POP SWAP3 SWAP2 POP POP JUMP JUMPDEST PUSH1 0x0 PUSH2 0xD87 DUP3 PUSH2 0xE44 JUMP JUMPDEST SWAP2 POP PUSH2 0xD92 DUP4 PUSH2 0xE44 JUMP JUMPDEST SWAP3 POP DUP3 PUSH32 0xFFFFFFFFFFFFFFFFFFFFFFFFFFFFFFFFFFFFFFFFFFFFFFFFFFFFFFFFFFFFFFFF SUB DUP3 GT ISZERO PUSH2 0xDC7 JUMPI PUSH2 0xDC6 PUSH2 0xEB3 JUMP JUMPDEST JUMPDEST DUP3 DUP3 ADD SWAP1 POP SWAP3 SWAP2 POP POP JUMP JUMPDEST PUSH1 0x0 PUSH2 0xDDD DUP3 PUSH2 0xE44 JUMP JUMPDEST SWAP2 POP PUSH2 0xDE8 DUP4 PUSH2 0xE44 JUMP JUMPDEST SWAP3 POP DUP3 DUP3 LT ISZERO PUSH2 0xDFB JUMPI PUSH2 0xDFA PUSH2 0xEB3 JUMP JUMPDEST JUMPDEST DUP3 DUP3 SUB SWAP1 POP SWAP3 SWAP2 POP POP JUMP JUMPDEST PUSH1 0x0 PUSH2 0xE11 DUP3 PUSH2 0xE24 JUMP JUMPDEST SWAP1 POP SWAP2 SWAP1 POP JUMP JUMPDEST PUSH1 0x0 DUP2 ISZERO ISZERO SWAP1 POP SWAP2 SWAP1 POP JUMP JUMPDEST PUSH1 0x0 PUSH20 0xFFFFFFFFFFFFFFFFFFFFFFFFFFFFFFFFFFFFFFFF DUP3 AND SWAP1 POP SWAP2 SWAP1 POP JUMP JUMPDEST PUSH1 0x0 DUP2 SWAP1 POP SWAP2 SWAP1 POP JUMP JUMPDEST PUSH1 0x0 JUMPDEST DUP4 DUP2 LT ISZERO PUSH2 0xE6C JUMPI DUP1 DUP3 ADD MLOAD DUP2 DUP5 ADD MSTORE PUSH1 0x20 DUP2 ADD SWAP1 POP PUSH2 0xE51 JUMP JUMPDEST DUP4 DUP2 GT ISZERO PUSH2 0xE7B JUMPI PUSH1 0x0 DUP5 DUP5 ADD MSTORE JUMPDEST POP POP POP POP JUMP JUMPDEST PUSH1 0x0 PUSH1 0x2 DUP3 DIV SWAP1 POP PUSH1 0x1 DUP3 AND DUP1 PUSH2 0xE99 JUMPI PUSH1 0x7F DUP3 AND SWAP2 POP JUMPDEST PUSH1 0x20 DUP3 LT DUP2 EQ ISZERO PUSH2 0xEAD JUMPI PUSH2 0xEAC PUSH2 0xEE2 JUMP JUMPDEST JUMPDEST POP SWAP2 SWAP1 POP JUMP JUMPDEST PUSH32 0x4E487B7100000000000000000000000000000000000000000000000000000000 PUSH1 0x0 MSTORE PUSH1 0x11 PUSH1 0x4 MSTORE PUSH1 0x24 PUSH1 0x0 REVERT JUMPDEST PUSH32 0x4E487B7100000000000000000000000000000000000000000000000000000000 PUSH1 0x0 MSTORE PUSH1 0x22 PUSH1 0x4 MSTORE PUSH1 0x24 PUSH1 0x0 REVERT JUMPDEST PUSH1 0x0 DUP1 REVERT JUMPDEST PUSH1 0x0 PUSH1 0x1F NOT PUSH1 0x1F DUP4 ADD AND SWAP1 POP SWAP2 SWAP1 POP JUMP JUMPDEST PUSH2 0xF30 DUP2 PUSH2 0xE06 JUMP JUMPDEST DUP2 EQ PUSH2 0xF3B JUMPI PUSH1 0x0 DUP1 REVERT JUMPDEST POP JUMP JUMPDEST PUSH2 0xF47 DUP2 PUSH2 0xE44 JUMP JUMPDEST DUP2 EQ PUSH2 0xF52 JUMPI PUSH1 0x0 DUP1 REVERT JUMPDEST POP JUMP INVALID LOG2 PUSH5 0x6970667358 0x22 SLT KECCAK256 JUMPI SGT DUP16 0x4C DUP1 0x2B SWAP15 0xC2 SWAP10 0xC SWAP4 DIFFICULTY CREATE2 0xEC JUMPI ADDRESS 0xC1 PUSH23 0x1C0F8F4F48B658947E3B7637E5164736F6C6343000806 STOP CALLER "
		},
		"gasEstimates": {
			"creation": {
				"codeDepositCost": "5722200",
				"executionCost": "infinite",
				"totalCost": "infinite"
			},
			"external": {
				"test_1(address,address,address,address)": "infinite",
				"test_name()": "infinite",
				"total_supply_A()": "2451",
				"total_supply_B()": "2473"
			}
		},
		"methodIdentifiers": {
			"test_1(address,address,address,address)": "0828cfd9",
			"test_name()": "2b687ef6",
			"total_supply_A()": "ac01cde2",
			"total_supply_B()": "f04d631e"
		}
	},
	"abi": [
		{
			"inputs": [
				{
					"internalType": "string",
					"name": "_name",
					"type": "string"
				},
				{
					"internalType": "uint256",
					"name": "_totalSupply_A",
					"type": "uint256"
				},
				{
					"internalType": "uint256",
					"name": "_totalSupply_B",
					"type": "uint256"
				}
			],
			"stateMutability": "nonpayable",
			"type": "constructor"
		},
		{
			"inputs": [
				{
					"internalType": "address",
					"name": "account1",
					"type": "address"
				},
				{
					"internalType": "address",
					"name": "account2",
					"type": "address"
				},
				{
					"internalType": "address",
					"name": "account3",
					"type": "address"
				},
				{
					"internalType": "address",
					"name": "account4",
					"type": "address"
				}
			],
			"name": "test_1",
			"outputs": [],
			"stateMutability": "nonpayable",
			"type": "function"
		},
		{
			"inputs": [],
			"name": "test_name",
			"outputs": [
				{
					"internalType": "string",
					"name": "",
					"type": "string"
				}
			],
			"stateMutability": "view",
			"type": "function"
		},
		{
			"inputs": [],
			"name": "total_supply_A",
			"outputs": [
				{
					"internalType": "uint256",
					"name": "",
					"type": "uint256"
				}
			],
			"stateMutability": "view",
			"type": "function"
		},
		{
			"inputs": [],
			"name": "total_supply_B",
			"outputs": [
				{
					"internalType": "uint256",
					"name": "",
					"type": "uint256"
				}
			],
			"stateMutability": "view",
			"type": "function"
		}
	]
}